{
  "contractName": "AdminInsurancePolicy",
  "abi": [
    {
      "inputs": [
        {
          "internalType": "address",
          "name": "_userAuthAddress",
          "type": "address"
        }
      ],
      "stateMutability": "nonpayable",
      "type": "constructor"
    },
    {
      "anonymous": false,
      "inputs": [
        {
          "indexed": false,
          "internalType": "uint256",
          "name": "policyId",
          "type": "uint256"
        }
      ],
      "name": "PolicyArchived",
      "type": "event"
    },
    {
      "anonymous": false,
      "inputs": [
        {
          "indexed": false,
          "internalType": "uint256",
          "name": "policyId",
          "type": "uint256"
        },
        {
          "indexed": false,
          "internalType": "string",
          "name": "name",
          "type": "string"
        },
        {
          "indexed": false,
          "internalType": "uint256",
          "name": "premium",
          "type": "uint256"
        },
        {
          "indexed": false,
          "internalType": "uint256",
          "name": "coverageAmount",
          "type": "uint256"
        },
        {
          "indexed": false,
          "internalType": "uint256",
          "name": "ageLimit",
          "type": "uint256"
        },
        {
          "indexed": false,
          "internalType": "bool",
          "name": "isActive",
          "type": "bool"
        }
      ],
      "name": "PolicyCreated",
      "type": "event"
    },
    {
      "anonymous": false,
      "inputs": [
        {
          "indexed": false,
          "internalType": "uint256",
          "name": "policyId",
          "type": "uint256"
        },
        {
          "indexed": false,
          "internalType": "string",
          "name": "name",
          "type": "string"
        },
        {
          "indexed": false,
          "internalType": "uint256",
          "name": "premium",
          "type": "uint256"
        },
        {
          "indexed": false,
          "internalType": "uint256",
          "name": "coverageAmount",
          "type": "uint256"
        },
        {
          "indexed": false,
          "internalType": "uint256",
          "name": "ageLimit",
          "type": "uint256"
        },
        {
          "indexed": false,
          "internalType": "bool",
          "name": "isActive",
          "type": "bool"
        }
      ],
      "name": "PolicyUpdated",
      "type": "event"
    },
    {
      "inputs": [],
      "name": "admin",
      "outputs": [
        {
          "internalType": "address",
          "name": "",
          "type": "address"
        }
      ],
      "stateMutability": "view",
      "type": "function",
      "constant": true
    },
    {
      "inputs": [
        {
          "internalType": "uint256",
          "name": "",
          "type": "uint256"
        }
      ],
      "name": "policies",
      "outputs": [
        {
          "internalType": "string",
          "name": "name",
          "type": "string"
        },
        {
          "internalType": "uint256",
          "name": "premium",
          "type": "uint256"
        },
        {
          "internalType": "uint256",
          "name": "coverageAmount",
          "type": "uint256"
        },
        {
          "internalType": "uint256",
          "name": "ageLimit",
          "type": "uint256"
        },
        {
          "internalType": "bool",
          "name": "isActive",
          "type": "bool"
        }
      ],
      "stateMutability": "view",
      "type": "function",
      "constant": true
    },
    {
      "inputs": [],
      "name": "policyCount",
      "outputs": [
        {
          "internalType": "uint256",
          "name": "",
          "type": "uint256"
        }
      ],
      "stateMutability": "view",
      "type": "function",
      "constant": true
    },
    {
      "inputs": [],
      "name": "userAuth",
      "outputs": [
        {
          "internalType": "contract UserAuth",
          "name": "",
          "type": "address"
        }
      ],
      "stateMutability": "view",
      "type": "function",
      "constant": true
    },
    {
      "inputs": [],
      "name": "userAuthContract",
      "outputs": [
        {
          "internalType": "contract UserAuth",
          "name": "",
          "type": "address"
        }
      ],
      "stateMutability": "view",
      "type": "function",
      "constant": true
    },
    {
      "inputs": [
        {
          "internalType": "string",
          "name": "_name",
          "type": "string"
        },
        {
          "internalType": "uint256",
          "name": "_premium",
          "type": "uint256"
        },
        {
          "internalType": "uint256",
          "name": "_coverageAmount",
          "type": "uint256"
        },
        {
          "internalType": "uint256",
          "name": "_ageLimit",
          "type": "uint256"
        },
        {
          "internalType": "bool",
          "name": "_isActive",
          "type": "bool"
        }
      ],
      "name": "createPolicy",
      "outputs": [],
      "stateMutability": "nonpayable",
      "type": "function"
    },
    {
      "inputs": [
        {
          "internalType": "uint256",
          "name": "_policyId",
          "type": "uint256"
        },
        {
          "internalType": "string",
          "name": "_name",
          "type": "string"
        },
        {
          "internalType": "uint256",
          "name": "_premium",
          "type": "uint256"
        },
        {
          "internalType": "uint256",
          "name": "_coverageAmount",
          "type": "uint256"
        },
        {
          "internalType": "uint256",
          "name": "_ageLimit",
          "type": "uint256"
        },
        {
          "internalType": "bool",
          "name": "_isActive",
          "type": "bool"
        }
      ],
      "name": "updatePolicy",
      "outputs": [],
      "stateMutability": "nonpayable",
      "type": "function"
    },
    {
      "inputs": [
        {
          "internalType": "uint256",
          "name": "_policyId",
          "type": "uint256"
        }
      ],
      "name": "getPolicy",
      "outputs": [
        {
          "internalType": "string",
          "name": "",
          "type": "string"
        },
        {
          "internalType": "uint256",
          "name": "",
          "type": "uint256"
        },
        {
          "internalType": "uint256",
          "name": "",
          "type": "uint256"
        },
        {
          "internalType": "uint256",
          "name": "",
          "type": "uint256"
        },
        {
          "internalType": "bool",
          "name": "",
          "type": "bool"
        }
      ],
      "stateMutability": "view",
      "type": "function",
      "constant": true
    },
    {
      "inputs": [],
      "name": "getAllActivePolicies",
      "outputs": [
        {
          "internalType": "uint256[]",
          "name": "",
          "type": "uint256[]"
        }
      ],
      "stateMutability": "view",
      "type": "function",
      "constant": true
    },
    {
      "inputs": [],
      "name": "getAllArchivedPolicies",
      "outputs": [
        {
          "internalType": "uint256[]",
          "name": "",
          "type": "uint256[]"
        }
      ],
      "stateMutability": "view",
      "type": "function",
      "constant": true
    }
  ],
  "bytecode": "0x60806040523480156200001157600080fd5b5060405162001929380380620019298339818101604052810190620000379190620000d6565b33600160006101000a81548173ffffffffffffffffffffffffffffffffffffffff021916908373ffffffffffffffffffffffffffffffffffffffff160217905550806000806101000a81548173ffffffffffffffffffffffffffffffffffffffff021916908373ffffffffffffffffffffffffffffffffffffffff1602179055505062000150565b600081519050620000d08162000136565b92915050565b600060208284031215620000e957600080fd5b6000620000f984828501620000bf565b91505092915050565b60006200010f8262000116565b9050919050565b600073ffffffffffffffffffffffffffffffffffffffff82169050919050565b620001418162000102565b81146200014d57600080fd5b50565b6117c980620001606000396000f3fe608060405234801561001057600080fd5b506004361061009e5760003560e01c8063cdc2cde511610066578063cdc2cde51461014d578063d3e894831461016b578063dbf855841461019f578063de54d429146101bb578063f851a440146101d95761009e565b8063010aff09146100a35780632b07fce3146100c157806338fb9efc146100f5578063a5407a4414610111578063b0dec9f71461012f575b600080fd5b6100ab6101f7565b6040516100b891906112f7565b60405180910390f35b6100db60048036038101906100d69190610f4c565b610373565b6040516100ec959493929190611334565b60405180910390f35b61010f600480360381019061010a9190610ebd565b610457565b005b61011961076e565b6040516101269190611319565b60405180910390f35b610137610792565b60405161014491906112f7565b60405180910390f35b610155610910565b6040516101629190611319565b60405180910390f35b61018560048036038101906101809190610f4c565b610936565b604051610196959493929190611334565b60405180910390f35b6101b960048036038101906101b49190610f75565b610a01565b005b6101c3610d1e565b6040516101d0919061144e565b60405180910390f35b6101e1610d24565b6040516101ee91906112dc565b60405180910390f35b6060600080600190505b6003548111610254576002600082815260200190815260200160002060040160009054906101000a900460ff1661024157818061023d90611667565b9250505b808061024c90611667565b915050610201565b5060008167ffffffffffffffff811115610297577f4e487b7100000000000000000000000000000000000000000000000000000000600052604160045260246000fd5b6040519080825280602002602001820160405280156102c55781602001602082028036833780820191505090505b509050600080600190505b6003548111610369576002600082815260200190815260200160002060040160009054906101000a900460ff16610356578083838151811061033b577f4e487b7100000000000000000000000000000000000000000000000000000000600052603260045260246000fd5b602002602001018181525050818061035290611667565b9250505b808061036190611667565b9150506102d0565b5081935050505090565b60606000806000806000600260008881526020019081526020016000209050806000018160010154826002015483600301548460040160009054906101000a900460ff168480546103c390611635565b80601f01602080910402602001604051908101604052809291908181526020018280546103ef90611635565b801561043c5780601f106104115761010080835404028352916020019161043c565b820191906000526020600020905b81548152906001019060200180831161041f57829003601f168201915b50505050509450955095509550955095505091939590929450565b60008054906101000a900473ffffffffffffffffffffffffffffffffffffffff1673ffffffffffffffffffffffffffffffffffffffff1663643d430c6040518163ffffffff1660e01b815260040160206040518083038186803b1580156104bd57600080fd5b505afa1580156104d1573d6000803e3d6000fd5b505050506040513d601f19601f820116820180604052508101906104f59190610e94565b73ffffffffffffffffffffffffffffffffffffffff163373ffffffffffffffffffffffffffffffffffffffff1614610562576040517f08c379a00000000000000000000000000000000000000000000000000000000081526004016105599061138e565b60405180910390fd5b60008551116105a6576040517f08c379a000000000000000000000000000000000000000000000000000000000815260040161059d906113ae565b60405180910390fd5b600084116105e9576040517f08c379a00000000000000000000000000000000000000000000000000000000081526004016105e0906113ce565b60405180910390fd5b6000831161062c576040517f08c379a0000000000000000000000000000000000000000000000000000000008152600401610623906113ee565b60405180910390fd5b6000821015610670576040517f08c379a00000000000000000000000000000000000000000000000000000000081526004016106679061142e565b60405180910390fd5b6003600081548092919061068390611667565b91905055506040518060a0016040528086815260200185815260200184815260200183815260200182151581525060026000600354815260200190815260200160002060008201518160000190805190602001906106e2929190610d4a565b5060208201518160010155604082015181600201556060820151816003015560808201518160040160006101000a81548160ff0219169083151502179055509050507fe9aeb04de0b3c96c58e0372bbd072b0fa5e59f252ac40672e2e0bd5fc7dc5257600354868686868660405161075f96959493929190611469565b60405180910390a15050505050565b60008054906101000a900473ffffffffffffffffffffffffffffffffffffffff1681565b6060600080600190505b60035481116107f0576002600082815260200190815260200160002060040160009054906101000a900460ff16156107dd5781806107d990611667565b9250505b80806107e890611667565b91505061079c565b5060008167ffffffffffffffff811115610833577f4e487b7100000000000000000000000000000000000000000000000000000000600052604160045260246000fd5b6040519080825280602002602001820160405280156108615781602001602082028036833780820191505090505b509050600080600190505b6003548111610906576002600082815260200190815260200160002060040160009054906101000a900460ff16156108f357808383815181106108d8577f4e487b7100000000000000000000000000000000000000000000000000000000600052603260045260246000fd5b60200260200101818152505081806108ef90611667565b9250505b80806108fe90611667565b91505061086c565b5081935050505090565b600460009054906101000a900473ffffffffffffffffffffffffffffffffffffffff1681565b600260205280600052604060002060009150905080600001805461095990611635565b80601f016020809104026020016040519081016040528092919081815260200182805461098590611635565b80156109d25780601f106109a7576101008083540402835291602001916109d2565b820191906000526020600020905b8154815290600101906020018083116109b557829003601f168201915b5050505050908060010154908060020154908060030154908060040160009054906101000a900460ff16905085565b60008054906101000a900473ffffffffffffffffffffffffffffffffffffffff1673ffffffffffffffffffffffffffffffffffffffff1663643d430c6040518163ffffffff1660e01b815260040160206040518083038186803b158015610a6757600080fd5b505afa158015610a7b573d6000803e3d6000fd5b505050506040513d601f19601f82011682018060405250810190610a9f9190610e94565b73ffffffffffffffffffffffffffffffffffffffff163373ffffffffffffffffffffffffffffffffffffffff1614610b0c576040517f08c379a0000000000000000000000000000000000000000000000000000000008152600401610b039061138e565b60405180910390fd5b8560008110158015610b1f575060035481105b610b5e576040517f08c379a0000000000000000000000000000000000000000000000000000000008152600401610b559061140e565b60405180910390fd5b6000865111610ba2576040517f08c379a0000000000000000000000000000000000000000000000000000000008152600401610b99906113ae565b60405180910390fd5b60008511610be5576040517f08c379a0000000000000000000000000000000000000000000000000000000008152600401610bdc906113ce565b60405180910390fd5b60008411610c28576040517f08c379a0000000000000000000000000000000000000000000000000000000008152600401610c1f906113ee565b60405180910390fd5b6000831015610c6c576040517f08c379a0000000000000000000000000000000000000000000000000000000008152600401610c639061142e565b60405180910390fd5b600060026000898152602001908152602001600020905086816000019080519060200190610c9b929190610d4a565b50858160010181905550848160020181905550838160030181905550828160040160006101000a81548160ff0219169083151502179055507f0edf5ff2630c1eb52489be01cf42ffdede3993307cc2c0d2d47170c0ce24b9bc888888888888604051610d0c96959493929190611469565b60405180910390a15050505050505050565b60035481565b600160009054906101000a900473ffffffffffffffffffffffffffffffffffffffff1681565b828054610d5690611635565b90600052602060002090601f016020900481019282610d785760008555610dbf565b82601f10610d9157805160ff1916838001178555610dbf565b82800160010185558215610dbf579182015b82811115610dbe578251825591602001919060010190610da3565b5b509050610dcc9190610dd0565b5090565b5b80821115610de9576000816000905550600101610dd1565b5090565b6000610e00610dfb84611502565b6114d1565b905082815260208101848484011115610e1857600080fd5b610e238482856115f3565b509392505050565b600081519050610e3a8161174e565b92915050565b600081359050610e4f81611765565b92915050565b600082601f830112610e6657600080fd5b8135610e76848260208601610ded565b91505092915050565b600081359050610e8e8161177c565b92915050565b600060208284031215610ea657600080fd5b6000610eb484828501610e2b565b91505092915050565b600080600080600060a08688031215610ed557600080fd5b600086013567ffffffffffffffff811115610eef57600080fd5b610efb88828901610e55565b9550506020610f0c88828901610e7f565b9450506040610f1d88828901610e7f565b9350506060610f2e88828901610e7f565b9250506080610f3f88828901610e40565b9150509295509295909350565b600060208284031215610f5e57600080fd5b6000610f6c84828501610e7f565b91505092915050565b60008060008060008060c08789031215610f8e57600080fd5b6000610f9c89828a01610e7f565b965050602087013567ffffffffffffffff811115610fb957600080fd5b610fc589828a01610e55565b9550506040610fd689828a01610e7f565b9450506060610fe789828a01610e7f565b9350506080610ff889828a01610e7f565b92505060a061100989828a01610e40565b9150509295509295509295565b600061102283836112be565b60208301905092915050565b61103781611587565b82525050565b600061104882611542565b6110528185611565565b935061105d83611532565b8060005b8381101561108e5781516110758882611016565b975061108083611558565b925050600181019050611061565b5085935050505092915050565b6110a481611599565b82525050565b6110b3816115cf565b82525050565b60006110c48261154d565b6110ce8185611576565b93506110de818560208601611602565b6110e78161173d565b840191505092915050565b60006110ff603a83611576565b91507f4d6574616d61736b206163636f756e7420616e6420616464726573732075736560008301527f6420746f207369676e20696e20646f206e6f74206d617463682e0000000000006020830152604082019050919050565b6000611165601783611576565b91507f506f6c696379206e616d652069732072657175697265640000000000000000006000830152602082019050919050565b60006111a5601e83611576565b91507f5072656d69756d206d7573742062652067726561746572207468616e203000006000830152602082019050919050565b60006111e5602683611576565b91507f436f76657261676520616d6f756e74206d75737420626520677265617465722060008301527f7468616e203000000000000000000000000000000000000000000000000000006020830152604082019050919050565b600061124b601183611576565b91507f496e76616c696420706f6c6963792049440000000000000000000000000000006000830152602082019050919050565b600061128b601a83611576565b91507f416765206c696d6974206d75737420626520706f7369746976650000000000006000830152602082019050919050565b6112c7816115c5565b82525050565b6112d6816115c5565b82525050565b60006020820190506112f1600083018461102e565b92915050565b60006020820190508181036000830152611311818461103d565b905092915050565b600060208201905061132e60008301846110aa565b92915050565b600060a082019050818103600083015261134e81886110b9565b905061135d60208301876112cd565b61136a60408301866112cd565b61137760608301856112cd565b611384608083018461109b565b9695505050505050565b600060208201905081810360008301526113a7816110f2565b9050919050565b600060208201905081810360008301526113c781611158565b9050919050565b600060208201905081810360008301526113e781611198565b9050919050565b60006020820190508181036000830152611407816111d8565b9050919050565b600060208201905081810360008301526114278161123e565b9050919050565b600060208201905081810360008301526114478161127e565b9050919050565b600060208201905061146360008301846112cd565b92915050565b600060c08201905061147e60008301896112cd565b818103602083015261149081886110b9565b905061149f60408301876112cd565b6114ac60608301866112cd565b6114b960808301856112cd565b6114c660a083018461109b565b979650505050505050565b6000604051905081810181811067ffffffffffffffff821117156114f8576114f761170e565b5b8060405250919050565b600067ffffffffffffffff82111561151d5761151c61170e565b5b601f19601f8301169050602081019050919050565b6000819050602082019050919050565b600081519050919050565b600081519050919050565b6000602082019050919050565b600082825260208201905092915050565b600082825260208201905092915050565b6000611592826115a5565b9050919050565b60008115159050919050565b600073ffffffffffffffffffffffffffffffffffffffff82169050919050565b6000819050919050565b60006115da826115e1565b9050919050565b60006115ec826115a5565b9050919050565b82818337600083830152505050565b60005b83811015611620578082015181840152602081019050611605565b8381111561162f576000848401525b50505050565b6000600282049050600182168061164d57607f821691505b60208210811415611661576116606116df565b5b50919050565b6000611672826115c5565b91507fffffffffffffffffffffffffffffffffffffffffffffffffffffffffffffffff8214156116a5576116a46116b0565b5b600182019050919050565b7f4e487b7100000000000000000000000000000000000000000000000000000000600052601160045260246000fd5b7f4e487b7100000000000000000000000000000000000000000000000000000000600052602260045260246000fd5b7f4e487b7100000000000000000000000000000000000000000000000000000000600052604160045260246000fd5b6000601f19601f8301169050919050565b61175781611587565b811461176257600080fd5b50565b61176e81611599565b811461177957600080fd5b50565b611785816115c5565b811461179057600080fd5b5056fea26469706673582212207f69cb2b64e1e0da83b6871d18be97165f62cee85e68d6d70d74c5e716a6c63364736f6c63430008000033",
  "immutableReferences": {},
  "source": "// SPDX-License-Identifier: MIT\r\npragma solidity ^0.8.0;\r\n\r\nimport \"./UserAuth.sol\";\r\n\r\ncontract AdminInsurancePolicy {\r\n    UserAuth public userAuthContract;\r\n\r\n    struct Policy {\r\n        string name;\r\n        uint256 premium;\r\n        uint256 coverageAmount;\r\n        uint256 ageLimit;\r\n        bool isActive;\r\n    }\r\n\r\n    //address public admin;\r\n    address public admin;\r\n    mapping(uint256 => Policy) public policies;\r\n    uint256 public policyCount;\r\n    UserAuth public userAuth; // Instance of UserAuth contract\r\n\r\n    // Events\r\n    event PolicyCreated(\r\n        uint256 policyId,\r\n        string name,\r\n        uint256 premium,\r\n        uint256 coverageAmount,\r\n        uint256 ageLimit,\r\n        bool isActive\r\n    );\r\n    event PolicyUpdated(\r\n        uint256 policyId,\r\n        string name,\r\n        uint256 premium,\r\n        uint256 coverageAmount,\r\n        uint256 ageLimit,\r\n        bool isActive\r\n    );\r\n    event PolicyArchived(uint256 policyId);\r\n    \r\n    modifier sameAdmin() {\r\n        require(\r\n            msg.sender == userAuthContract.getCurrentAdmin(),\r\n            \"Metamask account and address used to sign in do not match.\"\r\n        );\r\n        _;\r\n    }\r\n\r\n    // Modifier to check if a policy exists\r\n    modifier policyExists(uint256 _policyId) {\r\n        require(_policyId >= 0 && _policyId < policyCount, \"Invalid policy ID\");\r\n        _;\r\n    }\r\n\r\n    // Modifier to check if a policy is active\r\n    modifier policyIsActive(uint256 _policyId) {\r\n        require(policies[_policyId].isActive, \"Policy is already archived\");\r\n        _;\r\n    }\r\n\r\n    // Constructor to initialize the contract's admin\r\n    constructor(address _userAuthAddress) {\r\n        admin = msg.sender; // Initially, the deployer is the admin\r\n        userAuthContract = UserAuth(_userAuthAddress);\r\n    }\r\n    \r\n\r\n    // Function to create a new policy with input validation\r\n    function createPolicy (\r\n        string memory _name,\r\n        uint256 _premium,\r\n        uint256 _coverageAmount,\r\n        uint256 _ageLimit,\r\n        bool _isActive\r\n    ) public sameAdmin {\r\n        require(bytes(_name).length > 0, \"Policy name is required\");\r\n        require(_premium > 0, \"Premium must be greater than 0\");\r\n        require(_coverageAmount > 0, \"Coverage amount must be greater than 0\");\r\n        require(_ageLimit >= 0, \"Age limit must be positive\");\r\n\r\n        policyCount++;\r\n        policies[policyCount] = Policy(_name, _premium, _coverageAmount, _ageLimit, _isActive);\r\n        emit PolicyCreated(policyCount, _name, _premium, _coverageAmount, _ageLimit, _isActive);\r\n    }\r\n\r\n    // Function to update an existing policy's details with validation\r\n    function updatePolicy(\r\n        uint256 _policyId,\r\n        string memory _name,\r\n        uint256 _premium,\r\n        uint256 _coverageAmount,\r\n        uint256 _ageLimit,\r\n        bool _isActive\r\n    ) public sameAdmin policyExists(_policyId) {\r\n        require(bytes(_name).length > 0, \"Policy name is required\");\r\n        require(_premium > 0, \"Premium must be greater than 0\");\r\n        require(_coverageAmount > 0, \"Coverage amount must be greater than 0\");\r\n        require(_ageLimit >= 0, \"Age limit must be positive\");\r\n\r\n        Policy storage policy = policies[_policyId];\r\n        policy.name = _name;\r\n        policy.premium = _premium;\r\n        policy.coverageAmount = _coverageAmount;\r\n        policy.ageLimit = _ageLimit;\r\n        policy.isActive = _isActive;\r\n\r\n        emit PolicyUpdated(_policyId, _name, _premium, _coverageAmount, _ageLimit, _isActive);\r\n    }\r\n\r\n    // Function to fetch a policy by its ID\r\n    function getPolicy(uint256 _policyId)\r\n        public\r\n        view\r\n        returns (string memory, uint256, uint256, uint256, bool)\r\n    {\r\n        Policy storage policy = policies[_policyId];\r\n        return (policy.name, policy.premium, policy.coverageAmount, policy.ageLimit, policy.isActive);\r\n    }\r\n\r\n    // New function to fetch all active policies\r\n    function getAllActivePolicies() public view returns (uint256[] memory) {\r\n        uint256 activeCount = 0;\r\n        for (uint256 i = 1; i <= policyCount; i++) {\r\n            if (policies[i].isActive) {\r\n                activeCount++;\r\n            }\r\n        }\r\n\r\n        uint256[] memory activePolicyIds = new uint256[](activeCount);\r\n        uint256 index = 0;\r\n        for (uint256 i = 1; i <= policyCount; i++) {\r\n            if (policies[i].isActive) {\r\n                activePolicyIds[index] = i;\r\n                index++;\r\n            }\r\n        }\r\n        return activePolicyIds;\r\n    }\r\n\r\n     // New function to fetch all archived policies (inactive)\r\n    function getAllArchivedPolicies() public view returns (uint256[] memory) {\r\n        uint256 archivedCount = 0;\r\n        for (uint256 i = 1; i <= policyCount; i++) {\r\n            if (!policies[i].isActive) {\r\n                archivedCount++;\r\n            }\r\n        }\r\n\r\n        uint256[] memory archivedPolicyIds = new uint256[](archivedCount);\r\n        uint256 index = 0;\r\n        for (uint256 i = 1; i <= policyCount; i++) {\r\n            if (!policies[i].isActive) {\r\n                archivedPolicyIds[index] = i;\r\n                index++;\r\n            }\r\n        }\r\n        return archivedPolicyIds;\r\n    }\r\n}",
  "sourcePath": "C:\\Users\\keeke\\Desktop\\BlockChain\\Great_Global\\Danny_Test\\SponsorAnimals\\contracts\\AdminInsurancePolicy.sol",
  "compiler": {
    "name": "solc",
    "version": "0.8.0+commit.c7dfd78e.Emscripten.clang"
  },
  "schemaVersion": "3.4.16",
  "updatedAt": "2024-09-25T22:34:08.836Z",
  "networkType": "ethereum",
  "devdoc": {
    "kind": "dev",
    "methods": {},
    "version": 1
  },
  "userdoc": {
    "kind": "user",
    "methods": {},
    "version": 1
  }
}