{
  "contractName": "AdminInsurancePolicy",
  "abi": [
    {
      "inputs": [],
      "stateMutability": "nonpayable",
      "type": "constructor"
    },
    {
      "anonymous": false,
      "inputs": [
        {
          "indexed": false,
          "internalType": "uint256",
          "name": "policyId",
          "type": "uint256"
        },
        {
          "indexed": false,
          "internalType": "string",
          "name": "name",
          "type": "string"
        },
        {
          "indexed": false,
          "internalType": "uint256",
          "name": "premium",
          "type": "uint256"
        },
        {
          "indexed": false,
          "internalType": "uint256",
          "name": "coverageAmount",
          "type": "uint256"
        },
        {
          "indexed": false,
          "internalType": "uint256",
          "name": "ageLimit",
          "type": "uint256"
        },
        {
          "indexed": false,
          "internalType": "bool",
          "name": "isActive",
          "type": "bool"
        }
      ],
      "name": "PolicyCreated",
      "type": "event"
    },
    {
      "anonymous": false,
      "inputs": [
        {
          "indexed": false,
          "internalType": "uint256",
          "name": "policyId",
          "type": "uint256"
        },
        {
          "indexed": false,
          "internalType": "string",
          "name": "name",
          "type": "string"
        },
        {
          "indexed": false,
          "internalType": "uint256",
          "name": "premium",
          "type": "uint256"
        },
        {
          "indexed": false,
          "internalType": "uint256",
          "name": "coverageAmount",
          "type": "uint256"
        },
        {
          "indexed": false,
          "internalType": "uint256",
          "name": "ageLimit",
          "type": "uint256"
        },
        {
          "indexed": false,
          "internalType": "bool",
          "name": "isActive",
          "type": "bool"
        }
      ],
      "name": "PolicyUpdated",
      "type": "event"
    },
    {
      "inputs": [],
      "name": "admin",
      "outputs": [
        {
          "internalType": "address",
          "name": "",
          "type": "address"
        }
      ],
      "stateMutability": "view",
      "type": "function"
    },
    {
      "inputs": [
        {
          "internalType": "uint256",
          "name": "",
          "type": "uint256"
        }
      ],
      "name": "policies",
      "outputs": [
        {
          "internalType": "string",
          "name": "name",
          "type": "string"
        },
        {
          "internalType": "uint256",
          "name": "premium",
          "type": "uint256"
        },
        {
          "internalType": "uint256",
          "name": "coverageAmount",
          "type": "uint256"
        },
        {
          "internalType": "uint256",
          "name": "ageLimit",
          "type": "uint256"
        },
        {
          "internalType": "bool",
          "name": "isActive",
          "type": "bool"
        }
      ],
      "stateMutability": "view",
      "type": "function"
    },
    {
      "inputs": [],
      "name": "policyCount",
      "outputs": [
        {
          "internalType": "uint256",
          "name": "",
          "type": "uint256"
        }
      ],
      "stateMutability": "view",
      "type": "function"
    },
    {
      "inputs": [
        {
          "internalType": "string",
          "name": "_name",
          "type": "string"
        },
        {
          "internalType": "uint256",
          "name": "_premium",
          "type": "uint256"
        },
        {
          "internalType": "uint256",
          "name": "_coverageAmount",
          "type": "uint256"
        },
        {
          "internalType": "uint256",
          "name": "_ageLimit",
          "type": "uint256"
        },
        {
          "internalType": "bool",
          "name": "_isActive",
          "type": "bool"
        }
      ],
      "name": "createPolicy",
      "outputs": [],
      "stateMutability": "nonpayable",
      "type": "function"
    },
    {
      "inputs": [
        {
          "internalType": "uint256",
          "name": "_policyId",
          "type": "uint256"
        },
        {
          "internalType": "string",
          "name": "_name",
          "type": "string"
        },
        {
          "internalType": "uint256",
          "name": "_premium",
          "type": "uint256"
        },
        {
          "internalType": "uint256",
          "name": "_coverageAmount",
          "type": "uint256"
        },
        {
          "internalType": "uint256",
          "name": "_ageLimit",
          "type": "uint256"
        },
        {
          "internalType": "bool",
          "name": "_isActive",
          "type": "bool"
        }
      ],
      "name": "updatePolicy",
      "outputs": [],
      "stateMutability": "nonpayable",
      "type": "function"
    },
    {
      "inputs": [
        {
          "internalType": "uint256",
          "name": "_policyId",
          "type": "uint256"
        }
      ],
      "name": "getPolicy",
      "outputs": [
        {
          "internalType": "string",
          "name": "",
          "type": "string"
        },
        {
          "internalType": "uint256",
          "name": "",
          "type": "uint256"
        },
        {
          "internalType": "uint256",
          "name": "",
          "type": "uint256"
        },
        {
          "internalType": "uint256",
          "name": "",
          "type": "uint256"
        },
        {
          "internalType": "bool",
          "name": "",
          "type": "bool"
        }
      ],
      "stateMutability": "view",
      "type": "function"
    },
    {
      "inputs": [],
      "name": "getAllActivePolicies",
      "outputs": [
        {
          "internalType": "uint256[]",
          "name": "",
          "type": "uint256[]"
        }
      ],
      "stateMutability": "view",
      "type": "function"
    },
    {
      "inputs": [],
      "name": "getAllArchivedPolicies",
      "outputs": [
        {
          "internalType": "uint256[]",
          "name": "",
          "type": "uint256[]"
        }
      ],
      "stateMutability": "view",
      "type": "function"
    }
  ],
  "bytecode": "0x608060405234801561001057600080fd5b50336000806101000a81548173ffffffffffffffffffffffffffffffffffffffff021916908373ffffffffffffffffffffffffffffffffffffffff16021790555061147e806100606000396000f3fe608060405234801561001057600080fd5b50600436106100885760003560e01c8063d3e894831161005b578063d3e8948314610119578063dbf855841461014d578063de54d42914610169578063f851a4401461018757610088565b8063010aff091461008d5780632b07fce3146100ab57806338fb9efc146100df578063b0dec9f7146100fb575b600080fd5b6100956101a5565b6040516100a29190611002565b60405180910390f35b6100c560048036038101906100c09190610c66565b610321565b6040516100d6959493929190611024565b60405180910390f35b6100f960048036038101906100f49190610bd7565b610405565b005b61010361069f565b6040516101109190611002565b60405180910390f35b610133600480360381019061012e9190610c66565b61081d565b604051610144959493929190611024565b60405180910390f35b61016760048036038101906101629190610c8f565b6108e8565b005b610171610a78565b60405161017e919061113e565b60405180910390f35b61018f610a7e565b60405161019c9190610fe7565b60405180910390f35b6060600080600190505b6002548111610202576001600082815260200190815260200160002060040160009054906101000a900460ff166101ef5781806101eb90611333565b9250505b80806101fa90611333565b9150506101af565b5060008167ffffffffffffffff811115610245577f4e487b7100000000000000000000000000000000000000000000000000000000600052604160045260246000fd5b6040519080825280602002602001820160405280156102735781602001602082028036833780820191505090505b509050600080600190505b6002548111610317576001600082815260200190815260200160002060040160009054906101000a900460ff1661030457808383815181106102e9577f4e487b7100000000000000000000000000000000000000000000000000000000600052603260045260246000fd5b602002602001018181525050818061030090611333565b9250505b808061030f90611333565b91505061027e565b5081935050505090565b60606000806000806000600160008881526020019081526020016000209050806000018160010154826002015483600301548460040160009054906101000a900460ff1684805461037190611301565b80601f016020809104026020016040519081016040528092919081815260200182805461039d90611301565b80156103ea5780601f106103bf576101008083540402835291602001916103ea565b820191906000526020600020905b8154815290600101906020018083116103cd57829003601f168201915b50505050509450955095509550955095505091939590929450565b60008054906101000a900473ffffffffffffffffffffffffffffffffffffffff1673ffffffffffffffffffffffffffffffffffffffff163373ffffffffffffffffffffffffffffffffffffffff1614610493576040517f08c379a000000000000000000000000000000000000000000000000000000000815260040161048a906110fe565b60405180910390fd5b60008551116104d7576040517f08c379a00000000000000000000000000000000000000000000000000000000081526004016104ce9061107e565b60405180910390fd5b6000841161051a576040517f08c379a00000000000000000000000000000000000000000000000000000000081526004016105119061109e565b60405180910390fd5b6000831161055d576040517f08c379a0000000000000000000000000000000000000000000000000000000008152600401610554906110de565b60405180910390fd5b60008210156105a1576040517f08c379a00000000000000000000000000000000000000000000000000000000081526004016105989061111e565b60405180910390fd5b600260008154809291906105b490611333565b91905055506040518060a001604052808681526020018581526020018481526020018381526020018215158152506001600060025481526020019081526020016000206000820151816000019080519060200190610613929190610aa2565b5060208201518160010155604082015181600201556060820151816003015560808201518160040160006101000a81548160ff0219169083151502179055509050507fe9aeb04de0b3c96c58e0372bbd072b0fa5e59f252ac40672e2e0bd5fc7dc5257600254868686868660405161069096959493929190611159565b60405180910390a15050505050565b6060600080600190505b60025481116106fd576001600082815260200190815260200160002060040160009054906101000a900460ff16156106ea5781806106e690611333565b9250505b80806106f590611333565b9150506106a9565b5060008167ffffffffffffffff811115610740577f4e487b7100000000000000000000000000000000000000000000000000000000600052604160045260246000fd5b60405190808252806020026020018201604052801561076e5781602001602082028036833780820191505090505b509050600080600190505b6002548111610813576001600082815260200190815260200160002060040160009054906101000a900460ff161561080057808383815181106107e5577f4e487b7100000000000000000000000000000000000000000000000000000000600052603260045260246000fd5b60200260200101818152505081806107fc90611333565b9250505b808061080b90611333565b915050610779565b5081935050505090565b600160205280600052604060002060009150905080600001805461084090611301565b80601f016020809104026020016040519081016040528092919081815260200182805461086c90611301565b80156108b95780601f1061088e576101008083540402835291602001916108b9565b820191906000526020600020905b81548152906001019060200180831161089c57829003601f168201915b5050505050908060010154908060020154908060030154908060040160009054906101000a900460ff16905085565b60008054906101000a900473ffffffffffffffffffffffffffffffffffffffff1673ffffffffffffffffffffffffffffffffffffffff163373ffffffffffffffffffffffffffffffffffffffff1614610976576040517f08c379a000000000000000000000000000000000000000000000000000000000815260040161096d906110fe565b60405180910390fd5b60008611801561098857506002548611155b6109c7576040517f08c379a00000000000000000000000000000000000000000000000000000000081526004016109be906110be565b60405180910390fd5b6000600160008881526020019081526020016000209050858160000190805190602001906109f6929190610aa2565b50848160010181905550838160020181905550828160030181905550818160040160006101000a81548160ff0219169083151502179055507f0edf5ff2630c1eb52489be01cf42ffdede3993307cc2c0d2d47170c0ce24b9bc878787878787604051610a6796959493929190611159565b60405180910390a150505050505050565b60025481565b60008054906101000a900473ffffffffffffffffffffffffffffffffffffffff1681565b828054610aae90611301565b90600052602060002090601f016020900481019282610ad05760008555610b17565b82601f10610ae957805160ff1916838001178555610b17565b82800160010185558215610b17579182015b82811115610b16578251825591602001919060010190610afb565b5b509050610b249190610b28565b5090565b5b80821115610b41576000816000905550600101610b29565b5090565b6000610b58610b53846111f2565b6111c1565b905082815260208101848484011115610b7057600080fd5b610b7b8482856112bf565b509392505050565b600081359050610b928161141a565b92915050565b600082601f830112610ba957600080fd5b8135610bb9848260208601610b45565b91505092915050565b600081359050610bd181611431565b92915050565b600080600080600060a08688031215610bef57600080fd5b600086013567ffffffffffffffff811115610c0957600080fd5b610c1588828901610b98565b9550506020610c2688828901610bc2565b9450506040610c3788828901610bc2565b9350506060610c4888828901610bc2565b9250506080610c5988828901610b83565b9150509295509295909350565b600060208284031215610c7857600080fd5b6000610c8684828501610bc2565b91505092915050565b60008060008060008060c08789031215610ca857600080fd5b6000610cb689828a01610bc2565b965050602087013567ffffffffffffffff811115610cd357600080fd5b610cdf89828a01610b98565b9550506040610cf089828a01610bc2565b9450506060610d0189828a01610bc2565b9350506080610d1289828a01610bc2565b92505060a0610d2389828a01610b83565b9150509295509295509295565b6000610d3c8383610fc9565b60208301905092915050565b610d5181611277565b82525050565b6000610d6282611232565b610d6c8185611255565b9350610d7783611222565b8060005b83811015610da8578151610d8f8882610d30565b9750610d9a83611248565b925050600181019050610d7b565b5085935050505092915050565b610dbe81611289565b82525050565b6000610dcf8261123d565b610dd98185611266565b9350610de98185602086016112ce565b610df281611409565b840191505092915050565b6000610e0a601783611266565b91507f506f6c696379206e616d652069732072657175697265640000000000000000006000830152602082019050919050565b6000610e4a601e83611266565b91507f5072656d69756d206d7573742062652067726561746572207468616e203000006000830152602082019050919050565b6000610e8a601883611266565b91507f506f6c69637920494420646f6573206e6f7420657869737400000000000000006000830152602082019050919050565b6000610eca602683611266565b91507f436f76657261676520616d6f756e74206d75737420626520677265617465722060008301527f7468616e203000000000000000000000000000000000000000000000000000006020830152604082019050919050565b6000610f30602283611266565b91507f4f6e6c792061646d696e2063616e20706572666f726d2074686973206163746960008301527f6f6e0000000000000000000000000000000000000000000000000000000000006020830152604082019050919050565b6000610f96601a83611266565b91507f416765206c696d6974206d75737420626520706f7369746976650000000000006000830152602082019050919050565b610fd2816112b5565b82525050565b610fe1816112b5565b82525050565b6000602082019050610ffc6000830184610d48565b92915050565b6000602082019050818103600083015261101c8184610d57565b905092915050565b600060a082019050818103600083015261103e8188610dc4565b905061104d6020830187610fd8565b61105a6040830186610fd8565b6110676060830185610fd8565b6110746080830184610db5565b9695505050505050565b6000602082019050818103600083015261109781610dfd565b9050919050565b600060208201905081810360008301526110b781610e3d565b9050919050565b600060208201905081810360008301526110d781610e7d565b9050919050565b600060208201905081810360008301526110f781610ebd565b9050919050565b6000602082019050818103600083015261111781610f23565b9050919050565b6000602082019050818103600083015261113781610f89565b9050919050565b60006020820190506111536000830184610fd8565b92915050565b600060c08201905061116e6000830189610fd8565b81810360208301526111808188610dc4565b905061118f6040830187610fd8565b61119c6060830186610fd8565b6111a96080830185610fd8565b6111b660a0830184610db5565b979650505050505050565b6000604051905081810181811067ffffffffffffffff821117156111e8576111e76113da565b5b8060405250919050565b600067ffffffffffffffff82111561120d5761120c6113da565b5b601f19601f8301169050602081019050919050565b6000819050602082019050919050565b600081519050919050565b600081519050919050565b6000602082019050919050565b600082825260208201905092915050565b600082825260208201905092915050565b600061128282611295565b9050919050565b60008115159050919050565b600073ffffffffffffffffffffffffffffffffffffffff82169050919050565b6000819050919050565b82818337600083830152505050565b60005b838110156112ec5780820151818401526020810190506112d1565b838111156112fb576000848401525b50505050565b6000600282049050600182168061131957607f821691505b6020821081141561132d5761132c6113ab565b5b50919050565b600061133e826112b5565b91507fffffffffffffffffffffffffffffffffffffffffffffffffffffffffffffffff8214156113715761137061137c565b5b600182019050919050565b7f4e487b7100000000000000000000000000000000000000000000000000000000600052601160045260246000fd5b7f4e487b7100000000000000000000000000000000000000000000000000000000600052602260045260246000fd5b7f4e487b7100000000000000000000000000000000000000000000000000000000600052604160045260246000fd5b6000601f19601f8301169050919050565b61142381611289565b811461142e57600080fd5b50565b61143a816112b5565b811461144557600080fd5b5056fea2646970667358221220b912740d9077b01ccbab236f4f0292a23bd6dab4f40a6638a596b53b1edb8c3564736f6c63430008000033",
  "immutableReferences": {},
  "source": "// SPDX-License-Identifier: MIT\r\npragma solidity ^0.8.0;\r\n\r\ncontract AdminInsurancePolicy {\r\n    struct Policy {\r\n        string name;\r\n        uint256 premium;\r\n        uint256 coverageAmount;\r\n        uint256 ageLimit;\r\n        bool isActive;\r\n    }\r\n\r\n    address public admin;\r\n    mapping(uint256 => Policy) public policies;\r\n    uint256 public policyCount;\r\n\r\n    // Events\r\n    event PolicyCreated(\r\n        uint256 policyId,\r\n        string name,\r\n        uint256 premium,\r\n        uint256 coverageAmount,\r\n        uint256 ageLimit,\r\n        bool isActive\r\n    );\r\n\r\n    event PolicyUpdated(\r\n        uint256 policyId,\r\n        string name,\r\n        uint256 premium,\r\n        uint256 coverageAmount,\r\n        uint256 ageLimit,\r\n        bool isActive\r\n    );\r\n\r\n    // Modifier to restrict actions to only the admin\r\n    modifier onlyAdmin() {\r\n        require(msg.sender == admin, \"Only admin can perform this action\");\r\n        _;\r\n    }\r\n\r\n    // Constructor to initialize the contract's admin\r\n    constructor() {\r\n        admin = msg.sender;\r\n    }\r\n\r\n    // Function to create a new policy\r\n    function createPolicy(\r\n        string memory _name,\r\n        uint256 _premium,\r\n        uint256 _coverageAmount,\r\n        uint256 _ageLimit,\r\n        bool _isActive\r\n    ) public onlyAdmin {\r\n        require(bytes(_name).length > 0, \"Policy name is required\");\r\n        require(_premium > 0, \"Premium must be greater than 0\");\r\n        require(_coverageAmount > 0, \"Coverage amount must be greater than 0\");\r\n        require(_ageLimit >= 0, \"Age limit must be positive\");\r\n\r\n        policyCount++;\r\n        policies[policyCount] = Policy(_name, _premium, _coverageAmount, _ageLimit, _isActive);\r\n        emit PolicyCreated(policyCount, _name, _premium, _coverageAmount, _ageLimit, _isActive);\r\n    }\r\n\r\n    // Function to update an existing policy's details\r\n    function updatePolicy(\r\n        uint256 _policyId,\r\n        string memory _name,\r\n        uint256 _premium,\r\n        uint256 _coverageAmount,\r\n        uint256 _ageLimit,\r\n        bool _isActive\r\n    ) public onlyAdmin {\r\n        // Ensure the policy ID is valid by checking if it exists\r\n        require(_policyId > 0 && _policyId <= policyCount, \"Policy ID does not exist\");\r\n        Policy storage policy = policies[_policyId];\r\n        policy.name = _name;\r\n        policy.premium = _premium;\r\n        policy.coverageAmount = _coverageAmount;\r\n        policy.ageLimit = _ageLimit;\r\n        policy.isActive = _isActive;\r\n\r\n        emit PolicyUpdated(_policyId, _name, _premium, _coverageAmount, _ageLimit, _isActive);\r\n    }\r\n\r\n    // Function to fetch a policy by its ID\r\n    function getPolicy(uint256 _policyId)\r\n        public\r\n        view\r\n        returns (string memory, uint256, uint256, uint256, bool)\r\n    {\r\n        Policy storage policy = policies[_policyId];\r\n        return (policy.name, policy.premium, policy.coverageAmount, policy.ageLimit, policy.isActive);\r\n    }\r\n\r\n    // New function to fetch all active policies\r\n    function getAllActivePolicies() public view returns (uint256[] memory) {\r\n        uint256 activeCount = 0;\r\n        for (uint256 i = 1; i <= policyCount; i++) {\r\n            if (policies[i].isActive) {\r\n                activeCount++;\r\n            }\r\n        }\r\n\r\n        uint256[] memory activePolicyIds = new uint256[](activeCount);\r\n        uint256 index = 0;\r\n        for (uint256 i = 1; i <= policyCount; i++) {\r\n            if (policies[i].isActive) {\r\n                activePolicyIds[index] = i;\r\n                index++;\r\n            }\r\n        }\r\n        return activePolicyIds;\r\n    }\r\n\r\n     // New function to fetch all archived policies (inactive)\r\n    function getAllArchivedPolicies() public view returns (uint256[] memory) {\r\n        uint256 archivedCount = 0;\r\n        for (uint256 i = 1; i <= policyCount; i++) {\r\n            if (!policies[i].isActive) {\r\n                archivedCount++;\r\n            }\r\n        }\r\n\r\n        uint256[] memory archivedPolicyIds = new uint256[](archivedCount);\r\n        uint256 index = 0;\r\n        for (uint256 i = 1; i <= policyCount; i++) {\r\n            if (!policies[i].isActive) {\r\n                archivedPolicyIds[index] = i;\r\n                index++;\r\n            }\r\n        }\r\n        return archivedPolicyIds;\r\n    }\r\n}\r\n",
  "sourcePath": "C:\\Users\\keeke\\Desktop\\BlockChain\\Great_Global\\Danny_Test\\SponsorAnimals\\contracts\\AdminInsurancePolicy.sol",
  "compiler": {
    "name": "solc",
    "version": "0.8.0+commit.c7dfd78e.Emscripten.clang"
  },
  "schemaVersion": "3.4.16",
  "updatedAt": "2024-09-25T20:55:34.540Z",
  "devdoc": {
    "kind": "dev",
    "methods": {},
    "version": 1
  },
  "userdoc": {
    "kind": "user",
    "methods": {},
    "version": 1
  }
}