{
  "contractName": "AdminInsurancePolicy",
  "abi": [
    {
      "inputs": [
        {
          "internalType": "address",
          "name": "_userAuthAddress",
          "type": "address"
        }
      ],
      "stateMutability": "nonpayable",
      "type": "constructor"
    },
    {
      "anonymous": false,
      "inputs": [
        {
          "indexed": false,
          "internalType": "uint256",
          "name": "policyId",
          "type": "uint256"
        }
      ],
      "name": "PolicyArchived",
      "type": "event"
    },
    {
      "anonymous": false,
      "inputs": [
        {
          "indexed": false,
          "internalType": "uint256",
          "name": "policyId",
          "type": "uint256"
        },
        {
          "indexed": false,
          "internalType": "string",
          "name": "name",
          "type": "string"
        },
        {
          "indexed": false,
          "internalType": "uint256",
          "name": "premium",
          "type": "uint256"
        },
        {
          "indexed": false,
          "internalType": "uint256",
          "name": "coverageAmount",
          "type": "uint256"
        },
        {
          "indexed": false,
          "internalType": "uint256",
          "name": "ageLimit",
          "type": "uint256"
        },
        {
          "indexed": false,
          "internalType": "bool",
          "name": "isActive",
          "type": "bool"
        }
      ],
      "name": "PolicyCreated",
      "type": "event"
    },
    {
      "anonymous": false,
      "inputs": [
        {
          "indexed": false,
          "internalType": "uint256",
          "name": "policyId",
          "type": "uint256"
        },
        {
          "indexed": false,
          "internalType": "string",
          "name": "name",
          "type": "string"
        },
        {
          "indexed": false,
          "internalType": "uint256",
          "name": "premium",
          "type": "uint256"
        },
        {
          "indexed": false,
          "internalType": "uint256",
          "name": "coverageAmount",
          "type": "uint256"
        },
        {
          "indexed": false,
          "internalType": "uint256",
          "name": "ageLimit",
          "type": "uint256"
        },
        {
          "indexed": false,
          "internalType": "bool",
          "name": "isActive",
          "type": "bool"
        }
      ],
      "name": "PolicyUpdated",
      "type": "event"
    },
    {
      "inputs": [],
      "name": "admin",
      "outputs": [
        {
          "internalType": "address",
          "name": "",
          "type": "address"
        }
      ],
      "stateMutability": "view",
      "type": "function",
      "constant": true
    },
    {
      "inputs": [
        {
          "internalType": "uint256",
          "name": "",
          "type": "uint256"
        }
      ],
      "name": "policies",
      "outputs": [
        {
          "internalType": "string",
          "name": "name",
          "type": "string"
        },
        {
          "internalType": "uint256",
          "name": "premium",
          "type": "uint256"
        },
        {
          "internalType": "uint256",
          "name": "coverageAmount",
          "type": "uint256"
        },
        {
          "internalType": "uint256",
          "name": "ageLimit",
          "type": "uint256"
        },
        {
          "internalType": "bool",
          "name": "isActive",
          "type": "bool"
        }
      ],
      "stateMutability": "view",
      "type": "function",
      "constant": true
    },
    {
      "inputs": [],
      "name": "policyCount",
      "outputs": [
        {
          "internalType": "uint256",
          "name": "",
          "type": "uint256"
        }
      ],
      "stateMutability": "view",
      "type": "function",
      "constant": true
    },
    {
      "inputs": [],
      "name": "userAuth",
      "outputs": [
        {
          "internalType": "contract UserAuth",
          "name": "",
          "type": "address"
        }
      ],
      "stateMutability": "view",
      "type": "function",
      "constant": true
    },
    {
      "inputs": [],
      "name": "userAuthContract",
      "outputs": [
        {
          "internalType": "contract UserAuth",
          "name": "",
          "type": "address"
        }
      ],
      "stateMutability": "view",
      "type": "function",
      "constant": true
    },
    {
      "inputs": [
        {
          "internalType": "string",
          "name": "_name",
          "type": "string"
        },
        {
          "internalType": "uint256",
          "name": "_premium",
          "type": "uint256"
        },
        {
          "internalType": "uint256",
          "name": "_coverageAmount",
          "type": "uint256"
        },
        {
          "internalType": "uint256",
          "name": "_ageLimit",
          "type": "uint256"
        },
        {
          "internalType": "bool",
          "name": "_isActive",
          "type": "bool"
        }
      ],
      "name": "createPolicy",
      "outputs": [],
      "stateMutability": "nonpayable",
      "type": "function"
    },
    {
      "inputs": [
        {
          "internalType": "uint256",
          "name": "_policyId",
          "type": "uint256"
        },
        {
          "internalType": "string",
          "name": "_name",
          "type": "string"
        },
        {
          "internalType": "uint256",
          "name": "_premium",
          "type": "uint256"
        },
        {
          "internalType": "uint256",
          "name": "_coverageAmount",
          "type": "uint256"
        },
        {
          "internalType": "uint256",
          "name": "_ageLimit",
          "type": "uint256"
        },
        {
          "internalType": "bool",
          "name": "_isActive",
          "type": "bool"
        }
      ],
      "name": "updatePolicy",
      "outputs": [],
      "stateMutability": "nonpayable",
      "type": "function"
    },
    {
      "inputs": [
        {
          "internalType": "uint256",
          "name": "_policyId",
          "type": "uint256"
        }
      ],
      "name": "getPolicy",
      "outputs": [
        {
          "internalType": "string",
          "name": "",
          "type": "string"
        },
        {
          "internalType": "uint256",
          "name": "",
          "type": "uint256"
        },
        {
          "internalType": "uint256",
          "name": "",
          "type": "uint256"
        },
        {
          "internalType": "uint256",
          "name": "",
          "type": "uint256"
        },
        {
          "internalType": "bool",
          "name": "",
          "type": "bool"
        }
      ],
      "stateMutability": "view",
      "type": "function",
      "constant": true
    },
    {
      "inputs": [],
      "name": "getAllActivePolicies",
      "outputs": [
        {
          "internalType": "uint256[]",
          "name": "",
          "type": "uint256[]"
        }
      ],
      "stateMutability": "view",
      "type": "function",
      "constant": true
    },
    {
      "inputs": [],
      "name": "getAllArchivedPolicies",
      "outputs": [
        {
          "internalType": "uint256[]",
          "name": "",
          "type": "uint256[]"
        }
      ],
      "stateMutability": "view",
      "type": "function",
      "constant": true
    },
    {
      "inputs": [
        {
          "internalType": "uint256",
          "name": "_policyId",
          "type": "uint256"
        }
      ],
      "name": "getPolicyAvailibility",
      "outputs": [
        {
          "internalType": "bool",
          "name": "isActive",
          "type": "bool"
        }
      ],
      "stateMutability": "view",
      "type": "function",
      "constant": true
    }
  ],
  "bytecode": "0x608060405260006003553480156200001657600080fd5b5060405162001a6f38038062001a6f83398181016040528101906200003c9190620000db565b33600160006101000a81548173ffffffffffffffffffffffffffffffffffffffff021916908373ffffffffffffffffffffffffffffffffffffffff160217905550806000806101000a81548173ffffffffffffffffffffffffffffffffffffffff021916908373ffffffffffffffffffffffffffffffffffffffff1602179055505062000155565b600081519050620000d5816200013b565b92915050565b600060208284031215620000ee57600080fd5b6000620000fe84828501620000c4565b91505092915050565b600062000114826200011b565b9050919050565b600073ffffffffffffffffffffffffffffffffffffffff82169050919050565b620001468162000107565b81146200015257600080fd5b50565b61190a80620001656000396000f3fe608060405234801561001057600080fd5b50600436106100a95760003560e01c8063b0dec9f711610071578063b0dec9f71461016a578063cdc2cde514610188578063d3e89483146101a6578063dbf85584146101da578063de54d429146101f6578063f851a44014610214576100a9565b8063010aff09146100ae5780632b07fce3146100cc57806338fb9efc1461010057806343f670941461011c578063a5407a441461014c575b600080fd5b6100b6610232565b6040516100c3919061141d565b60405180910390f35b6100e660048036038101906100e19190611072565b6103a6565b6040516100f7959493929190611475565b60405180910390f35b61011a60048036038101906101159190610fe3565b61048a565b005b61013660048036038101906101319190611072565b6107a1565b604051610143919061143f565b60405180910390f35b61015461089c565b604051610161919061145a565b60405180910390f35b6101726108c0565b60405161017f919061141d565b60405180910390f35b610190610a36565b60405161019d919061145a565b60405180910390f35b6101c060048036038101906101bb9190611072565b610a5c565b6040516101d1959493929190611475565b60405180910390f35b6101f460048036038101906101ef919061109b565b610b27565b005b6101fe610e44565b60405161020b919061158f565b60405180910390f35b61021c610e4a565b6040516102299190611402565b60405180910390f35b60606000805b600354811161028b576002600082815260200190815260200160002060040160009054906101000a900460ff16610278578180610274906117a8565b9250505b8080610283906117a8565b915050610238565b5060008167ffffffffffffffff8111156102ce577f4e487b7100000000000000000000000000000000000000000000000000000000600052604160045260246000fd5b6040519080825280602002602001820160405280156102fc5781602001602082028036833780820191505090505b5090506000805b600354811161039c576002600082815260200190815260200160002060040160009054906101000a900460ff16610389578083838151811061036e577f4e487b7100000000000000000000000000000000000000000000000000000000600052603260045260246000fd5b6020026020010181815250508180610385906117a8565b9250505b8080610394906117a8565b915050610303565b5081935050505090565b60606000806000806000600260008881526020019081526020016000209050806000018160010154826002015483600301548460040160009054906101000a900460ff168480546103f690611776565b80601f016020809104026020016040519081016040528092919081815260200182805461042290611776565b801561046f5780601f106104445761010080835404028352916020019161046f565b820191906000526020600020905b81548152906001019060200180831161045257829003601f168201915b50505050509450955095509550955095505091939590929450565b60008054906101000a900473ffffffffffffffffffffffffffffffffffffffff1673ffffffffffffffffffffffffffffffffffffffff1663643d430c6040518163ffffffff1660e01b815260040160206040518083038186803b1580156104f057600080fd5b505afa158015610504573d6000803e3d6000fd5b505050506040513d601f19601f820116820180604052508101906105289190610fba565b73ffffffffffffffffffffffffffffffffffffffff163373ffffffffffffffffffffffffffffffffffffffff1614610595576040517f08c379a000000000000000000000000000000000000000000000000000000000815260040161058c906114cf565b60405180910390fd5b60008551116105d9576040517f08c379a00000000000000000000000000000000000000000000000000000000081526004016105d0906114ef565b60405180910390fd5b6000841161061c576040517f08c379a00000000000000000000000000000000000000000000000000000000081526004016106139061150f565b60405180910390fd5b6000831161065f576040517f08c379a00000000000000000000000000000000000000000000000000000000081526004016106569061152f565b60405180910390fd5b60008210156106a3576040517f08c379a000000000000000000000000000000000000000000000000000000000815260040161069a9061156f565b60405180910390fd5b6040518060a0016040528086815260200185815260200184815260200183815260200182151581525060026000600354815260200190815260200160002060008201518160000190805190602001906106fd929190610e70565b5060208201518160010155604082015181600201556060820151816003015560808201518160040160006101000a81548160ff0219169083151502179055509050507fe9aeb04de0b3c96c58e0372bbd072b0fa5e59f252ac40672e2e0bd5fc7dc5257600354868686868660405161077a969594939291906115aa565b60405180910390a160036000815480929190610795906117a8565b91905055505050505050565b600080600260008481526020019081526020016000206040518060a00160405290816000820180546107d290611776565b80601f01602080910402602001604051908101604052809291908181526020018280546107fe90611776565b801561084b5780601f106108205761010080835404028352916020019161084b565b820191906000526020600020905b81548152906001019060200180831161082e57829003601f168201915b505050505081526020016001820154815260200160028201548152602001600382015481526020016004820160009054906101000a900460ff16151515158152505090508060800151915050919050565b60008054906101000a900473ffffffffffffffffffffffffffffffffffffffff1681565b60606000805b600354811161091a576002600082815260200190815260200160002060040160009054906101000a900460ff1615610907578180610903906117a8565b9250505b8080610912906117a8565b9150506108c6565b5060008167ffffffffffffffff81111561095d577f4e487b7100000000000000000000000000000000000000000000000000000000600052604160045260246000fd5b60405190808252806020026020018201604052801561098b5781602001602082028036833780820191505090505b5090506000805b6003548111610a2c576002600082815260200190815260200160002060040160009054906101000a900460ff1615610a1957808383815181106109fe577f4e487b7100000000000000000000000000000000000000000000000000000000600052603260045260246000fd5b6020026020010181815250508180610a15906117a8565b9250505b8080610a24906117a8565b915050610992565b5081935050505090565b600460009054906101000a900473ffffffffffffffffffffffffffffffffffffffff1681565b6002602052806000526040600020600091509050806000018054610a7f90611776565b80601f0160208091040260200160405190810160405280929190818152602001828054610aab90611776565b8015610af85780601f10610acd57610100808354040283529160200191610af8565b820191906000526020600020905b815481529060010190602001808311610adb57829003601f168201915b5050505050908060010154908060020154908060030154908060040160009054906101000a900460ff16905085565b60008054906101000a900473ffffffffffffffffffffffffffffffffffffffff1673ffffffffffffffffffffffffffffffffffffffff1663643d430c6040518163ffffffff1660e01b815260040160206040518083038186803b158015610b8d57600080fd5b505afa158015610ba1573d6000803e3d6000fd5b505050506040513d601f19601f82011682018060405250810190610bc59190610fba565b73ffffffffffffffffffffffffffffffffffffffff163373ffffffffffffffffffffffffffffffffffffffff1614610c32576040517f08c379a0000000000000000000000000000000000000000000000000000000008152600401610c29906114cf565b60405180910390fd5b8560008110158015610c45575060035481105b610c84576040517f08c379a0000000000000000000000000000000000000000000000000000000008152600401610c7b9061154f565b60405180910390fd5b6000865111610cc8576040517f08c379a0000000000000000000000000000000000000000000000000000000008152600401610cbf906114ef565b60405180910390fd5b60008511610d0b576040517f08c379a0000000000000000000000000000000000000000000000000000000008152600401610d029061150f565b60405180910390fd5b60008411610d4e576040517f08c379a0000000000000000000000000000000000000000000000000000000008152600401610d459061152f565b60405180910390fd5b6000831015610d92576040517f08c379a0000000000000000000000000000000000000000000000000000000008152600401610d899061156f565b60405180910390fd5b600060026000898152602001908152602001600020905086816000019080519060200190610dc1929190610e70565b50858160010181905550848160020181905550838160030181905550828160040160006101000a81548160ff0219169083151502179055507f0edf5ff2630c1eb52489be01cf42ffdede3993307cc2c0d2d47170c0ce24b9bc888888888888604051610e32969594939291906115aa565b60405180910390a15050505050505050565b60035481565b600160009054906101000a900473ffffffffffffffffffffffffffffffffffffffff1681565b828054610e7c90611776565b90600052602060002090601f016020900481019282610e9e5760008555610ee5565b82601f10610eb757805160ff1916838001178555610ee5565b82800160010185558215610ee5579182015b82811115610ee4578251825591602001919060010190610ec9565b5b509050610ef29190610ef6565b5090565b5b80821115610f0f576000816000905550600101610ef7565b5090565b6000610f26610f2184611643565b611612565b905082815260208101848484011115610f3e57600080fd5b610f49848285611734565b509392505050565b600081519050610f608161188f565b92915050565b600081359050610f75816118a6565b92915050565b600082601f830112610f8c57600080fd5b8135610f9c848260208601610f13565b91505092915050565b600081359050610fb4816118bd565b92915050565b600060208284031215610fcc57600080fd5b6000610fda84828501610f51565b91505092915050565b600080600080600060a08688031215610ffb57600080fd5b600086013567ffffffffffffffff81111561101557600080fd5b61102188828901610f7b565b955050602061103288828901610fa5565b945050604061104388828901610fa5565b935050606061105488828901610fa5565b925050608061106588828901610f66565b9150509295509295909350565b60006020828403121561108457600080fd5b600061109284828501610fa5565b91505092915050565b60008060008060008060c087890312156110b457600080fd5b60006110c289828a01610fa5565b965050602087013567ffffffffffffffff8111156110df57600080fd5b6110eb89828a01610f7b565b95505060406110fc89828a01610fa5565b945050606061110d89828a01610fa5565b935050608061111e89828a01610fa5565b92505060a061112f89828a01610f66565b9150509295509295509295565b600061114883836113e4565b60208301905092915050565b61115d816116c8565b82525050565b600061116e82611683565b61117881856116a6565b935061118383611673565b8060005b838110156111b457815161119b888261113c565b97506111a683611699565b925050600181019050611187565b5085935050505092915050565b6111ca816116da565b82525050565b6111d981611710565b82525050565b60006111ea8261168e565b6111f481856116b7565b9350611204818560208601611743565b61120d8161187e565b840191505092915050565b6000611225603a836116b7565b91507f4d6574616d61736b206163636f756e7420616e6420616464726573732075736560008301527f6420746f207369676e20696e20646f206e6f74206d617463682e0000000000006020830152604082019050919050565b600061128b6017836116b7565b91507f506f6c696379206e616d652069732072657175697265640000000000000000006000830152602082019050919050565b60006112cb601e836116b7565b91507f5072656d69756d206d7573742062652067726561746572207468616e203000006000830152602082019050919050565b600061130b6026836116b7565b91507f436f76657261676520616d6f756e74206d75737420626520677265617465722060008301527f7468616e203000000000000000000000000000000000000000000000000000006020830152604082019050919050565b60006113716011836116b7565b91507f496e76616c696420706f6c6963792049440000000000000000000000000000006000830152602082019050919050565b60006113b1601a836116b7565b91507f416765206c696d6974206d75737420626520706f7369746976650000000000006000830152602082019050919050565b6113ed81611706565b82525050565b6113fc81611706565b82525050565b60006020820190506114176000830184611154565b92915050565b600060208201905081810360008301526114378184611163565b905092915050565b600060208201905061145460008301846111c1565b92915050565b600060208201905061146f60008301846111d0565b92915050565b600060a082019050818103600083015261148f81886111df565b905061149e60208301876113f3565b6114ab60408301866113f3565b6114b860608301856113f3565b6114c560808301846111c1565b9695505050505050565b600060208201905081810360008301526114e881611218565b9050919050565b600060208201905081810360008301526115088161127e565b9050919050565b60006020820190508181036000830152611528816112be565b9050919050565b60006020820190508181036000830152611548816112fe565b9050919050565b6000602082019050818103600083015261156881611364565b9050919050565b60006020820190508181036000830152611588816113a4565b9050919050565b60006020820190506115a460008301846113f3565b92915050565b600060c0820190506115bf60008301896113f3565b81810360208301526115d181886111df565b90506115e060408301876113f3565b6115ed60608301866113f3565b6115fa60808301856113f3565b61160760a08301846111c1565b979650505050505050565b6000604051905081810181811067ffffffffffffffff821117156116395761163861184f565b5b8060405250919050565b600067ffffffffffffffff82111561165e5761165d61184f565b5b601f19601f8301169050602081019050919050565b6000819050602082019050919050565b600081519050919050565b600081519050919050565b6000602082019050919050565b600082825260208201905092915050565b600082825260208201905092915050565b60006116d3826116e6565b9050919050565b60008115159050919050565b600073ffffffffffffffffffffffffffffffffffffffff82169050919050565b6000819050919050565b600061171b82611722565b9050919050565b600061172d826116e6565b9050919050565b82818337600083830152505050565b60005b83811015611761578082015181840152602081019050611746565b83811115611770576000848401525b50505050565b6000600282049050600182168061178e57607f821691505b602082108114156117a2576117a1611820565b5b50919050565b60006117b382611706565b91507fffffffffffffffffffffffffffffffffffffffffffffffffffffffffffffffff8214156117e6576117e56117f1565b5b600182019050919050565b7f4e487b7100000000000000000000000000000000000000000000000000000000600052601160045260246000fd5b7f4e487b7100000000000000000000000000000000000000000000000000000000600052602260045260246000fd5b7f4e487b7100000000000000000000000000000000000000000000000000000000600052604160045260246000fd5b6000601f19601f8301169050919050565b611898816116c8565b81146118a357600080fd5b50565b6118af816116da565b81146118ba57600080fd5b50565b6118c681611706565b81146118d157600080fd5b5056fea2646970667358221220087bf9cf0f1a2e8942a63d23522f8414d2ef34be9f423bd06721dccf60f49f6164736f6c63430008000033",
  "immutableReferences": {},
  "source": "// SPDX-License-Identifier: MIT\r\npragma solidity ^0.8.0;\r\n\r\nimport \"./UserAuth.sol\";\r\n\r\ncontract AdminInsurancePolicy {\r\n    UserAuth public userAuthContract;\r\n\r\n    struct Policy {\r\n        string name;\r\n        uint256 premium;\r\n        uint256 coverageAmount;\r\n        uint256 ageLimit;\r\n        bool isActive;\r\n    }\r\n\r\n    //address public admin;\r\n    address public admin;\r\n    mapping(uint256 => Policy) public policies;\r\n    uint256 public policyCount = 0;\r\n    UserAuth public userAuth; // Instance of UserAuth contract\r\n\r\n    // Events\r\n    event PolicyCreated(\r\n        uint256 policyId,\r\n        string name,\r\n        uint256 premium,\r\n        uint256 coverageAmount,\r\n        uint256 ageLimit,\r\n        bool isActive\r\n    );\r\n    event PolicyUpdated(\r\n        uint256 policyId,\r\n        string name,\r\n        uint256 premium,\r\n        uint256 coverageAmount,\r\n        uint256 ageLimit,\r\n        bool isActive\r\n    );\r\n    event PolicyArchived(uint256 policyId);\r\n\r\n    modifier sameAdmin() {\r\n        require(\r\n            msg.sender == userAuthContract.getCurrentAdmin(),\r\n            \"Metamask account and address used to sign in do not match.\"\r\n        );\r\n        _;\r\n    }\r\n\r\n    // Modifier to check if a policy exists\r\n    modifier policyExists(uint256 _policyId) {\r\n        require(_policyId >= 0 && _policyId < policyCount, \"Invalid policy ID\");\r\n        _;\r\n    }\r\n\r\n    // Modifier to check if a policy is active\r\n    modifier policyIsActive(uint256 _policyId) {\r\n        require(policies[_policyId].isActive, \"Policy is already archived\");\r\n        _;\r\n    }\r\n\r\n    // Constructor to initialize the contract's admin\r\n    constructor(address _userAuthAddress) {\r\n        admin = msg.sender; // Initially, the deployer is the admin\r\n        userAuthContract = UserAuth(_userAuthAddress);\r\n    }\r\n\r\n    // Function to create a new policy with input validation\r\n    function createPolicy(\r\n        string memory _name,\r\n        uint256 _premium,\r\n        uint256 _coverageAmount,\r\n        uint256 _ageLimit,\r\n        bool _isActive\r\n    ) public sameAdmin {\r\n        require(bytes(_name).length > 0, \"Policy name is required\");\r\n        require(_premium > 0, \"Premium must be greater than 0\");\r\n        require(_coverageAmount > 0, \"Coverage amount must be greater than 0\");\r\n        require(_ageLimit >= 0, \"Age limit must be positive\");\r\n\r\n        policies[policyCount] = Policy(\r\n            _name,\r\n            _premium,\r\n            _coverageAmount,\r\n            _ageLimit,\r\n            _isActive\r\n        );\r\n        emit PolicyCreated(\r\n            policyCount,\r\n            _name,\r\n            _premium,\r\n            _coverageAmount,\r\n            _ageLimit,\r\n            _isActive\r\n        );\r\n        \r\n        policyCount++;\r\n    }\r\n\r\n    // Function to update an existing policy's details with validation\r\n    function updatePolicy(\r\n        uint256 _policyId,\r\n        string memory _name,\r\n        uint256 _premium,\r\n        uint256 _coverageAmount,\r\n        uint256 _ageLimit,\r\n        bool _isActive\r\n    ) public sameAdmin policyExists(_policyId) {\r\n        require(bytes(_name).length > 0, \"Policy name is required\");\r\n        require(_premium > 0, \"Premium must be greater than 0\");\r\n        require(_coverageAmount > 0, \"Coverage amount must be greater than 0\");\r\n        require(_ageLimit >= 0, \"Age limit must be positive\");\r\n\r\n        Policy storage policy = policies[_policyId];\r\n        policy.name = _name;\r\n        policy.premium = _premium;\r\n        policy.coverageAmount = _coverageAmount;\r\n        policy.ageLimit = _ageLimit;\r\n        policy.isActive = _isActive;\r\n\r\n        emit PolicyUpdated(\r\n            _policyId,\r\n            _name,\r\n            _premium,\r\n            _coverageAmount,\r\n            _ageLimit,\r\n            _isActive\r\n        );\r\n    }\r\n\r\n    // Function to fetch a policy by its ID\r\n    function getPolicy(\r\n        uint256 _policyId\r\n    ) public view returns (string memory, uint256, uint256, uint256, bool) {\r\n        Policy storage policy = policies[_policyId];\r\n        return (\r\n            policy.name,\r\n            policy.premium,\r\n            policy.coverageAmount,\r\n            policy.ageLimit,\r\n            policy.isActive\r\n        );\r\n    }\r\n\r\n    // New function to fetch all active policies\r\n    function getAllActivePolicies() public view returns (uint256[] memory) {\r\n        uint256 activeCount = 0;\r\n        for (uint256 i = 0; i <= policyCount; i++) {\r\n            if (policies[i].isActive) {\r\n                activeCount++;\r\n            }\r\n        }\r\n\r\n        uint256[] memory activePolicyIds = new uint256[](activeCount);\r\n        uint256 index = 0;\r\n        for (uint256 i = 0; i <= policyCount; i++) {\r\n            if (policies[i].isActive) {\r\n                activePolicyIds[index] = i;\r\n                index++;\r\n            }\r\n        }\r\n        return activePolicyIds;\r\n    }\r\n\r\n    // New function to fetch all archived policies (inactive)\r\n    function getAllArchivedPolicies() public view returns (uint256[] memory) {\r\n        uint256 archivedCount = 0;\r\n        for (uint256 i = 0; i <= policyCount; i++) {\r\n            if (!policies[i].isActive) {\r\n                archivedCount++;\r\n            }\r\n        }\r\n\r\n        uint256[] memory archivedPolicyIds = new uint256[](archivedCount);\r\n        uint256 index = 0;\r\n        for (uint256 i = 0; i <= policyCount; i++) {\r\n            if (!policies[i].isActive) {\r\n                archivedPolicyIds[index] = i;\r\n                index++;\r\n            }\r\n        }\r\n        return archivedPolicyIds;\r\n    }\r\n\r\n    function getPolicyAvailibility(\r\n        uint256 _policyId\r\n    ) public view returns (bool isActive) {\r\n        Policy memory policy = policies[_policyId];\r\n        return policy.isActive;\r\n    }\r\n}",
  "sourcePath": "C:\\Users\\leeda\\OneDrive\\Desktop\\Great_Global\\Danny_Test\\SponsorAnimals\\contracts\\AdminInsurancePolicy.sol",
  "compiler": {
    "name": "solc",
    "version": "0.8.0+commit.c7dfd78e.Emscripten.clang"
  },
  "schemaVersion": "3.4.16",
  "updatedAt": "2024-09-26T04:12:52.097Z",
  "networkType": "ethereum",
  "devdoc": {
    "kind": "dev",
    "methods": {},
    "version": 1
  },
  "userdoc": {
    "kind": "user",
    "methods": {},
    "version": 1
  }
}