{
  "contractName": "AdminInsurancePolicy",
  "abi": [
    {
      "inputs": [
        {
          "internalType": "address",
          "name": "_userAuthAddress",
          "type": "address"
        }
      ],
      "stateMutability": "nonpayable",
      "type": "constructor"
    },
    {
      "anonymous": false,
      "inputs": [
        {
          "indexed": false,
          "internalType": "uint256",
          "name": "policyId",
          "type": "uint256"
        }
      ],
      "name": "PolicyArchived",
      "type": "event"
    },
    {
      "anonymous": false,
      "inputs": [
        {
          "indexed": false,
          "internalType": "uint256",
          "name": "policyId",
          "type": "uint256"
        },
        {
          "indexed": false,
          "internalType": "string",
          "name": "name",
          "type": "string"
        },
        {
          "indexed": false,
          "internalType": "uint256",
          "name": "premium",
          "type": "uint256"
        },
        {
          "indexed": false,
          "internalType": "uint256",
          "name": "coverageAmount",
          "type": "uint256"
        },
        {
          "indexed": false,
          "internalType": "uint256",
          "name": "ageLimit",
          "type": "uint256"
        },
        {
          "indexed": false,
          "internalType": "bool",
          "name": "isActive",
          "type": "bool"
        }
      ],
      "name": "PolicyCreated",
      "type": "event"
    },
    {
      "anonymous": false,
      "inputs": [
        {
          "indexed": false,
          "internalType": "uint256",
          "name": "policyId",
          "type": "uint256"
        },
        {
          "indexed": false,
          "internalType": "string",
          "name": "name",
          "type": "string"
        },
        {
          "indexed": false,
          "internalType": "uint256",
          "name": "premium",
          "type": "uint256"
        },
        {
          "indexed": false,
          "internalType": "uint256",
          "name": "coverageAmount",
          "type": "uint256"
        },
        {
          "indexed": false,
          "internalType": "uint256",
          "name": "ageLimit",
          "type": "uint256"
        },
        {
          "indexed": false,
          "internalType": "bool",
          "name": "isActive",
          "type": "bool"
        }
      ],
      "name": "PolicyUpdated",
      "type": "event"
    },
    {
      "inputs": [],
      "name": "admin",
      "outputs": [
        {
          "internalType": "address",
          "name": "",
          "type": "address"
        }
      ],
      "stateMutability": "view",
      "type": "function",
      "constant": true
    },
    {
      "inputs": [
        {
          "internalType": "uint256",
          "name": "",
          "type": "uint256"
        }
      ],
      "name": "policies",
      "outputs": [
        {
          "internalType": "string",
          "name": "name",
          "type": "string"
        },
        {
          "internalType": "uint256",
          "name": "premium",
          "type": "uint256"
        },
        {
          "internalType": "uint256",
          "name": "coverageAmount",
          "type": "uint256"
        },
        {
          "internalType": "uint256",
          "name": "ageLimit",
          "type": "uint256"
        },
        {
          "internalType": "bool",
          "name": "isActive",
          "type": "bool"
        }
      ],
      "stateMutability": "view",
      "type": "function",
      "constant": true
    },
    {
      "inputs": [],
      "name": "policyCount",
      "outputs": [
        {
          "internalType": "uint256",
          "name": "",
          "type": "uint256"
        }
      ],
      "stateMutability": "view",
      "type": "function",
      "constant": true
    },
    {
      "inputs": [],
      "name": "userAuth",
      "outputs": [
        {
          "internalType": "contract UserAuth",
          "name": "",
          "type": "address"
        }
      ],
      "stateMutability": "view",
      "type": "function",
      "constant": true
    },
    {
      "inputs": [],
      "name": "userAuthContract",
      "outputs": [
        {
          "internalType": "contract UserAuth",
          "name": "",
          "type": "address"
        }
      ],
      "stateMutability": "view",
      "type": "function",
      "constant": true
    },
    {
      "inputs": [
        {
          "internalType": "string",
          "name": "_name",
          "type": "string"
        },
        {
          "internalType": "uint256",
          "name": "_premium",
          "type": "uint256"
        },
        {
          "internalType": "uint256",
          "name": "_coverageAmount",
          "type": "uint256"
        },
        {
          "internalType": "uint256",
          "name": "_ageLimit",
          "type": "uint256"
        },
        {
          "internalType": "bool",
          "name": "_isActive",
          "type": "bool"
        }
      ],
      "name": "createPolicy",
      "outputs": [],
      "stateMutability": "nonpayable",
      "type": "function"
    },
    {
      "inputs": [
        {
          "internalType": "uint256",
          "name": "_policyId",
          "type": "uint256"
        },
        {
          "internalType": "string",
          "name": "_name",
          "type": "string"
        },
        {
          "internalType": "uint256",
          "name": "_premium",
          "type": "uint256"
        },
        {
          "internalType": "uint256",
          "name": "_coverageAmount",
          "type": "uint256"
        },
        {
          "internalType": "uint256",
          "name": "_ageLimit",
          "type": "uint256"
        },
        {
          "internalType": "bool",
          "name": "_isActive",
          "type": "bool"
        }
      ],
      "name": "updatePolicy",
      "outputs": [],
      "stateMutability": "nonpayable",
      "type": "function"
    },
    {
      "inputs": [
        {
          "internalType": "uint256",
          "name": "_policyId",
          "type": "uint256"
        }
      ],
      "name": "getPolicy",
      "outputs": [
        {
          "internalType": "string",
          "name": "",
          "type": "string"
        },
        {
          "internalType": "uint256",
          "name": "",
          "type": "uint256"
        },
        {
          "internalType": "uint256",
          "name": "",
          "type": "uint256"
        },
        {
          "internalType": "uint256",
          "name": "",
          "type": "uint256"
        },
        {
          "internalType": "bool",
          "name": "",
          "type": "bool"
        }
      ],
      "stateMutability": "view",
      "type": "function",
      "constant": true
    },
    {
      "inputs": [],
      "name": "getAllActivePolicies",
      "outputs": [
        {
          "internalType": "uint256[]",
          "name": "",
          "type": "uint256[]"
        }
      ],
      "stateMutability": "view",
      "type": "function",
      "constant": true
    },
    {
      "inputs": [],
      "name": "getAllArchivedPolicies",
      "outputs": [
        {
          "internalType": "uint256[]",
          "name": "",
          "type": "uint256[]"
        }
      ],
      "stateMutability": "view",
      "type": "function",
      "constant": true
    },
    {
      "inputs": [
        {
          "internalType": "uint256",
          "name": "_policyId",
          "type": "uint256"
        }
      ],
      "name": "getPolicyAvailibility",
      "outputs": [
        {
          "internalType": "bool",
          "name": "isActive",
          "type": "bool"
        }
      ],
      "stateMutability": "view",
      "type": "function",
      "constant": true
    }
  ],
  "bytecode": "0x60806040523480156200001157600080fd5b5060405162001a7a38038062001a7a8339818101604052810190620000379190620000d6565b33600160006101000a81548173ffffffffffffffffffffffffffffffffffffffff021916908373ffffffffffffffffffffffffffffffffffffffff160217905550806000806101000a81548173ffffffffffffffffffffffffffffffffffffffff021916908373ffffffffffffffffffffffffffffffffffffffff1602179055505062000150565b600081519050620000d08162000136565b92915050565b600060208284031215620000e957600080fd5b6000620000f984828501620000bf565b91505092915050565b60006200010f8262000116565b9050919050565b600073ffffffffffffffffffffffffffffffffffffffff82169050919050565b620001418162000102565b81146200014d57600080fd5b50565b61191a80620001606000396000f3fe608060405234801561001057600080fd5b50600436106100a95760003560e01c8063b0dec9f711610071578063b0dec9f71461016a578063cdc2cde514610188578063d3e89483146101a6578063dbf85584146101da578063de54d429146101f6578063f851a44014610214576100a9565b8063010aff09146100ae5780632b07fce3146100cc57806338fb9efc1461010057806343f670941461011c578063a5407a441461014c575b600080fd5b6100b6610232565b6040516100c3919061142d565b60405180910390f35b6100e660048036038101906100e19190611082565b6103ae565b6040516100f7959493929190611485565b60405180910390f35b61011a60048036038101906101159190610ff3565b610492565b005b61013660048036038101906101319190611082565b6107a9565b604051610143919061144f565b60405180910390f35b6101546108a4565b604051610161919061146a565b60405180910390f35b6101726108c8565b60405161017f919061142d565b60405180910390f35b610190610a46565b60405161019d919061146a565b60405180910390f35b6101c060048036038101906101bb9190611082565b610a6c565b6040516101d1959493929190611485565b60405180910390f35b6101f460048036038101906101ef91906110ab565b610b37565b005b6101fe610e54565b60405161020b919061159f565b60405180910390f35b61021c610e5a565b6040516102299190611412565b60405180910390f35b6060600080600190505b600354811161028f576002600082815260200190815260200160002060040160009054906101000a900460ff1661027c578180610278906117b8565b9250505b8080610287906117b8565b91505061023c565b5060008167ffffffffffffffff8111156102d2577f4e487b7100000000000000000000000000000000000000000000000000000000600052604160045260246000fd5b6040519080825280602002602001820160405280156103005781602001602082028036833780820191505090505b509050600080600190505b60035481116103a4576002600082815260200190815260200160002060040160009054906101000a900460ff166103915780838381518110610376577f4e487b7100000000000000000000000000000000000000000000000000000000600052603260045260246000fd5b602002602001018181525050818061038d906117b8565b9250505b808061039c906117b8565b91505061030b565b5081935050505090565b60606000806000806000600260008881526020019081526020016000209050806000018160010154826002015483600301548460040160009054906101000a900460ff168480546103fe90611786565b80601f016020809104026020016040519081016040528092919081815260200182805461042a90611786565b80156104775780601f1061044c57610100808354040283529160200191610477565b820191906000526020600020905b81548152906001019060200180831161045a57829003601f168201915b50505050509450955095509550955095505091939590929450565b60008054906101000a900473ffffffffffffffffffffffffffffffffffffffff1673ffffffffffffffffffffffffffffffffffffffff1663643d430c6040518163ffffffff1660e01b815260040160206040518083038186803b1580156104f857600080fd5b505afa15801561050c573d6000803e3d6000fd5b505050506040513d601f19601f820116820180604052508101906105309190610fca565b73ffffffffffffffffffffffffffffffffffffffff163373ffffffffffffffffffffffffffffffffffffffff161461059d576040517f08c379a0000000000000000000000000000000000000000000000000000000008152600401610594906114df565b60405180910390fd5b60008551116105e1576040517f08c379a00000000000000000000000000000000000000000000000000000000081526004016105d8906114ff565b60405180910390fd5b60008411610624576040517f08c379a000000000000000000000000000000000000000000000000000000000815260040161061b9061151f565b60405180910390fd5b60008311610667576040517f08c379a000000000000000000000000000000000000000000000000000000000815260040161065e9061153f565b60405180910390fd5b60008210156106ab576040517f08c379a00000000000000000000000000000000000000000000000000000000081526004016106a29061157f565b60405180910390fd5b600360008154809291906106be906117b8565b91905055506040518060a00160405280868152602001858152602001848152602001838152602001821515815250600260006003548152602001908152602001600020600082015181600001908051906020019061071d929190610e80565b5060208201518160010155604082015181600201556060820151816003015560808201518160040160006101000a81548160ff0219169083151502179055509050507fe9aeb04de0b3c96c58e0372bbd072b0fa5e59f252ac40672e2e0bd5fc7dc5257600354868686868660405161079a969594939291906115ba565b60405180910390a15050505050565b600080600260008481526020019081526020016000206040518060a00160405290816000820180546107da90611786565b80601f016020809104026020016040519081016040528092919081815260200182805461080690611786565b80156108535780601f1061082857610100808354040283529160200191610853565b820191906000526020600020905b81548152906001019060200180831161083657829003601f168201915b505050505081526020016001820154815260200160028201548152602001600382015481526020016004820160009054906101000a900460ff16151515158152505090508060800151915050919050565b60008054906101000a900473ffffffffffffffffffffffffffffffffffffffff1681565b6060600080600190505b6003548111610926576002600082815260200190815260200160002060040160009054906101000a900460ff161561091357818061090f906117b8565b9250505b808061091e906117b8565b9150506108d2565b5060008167ffffffffffffffff811115610969577f4e487b7100000000000000000000000000000000000000000000000000000000600052604160045260246000fd5b6040519080825280602002602001820160405280156109975781602001602082028036833780820191505090505b509050600080600190505b6003548111610a3c576002600082815260200190815260200160002060040160009054906101000a900460ff1615610a295780838381518110610a0e577f4e487b7100000000000000000000000000000000000000000000000000000000600052603260045260246000fd5b6020026020010181815250508180610a25906117b8565b9250505b8080610a34906117b8565b9150506109a2565b5081935050505090565b600460009054906101000a900473ffffffffffffffffffffffffffffffffffffffff1681565b6002602052806000526040600020600091509050806000018054610a8f90611786565b80601f0160208091040260200160405190810160405280929190818152602001828054610abb90611786565b8015610b085780601f10610add57610100808354040283529160200191610b08565b820191906000526020600020905b815481529060010190602001808311610aeb57829003601f168201915b5050505050908060010154908060020154908060030154908060040160009054906101000a900460ff16905085565b60008054906101000a900473ffffffffffffffffffffffffffffffffffffffff1673ffffffffffffffffffffffffffffffffffffffff1663643d430c6040518163ffffffff1660e01b815260040160206040518083038186803b158015610b9d57600080fd5b505afa158015610bb1573d6000803e3d6000fd5b505050506040513d601f19601f82011682018060405250810190610bd59190610fca565b73ffffffffffffffffffffffffffffffffffffffff163373ffffffffffffffffffffffffffffffffffffffff1614610c42576040517f08c379a0000000000000000000000000000000000000000000000000000000008152600401610c39906114df565b60405180910390fd5b8560008110158015610c55575060035481105b610c94576040517f08c379a0000000000000000000000000000000000000000000000000000000008152600401610c8b9061155f565b60405180910390fd5b6000865111610cd8576040517f08c379a0000000000000000000000000000000000000000000000000000000008152600401610ccf906114ff565b60405180910390fd5b60008511610d1b576040517f08c379a0000000000000000000000000000000000000000000000000000000008152600401610d129061151f565b60405180910390fd5b60008411610d5e576040517f08c379a0000000000000000000000000000000000000000000000000000000008152600401610d559061153f565b60405180910390fd5b6000831015610da2576040517f08c379a0000000000000000000000000000000000000000000000000000000008152600401610d999061157f565b60405180910390fd5b600060026000898152602001908152602001600020905086816000019080519060200190610dd1929190610e80565b50858160010181905550848160020181905550838160030181905550828160040160006101000a81548160ff0219169083151502179055507f0edf5ff2630c1eb52489be01cf42ffdede3993307cc2c0d2d47170c0ce24b9bc888888888888604051610e42969594939291906115ba565b60405180910390a15050505050505050565b60035481565b600160009054906101000a900473ffffffffffffffffffffffffffffffffffffffff1681565b828054610e8c90611786565b90600052602060002090601f016020900481019282610eae5760008555610ef5565b82601f10610ec757805160ff1916838001178555610ef5565b82800160010185558215610ef5579182015b82811115610ef4578251825591602001919060010190610ed9565b5b509050610f029190610f06565b5090565b5b80821115610f1f576000816000905550600101610f07565b5090565b6000610f36610f3184611653565b611622565b905082815260208101848484011115610f4e57600080fd5b610f59848285611744565b509392505050565b600081519050610f708161189f565b92915050565b600081359050610f85816118b6565b92915050565b600082601f830112610f9c57600080fd5b8135610fac848260208601610f23565b91505092915050565b600081359050610fc4816118cd565b92915050565b600060208284031215610fdc57600080fd5b6000610fea84828501610f61565b91505092915050565b600080600080600060a0868803121561100b57600080fd5b600086013567ffffffffffffffff81111561102557600080fd5b61103188828901610f8b565b955050602061104288828901610fb5565b945050604061105388828901610fb5565b935050606061106488828901610fb5565b925050608061107588828901610f76565b9150509295509295909350565b60006020828403121561109457600080fd5b60006110a284828501610fb5565b91505092915050565b60008060008060008060c087890312156110c457600080fd5b60006110d289828a01610fb5565b965050602087013567ffffffffffffffff8111156110ef57600080fd5b6110fb89828a01610f8b565b955050604061110c89828a01610fb5565b945050606061111d89828a01610fb5565b935050608061112e89828a01610fb5565b92505060a061113f89828a01610f76565b9150509295509295509295565b600061115883836113f4565b60208301905092915050565b61116d816116d8565b82525050565b600061117e82611693565b61118881856116b6565b935061119383611683565b8060005b838110156111c45781516111ab888261114c565b97506111b6836116a9565b925050600181019050611197565b5085935050505092915050565b6111da816116ea565b82525050565b6111e981611720565b82525050565b60006111fa8261169e565b61120481856116c7565b9350611214818560208601611753565b61121d8161188e565b840191505092915050565b6000611235603a836116c7565b91507f4d6574616d61736b206163636f756e7420616e6420616464726573732075736560008301527f6420746f207369676e20696e20646f206e6f74206d617463682e0000000000006020830152604082019050919050565b600061129b6017836116c7565b91507f506f6c696379206e616d652069732072657175697265640000000000000000006000830152602082019050919050565b60006112db601e836116c7565b91507f5072656d69756d206d7573742062652067726561746572207468616e203000006000830152602082019050919050565b600061131b6026836116c7565b91507f436f76657261676520616d6f756e74206d75737420626520677265617465722060008301527f7468616e203000000000000000000000000000000000000000000000000000006020830152604082019050919050565b60006113816011836116c7565b91507f496e76616c696420706f6c6963792049440000000000000000000000000000006000830152602082019050919050565b60006113c1601a836116c7565b91507f416765206c696d6974206d75737420626520706f7369746976650000000000006000830152602082019050919050565b6113fd81611716565b82525050565b61140c81611716565b82525050565b60006020820190506114276000830184611164565b92915050565b600060208201905081810360008301526114478184611173565b905092915050565b600060208201905061146460008301846111d1565b92915050565b600060208201905061147f60008301846111e0565b92915050565b600060a082019050818103600083015261149f81886111ef565b90506114ae6020830187611403565b6114bb6040830186611403565b6114c86060830185611403565b6114d560808301846111d1565b9695505050505050565b600060208201905081810360008301526114f881611228565b9050919050565b600060208201905081810360008301526115188161128e565b9050919050565b60006020820190508181036000830152611538816112ce565b9050919050565b600060208201905081810360008301526115588161130e565b9050919050565b6000602082019050818103600083015261157881611374565b9050919050565b60006020820190508181036000830152611598816113b4565b9050919050565b60006020820190506115b46000830184611403565b92915050565b600060c0820190506115cf6000830189611403565b81810360208301526115e181886111ef565b90506115f06040830187611403565b6115fd6060830186611403565b61160a6080830185611403565b61161760a08301846111d1565b979650505050505050565b6000604051905081810181811067ffffffffffffffff821117156116495761164861185f565b5b8060405250919050565b600067ffffffffffffffff82111561166e5761166d61185f565b5b601f19601f8301169050602081019050919050565b6000819050602082019050919050565b600081519050919050565b600081519050919050565b6000602082019050919050565b600082825260208201905092915050565b600082825260208201905092915050565b60006116e3826116f6565b9050919050565b60008115159050919050565b600073ffffffffffffffffffffffffffffffffffffffff82169050919050565b6000819050919050565b600061172b82611732565b9050919050565b600061173d826116f6565b9050919050565b82818337600083830152505050565b60005b83811015611771578082015181840152602081019050611756565b83811115611780576000848401525b50505050565b6000600282049050600182168061179e57607f821691505b602082108114156117b2576117b1611830565b5b50919050565b60006117c382611716565b91507fffffffffffffffffffffffffffffffffffffffffffffffffffffffffffffffff8214156117f6576117f5611801565b5b600182019050919050565b7f4e487b7100000000000000000000000000000000000000000000000000000000600052601160045260246000fd5b7f4e487b7100000000000000000000000000000000000000000000000000000000600052602260045260246000fd5b7f4e487b7100000000000000000000000000000000000000000000000000000000600052604160045260246000fd5b6000601f19601f8301169050919050565b6118a8816116d8565b81146118b357600080fd5b50565b6118bf816116ea565b81146118ca57600080fd5b50565b6118d681611716565b81146118e157600080fd5b5056fea2646970667358221220fd65f523b9d7e13652c35058a862341f69cce48de682876a3ce623232ccecfb264736f6c63430008000033",
  "immutableReferences": {},
  "source": "// SPDX-License-Identifier: MIT\r\npragma solidity ^0.8.0;\r\n\r\nimport \"./UserAuth.sol\";\r\n\r\ncontract AdminInsurancePolicy {\r\n    UserAuth public userAuthContract;\r\n\r\n    struct Policy {\r\n        string name;\r\n        uint256 premium;\r\n        uint256 coverageAmount;\r\n        uint256 ageLimit;\r\n        bool isActive;\r\n    }\r\n\r\n    //address public admin;\r\n    address public admin;\r\n    mapping(uint256 => Policy) public policies;\r\n    uint256 public policyCount;\r\n    UserAuth public userAuth; // Instance of UserAuth contract\r\n\r\n    // Events\r\n    event PolicyCreated(\r\n        uint256 policyId,\r\n        string name,\r\n        uint256 premium,\r\n        uint256 coverageAmount,\r\n        uint256 ageLimit,\r\n        bool isActive\r\n    );\r\n    event PolicyUpdated(\r\n        uint256 policyId,\r\n        string name,\r\n        uint256 premium,\r\n        uint256 coverageAmount,\r\n        uint256 ageLimit,\r\n        bool isActive\r\n    );\r\n    event PolicyArchived(uint256 policyId);\r\n\r\n    modifier sameAdmin() {\r\n        require(\r\n            msg.sender == userAuthContract.getCurrentAdmin(),\r\n            \"Metamask account and address used to sign in do not match.\"\r\n        );\r\n        _;\r\n    }\r\n\r\n    // Modifier to check if a policy exists\r\n    modifier policyExists(uint256 _policyId) {\r\n        require(_policyId >= 0 && _policyId < policyCount, \"Invalid policy ID\");\r\n        _;\r\n    }\r\n\r\n    // Modifier to check if a policy is active\r\n    modifier policyIsActive(uint256 _policyId) {\r\n        require(policies[_policyId].isActive, \"Policy is already archived\");\r\n        _;\r\n    }\r\n\r\n    // Constructor to initialize the contract's admin\r\n    constructor(address _userAuthAddress) {\r\n        admin = msg.sender; // Initially, the deployer is the admin\r\n        userAuthContract = UserAuth(_userAuthAddress);\r\n    }\r\n\r\n    // Function to create a new policy with input validation\r\n    function createPolicy(\r\n        string memory _name,\r\n        uint256 _premium,\r\n        uint256 _coverageAmount,\r\n        uint256 _ageLimit,\r\n        bool _isActive\r\n    ) public sameAdmin {\r\n        require(bytes(_name).length > 0, \"Policy name is required\");\r\n        require(_premium > 0, \"Premium must be greater than 0\");\r\n        require(_coverageAmount > 0, \"Coverage amount must be greater than 0\");\r\n        require(_ageLimit >= 0, \"Age limit must be positive\");\r\n\r\n        policyCount++;\r\n        policies[policyCount] = Policy(\r\n            _name,\r\n            _premium,\r\n            _coverageAmount,\r\n            _ageLimit,\r\n            _isActive\r\n        );\r\n        emit PolicyCreated(\r\n            policyCount,\r\n            _name,\r\n            _premium,\r\n            _coverageAmount,\r\n            _ageLimit,\r\n            _isActive\r\n        );\r\n    }\r\n\r\n    // Function to update an existing policy's details with validation\r\n    function updatePolicy(\r\n        uint256 _policyId,\r\n        string memory _name,\r\n        uint256 _premium,\r\n        uint256 _coverageAmount,\r\n        uint256 _ageLimit,\r\n        bool _isActive\r\n    ) public sameAdmin policyExists(_policyId) {\r\n        require(bytes(_name).length > 0, \"Policy name is required\");\r\n        require(_premium > 0, \"Premium must be greater than 0\");\r\n        require(_coverageAmount > 0, \"Coverage amount must be greater than 0\");\r\n        require(_ageLimit >= 0, \"Age limit must be positive\");\r\n\r\n        Policy storage policy = policies[_policyId];\r\n        policy.name = _name;\r\n        policy.premium = _premium;\r\n        policy.coverageAmount = _coverageAmount;\r\n        policy.ageLimit = _ageLimit;\r\n        policy.isActive = _isActive;\r\n\r\n        emit PolicyUpdated(\r\n            _policyId,\r\n            _name,\r\n            _premium,\r\n            _coverageAmount,\r\n            _ageLimit,\r\n            _isActive\r\n        );\r\n    }\r\n\r\n    // Function to fetch a policy by its ID\r\n    function getPolicy(\r\n        uint256 _policyId\r\n    ) public view returns (string memory, uint256, uint256, uint256, bool) {\r\n        Policy storage policy = policies[_policyId];\r\n        return (\r\n            policy.name,\r\n            policy.premium,\r\n            policy.coverageAmount,\r\n            policy.ageLimit,\r\n            policy.isActive\r\n        );\r\n    }\r\n\r\n    // New function to fetch all active policies\r\n    function getAllActivePolicies() public view returns (uint256[] memory) {\r\n        uint256 activeCount = 0;\r\n        for (uint256 i = 1; i <= policyCount; i++) {\r\n            if (policies[i].isActive) {\r\n                activeCount++;\r\n            }\r\n        }\r\n\r\n        uint256[] memory activePolicyIds = new uint256[](activeCount);\r\n        uint256 index = 0;\r\n        for (uint256 i = 1; i <= policyCount; i++) {\r\n            if (policies[i].isActive) {\r\n                activePolicyIds[index] = i;\r\n                index++;\r\n            }\r\n        }\r\n        return activePolicyIds;\r\n    }\r\n\r\n    // New function to fetch all archived policies (inactive)\r\n    function getAllArchivedPolicies() public view returns (uint256[] memory) {\r\n        uint256 archivedCount = 0;\r\n        for (uint256 i = 1; i <= policyCount; i++) {\r\n            if (!policies[i].isActive) {\r\n                archivedCount++;\r\n            }\r\n        }\r\n\r\n        uint256[] memory archivedPolicyIds = new uint256[](archivedCount);\r\n        uint256 index = 0;\r\n        for (uint256 i = 1; i <= policyCount; i++) {\r\n            if (!policies[i].isActive) {\r\n                archivedPolicyIds[index] = i;\r\n                index++;\r\n            }\r\n        }\r\n        return archivedPolicyIds;\r\n    }\r\n\r\n    function getPolicyAvailibility(\r\n        uint256 _policyId\r\n    ) public view returns (bool isActive) {\r\n        Policy memory policy = policies[_policyId];\r\n        return policy.isActive;\r\n    }\r\n}\r\n",
  "sourcePath": "C:\\Users\\leeda\\OneDrive\\Desktop\\Great_Global\\Danny_Test\\SponsorAnimals\\contracts\\AdminInsurancePolicy.sol",
  "compiler": {
    "name": "solc",
    "version": "0.8.0+commit.c7dfd78e.Emscripten.clang"
  },
  "schemaVersion": "3.4.16",
  "updatedAt": "2024-09-26T00:12:19.671Z",
  "networkType": "ethereum",
  "devdoc": {
    "kind": "dev",
    "methods": {},
    "version": 1
  },
  "userdoc": {
    "kind": "user",
    "methods": {},
    "version": 1
  }
}