{
  "contractName": "ClaimProcessing",
  "abi": [
    {
      "inputs": [
        {
          "internalType": "address",
          "name": "_adminPolicyAddress",
          "type": "address"
        },
        {
          "internalType": "address",
          "name": "_userAuthAddress",
          "type": "address"
        }
      ],
      "stateMutability": "nonpayable",
      "type": "constructor"
    },
    {
      "anonymous": false,
      "inputs": [
        {
          "indexed": false,
          "internalType": "string",
          "name": "user",
          "type": "string"
        },
        {
          "indexed": false,
          "internalType": "uint256",
          "name": "claimId",
          "type": "uint256"
        },
        {
          "indexed": false,
          "internalType": "uint256",
          "name": "amount",
          "type": "uint256"
        }
      ],
      "name": "ClaimAdded",
      "type": "event"
    },
    {
      "anonymous": false,
      "inputs": [
        {
          "indexed": false,
          "internalType": "string",
          "name": "user",
          "type": "string"
        },
        {
          "indexed": false,
          "internalType": "uint256",
          "name": "claimId",
          "type": "uint256"
        },
        {
          "indexed": false,
          "internalType": "bool",
          "name": "claimValid",
          "type": "bool"
        },
        {
          "indexed": false,
          "internalType": "uint256",
          "name": "amount",
          "type": "uint256"
        }
      ],
      "name": "ClaimProcessed",
      "type": "event"
    },
    {
      "anonymous": false,
      "inputs": [
        {
          "indexed": false,
          "internalType": "address",
          "name": "admin",
          "type": "address"
        },
        {
          "indexed": false,
          "internalType": "uint256",
          "name": "amount",
          "type": "uint256"
        }
      ],
      "name": "FundsAdded",
      "type": "event"
    },
    {
      "stateMutability": "payable",
      "type": "fallback",
      "payable": true
    },
    {
      "inputs": [],
      "name": "adminContract",
      "outputs": [
        {
          "internalType": "contract AdminInsurancePolicy",
          "name": "",
          "type": "address"
        }
      ],
      "stateMutability": "view",
      "type": "function",
      "constant": true
    },
    {
      "inputs": [
        {
          "internalType": "string",
          "name": "",
          "type": "string"
        }
      ],
      "name": "claimCount",
      "outputs": [
        {
          "internalType": "uint256",
          "name": "",
          "type": "uint256"
        }
      ],
      "stateMutability": "view",
      "type": "function",
      "constant": true
    },
    {
      "inputs": [
        {
          "internalType": "string",
          "name": "",
          "type": "string"
        },
        {
          "internalType": "uint256",
          "name": "",
          "type": "uint256"
        }
      ],
      "name": "claims",
      "outputs": [
        {
          "internalType": "uint256",
          "name": "amount",
          "type": "uint256"
        },
        {
          "internalType": "bool",
          "name": "isProcessed",
          "type": "bool"
        }
      ],
      "stateMutability": "view",
      "type": "function",
      "constant": true
    },
    {
      "inputs": [],
      "name": "userAuthContract",
      "outputs": [
        {
          "internalType": "contract UserAuth",
          "name": "",
          "type": "address"
        }
      ],
      "stateMutability": "view",
      "type": "function",
      "constant": true
    },
    {
      "stateMutability": "payable",
      "type": "receive",
      "payable": true
    },
    {
      "inputs": [
        {
          "internalType": "uint256",
          "name": "amount",
          "type": "uint256"
        }
      ],
      "name": "addClaim",
      "outputs": [],
      "stateMutability": "nonpayable",
      "type": "function"
    },
    {
      "inputs": [
        {
          "internalType": "string",
          "name": "user",
          "type": "string"
        },
        {
          "internalType": "uint256",
          "name": "claimId",
          "type": "uint256"
        },
        {
          "internalType": "bool",
          "name": "claimValid",
          "type": "bool"
        }
      ],
      "name": "approveClaim",
      "outputs": [],
      "stateMutability": "nonpayable",
      "type": "function"
    },
    {
      "inputs": [
        {
          "internalType": "string",
          "name": "user",
          "type": "string"
        }
      ],
      "name": "getUnprocessedClaims",
      "outputs": [
        {
          "internalType": "uint256[]",
          "name": "",
          "type": "uint256[]"
        },
        {
          "internalType": "uint256[]",
          "name": "",
          "type": "uint256[]"
        }
      ],
      "stateMutability": "view",
      "type": "function",
      "constant": true
    },
    {
      "inputs": [],
      "name": "getAllUnprocessedClaims",
      "outputs": [
        {
          "internalType": "string[]",
          "name": "",
          "type": "string[]"
        },
        {
          "internalType": "uint256[]",
          "name": "",
          "type": "uint256[]"
        },
        {
          "internalType": "uint256[]",
          "name": "",
          "type": "uint256[]"
        }
      ],
      "stateMutability": "view",
      "type": "function",
      "constant": true
    },
    {
      "inputs": [],
      "name": "fund",
      "outputs": [],
      "stateMutability": "payable",
      "type": "function",
      "payable": true
    },
    {
      "inputs": [],
      "name": "getBalance",
      "outputs": [
        {
          "internalType": "uint256",
          "name": "",
          "type": "uint256"
        }
      ],
      "stateMutability": "view",
      "type": "function",
      "constant": true
    }
  ],
  "bytecode": "0x60806040523480156200001157600080fd5b506040516200238e3803806200238e8339818101604052810190620000379190620000d7565b816000806101000a81548173ffffffffffffffffffffffffffffffffffffffff021916908373ffffffffffffffffffffffffffffffffffffffff16021790555080600160006101000a81548173ffffffffffffffffffffffffffffffffffffffff021916908373ffffffffffffffffffffffffffffffffffffffff160217905550505062000166565b600081519050620000d1816200014c565b92915050565b60008060408385031215620000eb57600080fd5b6000620000fb85828601620000c0565b92505060206200010e85828601620000c0565b9150509250929050565b600062000125826200012c565b9050919050565b600073ffffffffffffffffffffffffffffffffffffffff82169050919050565b620001578162000118565b81146200016357600080fd5b50565b61221880620001766000396000f3fe6080604052600436106100955760003560e01c80638f28d528116100595780638f28d52814610196578063a5407a44146101c3578063b60d4288146101ee578063c05c5e94146101f8578063e84a8056146102235761009c565b806312065fe01461009e5780631fb42d3d146100c9578063699b4451146100f2578063745c25f6146101305780638c537bb1146101595761009c565b3661009c57005b005b3480156100aa57600080fd5b506100b3610261565b6040516100c09190611e8d565b60405180910390f35b3480156100d557600080fd5b506100f060048036038101906100eb91906117c7565b610269565b005b3480156100fe57600080fd5b5061011960048036038101906101149190611773565b6106ef565b604051610127929190611ea8565b60405180910390f35b34801561013c57600080fd5b506101576004803603810190610152919061182e565b610743565b005b34801561016557600080fd5b50610180600480360381019061017b91906116f1565b6108f7565b60405161018d9190611e8d565b60405180910390f35b3480156101a257600080fd5b506101ab610925565b6040516101ba93929190611c68565b60405180910390f35b3480156101cf57600080fd5b506101d8610f4f565b6040516101e59190611d06565b60405180910390f35b6101f6610f75565b005b34801561020457600080fd5b5061020d611100565b60405161021a9190611ceb565b60405180910390f35b34801561022f57600080fd5b5061024a600480360381019061024591906116f1565b611124565b604051610258929190611cb4565b60405180910390f35b600047905090565b600160009054906101000a900473ffffffffffffffffffffffffffffffffffffffff1673ffffffffffffffffffffffffffffffffffffffff1663643d430c6040518163ffffffff1660e01b815260040160206040518083038186803b1580156102d157600080fd5b505afa1580156102e5573d6000803e3d6000fd5b505050506040513d601f19601f820116820180604052508101906103099190611687565b73ffffffffffffffffffffffffffffffffffffffff163373ffffffffffffffffffffffffffffffffffffffff1614610376576040517f08c379a000000000000000000000000000000000000000000000000000000000815260040161036d90611ded565b60405180910390fd5b6003836040516103869190611c13565b90815260200160405180910390205482106103d6576040517f08c379a00000000000000000000000000000000000000000000000000000000081526004016103cd90611e2d565b60405180910390fd5b6002836040516103e69190611c13565b9081526020016040518091039020600083815260200190815260200160002060010160009054906101000a900460ff1615610456576040517f08c379a000000000000000000000000000000000000000000000000000000000815260040161044d90611e4d565b60405180910390fd5b60006002846040516104689190611c13565b908152602001604051809103902060008481526020019081526020016000206000015490506000600160009054906101000a900473ffffffffffffffffffffffffffffffffffffffff1673ffffffffffffffffffffffffffffffffffffffff1663b0bcdd91866040518263ffffffff1660e01b81526004016104ea9190611d21565b60206040518083038186803b15801561050257600080fd5b505afa158015610516573d6000803e3d6000fd5b505050506040513d601f19601f8201168201806040525081019061053a9190611687565b9050600073ffffffffffffffffffffffffffffffffffffffff168173ffffffffffffffffffffffffffffffffffffffff1614156105ac576040517f08c379a00000000000000000000000000000000000000000000000000000000081526004016105a390611e0d565b60405180910390fd5b82156106605760008173ffffffffffffffffffffffffffffffffffffffff16836040516105d890611c2a565b60006040518083038185875af1925050503d8060008114610615576040519150601f19603f3d011682016040523d82523d6000602084013e61061a565b606091505b505090508061065e576040517f08c379a000000000000000000000000000000000000000000000000000000000815260040161065590611e6d565b60405180910390fd5b505b60016002866040516106729190611c13565b9081526020016040518091039020600086815260200190815260200160002060010160006101000a81548160ff0219169083151502179055507ffc79a074c8639ae33bdef4546a9d018a539b5729acced7f2b26b6f6d81410ee6858585856040516106e09493929190611d43565b60405180910390a15050505050565b600282805160208101820180518482526020830160208501208183528095505050505050602052806000526040600020600091509150508060000154908060010160009054906101000a900460ff16905082565b6000600160009054906101000a900473ffffffffffffffffffffffffffffffffffffffff1673ffffffffffffffffffffffffffffffffffffffff166343ae37c36040518163ffffffff1660e01b815260040160006040518083038186803b1580156107ad57600080fd5b505afa1580156107c1573d6000803e3d6000fd5b505050506040513d6000823e3d601f19601f820116820180604052508101906107ea9190611732565b905060006003826040516107fe9190611c13565b90815260200160405180910390205490506040518060400160405280848152602001600015158152506002836040516108379190611c13565b908152602001604051809103902060008381526020019081526020016000206000820151816000015560208201518160010160006101000a81548160ff0219169083151502179055509050506003826040516108939190611c13565b908152602001604051809103902060008154809291906108b2906120e5565b91905055507fbe47f422f33a7eef123ab19d1834952192e8496c679d9bc9998feb7e90352f088282856040516108ea93929190611d8f565b60405180910390a1505050565b6003818051602081018201805184825260208301602085012081835280955050505050506000915090505481565b6060806060600160009054906101000a900473ffffffffffffffffffffffffffffffffffffffff1673ffffffffffffffffffffffffffffffffffffffff1663643d430c6040518163ffffffff1660e01b815260040160206040518083038186803b15801561099257600080fd5b505afa1580156109a6573d6000803e3d6000fd5b505050506040513d601f19601f820116820180604052508101906109ca9190611687565b73ffffffffffffffffffffffffffffffffffffffff163373ffffffffffffffffffffffffffffffffffffffff1614610a37576040517f08c379a0000000000000000000000000000000000000000000000000000000008152600401610a2e90611ded565b60405180910390fd5b600080600160009054906101000a900473ffffffffffffffffffffffffffffffffffffffff1673ffffffffffffffffffffffffffffffffffffffff16631bb647226040518163ffffffff1660e01b815260040160006040518083038186803b158015610aa257600080fd5b505afa158015610ab6573d6000803e3d6000fd5b505050506040513d6000823e3d601f19601f82011682018060405250810190610adf91906116b0565b905060005b8151811015610bdc576000828281518110610b28577f4e487b7100000000000000000000000000000000000000000000000000000000600052603260045260246000fd5b602002602001015190506000600382604051610b449190611c13565b908152602001604051809103902054905060005b81811015610bc657600283604051610b709190611c13565b9081526020016040518091039020600082815260200190815260200160002060010160009054906101000a900460ff16610bb3578580610baf906120e5565b9650505b8080610bbe906120e5565b915050610b58565b5050508080610bd4906120e5565b915050610ae4565b5060008267ffffffffffffffff811115610c1f577f4e487b7100000000000000000000000000000000000000000000000000000000600052604160045260246000fd5b604051908082528060200260200182016040528015610c5257816020015b6060815260200190600190039081610c3d5790505b50905060008367ffffffffffffffff811115610c97577f4e487b7100000000000000000000000000000000000000000000000000000000600052604160045260246000fd5b604051908082528060200260200182016040528015610cc55781602001602082028036833780820191505090505b50905060008467ffffffffffffffff811115610d0a577f4e487b7100000000000000000000000000000000000000000000000000000000600052604160045260246000fd5b604051908082528060200260200182016040528015610d385781602001602082028036833780820191505090505b5090506000805b8551811015610f3a576000868281518110610d83577f4e487b7100000000000000000000000000000000000000000000000000000000600052603260045260246000fd5b602002602001015190506000600382604051610d9f9190611c13565b908152602001604051809103902054905060005b81811015610f2457600283604051610dcb9190611c13565b9081526020016040518091039020600082815260200190815260200160002060010160009054906101000a900460ff16610f115782888681518110610e39577f4e487b7100000000000000000000000000000000000000000000000000000000600052603260045260246000fd5b602002602001018190525080878681518110610e7e577f4e487b7100000000000000000000000000000000000000000000000000000000600052603260045260246000fd5b602002602001018181525050600283604051610e9a9190611c13565b9081526020016040518091039020600082815260200190815260200160002060000154868681518110610ef6577f4e487b7100000000000000000000000000000000000000000000000000000000600052603260045260246000fd5b6020026020010181815250508480610f0d906120e5565b9550505b8080610f1c906120e5565b915050610db3565b5050508080610f32906120e5565b915050610d3f565b50838383985098509850505050505050909192565b600160009054906101000a900473ffffffffffffffffffffffffffffffffffffffff1681565b600160009054906101000a900473ffffffffffffffffffffffffffffffffffffffff1673ffffffffffffffffffffffffffffffffffffffff1663643d430c6040518163ffffffff1660e01b815260040160206040518083038186803b158015610fdd57600080fd5b505afa158015610ff1573d6000803e3d6000fd5b505050506040513d601f19601f820116820180604052508101906110159190611687565b73ffffffffffffffffffffffffffffffffffffffff163373ffffffffffffffffffffffffffffffffffffffff1614611082576040517f08c379a000000000000000000000000000000000000000000000000000000000815260040161107990611ded565b60405180910390fd5b600034116110c5576040517f08c379a00000000000000000000000000000000000000000000000000000000081526004016110bc90611dcd565b60405180910390fd5b7f8fe10ae416f22f5e5220b0018a6c1d4ff534d6aa3a471f2a20cb7747fe63e5b933346040516110f6929190611c3f565b60405180910390a1565b60008054906101000a900473ffffffffffffffffffffffffffffffffffffffff1681565b606080600160009054906101000a900473ffffffffffffffffffffffffffffffffffffffff1673ffffffffffffffffffffffffffffffffffffffff1663643d430c6040518163ffffffff1660e01b815260040160206040518083038186803b15801561118f57600080fd5b505afa1580156111a3573d6000803e3d6000fd5b505050506040513d601f19601f820116820180604052508101906111c79190611687565b73ffffffffffffffffffffffffffffffffffffffff163373ffffffffffffffffffffffffffffffffffffffff1614611234576040517f08c379a000000000000000000000000000000000000000000000000000000000815260040161122b90611ded565b60405180910390fd5b6000806003856040516112479190611c13565b908152602001604051809103902054905060005b818110156112c9576002866040516112739190611c13565b9081526020016040518091039020600082815260200190815260200160002060010160009054906101000a900460ff166112b65782806112b2906120e5565b9350505b80806112c1906120e5565b91505061125b565b5060008267ffffffffffffffff81111561130c577f4e487b7100000000000000000000000000000000000000000000000000000000600052604160045260246000fd5b60405190808252806020026020018201604052801561133a5781602001602082028036833780820191505090505b50905060008367ffffffffffffffff81111561137f577f4e487b7100000000000000000000000000000000000000000000000000000000600052604160045260246000fd5b6040519080825280602002602001820160405280156113ad5781602001602082028036833780820191505090505b5090506000805b848110156114e0576002896040516113cc9190611c13565b9081526020016040518091039020600082815260200190815260200160002060010160009054906101000a900460ff166114cd578084838151811061143a577f4e487b7100000000000000000000000000000000000000000000000000000000600052603260045260246000fd5b6020026020010181815250506002896040516114569190611c13565b90815260200160405180910390206000828152602001908152602001600020600001548383815181106114b2577f4e487b7100000000000000000000000000000000000000000000000000000000600052603260045260246000fd5b60200260200101818152505081806114c9906120e5565b9250505b80806114d8906120e5565b9150506113b4565b508282965096505050505050915091565b60006115046114ff84611f02565b611ed1565b9050808382526020820190508260005b85811015611544578151850161152a8882611648565b845260208401935060208301925050600181019050611514565b5050509392505050565b600061156161155c84611f2e565b611ed1565b90508281526020810184848401111561157957600080fd5b6115848482856120a3565b509392505050565b600061159f61159a84611f2e565b611ed1565b9050828152602081018484840111156115b757600080fd5b6115c28482856120b2565b509392505050565b6000815190506115d98161219d565b92915050565b600082601f8301126115f057600080fd5b81516116008482602086016114f1565b91505092915050565b600081359050611618816121b4565b92915050565b600082601f83011261162f57600080fd5b813561163f84826020860161154e565b91505092915050565b600082601f83011261165957600080fd5b815161166984826020860161158c565b91505092915050565b600081359050611681816121cb565b92915050565b60006020828403121561169957600080fd5b60006116a7848285016115ca565b91505092915050565b6000602082840312156116c257600080fd5b600082015167ffffffffffffffff8111156116dc57600080fd5b6116e8848285016115df565b91505092915050565b60006020828403121561170357600080fd5b600082013567ffffffffffffffff81111561171d57600080fd5b6117298482850161161e565b91505092915050565b60006020828403121561174457600080fd5b600082015167ffffffffffffffff81111561175e57600080fd5b61176a84828501611648565b91505092915050565b6000806040838503121561178657600080fd5b600083013567ffffffffffffffff8111156117a057600080fd5b6117ac8582860161161e565b92505060206117bd85828601611672565b9150509250929050565b6000806000606084860312156117dc57600080fd5b600084013567ffffffffffffffff8111156117f657600080fd5b6118028682870161161e565b935050602061181386828701611672565b925050604061182486828701611609565b9150509250925092565b60006020828403121561184057600080fd5b600061184e84828501611672565b91505092915050565b60006118638383611992565b905092915050565b60006118778383611bf5565b60208301905092915050565b61188c81612013565b82525050565b600061189d82611f7e565b6118a78185611fb9565b9350836020820285016118b985611f5e565b8060005b858110156118f557848403895281516118d68582611857565b94506118e183611f9f565b925060208a019950506001810190506118bd565b50829750879550505050505092915050565b600061191282611f89565b61191c8185611fca565b935061192783611f6e565b8060005b8381101561195857815161193f888261186b565b975061194a83611fac565b92505060018101905061192b565b5085935050505092915050565b61196e81612025565b82525050565b61197d8161205b565b82525050565b61198c8161207f565b82525050565b600061199d82611f94565b6119a78185611fe6565b93506119b78185602086016120b2565b6119c08161218c565b840191505092915050565b60006119d682611f94565b6119e08185611ff7565b93506119f08185602086016120b2565b6119f98161218c565b840191505092915050565b6000611a0f82611f94565b611a198185612008565b9350611a298185602086016120b2565b80840191505092915050565b6000611a42601e83611ff7565b91507f416d6f756e74206d7573742062652067726561746572207468616e20302e00006000830152602082019050919050565b6000611a82603a83611ff7565b91507f4d6574616d61736b206163636f756e7420616e6420616464726573732075736560008301527f6420746f207369676e20696e20646f206e6f74206d617463682e0000000000006020830152604082019050919050565b6000611ae8601783611ff7565b91507f496e76616c696420726566756e6420616464726573732e0000000000000000006000830152602082019050919050565b6000611b28601583611ff7565b91507f436c61696d20646f6573206e6f742065786973742e00000000000000000000006000830152602082019050919050565b6000611b68601883611ff7565b91507f436c61696d20616c72656164792070726f6365737365642e00000000000000006000830152602082019050919050565b6000611ba8600083611fdb565b9150600082019050919050565b6000611bc2601783611ff7565b91507f526566756e64207472616e73666572206661696c65642e0000000000000000006000830152602082019050919050565b611bfe81612051565b82525050565b611c0d81612051565b82525050565b6000611c1f8284611a04565b915081905092915050565b6000611c3582611b9b565b9150819050919050565b6000604082019050611c546000830185611883565b611c616020830184611c04565b9392505050565b60006060820190508181036000830152611c828186611892565b90508181036020830152611c968185611907565b90508181036040830152611caa8184611907565b9050949350505050565b60006040820190508181036000830152611cce8185611907565b90508181036020830152611ce28184611907565b90509392505050565b6000602082019050611d006000830184611974565b92915050565b6000602082019050611d1b6000830184611983565b92915050565b60006020820190508181036000830152611d3b81846119cb565b905092915050565b60006080820190508181036000830152611d5d81876119cb565b9050611d6c6020830186611c04565b611d796040830185611965565b611d866060830184611c04565b95945050505050565b60006060820190508181036000830152611da981866119cb565b9050611db86020830185611c04565b611dc56040830184611c04565b949350505050565b60006020820190508181036000830152611de681611a35565b9050919050565b60006020820190508181036000830152611e0681611a75565b9050919050565b60006020820190508181036000830152611e2681611adb565b9050919050565b60006020820190508181036000830152611e4681611b1b565b9050919050565b60006020820190508181036000830152611e6681611b5b565b9050919050565b60006020820190508181036000830152611e8681611bb5565b9050919050565b6000602082019050611ea26000830184611c04565b92915050565b6000604082019050611ebd6000830185611c04565b611eca6020830184611965565b9392505050565b6000604051905081810181811067ffffffffffffffff82111715611ef857611ef761215d565b5b8060405250919050565b600067ffffffffffffffff821115611f1d57611f1c61215d565b5b602082029050602081019050919050565b600067ffffffffffffffff821115611f4957611f4861215d565b5b601f19601f8301169050602081019050919050565b6000819050602082019050919050565b6000819050602082019050919050565b600081519050919050565b600081519050919050565b600081519050919050565b6000602082019050919050565b6000602082019050919050565b600082825260208201905092915050565b600082825260208201905092915050565b600081905092915050565b600082825260208201905092915050565b600082825260208201905092915050565b600081905092915050565b600061201e82612031565b9050919050565b60008115159050919050565b600073ffffffffffffffffffffffffffffffffffffffff82169050919050565b6000819050919050565b60006120668261206d565b9050919050565b600061207882612031565b9050919050565b600061208a82612091565b9050919050565b600061209c82612031565b9050919050565b82818337600083830152505050565b60005b838110156120d05780820151818401526020810190506120b5565b838111156120df576000848401525b50505050565b60006120f082612051565b91507fffffffffffffffffffffffffffffffffffffffffffffffffffffffffffffffff8214156121235761212261212e565b5b600182019050919050565b7f4e487b7100000000000000000000000000000000000000000000000000000000600052601160045260246000fd5b7f4e487b7100000000000000000000000000000000000000000000000000000000600052604160045260246000fd5b6000601f19601f8301169050919050565b6121a681612013565b81146121b157600080fd5b50565b6121bd81612025565b81146121c857600080fd5b50565b6121d481612051565b81146121df57600080fd5b5056fea264697066735822122028e649e445e5ceb754ae45b9bc5a0025cb12ffd6890a3c3f1ea0accc7c51291964736f6c63430008000033",
  "immutableReferences": {},
  "source": "// SPDX-License-Identifier: MIT\r\npragma solidity ^0.8.0;\r\n\r\nimport \"./AdminInsurancePolicy.sol\";\r\nimport \"./UserAuth.sol\";\r\n\r\n// import \"./PurchasePackage.sol\";\r\n\r\ncontract ClaimProcessing {\r\n    AdminInsurancePolicy public adminContract;\r\n    UserAuth public userAuthContract;\r\n    //PurchasePackage public userPurchasePackageContract;\r\n\r\n    struct Claim {\r\n        uint256 amount;\r\n        bool isProcessed;\r\n    }\r\n\r\n    mapping(string => mapping(uint256 => Claim)) public claims;\r\n    mapping(string => uint256) public claimCount;\r\n\r\n    event ClaimAdded(string user, uint256 claimId, uint256 amount);\r\n\r\n    event ClaimProcessed(\r\n        string user,\r\n        uint256 claimId,\r\n        bool claimValid,\r\n        uint256 amount\r\n    );\r\n\r\n    event FundsAdded(address admin, uint256 amount);\r\n\r\n    //, address _userPurchasePackageAddress\r\n    constructor(address _adminPolicyAddress, address _userAuthAddress) {\r\n        adminContract = AdminInsurancePolicy(_adminPolicyAddress);\r\n        userAuthContract = UserAuth(_userAuthAddress);\r\n        //userPurchasePackageContract = PurchasePackage(_userPurchasePackageAddress);\r\n    }\r\n\r\n    modifier sameAdmin() {\r\n        require(\r\n            msg.sender == userAuthContract.getCurrentAdmin(),\r\n            \"Metamask account and address used to sign in do not match.\"\r\n        );\r\n        _;\r\n    }\r\n\r\n    function addClaim(uint256 amount) public {\r\n        string memory user = userAuthContract.getCurrentUser();\r\n        uint256 claimId = claimCount[user];\r\n        claims[user][claimId] = Claim(amount, false);\r\n        claimCount[user]++;\r\n        emit ClaimAdded(user, claimId, amount);\r\n    }\r\n\r\n    function approveClaim(\r\n        string memory user,\r\n        uint256 claimId,\r\n        bool claimValid\r\n    ) public sameAdmin {\r\n        require(claimId < claimCount[user], \"Claim does not exist.\");\r\n        require(!claims[user][claimId].isProcessed, \"Claim already processed.\");\r\n\r\n        uint256 amount = claims[user][claimId].amount;\r\n\r\n        address refundAddress = userAuthContract.getUserRefundAddress(user);\r\n        require(refundAddress != address(0), \"Invalid refund address.\");\r\n\r\n        if (claimValid) {\r\n            (bool success, ) = refundAddress.call{value: amount}(\"\");\r\n            require(success, \"Refund transfer failed.\");\r\n        }\r\n\r\n        claims[user][claimId].isProcessed = true;\r\n        emit ClaimProcessed(user, claimId, claimValid, amount);\r\n    }\r\n\r\n    // Function to get all unprocessed claims for a specific user\r\n    function getUnprocessedClaims(\r\n        string memory user\r\n    ) public view sameAdmin returns (uint256[] memory, uint256[] memory) {\r\n        uint256 unprocessedCount = 0;\r\n        uint256 totalClaims = claimCount[user];\r\n\r\n        for (uint256 i = 0; i < totalClaims; i++) {\r\n            if (!claims[user][i].isProcessed) {\r\n                unprocessedCount++;\r\n            }\r\n        }\r\n\r\n        uint256[] memory claimIds = new uint256[](unprocessedCount);\r\n        uint256[] memory claimAmount = new uint256[](unprocessedCount);\r\n        uint256 index = 0;\r\n\r\n        for (uint256 i = 0; i < totalClaims; i++) {\r\n            if (!claims[user][i].isProcessed) {\r\n                claimIds[index] = i;\r\n                claimAmount[index] = claims[user][i].amount;\r\n                index++;\r\n            }\r\n        }\r\n\r\n        return (claimIds, claimAmount);\r\n    }\r\n\r\n    // Function to get all unprocessed claims for all users\r\n    function getAllUnprocessedClaims()\r\n        public\r\n        view\r\n        sameAdmin\r\n        returns (string[] memory, uint256[] memory, uint256[] memory)\r\n    {\r\n        uint256 totalUnprocessed = 0;\r\n\r\n        string[] memory users = userAuthContract.getRegisteredUserEmails();\r\n\r\n        for (uint256 j = 0; j < users.length; j++) {\r\n            string memory user = users[j];\r\n            uint256 totalClaims = claimCount[user];\r\n\r\n            for (uint256 i = 0; i < totalClaims; i++) {\r\n                if (!claims[user][i].isProcessed) {\r\n                    totalUnprocessed++;\r\n                }\r\n            }\r\n        }\r\n\r\n        string[] memory userAddresses = new string[](totalUnprocessed);\r\n        uint256[] memory claimIds = new uint256[](totalUnprocessed);\r\n        uint256[] memory claimAmount = new uint256[](totalUnprocessed);\r\n        uint256 index = 0;\r\n\r\n        for (uint256 j = 0; j < users.length; j++) {\r\n            string memory user = users[j];\r\n            uint256 totalClaims = claimCount[user];\r\n\r\n            for (uint256 i = 0; i < totalClaims; i++) {\r\n                if (!claims[user][i].isProcessed) {\r\n                    userAddresses[index] = user;\r\n                    claimIds[index] = i;\r\n                    claimAmount[index] = claims[user][i].amount;\r\n                    index++;\r\n                }\r\n            }\r\n        }\r\n\r\n        return (userAddresses, claimIds, claimAmount);\r\n    }\r\n\r\n    function fund() public payable sameAdmin {\r\n        require(msg.value > 0, \"Amount must be greater than 0.\");\r\n        emit FundsAdded(msg.sender, msg.value);\r\n    }\r\n\r\n    receive() external payable {}\r\n\r\n    fallback() external payable {}\r\n\r\n    function getBalance() public view returns (uint256) {\r\n        return address(this).balance;\r\n    }\r\n}\r\n",
  "sourcePath": "C:\\Users\\leeda\\OneDrive\\Desktop\\Great_Global\\Danny_Test\\SponsorAnimals\\contracts\\ClaimProcessing.sol",
  "compiler": {
    "name": "solc",
    "version": "0.8.0+commit.c7dfd78e.Emscripten.clang"
  },
  "schemaVersion": "3.4.16",
  "updatedAt": "2024-09-26T10:37:23.460Z",
  "networkType": "ethereum",
  "devdoc": {
    "kind": "dev",
    "methods": {},
    "version": 1
  },
  "userdoc": {
    "kind": "user",
    "methods": {},
    "version": 1
  }
}