{
  "contractName": "ClaimProcessing",
  "abi": [
    {
      "inputs": [
        {
          "internalType": "address",
          "name": "_adminPolicyAddress",
          "type": "address"
        },
        {
          "internalType": "address",
          "name": "_userAuthAddress",
          "type": "address"
        }
      ],
      "stateMutability": "nonpayable",
      "type": "constructor"
    },
    {
      "anonymous": false,
      "inputs": [
        {
          "indexed": false,
          "internalType": "string",
          "name": "user",
          "type": "string"
        },
        {
          "indexed": false,
          "internalType": "uint256",
          "name": "claimId",
          "type": "uint256"
        },
        {
          "indexed": false,
          "internalType": "uint256",
          "name": "amount",
          "type": "uint256"
        }
      ],
      "name": "ClaimAdded",
      "type": "event"
    },
    {
      "anonymous": false,
      "inputs": [
        {
          "indexed": false,
          "internalType": "string",
          "name": "user",
          "type": "string"
        },
        {
          "indexed": false,
          "internalType": "uint256",
          "name": "claimId",
          "type": "uint256"
        },
        {
          "indexed": false,
          "internalType": "bool",
          "name": "claimValid",
          "type": "bool"
        },
        {
          "indexed": false,
          "internalType": "uint256",
          "name": "amount",
          "type": "uint256"
        }
      ],
      "name": "ClaimProcessed",
      "type": "event"
    },
    {
      "anonymous": false,
      "inputs": [
        {
          "indexed": false,
          "internalType": "address",
          "name": "admin",
          "type": "address"
        },
        {
          "indexed": false,
          "internalType": "uint256",
          "name": "amount",
          "type": "uint256"
        }
      ],
      "name": "FundsAdded",
      "type": "event"
    },
    {
      "stateMutability": "payable",
      "type": "fallback",
      "payable": true
    },
    {
      "inputs": [],
      "name": "adminContract",
      "outputs": [
        {
          "internalType": "contract AdminInsurancePolicy",
          "name": "",
          "type": "address"
        }
      ],
      "stateMutability": "view",
      "type": "function",
      "constant": true
    },
    {
      "inputs": [
        {
          "internalType": "string",
          "name": "",
          "type": "string"
        }
      ],
      "name": "claimCount",
      "outputs": [
        {
          "internalType": "uint256",
          "name": "",
          "type": "uint256"
        }
      ],
      "stateMutability": "view",
      "type": "function",
      "constant": true
    },
    {
      "inputs": [
        {
          "internalType": "string",
          "name": "",
          "type": "string"
        },
        {
          "internalType": "uint256",
          "name": "",
          "type": "uint256"
        }
      ],
      "name": "claims",
      "outputs": [
        {
          "internalType": "uint256",
          "name": "amount",
          "type": "uint256"
        },
        {
          "internalType": "bool",
          "name": "isProcessed",
          "type": "bool"
        }
      ],
      "stateMutability": "view",
      "type": "function",
      "constant": true
    },
    {
      "inputs": [],
      "name": "userAuthContract",
      "outputs": [
        {
          "internalType": "contract UserAuth",
          "name": "",
          "type": "address"
        }
      ],
      "stateMutability": "view",
      "type": "function",
      "constant": true
    },
    {
      "stateMutability": "payable",
      "type": "receive",
      "payable": true
    },
    {
      "inputs": [
        {
          "internalType": "uint256",
          "name": "amount",
          "type": "uint256"
        }
      ],
      "name": "addClaim",
      "outputs": [],
      "stateMutability": "nonpayable",
      "type": "function"
    },
    {
      "inputs": [
        {
          "internalType": "string",
          "name": "user",
          "type": "string"
        },
        {
          "internalType": "uint256",
          "name": "claimId",
          "type": "uint256"
        },
        {
          "internalType": "bool",
          "name": "claimValid",
          "type": "bool"
        }
      ],
      "name": "approveClaim",
      "outputs": [],
      "stateMutability": "nonpayable",
      "type": "function"
    },
    {
      "inputs": [
        {
          "internalType": "string",
          "name": "user",
          "type": "string"
        }
      ],
      "name": "getUnprocessedClaims",
      "outputs": [
        {
          "internalType": "uint256[]",
          "name": "",
          "type": "uint256[]"
        },
        {
          "internalType": "uint256[]",
          "name": "",
          "type": "uint256[]"
        }
      ],
      "stateMutability": "view",
      "type": "function",
      "constant": true
    },
    {
      "inputs": [],
      "name": "getAllUnprocessedClaims",
      "outputs": [
        {
          "internalType": "string[]",
          "name": "",
          "type": "string[]"
        },
        {
          "internalType": "uint256[]",
          "name": "",
          "type": "uint256[]"
        },
        {
          "internalType": "uint256[]",
          "name": "",
          "type": "uint256[]"
        }
      ],
      "stateMutability": "view",
      "type": "function",
      "constant": true
    },
    {
      "inputs": [],
      "name": "fund",
      "outputs": [],
      "stateMutability": "payable",
      "type": "function",
      "payable": true
    },
    {
      "inputs": [],
      "name": "getBalance",
      "outputs": [
        {
          "internalType": "uint256",
          "name": "",
          "type": "uint256"
        }
      ],
      "stateMutability": "view",
      "type": "function",
      "constant": true
    }
  ],
  "bytecode": "0x60806040523480156200001157600080fd5b50604051620022be380380620022be8339818101604052810190620000379190620000d7565b816000806101000a81548173ffffffffffffffffffffffffffffffffffffffff021916908373ffffffffffffffffffffffffffffffffffffffff16021790555080600160006101000a81548173ffffffffffffffffffffffffffffffffffffffff021916908373ffffffffffffffffffffffffffffffffffffffff160217905550505062000166565b600081519050620000d1816200014c565b92915050565b60008060408385031215620000eb57600080fd5b6000620000fb85828601620000c0565b92505060206200010e85828601620000c0565b9150509250929050565b600062000125826200012c565b9050919050565b600073ffffffffffffffffffffffffffffffffffffffff82169050919050565b620001578162000118565b81146200016357600080fd5b50565b61214880620001766000396000f3fe6080604052600436106100955760003560e01c80638f28d528116100595780638f28d52814610196578063a5407a44146101c3578063b60d4288146101ee578063c05c5e94146101f8578063e84a8056146102235761009c565b806312065fe01461009e5780631fb42d3d146100c9578063699b4451146100f2578063745c25f6146101305780638c537bb1146101595761009c565b3661009c57005b005b3480156100aa57600080fd5b506100b3610261565b6040516100c09190611dbd565b60405180910390f35b3480156100d557600080fd5b506100f060048036038101906100eb9190611757565b610269565b005b3480156100fe57600080fd5b5061011960048036038101906101149190611703565b61067f565b604051610127929190611dd8565b60405180910390f35b34801561013c57600080fd5b50610157600480360381019061015291906117be565b6106d3565b005b34801561016557600080fd5b50610180600480360381019061017b9190611681565b610887565b60405161018d9190611dbd565b60405180910390f35b3480156101a257600080fd5b506101ab6108b5565b6040516101ba93929190611bb8565b60405180910390f35b3480156101cf57600080fd5b506101d8610edf565b6040516101e59190611c56565b60405180910390f35b6101f6610f05565b005b34801561020457600080fd5b5061020d611090565b60405161021a9190611c3b565b60405180910390f35b34801561022f57600080fd5b5061024a60048036038101906102459190611681565b6110b4565b604051610258929190611c04565b60405180910390f35b600047905090565b600160009054906101000a900473ffffffffffffffffffffffffffffffffffffffff1673ffffffffffffffffffffffffffffffffffffffff1663643d430c6040518163ffffffff1660e01b815260040160206040518083038186803b1580156102d157600080fd5b505afa1580156102e5573d6000803e3d6000fd5b505050506040513d601f19601f820116820180604052508101906103099190611617565b73ffffffffffffffffffffffffffffffffffffffff163373ffffffffffffffffffffffffffffffffffffffff1614610376576040517f08c379a000000000000000000000000000000000000000000000000000000000815260040161036d90611d3d565b60405180910390fd5b6003836040516103869190611b63565b90815260200160405180910390205482106103d6576040517f08c379a00000000000000000000000000000000000000000000000000000000081526004016103cd90611d5d565b60405180910390fd5b6002836040516103e69190611b63565b9081526020016040518091039020600083815260200190815260200160002060010160009054906101000a900460ff1615610456576040517f08c379a000000000000000000000000000000000000000000000000000000000815260040161044d90611d7d565b60405180910390fd5b60006002846040516104689190611b63565b908152602001604051809103902060008481526020019081526020016000206000015490506000600160009054906101000a900473ffffffffffffffffffffffffffffffffffffffff1673ffffffffffffffffffffffffffffffffffffffff1663b0bcdd91866040518263ffffffff1660e01b81526004016104ea9190611c71565b60206040518083038186803b15801561050257600080fd5b505afa158015610516573d6000803e3d6000fd5b505050506040513d601f19601f8201168201806040525081019061053a9190611617565b905082156105f05760008173ffffffffffffffffffffffffffffffffffffffff168360405161056890611b7a565b60006040518083038185875af1925050503d80600081146105a5576040519150601f19603f3d011682016040523d82523d6000602084013e6105aa565b606091505b50509050806105ee576040517f08c379a00000000000000000000000000000000000000000000000000000000081526004016105e590611d9d565b60405180910390fd5b505b60016002866040516106029190611b63565b9081526020016040518091039020600086815260200190815260200160002060010160006101000a81548160ff0219169083151502179055507ffc79a074c8639ae33bdef4546a9d018a539b5729acced7f2b26b6f6d81410ee6858585856040516106709493929190611c93565b60405180910390a15050505050565b600282805160208101820180518482526020830160208501208183528095505050505050602052806000526040600020600091509150508060000154908060010160009054906101000a900460ff16905082565b6000600160009054906101000a900473ffffffffffffffffffffffffffffffffffffffff1673ffffffffffffffffffffffffffffffffffffffff166343ae37c36040518163ffffffff1660e01b815260040160006040518083038186803b15801561073d57600080fd5b505afa158015610751573d6000803e3d6000fd5b505050506040513d6000823e3d601f19601f8201168201806040525081019061077a91906116c2565b9050600060038260405161078e9190611b63565b90815260200160405180910390205490506040518060400160405280848152602001600015158152506002836040516107c79190611b63565b908152602001604051809103902060008381526020019081526020016000206000820151816000015560208201518160010160006101000a81548160ff0219169083151502179055509050506003826040516108239190611b63565b9081526020016040518091039020600081548092919061084290612015565b91905055507fbe47f422f33a7eef123ab19d1834952192e8496c679d9bc9998feb7e90352f0882828560405161087a93929190611cdf565b60405180910390a1505050565b6003818051602081018201805184825260208301602085012081835280955050505050506000915090505481565b6060806060600160009054906101000a900473ffffffffffffffffffffffffffffffffffffffff1673ffffffffffffffffffffffffffffffffffffffff1663643d430c6040518163ffffffff1660e01b815260040160206040518083038186803b15801561092257600080fd5b505afa158015610936573d6000803e3d6000fd5b505050506040513d601f19601f8201168201806040525081019061095a9190611617565b73ffffffffffffffffffffffffffffffffffffffff163373ffffffffffffffffffffffffffffffffffffffff16146109c7576040517f08c379a00000000000000000000000000000000000000000000000000000000081526004016109be90611d3d565b60405180910390fd5b600080600160009054906101000a900473ffffffffffffffffffffffffffffffffffffffff1673ffffffffffffffffffffffffffffffffffffffff16631bb647226040518163ffffffff1660e01b815260040160006040518083038186803b158015610a3257600080fd5b505afa158015610a46573d6000803e3d6000fd5b505050506040513d6000823e3d601f19601f82011682018060405250810190610a6f9190611640565b905060005b8151811015610b6c576000828281518110610ab8577f4e487b7100000000000000000000000000000000000000000000000000000000600052603260045260246000fd5b602002602001015190506000600382604051610ad49190611b63565b908152602001604051809103902054905060005b81811015610b5657600283604051610b009190611b63565b9081526020016040518091039020600082815260200190815260200160002060010160009054906101000a900460ff16610b43578580610b3f90612015565b9650505b8080610b4e90612015565b915050610ae8565b5050508080610b6490612015565b915050610a74565b5060008267ffffffffffffffff811115610baf577f4e487b7100000000000000000000000000000000000000000000000000000000600052604160045260246000fd5b604051908082528060200260200182016040528015610be257816020015b6060815260200190600190039081610bcd5790505b50905060008367ffffffffffffffff811115610c27577f4e487b7100000000000000000000000000000000000000000000000000000000600052604160045260246000fd5b604051908082528060200260200182016040528015610c555781602001602082028036833780820191505090505b50905060008467ffffffffffffffff811115610c9a577f4e487b7100000000000000000000000000000000000000000000000000000000600052604160045260246000fd5b604051908082528060200260200182016040528015610cc85781602001602082028036833780820191505090505b5090506000805b8551811015610eca576000868281518110610d13577f4e487b7100000000000000000000000000000000000000000000000000000000600052603260045260246000fd5b602002602001015190506000600382604051610d2f9190611b63565b908152602001604051809103902054905060005b81811015610eb457600283604051610d5b9190611b63565b9081526020016040518091039020600082815260200190815260200160002060010160009054906101000a900460ff16610ea15782888681518110610dc9577f4e487b7100000000000000000000000000000000000000000000000000000000600052603260045260246000fd5b602002602001018190525080878681518110610e0e577f4e487b7100000000000000000000000000000000000000000000000000000000600052603260045260246000fd5b602002602001018181525050600283604051610e2a9190611b63565b9081526020016040518091039020600082815260200190815260200160002060000154868681518110610e86577f4e487b7100000000000000000000000000000000000000000000000000000000600052603260045260246000fd5b6020026020010181815250508480610e9d90612015565b9550505b8080610eac90612015565b915050610d43565b5050508080610ec290612015565b915050610ccf565b50838383985098509850505050505050909192565b600160009054906101000a900473ffffffffffffffffffffffffffffffffffffffff1681565b600160009054906101000a900473ffffffffffffffffffffffffffffffffffffffff1673ffffffffffffffffffffffffffffffffffffffff1663643d430c6040518163ffffffff1660e01b815260040160206040518083038186803b158015610f6d57600080fd5b505afa158015610f81573d6000803e3d6000fd5b505050506040513d601f19601f82011682018060405250810190610fa59190611617565b73ffffffffffffffffffffffffffffffffffffffff163373ffffffffffffffffffffffffffffffffffffffff1614611012576040517f08c379a000000000000000000000000000000000000000000000000000000000815260040161100990611d3d565b60405180910390fd5b60003411611055576040517f08c379a000000000000000000000000000000000000000000000000000000000815260040161104c90611d1d565b60405180910390fd5b7f8fe10ae416f22f5e5220b0018a6c1d4ff534d6aa3a471f2a20cb7747fe63e5b93334604051611086929190611b8f565b60405180910390a1565b60008054906101000a900473ffffffffffffffffffffffffffffffffffffffff1681565b606080600160009054906101000a900473ffffffffffffffffffffffffffffffffffffffff1673ffffffffffffffffffffffffffffffffffffffff1663643d430c6040518163ffffffff1660e01b815260040160206040518083038186803b15801561111f57600080fd5b505afa158015611133573d6000803e3d6000fd5b505050506040513d601f19601f820116820180604052508101906111579190611617565b73ffffffffffffffffffffffffffffffffffffffff163373ffffffffffffffffffffffffffffffffffffffff16146111c4576040517f08c379a00000000000000000000000000000000000000000000000000000000081526004016111bb90611d3d565b60405180910390fd5b6000806003856040516111d79190611b63565b908152602001604051809103902054905060005b81811015611259576002866040516112039190611b63565b9081526020016040518091039020600082815260200190815260200160002060010160009054906101000a900460ff1661124657828061124290612015565b9350505b808061125190612015565b9150506111eb565b5060008267ffffffffffffffff81111561129c577f4e487b7100000000000000000000000000000000000000000000000000000000600052604160045260246000fd5b6040519080825280602002602001820160405280156112ca5781602001602082028036833780820191505090505b50905060008367ffffffffffffffff81111561130f577f4e487b7100000000000000000000000000000000000000000000000000000000600052604160045260246000fd5b60405190808252806020026020018201604052801561133d5781602001602082028036833780820191505090505b5090506000805b848110156114705760028960405161135c9190611b63565b9081526020016040518091039020600082815260200190815260200160002060010160009054906101000a900460ff1661145d57808483815181106113ca577f4e487b7100000000000000000000000000000000000000000000000000000000600052603260045260246000fd5b6020026020010181815250506002896040516113e69190611b63565b9081526020016040518091039020600082815260200190815260200160002060000154838381518110611442577f4e487b7100000000000000000000000000000000000000000000000000000000600052603260045260246000fd5b602002602001018181525050818061145990612015565b9250505b808061146890612015565b915050611344565b508282965096505050505050915091565b600061149461148f84611e32565b611e01565b9050808382526020820190508260005b858110156114d457815185016114ba88826115d8565b8452602084019350602083019250506001810190506114a4565b5050509392505050565b60006114f16114ec84611e5e565b611e01565b90508281526020810184848401111561150957600080fd5b611514848285611fd3565b509392505050565b600061152f61152a84611e5e565b611e01565b90508281526020810184848401111561154757600080fd5b611552848285611fe2565b509392505050565b600081519050611569816120cd565b92915050565b600082601f83011261158057600080fd5b8151611590848260208601611481565b91505092915050565b6000813590506115a8816120e4565b92915050565b600082601f8301126115bf57600080fd5b81356115cf8482602086016114de565b91505092915050565b600082601f8301126115e957600080fd5b81516115f984826020860161151c565b91505092915050565b600081359050611611816120fb565b92915050565b60006020828403121561162957600080fd5b60006116378482850161155a565b91505092915050565b60006020828403121561165257600080fd5b600082015167ffffffffffffffff81111561166c57600080fd5b6116788482850161156f565b91505092915050565b60006020828403121561169357600080fd5b600082013567ffffffffffffffff8111156116ad57600080fd5b6116b9848285016115ae565b91505092915050565b6000602082840312156116d457600080fd5b600082015167ffffffffffffffff8111156116ee57600080fd5b6116fa848285016115d8565b91505092915050565b6000806040838503121561171657600080fd5b600083013567ffffffffffffffff81111561173057600080fd5b61173c858286016115ae565b925050602061174d85828601611602565b9150509250929050565b60008060006060848603121561176c57600080fd5b600084013567ffffffffffffffff81111561178657600080fd5b611792868287016115ae565b93505060206117a386828701611602565b92505060406117b486828701611599565b9150509250925092565b6000602082840312156117d057600080fd5b60006117de84828501611602565b91505092915050565b60006117f38383611922565b905092915050565b60006118078383611b45565b60208301905092915050565b61181c81611f43565b82525050565b600061182d82611eae565b6118378185611ee9565b93508360208202850161184985611e8e565b8060005b85811015611885578484038952815161186685826117e7565b945061187183611ecf565b925060208a0199505060018101905061184d565b50829750879550505050505092915050565b60006118a282611eb9565b6118ac8185611efa565b93506118b783611e9e565b8060005b838110156118e85781516118cf88826117fb565b97506118da83611edc565b9250506001810190506118bb565b5085935050505092915050565b6118fe81611f55565b82525050565b61190d81611f8b565b82525050565b61191c81611faf565b82525050565b600061192d82611ec4565b6119378185611f16565b9350611947818560208601611fe2565b611950816120bc565b840191505092915050565b600061196682611ec4565b6119708185611f27565b9350611980818560208601611fe2565b611989816120bc565b840191505092915050565b600061199f82611ec4565b6119a98185611f38565b93506119b9818560208601611fe2565b80840191505092915050565b60006119d2601e83611f27565b91507f416d6f756e74206d7573742062652067726561746572207468616e20302e00006000830152602082019050919050565b6000611a12603a83611f27565b91507f4d6574616d61736b206163636f756e7420616e6420616464726573732075736560008301527f6420746f207369676e20696e20646f206e6f74206d617463682e0000000000006020830152604082019050919050565b6000611a78601583611f27565b91507f436c61696d20646f6573206e6f742065786973742e00000000000000000000006000830152602082019050919050565b6000611ab8601883611f27565b91507f436c61696d20616c72656164792070726f6365737365642e00000000000000006000830152602082019050919050565b6000611af8600083611f0b565b9150600082019050919050565b6000611b12601783611f27565b91507f526566756e64207472616e73666572206661696c65642e0000000000000000006000830152602082019050919050565b611b4e81611f81565b82525050565b611b5d81611f81565b82525050565b6000611b6f8284611994565b915081905092915050565b6000611b8582611aeb565b9150819050919050565b6000604082019050611ba46000830185611813565b611bb16020830184611b54565b9392505050565b60006060820190508181036000830152611bd28186611822565b90508181036020830152611be68185611897565b90508181036040830152611bfa8184611897565b9050949350505050565b60006040820190508181036000830152611c1e8185611897565b90508181036020830152611c328184611897565b90509392505050565b6000602082019050611c506000830184611904565b92915050565b6000602082019050611c6b6000830184611913565b92915050565b60006020820190508181036000830152611c8b818461195b565b905092915050565b60006080820190508181036000830152611cad818761195b565b9050611cbc6020830186611b54565b611cc960408301856118f5565b611cd66060830184611b54565b95945050505050565b60006060820190508181036000830152611cf9818661195b565b9050611d086020830185611b54565b611d156040830184611b54565b949350505050565b60006020820190508181036000830152611d36816119c5565b9050919050565b60006020820190508181036000830152611d5681611a05565b9050919050565b60006020820190508181036000830152611d7681611a6b565b9050919050565b60006020820190508181036000830152611d9681611aab565b9050919050565b60006020820190508181036000830152611db681611b05565b9050919050565b6000602082019050611dd26000830184611b54565b92915050565b6000604082019050611ded6000830185611b54565b611dfa60208301846118f5565b9392505050565b6000604051905081810181811067ffffffffffffffff82111715611e2857611e2761208d565b5b8060405250919050565b600067ffffffffffffffff821115611e4d57611e4c61208d565b5b602082029050602081019050919050565b600067ffffffffffffffff821115611e7957611e7861208d565b5b601f19601f8301169050602081019050919050565b6000819050602082019050919050565b6000819050602082019050919050565b600081519050919050565b600081519050919050565b600081519050919050565b6000602082019050919050565b6000602082019050919050565b600082825260208201905092915050565b600082825260208201905092915050565b600081905092915050565b600082825260208201905092915050565b600082825260208201905092915050565b600081905092915050565b6000611f4e82611f61565b9050919050565b60008115159050919050565b600073ffffffffffffffffffffffffffffffffffffffff82169050919050565b6000819050919050565b6000611f9682611f9d565b9050919050565b6000611fa882611f61565b9050919050565b6000611fba82611fc1565b9050919050565b6000611fcc82611f61565b9050919050565b82818337600083830152505050565b60005b83811015612000578082015181840152602081019050611fe5565b8381111561200f576000848401525b50505050565b600061202082611f81565b91507fffffffffffffffffffffffffffffffffffffffffffffffffffffffffffffffff8214156120535761205261205e565b5b600182019050919050565b7f4e487b7100000000000000000000000000000000000000000000000000000000600052601160045260246000fd5b7f4e487b7100000000000000000000000000000000000000000000000000000000600052604160045260246000fd5b6000601f19601f8301169050919050565b6120d681611f43565b81146120e157600080fd5b50565b6120ed81611f55565b81146120f857600080fd5b50565b61210481611f81565b811461210f57600080fd5b5056fea2646970667358221220e7f37fd0fc74cb05c2821870648e0322d7e804566e338a7aee859c0980eb3db464736f6c63430008000033",
  "immutableReferences": {},
  "source": "// SPDX-License-Identifier: MIT\r\npragma solidity ^0.8.0;\r\n\r\nimport \"./AdminInsurancePolicy.sol\";\r\nimport \"./UserAuth.sol\";\r\n\r\n// import \"./PurchasePackage.sol\";\r\n\r\ncontract ClaimProcessing {\r\n    AdminInsurancePolicy public adminContract;\r\n    UserAuth public userAuthContract;\r\n    //PurchasePackage public userPurchasePackageContract;\r\n\r\n    struct Claim {\r\n        uint256 amount;\r\n        bool isProcessed;\r\n    }\r\n\r\n    mapping(string => mapping(uint256 => Claim)) public claims;\r\n    mapping(string => uint256) public claimCount;\r\n\r\n    event ClaimAdded(string user, uint256 claimId, uint256 amount);\r\n\r\n    event ClaimProcessed(\r\n        string user,\r\n        uint256 claimId,\r\n        bool claimValid,\r\n        uint256 amount\r\n    );\r\n\r\n    event FundsAdded(address admin, uint256 amount);\r\n\r\n    //, address _userPurchasePackageAddress\r\n    constructor(address _adminPolicyAddress, address _userAuthAddress) {\r\n        adminContract = AdminInsurancePolicy(_adminPolicyAddress);\r\n        userAuthContract = UserAuth(_userAuthAddress);\r\n        //userPurchasePackageContract = PurchasePackage(_userPurchasePackageAddress);\r\n    }\r\n\r\n    modifier sameAdmin() {\r\n        require(\r\n            msg.sender == userAuthContract.getCurrentAdmin(),\r\n            \"Metamask account and address used to sign in do not match.\"\r\n        );\r\n        _;\r\n    }\r\n\r\n    function addClaim(uint256 amount) public {\r\n        string memory user = userAuthContract.getCurrentUser();\r\n        uint256 claimId = claimCount[user];\r\n        claims[user][claimId] = Claim(amount, false);\r\n        claimCount[user]++;\r\n        emit ClaimAdded(user, claimId, amount);\r\n    }\r\n\r\n    function approveClaim(\r\n        string memory user,\r\n        uint256 claimId,\r\n        bool claimValid\r\n    ) public sameAdmin {\r\n        require(claimId < claimCount[user], \"Claim does not exist.\");\r\n        require(!claims[user][claimId].isProcessed, \"Claim already processed.\");\r\n\r\n        uint256 amount = claims[user][claimId].amount;\r\n\r\n        address refundAddress = userAuthContract.getUserRefundAddress(user);\r\n\r\n        if (claimValid) {\r\n            (bool success, ) = refundAddress.call{value: amount}(\"\");\r\n            require(success, \"Refund transfer failed.\");\r\n        }\r\n\r\n        claims[user][claimId].isProcessed = true;\r\n        emit ClaimProcessed(user, claimId, claimValid, amount);\r\n    }\r\n\r\n    // Function to get all unprocessed claims for a specific user\r\n    function getUnprocessedClaims(\r\n        string memory user\r\n    ) public view sameAdmin returns (uint256[] memory, uint256[] memory) {\r\n        uint256 unprocessedCount = 0;\r\n        uint256 totalClaims = claimCount[user];\r\n\r\n        for (uint256 i = 0; i < totalClaims; i++) {\r\n            if (!claims[user][i].isProcessed) {\r\n                unprocessedCount++;\r\n            }\r\n        }\r\n\r\n        uint256[] memory claimIds = new uint256[](unprocessedCount);\r\n        uint256[] memory claimAmount = new uint256[](unprocessedCount);\r\n        uint256 index = 0;\r\n\r\n        for (uint256 i = 0; i < totalClaims; i++) {\r\n            if (!claims[user][i].isProcessed) {\r\n                claimIds[index] = i;\r\n                claimAmount[index] = claims[user][i].amount;\r\n                index++;\r\n            }\r\n        }\r\n\r\n        return (claimIds, claimAmount);\r\n    }\r\n\r\n    // Function to get all unprocessed claims for all users\r\n    function getAllUnprocessedClaims()\r\n        public\r\n        view\r\n        sameAdmin\r\n        returns (string[] memory, uint256[] memory, uint256[] memory)\r\n    {\r\n        uint256 totalUnprocessed = 0;\r\n\r\n        string[] memory users = userAuthContract.getRegisteredUserEmails();\r\n\r\n        for (uint256 j = 0; j < users.length; j++) {\r\n            string memory user = users[j];\r\n            uint256 totalClaims = claimCount[user];\r\n\r\n            for (uint256 i = 0; i < totalClaims; i++) {\r\n                if (!claims[user][i].isProcessed) {\r\n                    totalUnprocessed++;\r\n                }\r\n            }\r\n        }\r\n\r\n        string[] memory userAddresses = new string[](totalUnprocessed);\r\n        uint256[] memory claimIds = new uint256[](totalUnprocessed);\r\n        uint256[] memory claimAmount = new uint256[](totalUnprocessed);\r\n        uint256 index = 0;\r\n\r\n        for (uint256 j = 0; j < users.length; j++) {\r\n            string memory user = users[j];\r\n            uint256 totalClaims = claimCount[user];\r\n\r\n            for (uint256 i = 0; i < totalClaims; i++) {\r\n                if (!claims[user][i].isProcessed) {\r\n                    userAddresses[index] = user;\r\n                    claimIds[index] = i;\r\n                    claimAmount[index] = claims[user][i].amount;\r\n                    index++;\r\n                }\r\n            }\r\n        }\r\n\r\n        return (userAddresses, claimIds, claimAmount);\r\n    }\r\n\r\n    function fund() public payable sameAdmin {\r\n        require(msg.value > 0, \"Amount must be greater than 0.\");\r\n        emit FundsAdded(msg.sender, msg.value);\r\n    }\r\n\r\n    receive() external payable {}\r\n\r\n    fallback() external payable {}\r\n\r\n    function getBalance() public view returns (uint256) {\r\n        return address(this).balance;\r\n    }\r\n}\r\n",
  "sourcePath": "C:\\Users\\keeke\\Desktop\\BlockChain\\Great_Global\\Danny_Test\\SponsorAnimals\\contracts\\ClaimProcessing.sol",
  "compiler": {
    "name": "solc",
    "version": "0.8.0+commit.c7dfd78e.Emscripten.clang"
  },
  "schemaVersion": "3.4.16",
  "updatedAt": "2024-09-26T10:34:34.993Z",
  "networkType": "ethereum",
  "devdoc": {
    "kind": "dev",
    "methods": {},
    "version": 1
  },
  "userdoc": {
    "kind": "user",
    "methods": {},
    "version": 1
  }
}