{
  "contractName": "ClaimProcessing",
  "abi": [
    {
      "inputs": [],
      "stateMutability": "payable",
      "type": "constructor",
      "payable": true
    },
    {
      "anonymous": false,
      "inputs": [
        {
          "indexed": true,
          "internalType": "address",
          "name": "user",
          "type": "address"
        },
        {
          "indexed": true,
          "internalType": "uint256",
          "name": "claimId",
          "type": "uint256"
        },
        {
          "indexed": false,
          "internalType": "bool",
          "name": "claimValid",
          "type": "bool"
        },
        {
          "indexed": false,
          "internalType": "uint256",
          "name": "amount",
          "type": "uint256"
        }
      ],
      "name": "ClaimProcessed",
      "type": "event"
    },
    {
      "anonymous": false,
      "inputs": [
        {
          "indexed": false,
          "internalType": "string",
          "name": "message",
          "type": "string"
        },
        {
          "indexed": false,
          "internalType": "address",
          "name": "user",
          "type": "address"
        },
        {
          "indexed": false,
          "internalType": "uint256",
          "name": "claimId",
          "type": "uint256"
        },
        {
          "indexed": false,
          "internalType": "uint256",
          "name": "amount",
          "type": "uint256"
        }
      ],
      "name": "Debug",
      "type": "event"
    },
    {
      "stateMutability": "payable",
      "type": "fallback",
      "payable": true
    },
    {
      "inputs": [
        {
          "internalType": "uint256",
          "name": "",
          "type": "uint256"
        }
      ],
      "name": "admins",
      "outputs": [
        {
          "internalType": "address",
          "name": "",
          "type": "address"
        }
      ],
      "stateMutability": "view",
      "type": "function",
      "constant": true
    },
    {
      "inputs": [
        {
          "internalType": "address",
          "name": "",
          "type": "address"
        }
      ],
      "name": "claimCount",
      "outputs": [
        {
          "internalType": "uint256",
          "name": "",
          "type": "uint256"
        }
      ],
      "stateMutability": "view",
      "type": "function",
      "constant": true
    },
    {
      "inputs": [
        {
          "internalType": "address",
          "name": "",
          "type": "address"
        },
        {
          "internalType": "uint256",
          "name": "",
          "type": "uint256"
        }
      ],
      "name": "claims",
      "outputs": [
        {
          "internalType": "uint256",
          "name": "amount",
          "type": "uint256"
        },
        {
          "internalType": "bool",
          "name": "isProcessed",
          "type": "bool"
        }
      ],
      "stateMutability": "view",
      "type": "function",
      "constant": true
    },
    {
      "inputs": [],
      "name": "owner",
      "outputs": [
        {
          "internalType": "address",
          "name": "",
          "type": "address"
        }
      ],
      "stateMutability": "view",
      "type": "function",
      "constant": true
    },
    {
      "inputs": [
        {
          "internalType": "uint256",
          "name": "",
          "type": "uint256"
        }
      ],
      "name": "users",
      "outputs": [
        {
          "internalType": "address",
          "name": "",
          "type": "address"
        }
      ],
      "stateMutability": "view",
      "type": "function",
      "constant": true
    },
    {
      "stateMutability": "payable",
      "type": "receive",
      "payable": true
    },
    {
      "inputs": [
        {
          "internalType": "address",
          "name": "_admin",
          "type": "address"
        }
      ],
      "name": "addAdmin",
      "outputs": [],
      "stateMutability": "nonpayable",
      "type": "function"
    },
    {
      "inputs": [
        {
          "internalType": "address",
          "name": "_admin",
          "type": "address"
        }
      ],
      "name": "removeAdmin",
      "outputs": [],
      "stateMutability": "nonpayable",
      "type": "function"
    },
    {
      "inputs": [
        {
          "internalType": "address",
          "name": "_user",
          "type": "address"
        }
      ],
      "name": "addUser",
      "outputs": [],
      "stateMutability": "nonpayable",
      "type": "function"
    },
    {
      "inputs": [
        {
          "internalType": "uint256",
          "name": "amount",
          "type": "uint256"
        }
      ],
      "name": "addClaim",
      "outputs": [],
      "stateMutability": "nonpayable",
      "type": "function"
    },
    {
      "inputs": [
        {
          "internalType": "address",
          "name": "user",
          "type": "address"
        },
        {
          "internalType": "uint256",
          "name": "claimId",
          "type": "uint256"
        },
        {
          "internalType": "bool",
          "name": "claimValid",
          "type": "bool"
        }
      ],
      "name": "approveClaim",
      "outputs": [],
      "stateMutability": "nonpayable",
      "type": "function"
    },
    {
      "inputs": [
        {
          "internalType": "address",
          "name": "user",
          "type": "address"
        }
      ],
      "name": "getUnprocessedClaims",
      "outputs": [
        {
          "internalType": "uint256[]",
          "name": "",
          "type": "uint256[]"
        }
      ],
      "stateMutability": "view",
      "type": "function",
      "constant": true
    },
    {
      "inputs": [],
      "name": "getAllUnprocessedClaims",
      "outputs": [
        {
          "internalType": "address[]",
          "name": "",
          "type": "address[]"
        },
        {
          "internalType": "uint256[]",
          "name": "",
          "type": "uint256[]"
        },
        {
          "internalType": "uint256[]",
          "name": "",
          "type": "uint256[]"
        }
      ],
      "stateMutability": "view",
      "type": "function",
      "constant": true
    },
    {
      "inputs": [],
      "name": "fund",
      "outputs": [],
      "stateMutability": "payable",
      "type": "function",
      "payable": true
    },
    {
      "inputs": [],
      "name": "getBalance",
      "outputs": [
        {
          "internalType": "uint256",
          "name": "",
          "type": "uint256"
        }
      ],
      "stateMutability": "view",
      "type": "function",
      "constant": true
    }
  ],
  "bytecode": "0x6080604052336000806101000a81548173ffffffffffffffffffffffffffffffffffffffff021916908373ffffffffffffffffffffffffffffffffffffffff160217905550612747806100536000396000f3fe6080604052600436106100e15760003560e01c8063745c25f61161007f578063ab541a8511610059578063ab541a85146102c8578063b60d428814610306578063eae7c66814610310578063ed5393641461034d576100e8565b8063745c25f6146102475780638da5cb5b146102705780638f28d5281461029b576100e8565b8063365b98b2116100bb578063365b98b21461017b578063421b2d8b146101b857806369c12cb7146101e1578063704802751461021e576100e8565b806312065fe0146100ea57806314bfd6d0146101155780631785f53c14610152576100e8565b366100e857005b005b3480156100f657600080fd5b506100ff610376565b60405161010c9190612506565b60405180910390f35b34801561012157600080fd5b5061013c60048036038101906101379190611e69565b61037e565b60405161014991906122ea565b60405180910390f35b34801561015e57600080fd5b5061017960048036038101906101749190611db5565b6103bd565b005b34801561018757600080fd5b506101a2600480360381019061019d9190611e69565b610672565b6040516101af91906122ea565b60405180910390f35b3480156101c457600080fd5b506101df60048036038101906101da9190611db5565b6106b1565b005b3480156101ed57600080fd5b5061020860048036038101906102039190611db5565b610978565b6040516102159190612506565b60405180910390f35b34801561022a57600080fd5b5061024560048036038101906102409190611db5565b610990565b005b34801561025357600080fd5b5061026e60048036038101906102699190611e69565b610b88565b005b34801561027c57600080fd5b50610285610dc7565b60405161029291906122ea565b60405180910390f35b3480156102a757600080fd5b506102b0610deb565b6040516102bf93929190612305565b60405180910390f35b3480156102d457600080fd5b506102ef60048036038101906102ea9190611dde565b6114da565b6040516102fd929190612521565b60405180910390f35b61030e611518565b005b34801561031c57600080fd5b5061033760048036038101906103329190611db5565b6116ba565b6040516103449190612351565b60405180910390f35b34801561035957600080fd5b50610374600480360381019061036f9190611e1a565b6118ed565b005b600047905090565b6001818154811061038e57600080fd5b906000526020600020016000915054906101000a900473ffffffffffffffffffffffffffffffffffffffff1681565b60008054906101000a900473ffffffffffffffffffffffffffffffffffffffff1673ffffffffffffffffffffffffffffffffffffffff163373ffffffffffffffffffffffffffffffffffffffff161461044b576040517f08c379a000000000000000000000000000000000000000000000000000000000815260040161044290612426565b60405180910390fd5b60005b60018054905081101561066e578173ffffffffffffffffffffffffffffffffffffffff16600182815481106104ac577f4e487b7100000000000000000000000000000000000000000000000000000000600052603260045260246000fd5b9060005260206000200160009054906101000a900473ffffffffffffffffffffffffffffffffffffffff1673ffffffffffffffffffffffffffffffffffffffff16141561065b57600180808054905061050591906125d8565b8154811061053c577f4e487b7100000000000000000000000000000000000000000000000000000000600052603260045260246000fd5b9060005260206000200160009054906101000a900473ffffffffffffffffffffffffffffffffffffffff16600182815481106105a1577f4e487b7100000000000000000000000000000000000000000000000000000000600052603260045260246000fd5b9060005260206000200160006101000a81548173ffffffffffffffffffffffffffffffffffffffff021916908373ffffffffffffffffffffffffffffffffffffffff1602179055506001805480610621577f4e487b7100000000000000000000000000000000000000000000000000000000600052603160045260246000fd5b6001900381819060005260206000200160006101000a81549073ffffffffffffffffffffffffffffffffffffffff0219169055905561066e565b808061066690612654565b91505061044e565b5050565b6002818154811061068257600080fd5b906000526020600020016000915054906101000a900473ffffffffffffffffffffffffffffffffffffffff1681565b6000805b60018054905081101561077657600181815481106106fc577f4e487b7100000000000000000000000000000000000000000000000000000000600052603260045260246000fd5b9060005260206000200160009054906101000a900473ffffffffffffffffffffffffffffffffffffffff1673ffffffffffffffffffffffffffffffffffffffff163373ffffffffffffffffffffffffffffffffffffffff1614156107635760019150610776565b808061076e90612654565b9150506106b5565b5080806107ce575060008054906101000a900473ffffffffffffffffffffffffffffffffffffffff1673ffffffffffffffffffffffffffffffffffffffff163373ffffffffffffffffffffffffffffffffffffffff16145b61080d576040517f08c379a000000000000000000000000000000000000000000000000000000000815260040161080490612466565b60405180910390fd5b6000805b60028054905081101561090f5760028181548110610858577f4e487b7100000000000000000000000000000000000000000000000000000000600052603260045260246000fd5b9060005260206000200160009054906101000a900473ffffffffffffffffffffffffffffffffffffffff1673ffffffffffffffffffffffffffffffffffffffff168473ffffffffffffffffffffffffffffffffffffffff1614156108bb57600191505b81156108fc576040517f08c379a00000000000000000000000000000000000000000000000000000000081526004016108f3906124a6565b60405180910390fd5b808061090790612654565b915050610811565b506002839080600181540180825580915050600190039060005260206000200160009091909190916101000a81548173ffffffffffffffffffffffffffffffffffffffff021916908373ffffffffffffffffffffffffffffffffffffffff160217905550505050565b60046020528060005260406000206000915090505481565b60008054906101000a900473ffffffffffffffffffffffffffffffffffffffff1673ffffffffffffffffffffffffffffffffffffffff163373ffffffffffffffffffffffffffffffffffffffff1614610a1e576040517f08c379a0000000000000000000000000000000000000000000000000000000008152600401610a1590612426565b60405180910390fd5b6000805b600180549050811015610b205760018181548110610a69577f4e487b7100000000000000000000000000000000000000000000000000000000600052603260045260246000fd5b9060005260206000200160009054906101000a900473ffffffffffffffffffffffffffffffffffffffff1673ffffffffffffffffffffffffffffffffffffffff168373ffffffffffffffffffffffffffffffffffffffff161415610acc57600191505b8115610b0d576040517f08c379a0000000000000000000000000000000000000000000000000000000008152600401610b04906124e6565b60405180910390fd5b8080610b1890612654565b915050610a22565b506001829080600181540180825580915050600190039060005260206000200160009091909190916101000a81548173ffffffffffffffffffffffffffffffffffffffff021916908373ffffffffffffffffffffffffffffffffffffffff1602179055505050565b6000805b600280549050811015610c4d5760028181548110610bd3577f4e487b7100000000000000000000000000000000000000000000000000000000600052603260045260246000fd5b9060005260206000200160009054906101000a900473ffffffffffffffffffffffffffffffffffffffff1673ffffffffffffffffffffffffffffffffffffffff163373ffffffffffffffffffffffffffffffffffffffff161415610c3a5760019150610c4d565b8080610c4590612654565b915050610b8c565b5080610c8e576040517f08c379a0000000000000000000000000000000000000000000000000000000008152600401610c8590612406565b60405180910390fd5b60003390506000600460008373ffffffffffffffffffffffffffffffffffffffff1673ffffffffffffffffffffffffffffffffffffffff168152602001908152602001600020549050604051806040016040528085815260200160001515815250600360008473ffffffffffffffffffffffffffffffffffffffff1673ffffffffffffffffffffffffffffffffffffffff16815260200190815260200160002060008381526020019081526020016000206000820151816000015560208201518160010160006101000a81548160ff021916908315150217905550905050600460008373ffffffffffffffffffffffffffffffffffffffff1673ffffffffffffffffffffffffffffffffffffffff1681526020019081526020016000206000815480929190610dbc90612654565b919050555050505050565b60008054906101000a900473ffffffffffffffffffffffffffffffffffffffff1681565b60608060606000805b600180549050811015610eb55760018181548110610e3b577f4e487b7100000000000000000000000000000000000000000000000000000000600052603260045260246000fd5b9060005260206000200160009054906101000a900473ffffffffffffffffffffffffffffffffffffffff1673ffffffffffffffffffffffffffffffffffffffff163373ffffffffffffffffffffffffffffffffffffffff161415610ea25760019150610eb5565b8080610ead90612654565b915050610df4565b508080610f0d575060008054906101000a900473ffffffffffffffffffffffffffffffffffffffff1673ffffffffffffffffffffffffffffffffffffffff163373ffffffffffffffffffffffffffffffffffffffff16145b610f4c576040517f08c379a0000000000000000000000000000000000000000000000000000000008152600401610f4390612466565b60405180910390fd5b6000805b6002805490508110156110b257600060028281548110610f99577f4e487b7100000000000000000000000000000000000000000000000000000000600052603260045260246000fd5b9060005260206000200160009054906101000a900473ffffffffffffffffffffffffffffffffffffffff1690506000600460008373ffffffffffffffffffffffffffffffffffffffff1673ffffffffffffffffffffffffffffffffffffffff16815260200190815260200160002054905060005b8181101561109c57600360008473ffffffffffffffffffffffffffffffffffffffff1673ffffffffffffffffffffffffffffffffffffffff168152602001908152602001600020600082815260200190815260200160002060010160009054906101000a900460ff1661108957848061108590612654565b9550505b808061109490612654565b91505061100d565b50505080806110aa90612654565b915050610f50565b5060008167ffffffffffffffff8111156110f5577f4e487b7100000000000000000000000000000000000000000000000000000000600052604160045260246000fd5b6040519080825280602002602001820160405280156111235781602001602082028036833780820191505090505b50905060008267ffffffffffffffff811115611168577f4e487b7100000000000000000000000000000000000000000000000000000000600052604160045260246000fd5b6040519080825280602002602001820160405280156111965781602001602082028036833780820191505090505b50905060008367ffffffffffffffff8111156111db577f4e487b7100000000000000000000000000000000000000000000000000000000600052604160045260246000fd5b6040519080825280602002602001820160405280156112095781602001602082028036833780820191505090505b5090506000805b6002805490508110156114c557600060028281548110611259577f4e487b7100000000000000000000000000000000000000000000000000000000600052603260045260246000fd5b9060005260206000200160009054906101000a900473ffffffffffffffffffffffffffffffffffffffff1690506000600460008373ffffffffffffffffffffffffffffffffffffffff1673ffffffffffffffffffffffffffffffffffffffff16815260200190815260200160002054905060005b818110156114af57600360008473ffffffffffffffffffffffffffffffffffffffff1673ffffffffffffffffffffffffffffffffffffffff168152602001908152602001600020600082815260200190815260200160002060010160009054906101000a900460ff1661149c5782888681518110611374577f4e487b7100000000000000000000000000000000000000000000000000000000600052603260045260246000fd5b602002602001019073ffffffffffffffffffffffffffffffffffffffff16908173ffffffffffffffffffffffffffffffffffffffff1681525050808786815181106113e8577f4e487b7100000000000000000000000000000000000000000000000000000000600052603260045260246000fd5b602002602001018181525050600360008473ffffffffffffffffffffffffffffffffffffffff1673ffffffffffffffffffffffffffffffffffffffff168152602001908152602001600020600082815260200190815260200160002060000154868681518110611481577f4e487b7100000000000000000000000000000000000000000000000000000000600052603260045260246000fd5b602002602001018181525050848061149890612654565b9550505b80806114a790612654565b9150506112cd565b50505080806114bd90612654565b915050611210565b50838383985098509850505050505050909192565b6003602052816000526040600020602052806000526040600020600091509150508060000154908060010160009054906101000a900460ff16905082565b6000805b6001805490508110156115dd5760018181548110611563577f4e487b7100000000000000000000000000000000000000000000000000000000600052603260045260246000fd5b9060005260206000200160009054906101000a900473ffffffffffffffffffffffffffffffffffffffff1673ffffffffffffffffffffffffffffffffffffffff163373ffffffffffffffffffffffffffffffffffffffff1614156115ca57600191506115dd565b80806115d590612654565b91505061151c565b508080611635575060008054906101000a900473ffffffffffffffffffffffffffffffffffffffff1673ffffffffffffffffffffffffffffffffffffffff163373ffffffffffffffffffffffffffffffffffffffff16145b611674576040517f08c379a000000000000000000000000000000000000000000000000000000000815260040161166b90612466565b60405180910390fd5b600034116116b7576040517f08c379a00000000000000000000000000000000000000000000000000000000081526004016116ae9061239c565b60405180910390fd5b50565b6060600080600460008573ffffffffffffffffffffffffffffffffffffffff1673ffffffffffffffffffffffffffffffffffffffff16815260200190815260200160002054905060005b8181101561179357600360008673ffffffffffffffffffffffffffffffffffffffff1673ffffffffffffffffffffffffffffffffffffffff168152602001908152602001600020600082815260200190815260200160002060010160009054906101000a900460ff1661178057828061177c90612654565b9350505b808061178b90612654565b915050611704565b5060008267ffffffffffffffff8111156117d6577f4e487b7100000000000000000000000000000000000000000000000000000000600052604160045260246000fd5b6040519080825280602002602001820160405280156118045781602001602082028036833780820191505090505b5090506000805b838110156118e057600360008873ffffffffffffffffffffffffffffffffffffffff1673ffffffffffffffffffffffffffffffffffffffff168152602001908152602001600020600082815260200190815260200160002060010160009054906101000a900460ff166118cd57808383815181106118b2577f4e487b7100000000000000000000000000000000000000000000000000000000600052603260045260246000fd5b60200260200101818152505081806118c990612654565b9250505b80806118d890612654565b91505061180b565b5081945050505050919050565b6000805b6001805490508110156119b25760018181548110611938577f4e487b7100000000000000000000000000000000000000000000000000000000600052603260045260246000fd5b9060005260206000200160009054906101000a900473ffffffffffffffffffffffffffffffffffffffff1673ffffffffffffffffffffffffffffffffffffffff163373ffffffffffffffffffffffffffffffffffffffff16141561199f57600191506119b2565b80806119aa90612654565b9150506118f1565b508080611a0a575060008054906101000a900473ffffffffffffffffffffffffffffffffffffffff1673ffffffffffffffffffffffffffffffffffffffff163373ffffffffffffffffffffffffffffffffffffffff16145b611a49576040517f08c379a0000000000000000000000000000000000000000000000000000000008152600401611a4090612466565b60405180910390fd5b600460008573ffffffffffffffffffffffffffffffffffffffff1673ffffffffffffffffffffffffffffffffffffffff168152602001908152602001600020548310611aca576040517f08c379a0000000000000000000000000000000000000000000000000000000008152600401611ac190612446565b60405180910390fd5b600360008573ffffffffffffffffffffffffffffffffffffffff1673ffffffffffffffffffffffffffffffffffffffff168152602001908152602001600020600084815260200190815260200160002060010160009054906101000a900460ff1615611b6b576040517f08c379a0000000000000000000000000000000000000000000000000000000008152600401611b6290612486565b60405180910390fd5b6000600360008673ffffffffffffffffffffffffffffffffffffffff1673ffffffffffffffffffffffffffffffffffffffff16815260200190815260200160002060008581526020019081526020016000206000015490507fa64fac00f0556ada3417c24c021c73caa5c98979327816bd5951915aa2c0e4fb858583604051611bf6939291906123bc565b60405180910390a18215611cb25760008573ffffffffffffffffffffffffffffffffffffffff1682604051611c2a906122d5565b60006040518083038185875af1925050503d8060008114611c67576040519150601f19603f3d011682016040523d82523d6000602084013e611c6c565b606091505b5050905080611cb0576040517f08c379a0000000000000000000000000000000000000000000000000000000008152600401611ca7906124c6565b60405180910390fd5b505b6001600360008773ffffffffffffffffffffffffffffffffffffffff1673ffffffffffffffffffffffffffffffffffffffff168152602001908152602001600020600086815260200190815260200160002060010160006101000a81548160ff021916908315150217905550838573ffffffffffffffffffffffffffffffffffffffff167f6b02db88f8ddd866b6dff9966a15c197bf26ab53d783610e14ce70588defe4728584604051611d67929190612373565b60405180910390a35050505050565b600081359050611d85816126cc565b92915050565b600081359050611d9a816126e3565b92915050565b600081359050611daf816126fa565b92915050565b600060208284031215611dc757600080fd5b6000611dd584828501611d76565b91505092915050565b60008060408385031215611df157600080fd5b6000611dff85828601611d76565b9250506020611e1085828601611da0565b9150509250929050565b600080600060608486031215611e2f57600080fd5b6000611e3d86828701611d76565b9350506020611e4e86828701611da0565b9250506040611e5f86828701611d8b565b9150509250925092565b600060208284031215611e7b57600080fd5b6000611e8984828501611da0565b91505092915050565b6000611e9e8383611ec2565b60208301905092915050565b6000611eb683836122b7565b60208301905092915050565b611ecb8161260c565b82525050565b611eda8161260c565b82525050565b6000611eeb8261256a565b611ef5818561259a565b9350611f008361254a565b8060005b83811015611f31578151611f188882611e92565b9750611f2383612580565b925050600181019050611f04565b5085935050505092915050565b6000611f4982612575565b611f5381856125ab565b9350611f5e8361255a565b8060005b83811015611f8f578151611f768882611eaa565b9750611f818361258d565b925050600181019050611f62565b5085935050505092915050565b611fa58161261e565b82525050565b6000611fb8601e836125c7565b91507f416d6f756e74206d7573742062652067726561746572207468616e20302e00006000830152602082019050919050565b6000611ff86013836125c7565b91507f436c61696d206e6f742070726f636573736564000000000000000000000000006000830152602082019050919050565b6000612038602d836125c7565b91507f4f6e6c7920726567697374657265642075736572732063616e20706572666f7260008301527f6d207468697320616374696f6e000000000000000000000000000000000000006020830152604082019050919050565b600061209e6026836125c7565b91507f4f6e6c7920746865206f776e65722063616e20706572666f726d20746869732060008301527f616374696f6e00000000000000000000000000000000000000000000000000006020830152604082019050919050565b60006121046015836125c7565b91507f436c61696d20646f6573206e6f742065786973742e00000000000000000000006000830152602082019050919050565b60006121446032836125c7565b91507f4f6e6c7920616e2061646d696e206f7220746865206f776e65722063616e207060008301527f6572666f726d207468697320616374696f6e00000000000000000000000000006020830152604082019050919050565b60006121aa6018836125c7565b91507f436c61696d20616c72656164792070726f6365737365642e00000000000000006000830152602082019050919050565b60006121ea6013836125c7565b91507f5573657220616c726561647920657869737473000000000000000000000000006000830152602082019050919050565b600061222a6000836125bc565b9150600082019050919050565b60006122446017836125c7565b91507f526566756e64207472616e73666572206661696c65642e0000000000000000006000830152602082019050919050565b60006122846014836125c7565b91507f41646d696e20616c7265616479206578697374730000000000000000000000006000830152602082019050919050565b6122c08161264a565b82525050565b6122cf8161264a565b82525050565b60006122e08261221d565b9150819050919050565b60006020820190506122ff6000830184611ed1565b92915050565b6000606082019050818103600083015261231f8186611ee0565b905081810360208301526123338185611f3e565b905081810360408301526123478184611f3e565b9050949350505050565b6000602082019050818103600083015261236b8184611f3e565b905092915050565b60006040820190506123886000830185611f9c565b61239560208301846122c6565b9392505050565b600060208201905081810360008301526123b581611fab565b9050919050565b600060808201905081810360008301526123d581611feb565b90506123e46020830186611ed1565b6123f160408301856122c6565b6123fe60608301846122c6565b949350505050565b6000602082019050818103600083015261241f8161202b565b9050919050565b6000602082019050818103600083015261243f81612091565b9050919050565b6000602082019050818103600083015261245f816120f7565b9050919050565b6000602082019050818103600083015261247f81612137565b9050919050565b6000602082019050818103600083015261249f8161219d565b9050919050565b600060208201905081810360008301526124bf816121dd565b9050919050565b600060208201905081810360008301526124df81612237565b9050919050565b600060208201905081810360008301526124ff81612277565b9050919050565b600060208201905061251b60008301846122c6565b92915050565b600060408201905061253660008301856122c6565b6125436020830184611f9c565b9392505050565b6000819050602082019050919050565b6000819050602082019050919050565b600081519050919050565b600081519050919050565b6000602082019050919050565b6000602082019050919050565b600082825260208201905092915050565b600082825260208201905092915050565b600081905092915050565b600082825260208201905092915050565b60006125e38261264a565b91506125ee8361264a565b9250828210156126015761260061269d565b5b828203905092915050565b60006126178261262a565b9050919050565b60008115159050919050565b600073ffffffffffffffffffffffffffffffffffffffff82169050919050565b6000819050919050565b600061265f8261264a565b91507fffffffffffffffffffffffffffffffffffffffffffffffffffffffffffffffff8214156126925761269161269d565b5b600182019050919050565b7f4e487b7100000000000000000000000000000000000000000000000000000000600052601160045260246000fd5b6126d58161260c565b81146126e057600080fd5b50565b6126ec8161261e565b81146126f757600080fd5b50565b6127038161264a565b811461270e57600080fd5b5056fea26469706673582212203527cd610bc9c7f6d1915d47a169741e5852842994f40158cc2061d2f8abd9fa64736f6c63430008000033",
  "immutableReferences": {},
  "source": "// SPDX-License-Identifier: MIT\r\npragma solidity ^0.8.0;\r\n\r\ncontract ClaimProcessing {\r\n    address public owner;\r\n    address[] public admins;\r\n    address[] public users;\r\n\r\n    struct Claim {\r\n        uint256 amount;\r\n        bool isProcessed;\r\n    }\r\n\r\n    mapping(address => mapping(uint256 => Claim)) public claims;\r\n    mapping(address => uint256) public claimCount;\r\n\r\n    event ClaimProcessed(\r\n        address indexed user,\r\n        uint256 indexed claimId,\r\n        bool claimValid,\r\n        uint256 amount\r\n    );\r\n\r\n    event Debug(string message, address user, uint256 claimId, uint256 amount);\r\n\r\n    modifier onlyOwner() {\r\n        require(msg.sender == owner, \"Only the owner can perform this action\");\r\n        _;\r\n    }\r\n\r\n    modifier onlyAdmins() {\r\n        bool isAdmin = false;\r\n        for (uint256 i = 0; i < admins.length; i++) {\r\n            if (msg.sender == admins[i]) {\r\n                isAdmin = true;\r\n                break;\r\n            }\r\n        }\r\n        require(\r\n            isAdmin || msg.sender == owner,\r\n            \"Only an admin or the owner can perform this action\"\r\n        );\r\n        _;\r\n    }\r\n\r\n    modifier onlyUsers() {\r\n        bool isUser = false;\r\n        for (uint256 i = 0; i < users.length; i++) {\r\n            if (msg.sender == users[i]) {\r\n                isUser = true;\r\n                break;\r\n            }\r\n        }\r\n        require(isUser, \"Only registered users can perform this action\");\r\n        _;\r\n    }\r\n\r\n    constructor() payable {\r\n        owner = msg.sender;\r\n    }\r\n\r\n    function addAdmin(address _admin) public onlyOwner {\r\n        bool adminExists = false;\r\n        for (uint256 i = 0; i < admins.length; i++) {\r\n            if (_admin == admins[i]) {\r\n                adminExists = true;\r\n            }\r\n            require(!adminExists, \"Admin already exists\");\r\n        }\r\n        admins.push(_admin);\r\n    }\r\n\r\n    function removeAdmin(address _admin) public onlyOwner {\r\n        for (uint256 i = 0; i < admins.length; i++) {\r\n            if (admins[i] == _admin) {\r\n                admins[i] = admins[admins.length - 1];\r\n                admins.pop();\r\n                break;\r\n            }\r\n        }\r\n    }\r\n\r\n    function addUser(address _user) public onlyAdmins {\r\n        bool userExists = false;\r\n        for (uint256 i = 0; i < users.length; i++) {\r\n            if (_user == users[i]) {\r\n                userExists = true;\r\n            }\r\n            require(!userExists, \"User already exists\");\r\n        }\r\n        users.push(_user);\r\n    }\r\n\r\n    function addClaim(uint256 amount) public onlyUsers {\r\n        address user = msg.sender;\r\n        uint256 claimId = claimCount[user];\r\n        amount = amount; // convert eth to wei\r\n        claims[user][claimId] = Claim(amount, false);\r\n        claimCount[user]++;\r\n    }\r\n\r\n    function approveClaim(\r\n        address user,\r\n        uint256 claimId,\r\n        bool claimValid\r\n    ) public onlyAdmins {\r\n        require(claimId < claimCount[user], \"Claim does not exist.\");\r\n        require(!claims[user][claimId].isProcessed, \"Claim already processed.\");\r\n\r\n        uint256 amount = claims[user][claimId].amount;\r\n\r\n        emit Debug(\"Claim not processed\", user, claimId, amount);\r\n        if (claimValid) {\r\n            (bool success, ) = user.call{value: amount}(\"\");\r\n            require(success, \"Refund transfer failed.\");\r\n        }\r\n\r\n        claims[user][claimId].isProcessed = true;\r\n        emit ClaimProcessed(user, claimId, claimValid, amount);\r\n    }\r\n\r\n    // Function to get all unprocessed claims for a specific user\r\n    function getUnprocessedClaims(\r\n        address user\r\n    ) public view returns (uint256[] memory) {\r\n        uint256 unprocessedCount = 0;\r\n        uint256 totalClaims = claimCount[user];\r\n\r\n        for (uint256 i = 0; i < totalClaims; i++) {\r\n            if (!claims[user][i].isProcessed) {\r\n                unprocessedCount++;\r\n            }\r\n        }\r\n\r\n        uint256[] memory unprocessedClaims = new uint256[](unprocessedCount);\r\n        uint256 index = 0;\r\n\r\n        for (uint256 i = 0; i < totalClaims; i++) {\r\n            if (!claims[user][i].isProcessed) {\r\n                unprocessedClaims[index] = i;\r\n                index++;\r\n            }\r\n        }\r\n\r\n        return unprocessedClaims;\r\n    }\r\n\r\n    // Function to get all unprocessed claims for all users\r\n    function getAllUnprocessedClaims()\r\n        public\r\n        view\r\n        onlyAdmins\r\n        returns (address[] memory, uint256[] memory, uint256[] memory)\r\n    {\r\n        uint256 totalUnprocessed = 0;\r\n\r\n        for (uint256 j = 0; j < users.length; j++) {\r\n            address user = users[j];\r\n            uint256 totalClaims = claimCount[user];\r\n\r\n            for (uint256 i = 0; i < totalClaims; i++) {\r\n                if (!claims[user][i].isProcessed) {\r\n                    totalUnprocessed++;\r\n                }\r\n            }\r\n        }\r\n\r\n        address[] memory userAddresses = new address[](totalUnprocessed);\r\n        uint256[] memory claimIds = new uint256[](totalUnprocessed);\r\n        uint256[] memory claimAmount = new uint256[](totalUnprocessed);\r\n        uint256 index = 0;\r\n\r\n        for (uint256 j = 0; j < users.length; j++) {\r\n            address user = users[j];\r\n            uint256 totalClaims = claimCount[user];\r\n\r\n            for (uint256 i = 0; i < totalClaims; i++) {\r\n                if (!claims[user][i].isProcessed) {\r\n                    userAddresses[index] = user;\r\n                    claimIds[index] = i;\r\n                    claimAmount[index] = claims[user][i].amount;\r\n                    index++;\r\n                }\r\n            }\r\n        }\r\n\r\n        return (userAddresses, claimIds, claimAmount);\r\n    }\r\n\r\n    function fund() public payable onlyAdmins {\r\n        require(msg.value > 0, \"Amount must be greater than 0.\");\r\n    }\r\n\r\n    receive() external payable {}\r\n\r\n    fallback() external payable {}\r\n\r\n    function getBalance() public view returns (uint) {\r\n        return address(this).balance;\r\n    }\r\n}\r\n",
  "sourcePath": "C:\\Users\\leeda\\OneDrive\\Desktop\\Great_Global\\Danny_Test\\SponsorAnimals\\contracts\\ClaimProcessing.sol",
  "compiler": {
    "name": "solc",
    "version": "0.8.0+commit.c7dfd78e.Emscripten.clang"
  },
  "schemaVersion": "3.4.16",
  "updatedAt": "2024-09-24T14:52:43.652Z",
  "networkType": "ethereum",
  "devdoc": {
    "kind": "dev",
    "methods": {},
    "version": 1
  },
  "userdoc": {
    "kind": "user",
    "methods": {},
    "version": 1
  }
}