{
  "contractName": "ClaimProcessing",
  "abi": [
    {
      "inputs": [],
      "stateMutability": "payable",
      "type": "constructor",
      "payable": true
    },
    {
      "anonymous": false,
      "inputs": [
        {
          "indexed": true,
          "internalType": "address",
          "name": "user",
          "type": "address"
        },
        {
          "indexed": true,
          "internalType": "uint256",
          "name": "claimId",
          "type": "uint256"
        },
        {
          "indexed": false,
          "internalType": "bool",
          "name": "claimValid",
          "type": "bool"
        },
        {
          "indexed": false,
          "internalType": "uint256",
          "name": "amount",
          "type": "uint256"
        }
      ],
      "name": "ClaimProcessed",
      "type": "event"
    },
    {
      "anonymous": false,
      "inputs": [
        {
          "indexed": false,
          "internalType": "string",
          "name": "message",
          "type": "string"
        },
        {
          "indexed": false,
          "internalType": "address",
          "name": "user",
          "type": "address"
        },
        {
          "indexed": false,
          "internalType": "uint256",
          "name": "claimId",
          "type": "uint256"
        },
        {
          "indexed": false,
          "internalType": "uint256",
          "name": "amount",
          "type": "uint256"
        }
      ],
      "name": "Debug",
      "type": "event"
    },
    {
      "stateMutability": "payable",
      "type": "fallback",
      "payable": true
    },
    {
      "inputs": [
        {
          "internalType": "uint256",
          "name": "",
          "type": "uint256"
        }
      ],
      "name": "admins",
      "outputs": [
        {
          "internalType": "address",
          "name": "",
          "type": "address"
        }
      ],
      "stateMutability": "view",
      "type": "function",
      "constant": true
    },
    {
      "inputs": [
        {
          "internalType": "address",
          "name": "",
          "type": "address"
        }
      ],
      "name": "claimCount",
      "outputs": [
        {
          "internalType": "uint256",
          "name": "",
          "type": "uint256"
        }
      ],
      "stateMutability": "view",
      "type": "function",
      "constant": true
    },
    {
      "inputs": [
        {
          "internalType": "address",
          "name": "",
          "type": "address"
        },
        {
          "internalType": "uint256",
          "name": "",
          "type": "uint256"
        }
      ],
      "name": "claims",
      "outputs": [
        {
          "internalType": "uint256",
          "name": "amount",
          "type": "uint256"
        },
        {
          "internalType": "bool",
          "name": "isProcessed",
          "type": "bool"
        }
      ],
      "stateMutability": "view",
      "type": "function",
      "constant": true
    },
    {
      "inputs": [],
      "name": "owner",
      "outputs": [
        {
          "internalType": "address",
          "name": "",
          "type": "address"
        }
      ],
      "stateMutability": "view",
      "type": "function",
      "constant": true
    },
    {
      "inputs": [
        {
          "internalType": "uint256",
          "name": "",
          "type": "uint256"
        }
      ],
      "name": "users",
      "outputs": [
        {
          "internalType": "address",
          "name": "",
          "type": "address"
        }
      ],
      "stateMutability": "view",
      "type": "function",
      "constant": true
    },
    {
      "stateMutability": "payable",
      "type": "receive",
      "payable": true
    },
    {
      "inputs": [
        {
          "internalType": "address",
          "name": "_admin",
          "type": "address"
        }
      ],
      "name": "addAdmin",
      "outputs": [],
      "stateMutability": "nonpayable",
      "type": "function"
    },
    {
      "inputs": [
        {
          "internalType": "address",
          "name": "_admin",
          "type": "address"
        }
      ],
      "name": "removeAdmin",
      "outputs": [],
      "stateMutability": "nonpayable",
      "type": "function"
    },
    {
      "inputs": [
        {
          "internalType": "address",
          "name": "_user",
          "type": "address"
        }
      ],
      "name": "addUser",
      "outputs": [],
      "stateMutability": "nonpayable",
      "type": "function"
    },
    {
      "inputs": [
        {
          "internalType": "uint256",
          "name": "amount",
          "type": "uint256"
        }
      ],
      "name": "addClaim",
      "outputs": [],
      "stateMutability": "nonpayable",
      "type": "function"
    },
    {
      "inputs": [
        {
          "internalType": "address",
          "name": "user",
          "type": "address"
        },
        {
          "internalType": "uint256",
          "name": "claimId",
          "type": "uint256"
        },
        {
          "internalType": "bool",
          "name": "claimValid",
          "type": "bool"
        }
      ],
      "name": "approveClaim",
      "outputs": [],
      "stateMutability": "nonpayable",
      "type": "function"
    },
    {
      "inputs": [
        {
          "internalType": "address",
          "name": "user",
          "type": "address"
        }
      ],
      "name": "getUnprocessedClaims",
      "outputs": [
        {
          "internalType": "uint256[]",
          "name": "",
          "type": "uint256[]"
        }
      ],
      "stateMutability": "view",
      "type": "function",
      "constant": true
    },
    {
      "inputs": [],
      "name": "getAllUnprocessedClaims",
      "outputs": [
        {
          "internalType": "address[]",
          "name": "",
          "type": "address[]"
        },
        {
          "internalType": "uint256[]",
          "name": "",
          "type": "uint256[]"
        }
      ],
      "stateMutability": "view",
      "type": "function",
      "constant": true
    },
    {
      "inputs": [],
      "name": "fund",
      "outputs": [],
      "stateMutability": "payable",
      "type": "function",
      "payable": true
    },
    {
      "inputs": [],
      "name": "getBalance",
      "outputs": [
        {
          "internalType": "uint256",
          "name": "",
          "type": "uint256"
        }
      ],
      "stateMutability": "view",
      "type": "function",
      "constant": true
    }
  ],
  "bytecode": "0x6080604052336000806101000a81548173ffffffffffffffffffffffffffffffffffffffff021916908373ffffffffffffffffffffffffffffffffffffffff16021790555061261e806100536000396000f3fe6080604052600436106100e15760003560e01c8063745c25f61161007f578063ab541a8511610059578063ab541a85146102c7578063b60d428814610305578063eae7c6681461030f578063ed5393641461034c576100e8565b8063745c25f6146102475780638da5cb5b146102705780638f28d5281461029b576100e8565b8063365b98b2116100bb578063365b98b21461017b578063421b2d8b146101b857806369c12cb7146101e1578063704802751461021e576100e8565b806312065fe0146100ea57806314bfd6d0146101155780631785f53c14610152576100e8565b366100e857005b005b3480156100f657600080fd5b506100ff610375565b60405161010c91906123dd565b60405180910390f35b34801561012157600080fd5b5061013c60048036038101906101379190611d55565b61037d565b60405161014991906121d6565b60405180910390f35b34801561015e57600080fd5b5061017960048036038101906101749190611ca1565b6103bc565b005b34801561018757600080fd5b506101a2600480360381019061019d9190611d55565b610671565b6040516101af91906121d6565b60405180910390f35b3480156101c457600080fd5b506101df60048036038101906101da9190611ca1565b6106b0565b005b3480156101ed57600080fd5b5061020860048036038101906102039190611ca1565b610977565b60405161021591906123dd565b60405180910390f35b34801561022a57600080fd5b5061024560048036038101906102409190611ca1565b61098f565b005b34801561025357600080fd5b5061026e60048036038101906102699190611d55565b610b87565b005b34801561027c57600080fd5b50610285610dc6565b60405161029291906121d6565b60405180910390f35b3480156102a757600080fd5b506102b0610dea565b6040516102be9291906121f1565b60405180910390f35b3480156102d357600080fd5b506102ee60048036038101906102e99190611cca565b6113c6565b6040516102fc9291906123f8565b60405180910390f35b61030d611404565b005b34801561031b57600080fd5b5061033660048036038101906103319190611ca1565b6115a6565b6040516103439190612228565b60405180910390f35b34801561035857600080fd5b50610373600480360381019061036e9190611d06565b6117d9565b005b600047905090565b6001818154811061038d57600080fd5b906000526020600020016000915054906101000a900473ffffffffffffffffffffffffffffffffffffffff1681565b60008054906101000a900473ffffffffffffffffffffffffffffffffffffffff1673ffffffffffffffffffffffffffffffffffffffff163373ffffffffffffffffffffffffffffffffffffffff161461044a576040517f08c379a0000000000000000000000000000000000000000000000000000000008152600401610441906122fd565b60405180910390fd5b60005b60018054905081101561066d578173ffffffffffffffffffffffffffffffffffffffff16600182815481106104ab577f4e487b7100000000000000000000000000000000000000000000000000000000600052603260045260246000fd5b9060005260206000200160009054906101000a900473ffffffffffffffffffffffffffffffffffffffff1673ffffffffffffffffffffffffffffffffffffffff16141561065a57600180808054905061050491906124af565b8154811061053b577f4e487b7100000000000000000000000000000000000000000000000000000000600052603260045260246000fd5b9060005260206000200160009054906101000a900473ffffffffffffffffffffffffffffffffffffffff16600182815481106105a0577f4e487b7100000000000000000000000000000000000000000000000000000000600052603260045260246000fd5b9060005260206000200160006101000a81548173ffffffffffffffffffffffffffffffffffffffff021916908373ffffffffffffffffffffffffffffffffffffffff1602179055506001805480610620577f4e487b7100000000000000000000000000000000000000000000000000000000600052603160045260246000fd5b6001900381819060005260206000200160006101000a81549073ffffffffffffffffffffffffffffffffffffffff0219169055905561066d565b80806106659061252b565b91505061044d565b5050565b6002818154811061068157600080fd5b906000526020600020016000915054906101000a900473ffffffffffffffffffffffffffffffffffffffff1681565b6000805b60018054905081101561077557600181815481106106fb577f4e487b7100000000000000000000000000000000000000000000000000000000600052603260045260246000fd5b9060005260206000200160009054906101000a900473ffffffffffffffffffffffffffffffffffffffff1673ffffffffffffffffffffffffffffffffffffffff163373ffffffffffffffffffffffffffffffffffffffff1614156107625760019150610775565b808061076d9061252b565b9150506106b4565b5080806107cd575060008054906101000a900473ffffffffffffffffffffffffffffffffffffffff1673ffffffffffffffffffffffffffffffffffffffff163373ffffffffffffffffffffffffffffffffffffffff16145b61080c576040517f08c379a00000000000000000000000000000000000000000000000000000000081526004016108039061233d565b60405180910390fd5b6000805b60028054905081101561090e5760028181548110610857577f4e487b7100000000000000000000000000000000000000000000000000000000600052603260045260246000fd5b9060005260206000200160009054906101000a900473ffffffffffffffffffffffffffffffffffffffff1673ffffffffffffffffffffffffffffffffffffffff168473ffffffffffffffffffffffffffffffffffffffff1614156108ba57600191505b81156108fb576040517f08c379a00000000000000000000000000000000000000000000000000000000081526004016108f29061237d565b60405180910390fd5b80806109069061252b565b915050610810565b506002839080600181540180825580915050600190039060005260206000200160009091909190916101000a81548173ffffffffffffffffffffffffffffffffffffffff021916908373ffffffffffffffffffffffffffffffffffffffff160217905550505050565b60046020528060005260406000206000915090505481565b60008054906101000a900473ffffffffffffffffffffffffffffffffffffffff1673ffffffffffffffffffffffffffffffffffffffff163373ffffffffffffffffffffffffffffffffffffffff1614610a1d576040517f08c379a0000000000000000000000000000000000000000000000000000000008152600401610a14906122fd565b60405180910390fd5b6000805b600180549050811015610b1f5760018181548110610a68577f4e487b7100000000000000000000000000000000000000000000000000000000600052603260045260246000fd5b9060005260206000200160009054906101000a900473ffffffffffffffffffffffffffffffffffffffff1673ffffffffffffffffffffffffffffffffffffffff168373ffffffffffffffffffffffffffffffffffffffff161415610acb57600191505b8115610b0c576040517f08c379a0000000000000000000000000000000000000000000000000000000008152600401610b03906123bd565b60405180910390fd5b8080610b179061252b565b915050610a21565b506001829080600181540180825580915050600190039060005260206000200160009091909190916101000a81548173ffffffffffffffffffffffffffffffffffffffff021916908373ffffffffffffffffffffffffffffffffffffffff1602179055505050565b6000805b600280549050811015610c4c5760028181548110610bd2577f4e487b7100000000000000000000000000000000000000000000000000000000600052603260045260246000fd5b9060005260206000200160009054906101000a900473ffffffffffffffffffffffffffffffffffffffff1673ffffffffffffffffffffffffffffffffffffffff163373ffffffffffffffffffffffffffffffffffffffff161415610c395760019150610c4c565b8080610c449061252b565b915050610b8b565b5080610c8d576040517f08c379a0000000000000000000000000000000000000000000000000000000008152600401610c84906122dd565b60405180910390fd5b60003390506000600460008373ffffffffffffffffffffffffffffffffffffffff1673ffffffffffffffffffffffffffffffffffffffff168152602001908152602001600020549050604051806040016040528085815260200160001515815250600360008473ffffffffffffffffffffffffffffffffffffffff1673ffffffffffffffffffffffffffffffffffffffff16815260200190815260200160002060008381526020019081526020016000206000820151816000015560208201518160010160006101000a81548160ff021916908315150217905550905050600460008373ffffffffffffffffffffffffffffffffffffffff1673ffffffffffffffffffffffffffffffffffffffff1681526020019081526020016000206000815480929190610dbb9061252b565b919050555050505050565b60008054906101000a900473ffffffffffffffffffffffffffffffffffffffff1681565b6060806000805b600180549050811015610eb25760018181548110610e38577f4e487b7100000000000000000000000000000000000000000000000000000000600052603260045260246000fd5b9060005260206000200160009054906101000a900473ffffffffffffffffffffffffffffffffffffffff1673ffffffffffffffffffffffffffffffffffffffff163373ffffffffffffffffffffffffffffffffffffffff161415610e9f5760019150610eb2565b8080610eaa9061252b565b915050610df1565b508080610f0a575060008054906101000a900473ffffffffffffffffffffffffffffffffffffffff1673ffffffffffffffffffffffffffffffffffffffff163373ffffffffffffffffffffffffffffffffffffffff16145b610f49576040517f08c379a0000000000000000000000000000000000000000000000000000000008152600401610f409061233d565b60405180910390fd5b6000805b6002805490508110156110af57600060028281548110610f96577f4e487b7100000000000000000000000000000000000000000000000000000000600052603260045260246000fd5b9060005260206000200160009054906101000a900473ffffffffffffffffffffffffffffffffffffffff1690506000600460008373ffffffffffffffffffffffffffffffffffffffff1673ffffffffffffffffffffffffffffffffffffffff16815260200190815260200160002054905060005b8181101561109957600360008473ffffffffffffffffffffffffffffffffffffffff1673ffffffffffffffffffffffffffffffffffffffff168152602001908152602001600020600082815260200190815260200160002060010160009054906101000a900460ff166110865784806110829061252b565b9550505b80806110919061252b565b91505061100a565b50505080806110a79061252b565b915050610f4d565b5060008167ffffffffffffffff8111156110f2577f4e487b7100000000000000000000000000000000000000000000000000000000600052604160045260246000fd5b6040519080825280602002602001820160405280156111205781602001602082028036833780820191505090505b50905060008267ffffffffffffffff811115611165577f4e487b7100000000000000000000000000000000000000000000000000000000600052604160045260246000fd5b6040519080825280602002602001820160405280156111935781602001602082028036833780820191505090505b5090506000805b6002805490508110156113b6576000600282815481106111e3577f4e487b7100000000000000000000000000000000000000000000000000000000600052603260045260246000fd5b9060005260206000200160009054906101000a900473ffffffffffffffffffffffffffffffffffffffff1690506000600460008373ffffffffffffffffffffffffffffffffffffffff1673ffffffffffffffffffffffffffffffffffffffff16815260200190815260200160002054905060005b818110156113a057600360008473ffffffffffffffffffffffffffffffffffffffff1673ffffffffffffffffffffffffffffffffffffffff168152602001908152602001600020600082815260200190815260200160002060010160009054906101000a900460ff1661138d57828786815181106112fe577f4e487b7100000000000000000000000000000000000000000000000000000000600052603260045260246000fd5b602002602001019073ffffffffffffffffffffffffffffffffffffffff16908173ffffffffffffffffffffffffffffffffffffffff168152505080868681518110611372577f4e487b7100000000000000000000000000000000000000000000000000000000600052603260045260246000fd5b60200260200101818152505084806113899061252b565b9550505b80806113989061252b565b915050611257565b50505080806113ae9061252b565b91505061119a565b5082829650965050505050509091565b6003602052816000526040600020602052806000526040600020600091509150508060000154908060010160009054906101000a900460ff16905082565b6000805b6001805490508110156114c9576001818154811061144f577f4e487b7100000000000000000000000000000000000000000000000000000000600052603260045260246000fd5b9060005260206000200160009054906101000a900473ffffffffffffffffffffffffffffffffffffffff1673ffffffffffffffffffffffffffffffffffffffff163373ffffffffffffffffffffffffffffffffffffffff1614156114b657600191506114c9565b80806114c19061252b565b915050611408565b508080611521575060008054906101000a900473ffffffffffffffffffffffffffffffffffffffff1673ffffffffffffffffffffffffffffffffffffffff163373ffffffffffffffffffffffffffffffffffffffff16145b611560576040517f08c379a00000000000000000000000000000000000000000000000000000000081526004016115579061233d565b60405180910390fd5b600034116115a3576040517f08c379a000000000000000000000000000000000000000000000000000000000815260040161159a90612273565b60405180910390fd5b50565b6060600080600460008573ffffffffffffffffffffffffffffffffffffffff1673ffffffffffffffffffffffffffffffffffffffff16815260200190815260200160002054905060005b8181101561167f57600360008673ffffffffffffffffffffffffffffffffffffffff1673ffffffffffffffffffffffffffffffffffffffff168152602001908152602001600020600082815260200190815260200160002060010160009054906101000a900460ff1661166c5782806116689061252b565b9350505b80806116779061252b565b9150506115f0565b5060008267ffffffffffffffff8111156116c2577f4e487b7100000000000000000000000000000000000000000000000000000000600052604160045260246000fd5b6040519080825280602002602001820160405280156116f05781602001602082028036833780820191505090505b5090506000805b838110156117cc57600360008873ffffffffffffffffffffffffffffffffffffffff1673ffffffffffffffffffffffffffffffffffffffff168152602001908152602001600020600082815260200190815260200160002060010160009054906101000a900460ff166117b9578083838151811061179e577f4e487b7100000000000000000000000000000000000000000000000000000000600052603260045260246000fd5b60200260200101818152505081806117b59061252b565b9250505b80806117c49061252b565b9150506116f7565b5081945050505050919050565b6000805b60018054905081101561189e5760018181548110611824577f4e487b7100000000000000000000000000000000000000000000000000000000600052603260045260246000fd5b9060005260206000200160009054906101000a900473ffffffffffffffffffffffffffffffffffffffff1673ffffffffffffffffffffffffffffffffffffffff163373ffffffffffffffffffffffffffffffffffffffff16141561188b576001915061189e565b80806118969061252b565b9150506117dd565b5080806118f6575060008054906101000a900473ffffffffffffffffffffffffffffffffffffffff1673ffffffffffffffffffffffffffffffffffffffff163373ffffffffffffffffffffffffffffffffffffffff16145b611935576040517f08c379a000000000000000000000000000000000000000000000000000000000815260040161192c9061233d565b60405180910390fd5b600460008573ffffffffffffffffffffffffffffffffffffffff1673ffffffffffffffffffffffffffffffffffffffff1681526020019081526020016000205483106119b6576040517f08c379a00000000000000000000000000000000000000000000000000000000081526004016119ad9061231d565b60405180910390fd5b600360008573ffffffffffffffffffffffffffffffffffffffff1673ffffffffffffffffffffffffffffffffffffffff168152602001908152602001600020600084815260200190815260200160002060010160009054906101000a900460ff1615611a57576040517f08c379a0000000000000000000000000000000000000000000000000000000008152600401611a4e9061235d565b60405180910390fd5b6000600360008673ffffffffffffffffffffffffffffffffffffffff1673ffffffffffffffffffffffffffffffffffffffff16815260200190815260200160002060008581526020019081526020016000206000015490507fa64fac00f0556ada3417c24c021c73caa5c98979327816bd5951915aa2c0e4fb858583604051611ae293929190612293565b60405180910390a18215611b9e5760008573ffffffffffffffffffffffffffffffffffffffff1682604051611b16906121c1565b60006040518083038185875af1925050503d8060008114611b53576040519150601f19603f3d011682016040523d82523d6000602084013e611b58565b606091505b5050905080611b9c576040517f08c379a0000000000000000000000000000000000000000000000000000000008152600401611b939061239d565b60405180910390fd5b505b6001600360008773ffffffffffffffffffffffffffffffffffffffff1673ffffffffffffffffffffffffffffffffffffffff168152602001908152602001600020600086815260200190815260200160002060010160006101000a81548160ff021916908315150217905550838573ffffffffffffffffffffffffffffffffffffffff167f6b02db88f8ddd866b6dff9966a15c197bf26ab53d783610e14ce70588defe4728584604051611c5392919061224a565b60405180910390a35050505050565b600081359050611c71816125a3565b92915050565b600081359050611c86816125ba565b92915050565b600081359050611c9b816125d1565b92915050565b600060208284031215611cb357600080fd5b6000611cc184828501611c62565b91505092915050565b60008060408385031215611cdd57600080fd5b6000611ceb85828601611c62565b9250506020611cfc85828601611c8c565b9150509250929050565b600080600060608486031215611d1b57600080fd5b6000611d2986828701611c62565b9350506020611d3a86828701611c8c565b9250506040611d4b86828701611c77565b9150509250925092565b600060208284031215611d6757600080fd5b6000611d7584828501611c8c565b91505092915050565b6000611d8a8383611dae565b60208301905092915050565b6000611da283836121a3565b60208301905092915050565b611db7816124e3565b82525050565b611dc6816124e3565b82525050565b6000611dd782612441565b611de18185612471565b9350611dec83612421565b8060005b83811015611e1d578151611e048882611d7e565b9750611e0f83612457565b925050600181019050611df0565b5085935050505092915050565b6000611e358261244c565b611e3f8185612482565b9350611e4a83612431565b8060005b83811015611e7b578151611e628882611d96565b9750611e6d83612464565b925050600181019050611e4e565b5085935050505092915050565b611e91816124f5565b82525050565b6000611ea4601e8361249e565b91507f416d6f756e74206d7573742062652067726561746572207468616e20302e00006000830152602082019050919050565b6000611ee460138361249e565b91507f436c61696d206e6f742070726f636573736564000000000000000000000000006000830152602082019050919050565b6000611f24602d8361249e565b91507f4f6e6c7920726567697374657265642075736572732063616e20706572666f7260008301527f6d207468697320616374696f6e000000000000000000000000000000000000006020830152604082019050919050565b6000611f8a60268361249e565b91507f4f6e6c7920746865206f776e65722063616e20706572666f726d20746869732060008301527f616374696f6e00000000000000000000000000000000000000000000000000006020830152604082019050919050565b6000611ff060158361249e565b91507f436c61696d20646f6573206e6f742065786973742e00000000000000000000006000830152602082019050919050565b600061203060328361249e565b91507f4f6e6c7920616e2061646d696e206f7220746865206f776e65722063616e207060008301527f6572666f726d207468697320616374696f6e00000000000000000000000000006020830152604082019050919050565b600061209660188361249e565b91507f436c61696d20616c72656164792070726f6365737365642e00000000000000006000830152602082019050919050565b60006120d660138361249e565b91507f5573657220616c726561647920657869737473000000000000000000000000006000830152602082019050919050565b6000612116600083612493565b9150600082019050919050565b600061213060178361249e565b91507f526566756e64207472616e73666572206661696c65642e0000000000000000006000830152602082019050919050565b600061217060148361249e565b91507f41646d696e20616c7265616479206578697374730000000000000000000000006000830152602082019050919050565b6121ac81612521565b82525050565b6121bb81612521565b82525050565b60006121cc82612109565b9150819050919050565b60006020820190506121eb6000830184611dbd565b92915050565b6000604082019050818103600083015261220b8185611dcc565b9050818103602083015261221f8184611e2a565b90509392505050565b600060208201905081810360008301526122428184611e2a565b905092915050565b600060408201905061225f6000830185611e88565b61226c60208301846121b2565b9392505050565b6000602082019050818103600083015261228c81611e97565b9050919050565b600060808201905081810360008301526122ac81611ed7565b90506122bb6020830186611dbd565b6122c860408301856121b2565b6122d560608301846121b2565b949350505050565b600060208201905081810360008301526122f681611f17565b9050919050565b6000602082019050818103600083015261231681611f7d565b9050919050565b6000602082019050818103600083015261233681611fe3565b9050919050565b6000602082019050818103600083015261235681612023565b9050919050565b6000602082019050818103600083015261237681612089565b9050919050565b60006020820190508181036000830152612396816120c9565b9050919050565b600060208201905081810360008301526123b681612123565b9050919050565b600060208201905081810360008301526123d681612163565b9050919050565b60006020820190506123f260008301846121b2565b92915050565b600060408201905061240d60008301856121b2565b61241a6020830184611e88565b9392505050565b6000819050602082019050919050565b6000819050602082019050919050565b600081519050919050565b600081519050919050565b6000602082019050919050565b6000602082019050919050565b600082825260208201905092915050565b600082825260208201905092915050565b600081905092915050565b600082825260208201905092915050565b60006124ba82612521565b91506124c583612521565b9250828210156124d8576124d7612574565b5b828203905092915050565b60006124ee82612501565b9050919050565b60008115159050919050565b600073ffffffffffffffffffffffffffffffffffffffff82169050919050565b6000819050919050565b600061253682612521565b91507fffffffffffffffffffffffffffffffffffffffffffffffffffffffffffffffff82141561256957612568612574565b5b600182019050919050565b7f4e487b7100000000000000000000000000000000000000000000000000000000600052601160045260246000fd5b6125ac816124e3565b81146125b757600080fd5b50565b6125c3816124f5565b81146125ce57600080fd5b50565b6125da81612521565b81146125e557600080fd5b5056fea2646970667358221220032fcccdff8b677f9be676a5202ea1f6808cf19a379321d1974fa3504d1622a864736f6c63430008000033",
  "immutableReferences": {},
  "source": "// SPDX-License-Identifier: MIT\r\npragma solidity ^0.8.0;\r\n\r\ncontract ClaimProcessing {\r\n    address public owner;\r\n    address[] public admins;\r\n    address[] public users;\r\n\r\n    struct Claim {\r\n        uint256 amount;\r\n        bool isProcessed;\r\n    }\r\n\r\n    mapping(address => mapping(uint256 => Claim)) public claims;\r\n    mapping(address => uint256) public claimCount;\r\n\r\n    event ClaimProcessed(\r\n        address indexed user,\r\n        uint256 indexed claimId,\r\n        bool claimValid,\r\n        uint256 amount\r\n    );\r\n\r\n    event Debug(string message, address user, uint256 claimId, uint256 amount);\r\n\r\n    modifier onlyOwner() {\r\n        require(msg.sender == owner, \"Only the owner can perform this action\");\r\n        _;\r\n    }\r\n\r\n    modifier onlyAdmins() {\r\n        bool isAdmin = false;\r\n        for (uint256 i = 0; i < admins.length; i++) {\r\n            if (msg.sender == admins[i]) {\r\n                isAdmin = true;\r\n                break;\r\n            }\r\n        }\r\n        require(\r\n            isAdmin || msg.sender == owner,\r\n            \"Only an admin or the owner can perform this action\"\r\n        );\r\n        _;\r\n    }\r\n\r\n    modifier onlyUsers() {\r\n        bool isUser = false;\r\n        for (uint256 i = 0; i < users.length; i++) {\r\n            if (msg.sender == users[i]) {\r\n                isUser = true;\r\n                break;\r\n            }\r\n        }\r\n        require(isUser, \"Only registered users can perform this action\");\r\n        _;\r\n    }\r\n\r\n    constructor() payable {\r\n        owner = msg.sender;\r\n    }\r\n\r\n    function addAdmin(address _admin) public onlyOwner {\r\n        bool adminExists = false;\r\n        for (uint256 i = 0; i < admins.length; i++) {\r\n            if (_admin == admins[i]) {\r\n                adminExists = true;\r\n            }\r\n            require(!adminExists, \"Admin already exists\");\r\n        }\r\n        admins.push(_admin);\r\n    }\r\n\r\n    function removeAdmin(address _admin) public onlyOwner {\r\n        for (uint256 i = 0; i < admins.length; i++) {\r\n            if (admins[i] == _admin) {\r\n                admins[i] = admins[admins.length - 1];\r\n                admins.pop();\r\n                break;\r\n            }\r\n        }\r\n    }\r\n\r\n    function addUser(address _user) public onlyAdmins {\r\n        bool userExists = false;\r\n        for (uint256 i = 0; i < users.length; i++) {\r\n            if (_user == users[i]) {\r\n                userExists = true;\r\n            }\r\n            require(!userExists, \"User already exists\");\r\n        }\r\n        users.push(_user);\r\n    }\r\n\r\n    function addClaim(uint256 amount) public onlyUsers {\r\n        address user = msg.sender;\r\n        uint256 claimId = claimCount[user];\r\n        amount = amount; // convert eth to wei\r\n        claims[user][claimId] = Claim(amount, false);\r\n        claimCount[user]++;\r\n    }\r\n\r\n    function approveClaim(\r\n        address user,\r\n        uint256 claimId,\r\n        bool claimValid\r\n    ) public onlyAdmins {\r\n        require(claimId < claimCount[user], \"Claim does not exist.\");\r\n        require(!claims[user][claimId].isProcessed, \"Claim already processed.\");\r\n\r\n        uint256 amount = claims[user][claimId].amount;\r\n\r\n        emit Debug(\"Claim not processed\", user, claimId, amount);\r\n        if (claimValid) {\r\n            (bool success, ) = user.call{value: amount}(\"\");\r\n            require(success, \"Refund transfer failed.\");\r\n        }\r\n\r\n        claims[user][claimId].isProcessed = true;\r\n        emit ClaimProcessed(user, claimId, claimValid, amount);\r\n    }\r\n\r\n    // Function to get all unprocessed claims for a specific user\r\n    function getUnprocessedClaims(\r\n        address user\r\n    ) public view returns (uint256[] memory) {\r\n        uint256 unprocessedCount = 0;\r\n        uint256 totalClaims = claimCount[user];\r\n\r\n        for (uint256 i = 0; i < totalClaims; i++) {\r\n            if (!claims[user][i].isProcessed) {\r\n                unprocessedCount++;\r\n            }\r\n        }\r\n\r\n        uint256[] memory unprocessedClaims = new uint256[](unprocessedCount);\r\n        uint256 index = 0;\r\n\r\n        for (uint256 i = 0; i < totalClaims; i++) {\r\n            if (!claims[user][i].isProcessed) {\r\n                unprocessedClaims[index] = i;\r\n                index++;\r\n            }\r\n        }\r\n\r\n        return unprocessedClaims;\r\n    }\r\n\r\n    // Function to get all unprocessed claims for all users\r\n    function getAllUnprocessedClaims()\r\n        public\r\n        view\r\n        onlyAdmins\r\n        returns (address[] memory, uint256[] memory)\r\n    {\r\n        uint256 totalUnprocessed = 0;\r\n\r\n        for (uint256 j = 0; j < users.length; j++) {\r\n            address user = users[j];\r\n            uint256 totalClaims = claimCount[user];\r\n\r\n            for (uint256 i = 0; i < totalClaims; i++) {\r\n                if (!claims[user][i].isProcessed) {\r\n                    totalUnprocessed++;\r\n                }\r\n            }\r\n        }\r\n\r\n        address[] memory userAddresses = new address[](totalUnprocessed);\r\n        uint256[] memory claimIds = new uint256[](totalUnprocessed);\r\n        uint256 index = 0;\r\n\r\n        for (uint256 j = 0; j < users.length; j++) {\r\n            address user = users[j];\r\n            uint256 totalClaims = claimCount[user];\r\n\r\n            for (uint256 i = 0; i < totalClaims; i++) {\r\n                if (!claims[user][i].isProcessed) {\r\n                    userAddresses[index] = user;\r\n                    claimIds[index] = i;\r\n                    index++;\r\n                }\r\n            }\r\n        }\r\n\r\n        return (userAddresses, claimIds);\r\n    }\r\n\r\n    function fund() public payable onlyAdmins {\r\n        require(msg.value > 0, \"Amount must be greater than 0.\");\r\n    }\r\n\r\n    receive() external payable {}\r\n\r\n    fallback() external payable {}\r\n\r\n    function getBalance() public view returns (uint) {\r\n        return address(this).balance;\r\n    }\r\n}\r\n",
  "sourcePath": "C:\\Users\\leeda\\OneDrive\\Desktop\\Great_Global\\Danny_Test\\SponsorAnimals\\contracts\\ClaimProcessing.sol",
  "compiler": {
    "name": "solc",
    "version": "0.8.0+commit.c7dfd78e.Emscripten.clang"
  },
  "schemaVersion": "3.4.16",
  "updatedAt": "2024-09-24T12:53:10.487Z",
  "networkType": "ethereum",
  "devdoc": {
    "kind": "dev",
    "methods": {},
    "version": 1
  },
  "userdoc": {
    "kind": "user",
    "methods": {},
    "version": 1
  }
}