{
  "contractName": "PaymentModule",
  "abi": [
    {
      "inputs": [],
      "stateMutability": "nonpayable",
      "type": "constructor"
    },
    {
      "anonymous": false,
      "inputs": [
        {
          "indexed": true,
          "internalType": "address",
          "name": "admin",
          "type": "address"
        },
        {
          "indexed": false,
          "internalType": "bool",
          "name": "status",
          "type": "bool"
        }
      ],
      "name": "AdminAdded",
      "type": "event"
    },
    {
      "anonymous": false,
      "inputs": [
        {
          "indexed": true,
          "internalType": "address",
          "name": "customer",
          "type": "address"
        },
        {
          "indexed": false,
          "internalType": "uint256",
          "name": "insurancePurchaseID",
          "type": "uint256"
        },
        {
          "indexed": false,
          "internalType": "bool",
          "name": "newStatus",
          "type": "bool"
        }
      ],
      "name": "AutoPayStatusChanged",
      "type": "event"
    },
    {
      "anonymous": false,
      "inputs": [
        {
          "indexed": true,
          "internalType": "address",
          "name": "customer",
          "type": "address"
        },
        {
          "indexed": false,
          "internalType": "uint256",
          "name": "amount",
          "type": "uint256"
        }
      ],
      "name": "BalanceAdded",
      "type": "event"
    },
    {
      "anonymous": false,
      "inputs": [
        {
          "indexed": true,
          "internalType": "address",
          "name": "customer",
          "type": "address"
        },
        {
          "indexed": false,
          "internalType": "uint256",
          "name": "insurancePurchaseID",
          "type": "uint256"
        },
        {
          "indexed": false,
          "internalType": "enum PaymentModule.InsuranceStatus",
          "name": "insStatus",
          "type": "uint8"
        }
      ],
      "name": "CancelInsurance",
      "type": "event"
    },
    {
      "anonymous": false,
      "inputs": [
        {
          "indexed": true,
          "internalType": "address",
          "name": "customer",
          "type": "address"
        }
      ],
      "name": "CustomerAdded",
      "type": "event"
    },
    {
      "anonymous": false,
      "inputs": [
        {
          "indexed": true,
          "internalType": "address",
          "name": "customer",
          "type": "address"
        },
        {
          "indexed": false,
          "internalType": "uint256",
          "name": "insurancePurchaseID",
          "type": "uint256"
        },
        {
          "indexed": false,
          "internalType": "uint256",
          "name": "insuranceID",
          "type": "uint256"
        }
      ],
      "name": "InsuranceApproved",
      "type": "event"
    },
    {
      "anonymous": false,
      "inputs": [
        {
          "indexed": true,
          "internalType": "address",
          "name": "customer",
          "type": "address"
        },
        {
          "indexed": false,
          "internalType": "uint256",
          "name": "insurancePurchaseID",
          "type": "uint256"
        }
      ],
      "name": "InsuranceInactive",
      "type": "event"
    },
    {
      "anonymous": false,
      "inputs": [
        {
          "indexed": true,
          "internalType": "address",
          "name": "customer",
          "type": "address"
        },
        {
          "indexed": false,
          "internalType": "uint256",
          "name": "insurancePurchaseID",
          "type": "uint256"
        },
        {
          "indexed": false,
          "internalType": "uint256",
          "name": "newPayDate",
          "type": "uint256"
        }
      ],
      "name": "PayDateUpdated",
      "type": "event"
    },
    {
      "anonymous": false,
      "inputs": [
        {
          "indexed": true,
          "internalType": "address",
          "name": "customer",
          "type": "address"
        },
        {
          "indexed": false,
          "internalType": "uint256",
          "name": "insurancePurchaseID",
          "type": "uint256"
        },
        {
          "indexed": false,
          "internalType": "uint256",
          "name": "amount",
          "type": "uint256"
        }
      ],
      "name": "PaymentProcessed",
      "type": "event"
    },
    {
      "anonymous": false,
      "inputs": [
        {
          "indexed": true,
          "internalType": "address",
          "name": "customer",
          "type": "address"
        },
        {
          "indexed": false,
          "internalType": "string",
          "name": "message",
          "type": "string"
        }
      ],
      "name": "ReminderSent",
      "type": "event"
    },
    {
      "anonymous": false,
      "inputs": [
        {
          "indexed": false,
          "internalType": "string",
          "name": "msg",
          "type": "string"
        }
      ],
      "name": "StatusMessage",
      "type": "event"
    },
    {
      "inputs": [
        {
          "internalType": "address",
          "name": "",
          "type": "address"
        }
      ],
      "name": "admins",
      "outputs": [
        {
          "internalType": "bool",
          "name": "",
          "type": "bool"
        }
      ],
      "stateMutability": "view",
      "type": "function"
    },
    {
      "inputs": [
        {
          "internalType": "address",
          "name": "",
          "type": "address"
        }
      ],
      "name": "customerBalances",
      "outputs": [
        {
          "internalType": "uint256",
          "name": "",
          "type": "uint256"
        }
      ],
      "stateMutability": "view",
      "type": "function"
    },
    {
      "inputs": [
        {
          "internalType": "address",
          "name": "",
          "type": "address"
        },
        {
          "internalType": "uint256",
          "name": "",
          "type": "uint256"
        }
      ],
      "name": "insuranceSubscribed",
      "outputs": [
        {
          "internalType": "uint256",
          "name": "insuranceSubscriptionID",
          "type": "uint256"
        },
        {
          "internalType": "uint256",
          "name": "insuranceID",
          "type": "uint256"
        },
        {
          "internalType": "uint256",
          "name": "payAmount",
          "type": "uint256"
        },
        {
          "internalType": "uint256",
          "name": "payDate",
          "type": "uint256"
        },
        {
          "internalType": "bool",
          "name": "autoPay",
          "type": "bool"
        },
        {
          "internalType": "enum PaymentModule.InsuranceStatus",
          "name": "insStatus",
          "type": "uint8"
        }
      ],
      "stateMutability": "view",
      "type": "function"
    },
    {
      "inputs": [],
      "name": "latePaymentLimit",
      "outputs": [
        {
          "internalType": "uint256",
          "name": "",
          "type": "uint256"
        }
      ],
      "stateMutability": "view",
      "type": "function"
    },
    {
      "inputs": [],
      "name": "manager",
      "outputs": [
        {
          "internalType": "address",
          "name": "",
          "type": "address"
        }
      ],
      "stateMutability": "view",
      "type": "function"
    },
    {
      "inputs": [
        {
          "internalType": "address",
          "name": "adminAddress",
          "type": "address"
        }
      ],
      "name": "addAdmin",
      "outputs": [],
      "stateMutability": "nonpayable",
      "type": "function"
    },
    {
      "inputs": [],
      "name": "registerCustomer",
      "outputs": [],
      "stateMutability": "nonpayable",
      "type": "function"
    },
    {
      "inputs": [
        {
          "internalType": "address",
          "name": "customerAddr",
          "type": "address"
        },
        {
          "internalType": "uint256",
          "name": "_insuranceID",
          "type": "uint256"
        },
        {
          "internalType": "uint256",
          "name": "payAmount",
          "type": "uint256"
        },
        {
          "internalType": "uint256",
          "name": "payDate",
          "type": "uint256"
        }
      ],
      "name": "approveInsurance",
      "outputs": [],
      "stateMutability": "nonpayable",
      "type": "function"
    },
    {
      "inputs": [],
      "name": "dailyInsCheck",
      "outputs": [],
      "stateMutability": "nonpayable",
      "type": "function"
    },
    {
      "inputs": [
        {
          "internalType": "uint256",
          "name": "_insuranceSubscriptionID",
          "type": "uint256"
        }
      ],
      "name": "manualPay",
      "outputs": [],
      "stateMutability": "payable",
      "type": "function"
    },
    {
      "inputs": [],
      "name": "addBalance",
      "outputs": [],
      "stateMutability": "payable",
      "type": "function"
    },
    {
      "inputs": [
        {
          "internalType": "uint256",
          "name": "_insuranceSubscriptionID",
          "type": "uint256"
        }
      ],
      "name": "updateAutoPay",
      "outputs": [],
      "stateMutability": "nonpayable",
      "type": "function"
    },
    {
      "inputs": [],
      "name": "getCustomerBalance",
      "outputs": [
        {
          "internalType": "uint256",
          "name": "",
          "type": "uint256"
        }
      ],
      "stateMutability": "view",
      "type": "function"
    },
    {
      "inputs": [
        {
          "internalType": "address",
          "name": "customerAddress",
          "type": "address"
        },
        {
          "internalType": "uint256",
          "name": "_insuranceSubscriptionID",
          "type": "uint256"
        },
        {
          "internalType": "uint256",
          "name": "newPayDate",
          "type": "uint256"
        }
      ],
      "name": "updatePayDate",
      "outputs": [],
      "stateMutability": "nonpayable",
      "type": "function"
    },
    {
      "inputs": [
        {
          "internalType": "uint256",
          "name": "_insuranceSubscriptionID",
          "type": "uint256"
        }
      ],
      "name": "cancelInsurance",
      "outputs": [],
      "stateMutability": "nonpayable",
      "type": "function"
    }
  ],
  "bytecode": "0x60806040525f600155348015610013575f80fd5b503360065f6101000a81548173ffffffffffffffffffffffffffffffffffffffff021916908373ffffffffffffffffffffffffffffffffffffffff160217905550612710806100615f395ff3fe6080604052600436106100e7575f3560e01c8063791d66a111610089578063a853409a11610058578063a853409a146102b8578063b163cc38146102e2578063b77d552d146102ec578063dcd4e56614610314576100e7565b8063791d66a11461021657806380ba7b2e146102525780638b958c011461026857806390ee832714610290576100e7565b8063481c6a75116100c5578063481c6a75146101675780635cc185461461019157806370480275146101ad57806373805ff5146101d5576100e7565b806327357011146100eb578063429b62e514610101578063450a41951461013d575b5f80fd5b3480156100f6575f80fd5b506100ff61033c565b005b34801561010c575f80fd5b5061012760048036038101906101229190611ab3565b6103f7565b6040516101349190611af8565b60405180910390f35b348015610148575f80fd5b50610151610414565b60405161015e9190611b29565b60405180910390f35b348015610172575f80fd5b5061017b61041b565b6040516101889190611b51565b60405180910390f35b6101ab60048036038101906101a69190611b94565b610440565b005b3480156101b8575f80fd5b506101d360048036038101906101ce9190611ab3565b61062d565b005b3480156101e0575f80fd5b506101fb60048036038101906101f69190611bbf565b610763565b60405161020d96959493929190611c70565b60405180910390f35b348015610221575f80fd5b5061023c60048036038101906102379190611ab3565b6107bf565b6040516102499190611b29565b60405180910390f35b34801561025d575f80fd5b506102666107d4565b005b348015610273575f80fd5b5061028e60048036038101906102899190611b94565b610b98565b005b34801561029b575f80fd5b506102b660048036038101906102b19190611b94565b610daf565b005b3480156102c3575f80fd5b506102cc610fc4565b6040516102d99190611b29565b60405180910390f35b6102ea6110e7565b005b3480156102f7575f80fd5b50610312600480360381019061030d9190611ccf565b6112dd565b005b34801561031f575f80fd5b5061033a60048036038101906103359190611d1f565b61150c565b005b5f33908060018154018082558091505060019003905f5260205f20015f9091909190916101000a81548173ffffffffffffffffffffffffffffffffffffffff021916908373ffffffffffffffffffffffffffffffffffffffff16021790555060015f8154809291906103ad90611db0565b91905055503373ffffffffffffffffffffffffffffffffffffffff167fcd118a02bd36f224f6f1b93812f78d2bbc2c2dc1bc0f60c176e3b4fe09f1483f60405160405180910390a2565b6002602052805f5260405f205f915054906101000a900460ff1681565b620d2f0081565b60065f9054906101000a900473ffffffffffffffffffffffffffffffffffffffff1681565b5f61044b33836118a0565b905060011515811515036105ee575f60045f3373ffffffffffffffffffffffffffffffffffffffff1673ffffffffffffffffffffffffffffffffffffffff1681526020019081526020015f205f8481526020019081526020015f209050600160028111156104bc576104bb611bfd565b5b8160040160019054906101000a900460ff1660028111156104e0576104df611bfd565b5b14610520576040517f08c379a000000000000000000000000000000000000000000000000000000000815260040161051790611e51565b60405180910390fd5b806002015460055f3373ffffffffffffffffffffffffffffffffffffffff1673ffffffffffffffffffffffffffffffffffffffff1681526020019081526020015f205410156105a4576040517f08c379a000000000000000000000000000000000000000000000000000000000815260040161059b90611eb9565b60405180910390fd5b6105b33382836002015461198d565b7f59317f1c2df5b48bcbedd4fa30236d9e2863d8e0f295a5c55f874c00338b99536040516105e090611f47565b60405180910390a150610629565b6040517f08c379a000000000000000000000000000000000000000000000000000000000815260040161062090611faf565b60405180910390fd5b5050565b60065f9054906101000a900473ffffffffffffffffffffffffffffffffffffffff1673ffffffffffffffffffffffffffffffffffffffff163373ffffffffffffffffffffffffffffffffffffffff16146106bc576040517f08c379a00000000000000000000000000000000000000000000000000000000081526004016106b390612017565b60405180910390fd5b600160025f8373ffffffffffffffffffffffffffffffffffffffff1673ffffffffffffffffffffffffffffffffffffffff1681526020019081526020015f205f6101000a81548160ff0219169083151502179055508073ffffffffffffffffffffffffffffffffffffffff167f8a7039f4ea6f86a6a98d9c1efb0ea9d190f6b3fa37c32627cf48f767f51e36d560016040516107589190611af8565b60405180910390a250565b6004602052815f5260405f20602052805f5260405f205f9150915050805f015490806001015490806002015490806003015490806004015f9054906101000a900460ff16908060040160019054906101000a900460ff16905086565b6005602052805f5260405f205f915090505481565b5f5b5f80549050811015610b95575f8082815481106107f6576107f5612035565b5b905f5260205f20015f9054906101000a900473ffffffffffffffffffffffffffffffffffffffff1690505f60035f8373ffffffffffffffffffffffffffffffffffffffff1673ffffffffffffffffffffffffffffffffffffffff1681526020019081526020015f2090505f815f018054905090505f5b81811015610b7e575f60045f8673ffffffffffffffffffffffffffffffffffffffff1673ffffffffffffffffffffffffffffffffffffffff1681526020019081526020015f205f855f0184815481106108c8576108c7612035565b5b905f5260205f20015481526020019081526020015f209050600160028111156108f4576108f3611bfd565b5b8160040160019054906101000a900460ff16600281111561091857610917611bfd565b5b146109235750610b6b565b80600301544210610b69575f620151808260030154426109439190612062565b61094d91906120c2565b905062015180620d2f0061096191906120c2565b811015610ab357816004015f9054906101000a900460ff1615610a6157816002015460055f8873ffffffffffffffffffffffffffffffffffffffff1673ffffffffffffffffffffffffffffffffffffffff1681526020019081526020015f205410610a0f576109d58683846002015461198d565b7f59317f1c2df5b48bcbedd4fa30236d9e2863d8e0f295a5c55f874c00338b9953604051610a0290612162565b60405180910390a1610a5c565b8573ffffffffffffffffffffffffffffffffffffffff167f9b2ad96a106f22e7da7ab70854c90fa79af78ec7cb5240e520c1e7e4d94d6a68604051610a53906121f0565b60405180910390a25b610aae565b8573ffffffffffffffffffffffffffffffffffffffff167f9b2ad96a106f22e7da7ab70854c90fa79af78ec7cb5240e520c1e7e4d94d6a68604051610aa59061227e565b60405180910390a25b610b67565b60028260040160016101000a81548160ff02191690836002811115610adb57610ada611bfd565b5b02179055508573ffffffffffffffffffffffffffffffffffffffff167f5ee90b89f198c1100a6154d9a4bd805e7a470cfbd32dc4f84e42c6089adf9b68835f0154604051610b299190611b29565b60405180910390a27f59317f1c2df5b48bcbedd4fa30236d9e2863d8e0f295a5c55f874c00338b9953604051610b5e9061230c565b60405180910390a15b505b505b8080610b7690611db0565b91505061086c565b505050508080610b8d90611db0565b9150506107d6565b50565b5f805b5f80549050811015610c2c575f8181548110610bba57610bb9612035565b5b905f5260205f20015f9054906101000a900473ffffffffffffffffffffffffffffffffffffffff1673ffffffffffffffffffffffffffffffffffffffff163373ffffffffffffffffffffffffffffffffffffffff1603610c1957600191505b8080610c2490611db0565b915050610b9b565b505f151581151503610c73576040517f08c379a0000000000000000000000000000000000000000000000000000000008152600401610c6a90612374565b60405180910390fd5b5f610c7e33846118a0565b90506001151581151503610d6f575f60045f3373ffffffffffffffffffffffffffffffffffffffff1673ffffffffffffffffffffffffffffffffffffffff1681526020019081526020015f205f8581526020019081526020015f20905060028160040160016101000a81548160ff02191690836002811115610d0357610d02611bfd565b5b02179055503373ffffffffffffffffffffffffffffffffffffffff167f2b6a6c3460d70ff53160b5d29d6275c9c703fa573e82ba269a779d0767e04b2c858360040160019054906101000a900460ff16604051610d61929190612392565b60405180910390a250610daa565b6040517f08c379a0000000000000000000000000000000000000000000000000000000008152600401610da190611faf565b60405180910390fd5b505050565b5f805b5f80549050811015610e43575f8181548110610dd157610dd0612035565b5b905f5260205f20015f9054906101000a900473ffffffffffffffffffffffffffffffffffffffff1673ffffffffffffffffffffffffffffffffffffffff163373ffffffffffffffffffffffffffffffffffffffff1603610e3057600191505b8080610e3b90611db0565b915050610db2565b505f151581151503610e8a576040517f08c379a0000000000000000000000000000000000000000000000000000000008152600401610e8190612374565b60405180910390fd5b5f610e9533846118a0565b90506001151581151503610f84575f60045f3373ffffffffffffffffffffffffffffffffffffffff1673ffffffffffffffffffffffffffffffffffffffff1681526020019081526020015f205f8581526020019081526020015f209050806004015f9054906101000a900460ff1615816004015f6101000a81548160ff0219169083151502179055503373ffffffffffffffffffffffffffffffffffffffff167f4da9aec0f36dc52c3a2f5705c3939e2d711626ea1713afb3a5fdba31e9313c0f85836004015f9054906101000a900460ff16604051610f769291906123b9565b60405180910390a250610fbf565b6040517f08c379a0000000000000000000000000000000000000000000000000000000008152600401610fb690611faf565b60405180910390fd5b505050565b5f805f90505f5b5f8054905081101561105c575f8181548110610fea57610fe9612035565b5b905f5260205f20015f9054906101000a900473ffffffffffffffffffffffffffffffffffffffff1673ffffffffffffffffffffffffffffffffffffffff163373ffffffffffffffffffffffffffffffffffffffff160361104957600191505b808061105490611db0565b915050610fcb565b505f1515811515036110a3576040517f08c379a000000000000000000000000000000000000000000000000000000000815260040161109a90612374565b60405180910390fd5b60055f3373ffffffffffffffffffffffffffffffffffffffff1673ffffffffffffffffffffffffffffffffffffffff1681526020019081526020015f205491505090565b5f805b5f8054905081101561117b575f818154811061110957611108612035565b5b905f5260205f20015f9054906101000a900473ffffffffffffffffffffffffffffffffffffffff1673ffffffffffffffffffffffffffffffffffffffff163373ffffffffffffffffffffffffffffffffffffffff160361116857600191505b808061117390611db0565b9150506110ea565b505f1515811515036111c2576040517f08c379a00000000000000000000000000000000000000000000000000000000081526004016111b990612374565b60405180910390fd5b5f3411611204576040517f08c379a00000000000000000000000000000000000000000000000000000000081526004016111fb9061242a565b60405180910390fd5b3460055f3373ffffffffffffffffffffffffffffffffffffffff1673ffffffffffffffffffffffffffffffffffffffff1681526020019081526020015f205f8282546112509190612448565b925050819055503373ffffffffffffffffffffffffffffffffffffffff167fe96dd7a15a3974e8e7d5eb80de2cb6fd69907a1ee089170cd976cfffaedfa8ac3460405161129d9190611b29565b60405180910390a27f59317f1c2df5b48bcbedd4fa30236d9e2863d8e0f295a5c55f874c00338b99536040516112d2906124eb565b60405180910390a150565b60025f3373ffffffffffffffffffffffffffffffffffffffff1673ffffffffffffffffffffffffffffffffffffffff1681526020019081526020015f205f9054906101000a900460ff168061137e575060065f9054906101000a900473ffffffffffffffffffffffffffffffffffffffff1673ffffffffffffffffffffffffffffffffffffffff163373ffffffffffffffffffffffffffffffffffffffff16145b6113bd576040517f08c379a00000000000000000000000000000000000000000000000000000000081526004016113b490612579565b60405180910390fd5b42811015611400576040517f08c379a00000000000000000000000000000000000000000000000000000000081526004016113f790612607565b60405180910390fd5b5f61140b84846118a0565b905060011515811515036114cb575f60045f8673ffffffffffffffffffffffffffffffffffffffff1673ffffffffffffffffffffffffffffffffffffffff1681526020019081526020015f205f8581526020019081526020015f2090508281600301819055508473ffffffffffffffffffffffffffffffffffffffff167f36442393942618b4d1d34dbb61cc374882c1136e4aa18a43486977fddb3f22ca8583600301546040516114bd929190612625565b60405180910390a250611506565b6040517f08c379a00000000000000000000000000000000000000000000000000000000081526004016114fd90611faf565b60405180910390fd5b50505050565b60025f3373ffffffffffffffffffffffffffffffffffffffff1673ffffffffffffffffffffffffffffffffffffffff1681526020019081526020015f205f9054906101000a900460ff16806115ad575060065f9054906101000a900473ffffffffffffffffffffffffffffffffffffffff1673ffffffffffffffffffffffffffffffffffffffff163373ffffffffffffffffffffffffffffffffffffffff16145b6115ec576040517f08c379a00000000000000000000000000000000000000000000000000000000081526004016115e390612579565b60405180910390fd5b5f60035f8673ffffffffffffffffffffffffffffffffffffffff1673ffffffffffffffffffffffffffffffffffffffff1681526020019081526020015f2090505f5b815f01805490508110156116fd578460045f8873ffffffffffffffffffffffffffffffffffffffff1673ffffffffffffffffffffffffffffffffffffffff1681526020019081526020015f205f845f0184815481106116905761168f612035565b5b905f5260205f20015481526020019081526020015f2060010154036116ea576040517f08c379a00000000000000000000000000000000000000000000000000000000081526004016116e1906126bc565b60405180910390fd5b80806116f590611db0565b91505061162e565b505f6040518060c00160405280835f018054905081526020018681526020018581526020018481526020016001151581526020016001600281111561174557611744611bfd565b5b81525090508060045f8873ffffffffffffffffffffffffffffffffffffffff1673ffffffffffffffffffffffffffffffffffffffff1681526020019081526020015f205f845f018054905081526020019081526020015f205f820151815f01556020820151816001015560408201518160020155606082015181600301556080820151816004015f6101000a81548160ff02191690831515021790555060a08201518160040160016101000a81548160ff0219169083600281111561180d5761180c611bfd565b5b0217905550905050815f01825f0180549050908060018154018082558091505060019003905f5260205f20015f90919091909150558573ffffffffffffffffffffffffffffffffffffffff167fc8892b36e5e192c72f691d1513641216fc24252a21a37a5939b5b677270adfb4835f018054905087604051611890929190612625565b60405180910390a2505050505050565b5f8060035f8573ffffffffffffffffffffffffffffffffffffffff1673ffffffffffffffffffffffffffffffffffffffff1681526020019081526020015f2090505f5b815f0180549050811015611981578360045f8773ffffffffffffffffffffffffffffffffffffffff1673ffffffffffffffffffffffffffffffffffffffff1681526020019081526020015f205f845f01848154811061194557611944612035565b5b905f5260205f20015481526020019081526020015f205f01540361196e57600192505050611987565b808061197990611db0565b9150506118e3565b505f9150505b92915050565b8060055f8573ffffffffffffffffffffffffffffffffffffffff1673ffffffffffffffffffffffffffffffffffffffff1681526020019081526020015f205f8282546119d99190612062565b9250508190555062278d00826003015f8282546119f69190612448565b925050819055508273ffffffffffffffffffffffffffffffffffffffff167f7bd379b31566817ff79103ff210fc7d86fa755c249a8dc25f96618362789e191835f015483604051611a48929190612625565b60405180910390a2505050565b5f80fd5b5f73ffffffffffffffffffffffffffffffffffffffff82169050919050565b5f611a8282611a59565b9050919050565b611a9281611a78565b8114611a9c575f80fd5b50565b5f81359050611aad81611a89565b92915050565b5f60208284031215611ac857611ac7611a55565b5b5f611ad584828501611a9f565b91505092915050565b5f8115159050919050565b611af281611ade565b82525050565b5f602082019050611b0b5f830184611ae9565b92915050565b5f819050919050565b611b2381611b11565b82525050565b5f602082019050611b3c5f830184611b1a565b92915050565b611b4b81611a78565b82525050565b5f602082019050611b645f830184611b42565b92915050565b611b7381611b11565b8114611b7d575f80fd5b50565b5f81359050611b8e81611b6a565b92915050565b5f60208284031215611ba957611ba8611a55565b5b5f611bb684828501611b80565b91505092915050565b5f8060408385031215611bd557611bd4611a55565b5b5f611be285828601611a9f565b9250506020611bf385828601611b80565b9150509250929050565b7f4e487b71000000000000000000000000000000000000000000000000000000005f52602160045260245ffd5b60038110611c3b57611c3a611bfd565b5b50565b5f819050611c4b82611c2a565b919050565b5f611c5a82611c3e565b9050919050565b611c6a81611c50565b82525050565b5f60c082019050611c835f830189611b1a565b611c906020830188611b1a565b611c9d6040830187611b1a565b611caa6060830186611b1a565b611cb76080830185611ae9565b611cc460a0830184611c61565b979650505050505050565b5f805f60608486031215611ce657611ce5611a55565b5b5f611cf386828701611a9f565b9350506020611d0486828701611b80565b9250506040611d1586828701611b80565b9150509250925092565b5f805f8060808587031215611d3757611d36611a55565b5b5f611d4487828801611a9f565b9450506020611d5587828801611b80565b9350506040611d6687828801611b80565b9250506060611d7787828801611b80565b91505092959194509250565b7f4e487b71000000000000000000000000000000000000000000000000000000005f52601160045260245ffd5b5f611dba82611b11565b91507fffffffffffffffffffffffffffffffffffffffffffffffffffffffffffffffff8203611dec57611deb611d83565b5b600182019050919050565b5f82825260208201905092915050565b7f496e737572616e6365206973206e6f74206163746976652e00000000000000005f82015250565b5f611e3b601883611df7565b9150611e4682611e07565b602082019050919050565b5f6020820190508181035f830152611e6881611e2f565b9050919050565b7f496e73756666696369656e742062616c616e63652e00000000000000000000005f82015250565b5f611ea3601583611df7565b9150611eae82611e6f565b602082019050919050565b5f6020820190508181035f830152611ed081611e97565b9050919050565b7f4d616e75616c207061796d656e7420636f6d706c6574656420737563636573735f8201527f66756c6c79210000000000000000000000000000000000000000000000000000602082015250565b5f611f31602683611df7565b9150611f3c82611ed7565b604082019050919050565b5f6020820190508181035f830152611f5e81611f25565b9050919050565b7f496e737572616e6365206e6f742065786973742e0000000000000000000000005f82015250565b5f611f99601483611df7565b9150611fa482611f65565b602082019050919050565b5f6020820190508181035f830152611fc681611f8d565b9050919050565b7f43616c6c6572206973206e6f7420746865206d616e616765722e0000000000005f82015250565b5f612001601a83611df7565b915061200c82611fcd565b602082019050919050565b5f6020820190508181035f83015261202e81611ff5565b9050919050565b7f4e487b71000000000000000000000000000000000000000000000000000000005f52603260045260245ffd5b5f61206c82611b11565b915061207783611b11565b925082820390508181111561208f5761208e611d83565b5b92915050565b7f4e487b71000000000000000000000000000000000000000000000000000000005f52601260045260245ffd5b5f6120cc82611b11565b91506120d783611b11565b9250826120e7576120e6612095565b5b828204905092915050565b7f4175746f207061792070726f6365737320636f6d706c657465642073756363655f8201527f737366756c6c7921000000000000000000000000000000000000000000000000602082015250565b5f61214c602883611df7565b9150612157826120f2565b604082019050919050565b5f6020820190508181035f83015261217981612140565b9050919050565b7f496e73756666696369656e742062616c616e636520666f72206175746f2070615f8201527f7900000000000000000000000000000000000000000000000000000000000000602082015250565b5f6121da602183611df7565b91506121e582612180565b604082019050919050565b5f6020820190508181035f830152612207816121ce565b9050919050565b7f437573746f6d6572206e6565647320746f20706179206d616e75616c6c7920775f8201527f697468696e20313020646179732e000000000000000000000000000000000000602082015250565b5f612268602e83611df7565b91506122738261220e565b604082019050919050565b5f6020820190508181035f8301526122958161225c565b9050919050565b7f496e737572616e636520686164206265656e2043616e63656c6c6564206475655f8201527f20746f206f766572647565207061796d656e742e000000000000000000000000602082015250565b5f6122f6603483611df7565b91506123018261229c565b604082019050919050565b5f6020820190508181035f830152612323816122ea565b9050919050565b7f43616c6c6572206973206e6f74206120637573746f6d65722e000000000000005f82015250565b5f61235e601983611df7565b91506123698261232a565b602082019050919050565b5f6020820190508181035f83015261238b81612352565b9050919050565b5f6040820190506123a55f830185611b1a565b6123b26020830184611c61565b9392505050565b5f6040820190506123cc5f830185611b1a565b6123d96020830184611ae9565b9392505050565b7f416d6f756e74206d7573742062652067726561746572207468616e20300000005f82015250565b5f612414601d83611df7565b915061241f826123e0565b602082019050919050565b5f6020820190508181035f83015261244181612408565b9050919050565b5f61245282611b11565b915061245d83611b11565b925082820190508082111561247557612474611d83565b5b92915050565b7f416d6f756e7420686164206265656e20746f70706564207570207375636365735f8201527f7366756c6c790000000000000000000000000000000000000000000000000000602082015250565b5f6124d5602683611df7565b91506124e08261247b565b604082019050919050565b5f6020820190508181035f830152612502816124c9565b9050919050565b7f43616c6c6572206973206e6f7420616e2061646d696e206f72206d616e6167655f8201527f722e000000000000000000000000000000000000000000000000000000000000602082015250565b5f612563602283611df7565b915061256e82612509565b604082019050919050565b5f6020820190508181035f83015261259081612557565b9050919050565b7f50617920646174652073686f756c64206e6f742062652070726576696f7573205f8201527f74696d652e000000000000000000000000000000000000000000000000000000602082015250565b5f6125f1602583611df7565b91506125fc82612597565b604082019050919050565b5f6020820190508181035f83015261261e816125e5565b9050919050565b5f6040820190506126385f830185611b1a565b6126456020830184611b1a565b9392505050565b7f5468697320696e737572616e63652068617320616c7265616479206265656e205f8201527f626f756768742e00000000000000000000000000000000000000000000000000602082015250565b5f6126a6602783611df7565b91506126b18261264c565b604082019050919050565b5f6020820190508181035f8301526126d38161269a565b905091905056fea26469706673582212200cebb458a81c746b7c38e04b0671553b86013fb78d226e1e9cb0929713034b0f64736f6c63430008150033",
  "immutableReferences": {},
  "source": "// SPDX-License-Identifier: MIT\r\npragma solidity ^0.8.0;\r\n\r\ncontract PaymentModule {\r\n    enum InsuranceStatus {\r\n        Pending,\r\n        Approved,\r\n        Cancelled\r\n    }\r\n\r\n    struct InsuranceSubscription {\r\n        uint256 insuranceSubscriptionID;\r\n        uint256 insuranceID;\r\n        uint256 payAmount;\r\n        uint256 payDate;\r\n        bool autoPay;\r\n        InsuranceStatus insStatus;\r\n    }\r\n\r\n    struct Customer {\r\n        uint256[] subscribedPackages;\r\n    }\r\n\r\n    address[] private addedCustomer;\r\n    uint256 private custCount = 0;\r\n\r\n    uint256 public constant latePaymentLimit = 10 days;\r\n\r\n    mapping(address => bool) public admins;\r\n    mapping(address => Customer) private customers;\r\n    mapping(address => mapping(uint256 => InsuranceSubscription))\r\n        public insuranceSubscribed;\r\n    mapping(address => uint256) public customerBalances;\r\n\r\n    event AdminAdded(address indexed admin, bool status);\r\n    event CustomerAdded(address indexed customer);\r\n    event InsuranceApproved(\r\n        address indexed customer,\r\n        uint256 insurancePurchaseID,\r\n        uint256 insuranceID\r\n    );\r\n    event InsuranceInactive(\r\n        address indexed customer,\r\n        uint256 insurancePurchaseID\r\n    );\r\n    event ReminderSent(address indexed customer, string message);\r\n    event StatusMessage(string msg);\r\n    event PaymentProcessed(\r\n        address indexed customer,\r\n        uint256 insurancePurchaseID,\r\n        uint256 amount\r\n    );\r\n    event BalanceAdded(address indexed customer, uint256 amount);\r\n    event AutoPayStatusChanged(\r\n        address indexed customer,\r\n        uint256 insurancePurchaseID,\r\n        bool newStatus\r\n    );\r\n    event PayDateUpdated(\r\n        address indexed customer,\r\n        uint256 insurancePurchaseID,\r\n        uint256 newPayDate\r\n    );\r\n    event CancelInsurance(\r\n        address indexed customer,\r\n        uint256 insurancePurchaseID,\r\n        InsuranceStatus insStatus\r\n    );\r\n\r\n    // Set the person who deploys as manager\r\n    address public manager;\r\n\r\n    constructor() {\r\n        manager = msg.sender;\r\n    }\r\n\r\n    // Modifier\r\n    modifier onlyManager() {\r\n        require(msg.sender == manager, \"Caller is not the manager.\");\r\n        _;\r\n    }\r\n\r\n    modifier onlyAdminOrManager() {\r\n        require(\r\n            admins[msg.sender] || msg.sender == manager,\r\n            \"Caller is not an admin or manager.\"\r\n        );\r\n        _;\r\n    }\r\n\r\n    modifier onlyCustomer() {\r\n        bool validCustomer = false;\r\n        for (uint256 i; i < addedCustomer.length; i++) {\r\n            if (msg.sender == addedCustomer[i]) {\r\n                validCustomer = true;\r\n            }\r\n        }\r\n\r\n        if(validCustomer == false){\r\n            revert(\"Caller is not a customer.\");\r\n        }\r\n        _;\r\n    }\r\n\r\n    // Add Admin\r\n    function addAdmin(address adminAddress) external onlyManager {\r\n        admins[adminAddress] = true;\r\n        emit AdminAdded(adminAddress, true);\r\n    }\r\n\r\n    // Add customer\r\n    function registerCustomer() external {\r\n        addedCustomer.push(msg.sender);\r\n        custCount++;\r\n        emit CustomerAdded(msg.sender);\r\n    }\r\n\r\n    // Approve customer's subscription on insurance\r\n    function approveInsurance(\r\n        address customerAddr,\r\n        uint256 _insuranceID,\r\n        uint256 payAmount,\r\n        uint256 payDate\r\n    ) external onlyAdminOrManager {\r\n        // Get current customer\r\n        Customer storage currCustomer = customers[customerAddr];\r\n\r\n        // Check if customer has already subscribed to this insurance\r\n        for (uint i = 0; i < currCustomer.subscribedPackages.length; i++) {\r\n            require(\r\n                insuranceSubscribed[customerAddr][\r\n                    currCustomer.subscribedPackages[i]\r\n                ].insuranceID != _insuranceID,\r\n                \"This insurance has already been bought.\"\r\n            );\r\n        }\r\n\r\n        // Create a new insurance subscription\r\n        InsuranceSubscription\r\n            memory newInsuranceSubscription = InsuranceSubscription({\r\n                insuranceSubscriptionID: currCustomer.subscribedPackages.length,\r\n                insuranceID: _insuranceID,\r\n                payAmount: payAmount,\r\n                payDate: payDate,\r\n                autoPay: true,\r\n                insStatus: InsuranceStatus.Approved\r\n            });\r\n\r\n        // Add new insurance subscription\r\n        insuranceSubscribed[customerAddr][\r\n            currCustomer.subscribedPackages.length\r\n        ] = newInsuranceSubscription;\r\n\r\n        // Push the new package ID inside\r\n        currCustomer.subscribedPackages.push(\r\n            currCustomer.subscribedPackages.length\r\n        );\r\n\r\n        emit InsuranceApproved(\r\n            customerAddr,\r\n            currCustomer.subscribedPackages.length,\r\n            _insuranceID\r\n        );\r\n    }\r\n\r\n    function dailyInsCheck() external {\r\n        for (uint256 i = 0; i < addedCustomer.length; i++) {\r\n            address currCustomerAddress = addedCustomer[i];\r\n            Customer storage currCustomer = customers[currCustomerAddress];\r\n\r\n            uint256 customerPackageCount = currCustomer\r\n                .subscribedPackages\r\n                .length;\r\n            for (uint256 j = 0; j < customerPackageCount; j++) {\r\n                InsuranceSubscription\r\n                    storage currInsurance = insuranceSubscribed[\r\n                        currCustomerAddress\r\n                    ][currCustomer.subscribedPackages[j]];\r\n\r\n                if (currInsurance.insStatus != InsuranceStatus.Approved)\r\n                    continue;\r\n\r\n                // Check if need pay\r\n                if (block.timestamp >= currInsurance.payDate) {\r\n                    // Calculate is there any delay\r\n                    uint256 lateDays = (block.timestamp -\r\n                        currInsurance.payDate) / 1 days;\r\n\r\n                    // Check if within late payment limit\r\n                    if (lateDays < latePaymentLimit / 1 days) {\r\n                        // Check if auto pay is enabled\r\n                        if (currInsurance.autoPay) {\r\n                            if (\r\n                                customerBalances[currCustomerAddress] >=\r\n                                currInsurance.payAmount\r\n                            ) {\r\n                                makePayment(\r\n                                    currCustomerAddress,\r\n                                    currInsurance,\r\n                                    currInsurance.payAmount\r\n                                );\r\n                                emit StatusMessage(\r\n                                    \"Auto pay process completed successfully!\"\r\n                                );\r\n                            } else {\r\n                                emit ReminderSent(\r\n                                    currCustomerAddress,\r\n                                    \"Insufficient balance for auto pay\"\r\n                                );\r\n                            }\r\n                        } else {\r\n                            emit ReminderSent(\r\n                                currCustomerAddress,\r\n                                \"Customer needs to pay manually within 10 days.\"\r\n                            );\r\n                        }\r\n                    } else {\r\n                        currInsurance.insStatus = InsuranceStatus.Cancelled;\r\n                        emit InsuranceInactive(\r\n                            currCustomerAddress,\r\n                            currInsurance.insuranceSubscriptionID\r\n                        );\r\n                        emit StatusMessage(\r\n                            \"Insurance had been Cancelled due to overdue payment.\"\r\n                        );\r\n                    }\r\n                }\r\n            }\r\n        }\r\n    }\r\n\r\n    function manualPay(uint256 _insuranceSubscriptionID) external payable {\r\n        bool validity = chkSubscriptionValidityInCustomer(\r\n            msg.sender,\r\n            _insuranceSubscriptionID\r\n        );\r\n\r\n        if (validity == true) {\r\n            InsuranceSubscription storage currInsurance = insuranceSubscribed[\r\n                msg.sender\r\n            ][_insuranceSubscriptionID];\r\n\r\n            require(\r\n                currInsurance.insStatus == InsuranceStatus.Approved,\r\n                \"Insurance is not active.\"\r\n            );\r\n            require(\r\n                customerBalances[msg.sender] >= currInsurance.payAmount,\r\n                \"Insufficient balance.\"\r\n            );\r\n\r\n            makePayment(msg.sender, currInsurance, currInsurance.payAmount);\r\n            emit StatusMessage(\"Manual payment completed successfully!\");\r\n        }else{\r\n            revert(\"Insurance not exist.\");\r\n        }\r\n    }\r\n\r\n    function makePayment(\r\n        address custAddress,\r\n        InsuranceSubscription storage insurance,\r\n        uint256 payAmount\r\n    ) internal {\r\n        customerBalances[custAddress] -= payAmount;\r\n        insurance.payDate += 30 days;\r\n        emit PaymentProcessed(\r\n            custAddress,\r\n            insurance.insuranceSubscriptionID,\r\n            payAmount\r\n        );\r\n    }\r\n\r\n    function addBalance() external payable onlyCustomer {\r\n        require(msg.value > 0, \"Amount must be greater than 0\");\r\n\r\n        customerBalances[msg.sender] += msg.value;\r\n\r\n        emit BalanceAdded(msg.sender, msg.value);\r\n        emit StatusMessage(\"Amount had been topped up successfully\");\r\n    }\r\n\r\n    function updateAutoPay(\r\n        uint256 _insuranceSubscriptionID\r\n    ) external onlyCustomer {\r\n        bool validity = chkSubscriptionValidityInCustomer(\r\n            msg.sender,\r\n            _insuranceSubscriptionID\r\n        );\r\n\r\n        if (validity == true) {\r\n            InsuranceSubscription storage currInsurance = insuranceSubscribed[\r\n                msg.sender\r\n            ][_insuranceSubscriptionID];\r\n            currInsurance.autoPay = !currInsurance.autoPay;\r\n            emit AutoPayStatusChanged(\r\n                msg.sender,\r\n                _insuranceSubscriptionID,\r\n                currInsurance.autoPay\r\n            );\r\n        }else{\r\n            revert(\"Insurance not exist.\");\r\n        }\r\n    }\r\n\r\n    function getCustomerBalance() external view onlyCustomer returns (uint256) {\r\n        return customerBalances[msg.sender];\r\n    }\r\n\r\n    function updatePayDate(\r\n        address customerAddress,\r\n        uint256 _insuranceSubscriptionID,\r\n        uint256 newPayDate\r\n    ) external onlyAdminOrManager {\r\n        require(\r\n            newPayDate >= block.timestamp,\r\n            \"Pay date should not be previous time.\"\r\n        );\r\n\r\n        bool validity = chkSubscriptionValidityInCustomer(\r\n            customerAddress,\r\n            _insuranceSubscriptionID\r\n        );\r\n\r\n        if (validity == true) {\r\n            InsuranceSubscription storage currInsurance = insuranceSubscribed[\r\n                customerAddress\r\n            ][_insuranceSubscriptionID];\r\n            currInsurance.payDate = newPayDate;\r\n            emit PayDateUpdated(\r\n                customerAddress,\r\n                _insuranceSubscriptionID,\r\n                currInsurance.payDate\r\n            );\r\n        }else{\r\n            revert(\"Insurance not exist.\");\r\n        }\r\n    }\r\n\r\n    // Cancel Payment\r\n    function cancelInsurance(\r\n        uint256 _insuranceSubscriptionID\r\n    ) external onlyCustomer {\r\n        bool validity = chkSubscriptionValidityInCustomer(\r\n            msg.sender,\r\n            _insuranceSubscriptionID\r\n        );\r\n\r\n        if (validity == true) {\r\n            InsuranceSubscription storage currInsurance = insuranceSubscribed[\r\n                msg.sender\r\n            ][_insuranceSubscriptionID];\r\n            currInsurance.insStatus = InsuranceStatus.Cancelled;\r\n            emit CancelInsurance(\r\n                msg.sender,\r\n                _insuranceSubscriptionID,\r\n                currInsurance.insStatus\r\n            );\r\n        }else{\r\n            revert(\"Insurance not exist.\");\r\n        }\r\n    }\r\n\r\n    function chkSubscriptionValidityInCustomer(\r\n        address custAddress,\r\n        uint256 _insuranceSubscriptionID\r\n    ) private view returns (bool validity) {\r\n        Customer storage currCustomer = customers[custAddress];\r\n        for (uint256 i = 0; i < currCustomer.subscribedPackages.length; i++) {\r\n            if (insuranceSubscribed[custAddress][currCustomer.subscribedPackages[i]].insuranceSubscriptionID == _insuranceSubscriptionID) {\r\n                return true;\r\n            }\r\n        }\r\n        return false;\r\n    }\r\n}",
  "sourcePath": "C:\\Users\\leeda\\OneDrive\\Desktop\\Great_Global\\Danny_Test\\SponsorAnimals\\contracts\\PaymentModule.sol",
  "compiler": {
    "name": "solc",
    "version": "0.8.21+commit.d9974bed.Emscripten.clang"
  },
  "schemaVersion": "3.4.16",
  "updatedAt": "2024-09-25T08:09:59.983Z",
  "devdoc": {
    "kind": "dev",
    "methods": {},
    "version": 1
  },
  "userdoc": {
    "kind": "user",
    "methods": {},
    "version": 1
  }
}