{
  "contractName": "PayModule",
  "abi": [
    {
      "inputs": [],
      "stateMutability": "nonpayable",
      "type": "constructor"
    },
    {
      "anonymous": false,
      "inputs": [
        {
          "indexed": true,
          "internalType": "address",
          "name": "admin",
          "type": "address"
        },
        {
          "indexed": false,
          "internalType": "bool",
          "name": "status",
          "type": "bool"
        }
      ],
      "name": "AdminUpdated",
      "type": "event"
    },
    {
      "anonymous": false,
      "inputs": [
        {
          "indexed": false,
          "internalType": "uint256",
          "name": "insurancePurchaseID",
          "type": "uint256"
        },
        {
          "indexed": true,
          "internalType": "address",
          "name": "customer",
          "type": "address"
        },
        {
          "indexed": false,
          "internalType": "bool",
          "name": "newStatus",
          "type": "bool"
        }
      ],
      "name": "AutoPayStatusChanged",
      "type": "event"
    },
    {
      "anonymous": false,
      "inputs": [
        {
          "indexed": true,
          "internalType": "address",
          "name": "customer",
          "type": "address"
        },
        {
          "indexed": false,
          "internalType": "uint256",
          "name": "amount",
          "type": "uint256"
        }
      ],
      "name": "BalanceAdded",
      "type": "event"
    },
    {
      "anonymous": false,
      "inputs": [
        {
          "indexed": false,
          "internalType": "uint256",
          "name": "customerID",
          "type": "uint256"
        },
        {
          "indexed": true,
          "internalType": "address",
          "name": "customer",
          "type": "address"
        },
        {
          "indexed": false,
          "internalType": "uint256",
          "name": "balance",
          "type": "uint256"
        }
      ],
      "name": "CustomerUpdated",
      "type": "event"
    },
    {
      "anonymous": false,
      "inputs": [
        {
          "indexed": false,
          "internalType": "uint256",
          "name": "insurancePurchaseID",
          "type": "uint256"
        },
        {
          "indexed": true,
          "internalType": "address",
          "name": "customer",
          "type": "address"
        },
        {
          "indexed": false,
          "internalType": "uint256",
          "name": "insuranceID",
          "type": "uint256"
        }
      ],
      "name": "InsuranceApproved",
      "type": "event"
    },
    {
      "anonymous": false,
      "inputs": [
        {
          "indexed": false,
          "internalType": "uint256",
          "name": "insurancePurchaseID",
          "type": "uint256"
        },
        {
          "indexed": true,
          "internalType": "address",
          "name": "customer",
          "type": "address"
        }
      ],
      "name": "InsuranceInactive",
      "type": "event"
    },
    {
      "anonymous": false,
      "inputs": [
        {
          "indexed": false,
          "internalType": "uint256",
          "name": "insurancePurchaseID",
          "type": "uint256"
        },
        {
          "indexed": true,
          "internalType": "address",
          "name": "customer",
          "type": "address"
        },
        {
          "indexed": false,
          "internalType": "uint256",
          "name": "newPayDate",
          "type": "uint256"
        }
      ],
      "name": "PayDateUpdated",
      "type": "event"
    },
    {
      "anonymous": false,
      "inputs": [
        {
          "indexed": false,
          "internalType": "uint256",
          "name": "insurancePurchaseID",
          "type": "uint256"
        },
        {
          "indexed": true,
          "internalType": "address",
          "name": "customer",
          "type": "address"
        },
        {
          "indexed": false,
          "internalType": "uint256",
          "name": "amount",
          "type": "uint256"
        }
      ],
      "name": "PaymentProcessed",
      "type": "event"
    },
    {
      "anonymous": false,
      "inputs": [
        {
          "indexed": true,
          "internalType": "address",
          "name": "customer",
          "type": "address"
        },
        {
          "indexed": false,
          "internalType": "string",
          "name": "message",
          "type": "string"
        }
      ],
      "name": "ReminderSent",
      "type": "event"
    },
    {
      "anonymous": false,
      "inputs": [
        {
          "indexed": false,
          "internalType": "string",
          "name": "msg",
          "type": "string"
        }
      ],
      "name": "StatusMessage",
      "type": "event"
    },
    {
      "inputs": [
        {
          "internalType": "address",
          "name": "",
          "type": "address"
        }
      ],
      "name": "admins",
      "outputs": [
        {
          "internalType": "bool",
          "name": "",
          "type": "bool"
        }
      ],
      "stateMutability": "view",
      "type": "function"
    },
    {
      "inputs": [
        {
          "internalType": "address",
          "name": "",
          "type": "address"
        }
      ],
      "name": "customerBalances",
      "outputs": [
        {
          "internalType": "uint256",
          "name": "",
          "type": "uint256"
        }
      ],
      "stateMutability": "view",
      "type": "function"
    },
    {
      "inputs": [
        {
          "internalType": "uint256",
          "name": "",
          "type": "uint256"
        }
      ],
      "name": "customers",
      "outputs": [
        {
          "internalType": "uint256",
          "name": "customerID",
          "type": "uint256"
        },
        {
          "internalType": "address",
          "name": "customerAddress",
          "type": "address"
        }
      ],
      "stateMutability": "view",
      "type": "function"
    },
    {
      "inputs": [
        {
          "internalType": "uint256",
          "name": "",
          "type": "uint256"
        }
      ],
      "name": "insurances",
      "outputs": [
        {
          "internalType": "uint256",
          "name": "insurancePurchaseID",
          "type": "uint256"
        },
        {
          "internalType": "uint256",
          "name": "customerID",
          "type": "uint256"
        },
        {
          "internalType": "uint256",
          "name": "insuranceID",
          "type": "uint256"
        },
        {
          "internalType": "uint256",
          "name": "payAmount",
          "type": "uint256"
        },
        {
          "internalType": "uint256",
          "name": "payDate",
          "type": "uint256"
        },
        {
          "internalType": "uint256",
          "name": "expiryDate",
          "type": "uint256"
        },
        {
          "internalType": "bool",
          "name": "autoPay",
          "type": "bool"
        },
        {
          "internalType": "bool",
          "name": "isActive",
          "type": "bool"
        }
      ],
      "stateMutability": "view",
      "type": "function"
    },
    {
      "inputs": [],
      "name": "latePaymentLimit",
      "outputs": [
        {
          "internalType": "uint256",
          "name": "",
          "type": "uint256"
        }
      ],
      "stateMutability": "view",
      "type": "function"
    },
    {
      "inputs": [],
      "name": "manager",
      "outputs": [
        {
          "internalType": "address",
          "name": "",
          "type": "address"
        }
      ],
      "stateMutability": "view",
      "type": "function"
    },
    {
      "inputs": [
        {
          "internalType": "address",
          "name": "adminAddress",
          "type": "address"
        }
      ],
      "name": "addAdmin",
      "outputs": [],
      "stateMutability": "nonpayable",
      "type": "function"
    },
    {
      "inputs": [
        {
          "internalType": "uint256",
          "name": "customerID",
          "type": "uint256"
        },
        {
          "internalType": "address",
          "name": "customerAddress",
          "type": "address"
        }
      ],
      "name": "addCustomer",
      "outputs": [],
      "stateMutability": "nonpayable",
      "type": "function"
    },
    {
      "inputs": [
        {
          "internalType": "uint256",
          "name": "insurancePurchaseID",
          "type": "uint256"
        },
        {
          "internalType": "uint256",
          "name": "customerID",
          "type": "uint256"
        },
        {
          "internalType": "uint256",
          "name": "insuranceID",
          "type": "uint256"
        },
        {
          "internalType": "uint256",
          "name": "payAmount",
          "type": "uint256"
        },
        {
          "internalType": "uint256",
          "name": "payDate",
          "type": "uint256"
        },
        {
          "internalType": "uint256",
          "name": "expiryDate",
          "type": "uint256"
        }
      ],
      "name": "approveInsurance",
      "outputs": [],
      "stateMutability": "nonpayable",
      "type": "function"
    },
    {
      "inputs": [
        {
          "internalType": "uint256",
          "name": "insurancePurchaseID",
          "type": "uint256"
        }
      ],
      "name": "checkInsuranceStatus",
      "outputs": [],
      "stateMutability": "nonpayable",
      "type": "function"
    },
    {
      "inputs": [
        {
          "internalType": "uint256",
          "name": "insurancePurchaseID",
          "type": "uint256"
        }
      ],
      "name": "manualPay",
      "outputs": [],
      "stateMutability": "payable",
      "type": "function"
    },
    {
      "inputs": [
        {
          "internalType": "uint256",
          "name": "insurancePurchaseID",
          "type": "uint256"
        },
        {
          "internalType": "uint256",
          "name": "newPayDate",
          "type": "uint256"
        }
      ],
      "name": "updatePayDate",
      "outputs": [],
      "stateMutability": "nonpayable",
      "type": "function"
    },
    {
      "inputs": [],
      "name": "addBalance",
      "outputs": [],
      "stateMutability": "payable",
      "type": "function"
    },
    {
      "inputs": [
        {
          "internalType": "uint256",
          "name": "insurancePurchaseID",
          "type": "uint256"
        }
      ],
      "name": "updateAutoPay",
      "outputs": [],
      "stateMutability": "nonpayable",
      "type": "function"
    },
    {
      "inputs": [],
      "name": "getCustomerBalance",
      "outputs": [
        {
          "internalType": "uint256",
          "name": "",
          "type": "uint256"
        }
      ],
      "stateMutability": "view",
      "type": "function"
    }
  ],
  "bytecode": "0x608060405234801561001057600080fd5b5033600460006101000a81548173ffffffffffffffffffffffffffffffffffffffff021916908373ffffffffffffffffffffffffffffffffffffffff16021790555061245a806100616000396000f3fe6080604052600436106100e85760003560e01c8063791d66a11161008a578063b192ad0f11610059578063b192ad0f146102cd578063bf9038ec146102f6578063c0abda2a1461031f578063d81b92e81461035d576100e8565b8063791d66a11461023257806390ee83271461026f578063a853409a14610298578063b163cc38146102c3576100e8565b806359fb49f9116100c657806359fb49f9146101805780635cc18546146101c457806370480275146101e0578063742e05b514610209576100e8565b8063429b62e5146100ed578063450a41951461012a578063481c6a7514610155575b600080fd5b3480156100f957600080fd5b50610114600480360381019061010f91906116d4565b610386565b6040516101219190611eba565b60405180910390f35b34801561013657600080fd5b5061013f6103a6565b60405161014c9190612135565b60405180910390f35b34801561016157600080fd5b5061016a6103ad565b6040516101779190611e9f565b60405180910390f35b34801561018c57600080fd5b506101a760048036038101906101a291906116fd565b6103d3565b6040516101bb9897969594939291906121f4565b60405180910390f35b6101de60048036038101906101d991906116fd565b610435565b005b3480156101ec57600080fd5b50610207600480360381019061020291906116d4565b610569565b005b34801561021557600080fd5b50610230600480360381019061022b9190611762565b6106a2565b005b34801561023e57600080fd5b50610259600480360381019061025491906116d4565b610894565b6040516102669190612135565b60405180910390f35b34801561027b57600080fd5b50610296600480360381019061029191906116fd565b6108ac565b005b3480156102a457600080fd5b506102ad6109c5565b6040516102ba9190612135565b60405180910390f35b6102cb610a7c565b005b3480156102d957600080fd5b506102f460048036038101906102ef91906116fd565b610c0a565b005b34801561030257600080fd5b5061031d60048036038101906103189190611726565b6110a7565b005b34801561032b57600080fd5b50610346600480360381019061034191906116fd565b611272565b604051610354929190612150565b60405180910390f35b34801561036957600080fd5b50610384600480360381019061037f919061179e565b6112b6565b005b60016020528060005260406000206000915054906101000a900460ff1681565b620d2f0081565b600460009054906101000a900473ffffffffffffffffffffffffffffffffffffffff1681565b60006020528060005260406000206000915090508060000154908060010154908060020154908060030154908060040154908060050154908060060160009054906101000a900460ff16908060060160019054906101000a900460ff16905088565b600080600083815260200190815260200160002090508060060160019054906101000a900460ff1661049c576040517f08c379a000000000000000000000000000000000000000000000000000000000815260040161049390612075565b60405180910390fd5b8060030154600360003373ffffffffffffffffffffffffffffffffffffffff1673ffffffffffffffffffffffffffffffffffffffff168152602001908152602001600020541015610522576040517f08c379a000000000000000000000000000000000000000000000000000000000815260040161051990612095565b60405180910390fd5b61053081826003015461155c565b7f59317f1c2df5b48bcbedd4fa30236d9e2863d8e0f295a5c55f874c00338b995360405161055d90612055565b60405180910390a15050565b600460009054906101000a900473ffffffffffffffffffffffffffffffffffffffff1673ffffffffffffffffffffffffffffffffffffffff163373ffffffffffffffffffffffffffffffffffffffff16146105f9576040517f08c379a00000000000000000000000000000000000000000000000000000000081526004016105f0906120f5565b60405180910390fd5b60018060008373ffffffffffffffffffffffffffffffffffffffff1673ffffffffffffffffffffffffffffffffffffffff16815260200190815260200160002060006101000a81548160ff0219169083151502179055508073ffffffffffffffffffffffffffffffffffffffff167f235bc17e7930760029e9f4d860a2a8089976de5b381cf8380fc11c1d88a1113360016040516106979190611eba565b60405180910390a250565b600160003373ffffffffffffffffffffffffffffffffffffffff1673ffffffffffffffffffffffffffffffffffffffff16815260200190815260200160002060009054906101000a900460ff16806107475750600460009054906101000a900473ffffffffffffffffffffffffffffffffffffffff1673ffffffffffffffffffffffffffffffffffffffff163373ffffffffffffffffffffffffffffffffffffffff16145b610786576040517f08c379a000000000000000000000000000000000000000000000000000000000815260040161077d90611fd5565b60405180910390fd5b60008060008481526020019081526020016000209050600062278d0082600501546107b1919061230a565b90508083106107f5576040517f08c379a00000000000000000000000000000000000000000000000000000000081526004016107ec90612035565b60405180910390fd5b8282600401819055506000600260008460010154815260200190815260200160002090508060010160009054906101000a900473ffffffffffffffffffffffffffffffffffffffff1673ffffffffffffffffffffffffffffffffffffffff167ff4924604468c56a86997034bc7d304a22bb59736bc8d6674305dd4caf2d7107b86866040516108859291906121cb565b60405180910390a25050505050565b60036020528060005260406000206000915090505481565b338073ffffffffffffffffffffffffffffffffffffffff163373ffffffffffffffffffffffffffffffffffffffff161461091b576040517f08c379a000000000000000000000000000000000000000000000000000000000815260040161091290611ef5565b60405180910390fd5b600080600084815260200190815260200160002090508060060160009054906101000a900460ff16158160060160006101000a81548160ff0219169083151502179055503373ffffffffffffffffffffffffffffffffffffffff167f66a99af108267c5935ab3060b5923112bb9ae254541c1af33eeb7b1a7ff83871848360060160009054906101000a900460ff166040516109b8929190612179565b60405180910390a2505050565b6000338073ffffffffffffffffffffffffffffffffffffffff163373ffffffffffffffffffffffffffffffffffffffff1614610a36576040517f08c379a0000000000000000000000000000000000000000000000000000000008152600401610a2d90611ef5565b60405180910390fd5b600360003373ffffffffffffffffffffffffffffffffffffffff1673ffffffffffffffffffffffffffffffffffffffff1681526020019081526020016000205491505090565b338073ffffffffffffffffffffffffffffffffffffffff163373ffffffffffffffffffffffffffffffffffffffff1614610aeb576040517f08c379a0000000000000000000000000000000000000000000000000000000008152600401610ae290611ef5565b60405180910390fd5b60003411610b2e576040517f08c379a0000000000000000000000000000000000000000000000000000000008152600401610b2590611f75565b60405180910390fd5b34600360003373ffffffffffffffffffffffffffffffffffffffff1673ffffffffffffffffffffffffffffffffffffffff1681526020019081526020016000206000828254610b7d9190612283565b925050819055503373ffffffffffffffffffffffffffffffffffffffff167fe96dd7a15a3974e8e7d5eb80de2cb6fd69907a1ee089170cd976cfffaedfa8ac34604051610bca9190612135565b60405180910390a27f59317f1c2df5b48bcbedd4fa30236d9e2863d8e0f295a5c55f874c00338b9953604051610bff90611ed5565b60405180910390a150565b600080600083815260200190815260200160002090508060060160019054906101000a900460ff16610c71576040517f08c379a0000000000000000000000000000000000000000000000000000000008152600401610c6890612075565b60405180910390fd5b60006002600083600101548152602001908152602001600020905081600501544210610d615760008260060160016101000a81548160ff0219169083151502179055508060010160009054906101000a900473ffffffffffffffffffffffffffffffffffffffff1673ffffffffffffffffffffffffffffffffffffffff167f61738f5af2f362041dcc88e6307672edbaab368cf64372557da0f3718166424084604051610d1e9190612135565b60405180910390a26040517f08c379a0000000000000000000000000000000000000000000000000000000008152600401610d5890611fb5565b60405180910390fd5b8160040154421061106d57600062015180836004015442610d82919061230a565b610d8c91906122d9565b905062015180620d2f00610da091906122d9565b811015610fa6578260060160009054906101000a900460ff1615610efb578260030154600360003373ffffffffffffffffffffffffffffffffffffffff1673ffffffffffffffffffffffffffffffffffffffff1681526020019081526020016000205410610e5057610e1683846003015461155c565b7f59317f1c2df5b48bcbedd4fa30236d9e2863d8e0f295a5c55f874c00338b9953604051610e4390611ff5565b60405180910390a1610ef6565b8160010160009054906101000a900473ffffffffffffffffffffffffffffffffffffffff1673ffffffffffffffffffffffffffffffffffffffff167f9b2ad96a106f22e7da7ab70854c90fa79af78ec7cb5240e520c1e7e4d94d6a68604051610eb890611f15565b60405180910390a27f59317f1c2df5b48bcbedd4fa30236d9e2863d8e0f295a5c55f874c00338b9953604051610eed90612015565b60405180910390a15b610fa1565b8160010160009054906101000a900473ffffffffffffffffffffffffffffffffffffffff1673ffffffffffffffffffffffffffffffffffffffff167f9b2ad96a106f22e7da7ab70854c90fa79af78ec7cb5240e520c1e7e4d94d6a68604051610f63906120b5565b60405180910390a27f59317f1c2df5b48bcbedd4fa30236d9e2863d8e0f295a5c55f874c00338b9953604051610f9890612115565b60405180910390a15b61106b565b60008360060160016101000a81548160ff0219169083151502179055508160010160009054906101000a900473ffffffffffffffffffffffffffffffffffffffff1673ffffffffffffffffffffffffffffffffffffffff167f61738f5af2f362041dcc88e6307672edbaab368cf64372557da0f371816642408560405161102d9190612135565b60405180910390a27f59317f1c2df5b48bcbedd4fa30236d9e2863d8e0f295a5c55f874c00338b995360405161106290611f55565b60405180910390a15b505b7f59317f1c2df5b48bcbedd4fa30236d9e2863d8e0f295a5c55f874c00338b995360405161109a906120d5565b60405180910390a1505050565b600160003373ffffffffffffffffffffffffffffffffffffffff1673ffffffffffffffffffffffffffffffffffffffff16815260200190815260200160002060009054906101000a900460ff168061114c5750600460009054906101000a900473ffffffffffffffffffffffffffffffffffffffff1673ffffffffffffffffffffffffffffffffffffffff163373ffffffffffffffffffffffffffffffffffffffff16145b61118b576040517f08c379a000000000000000000000000000000000000000000000000000000000815260040161118290611fd5565b60405180910390fd5b60405180604001604052808381526020018273ffffffffffffffffffffffffffffffffffffffff16815250600260008481526020019081526020016000206000820151816000015560208201518160010160006101000a81548173ffffffffffffffffffffffffffffffffffffffff021916908373ffffffffffffffffffffffffffffffffffffffff1602179055509050508073ffffffffffffffffffffffffffffffffffffffff167fc3ac545d6181fa02401957a2a1ef7c61909e7ee55044bc7cc2bbfff4af9c26618360006040516112669291906121a2565b60405180910390a25050565b60026020528060005260406000206000915090508060000154908060010160009054906101000a900473ffffffffffffffffffffffffffffffffffffffff16905082565b600160003373ffffffffffffffffffffffffffffffffffffffff1673ffffffffffffffffffffffffffffffffffffffff16815260200190815260200160002060009054906101000a900460ff168061135b5750600460009054906101000a900473ffffffffffffffffffffffffffffffffffffffff1673ffffffffffffffffffffffffffffffffffffffff163373ffffffffffffffffffffffffffffffffffffffff16145b61139a576040517f08c379a000000000000000000000000000000000000000000000000000000000815260040161139190611fd5565b60405180910390fd5b60008087815260200190815260200160002060060160019054906101000a900460ff16156113fd576040517f08c379a00000000000000000000000000000000000000000000000000000000081526004016113f490611f35565b60405180910390fd5b60405180610100016040528087815260200186815260200185815260200184815260200183815260200182815260200160011515815260200160011515815250600080888152602001908152602001600020600082015181600001556020820151816001015560408201518160020155606082015181600301556080820151816004015560a0820151816005015560c08201518160060160006101000a81548160ff02191690831515021790555060e08201518160060160016101000a81548160ff0219169083151502179055509050506002600086815260200190815260200160002060010160009054906101000a900473ffffffffffffffffffffffffffffffffffffffff1673ffffffffffffffffffffffffffffffffffffffff167fd1fd182edced03dd43b5a0947f31fdc4c7864acd71da90ce70815af072ccc7fd878660405161154c9291906121cb565b60405180910390a2505050505050565b80600360003373ffffffffffffffffffffffffffffffffffffffff1673ffffffffffffffffffffffffffffffffffffffff1681526020019081526020016000205410156115de576040517f08c379a00000000000000000000000000000000000000000000000000000000081526004016115d590611f95565b60405180910390fd5b80600360003373ffffffffffffffffffffffffffffffffffffffff1673ffffffffffffffffffffffffffffffffffffffff168152602001908152602001600020600082825461162d919061230a565b9250508190555062278d0082600401600082825461164b9190612283565b925050819055503373ffffffffffffffffffffffffffffffffffffffff167f354a7e09d58acfc69c01f51ad9c6b43c46501b660e7790d744ee8421936e3d3b83600001548360405161169e9291906121cb565b60405180910390a25050565b6000813590506116b9816123f6565b92915050565b6000813590506116ce8161240d565b92915050565b6000602082840312156116e657600080fd5b60006116f4848285016116aa565b91505092915050565b60006020828403121561170f57600080fd5b600061171d848285016116bf565b91505092915050565b6000806040838503121561173957600080fd5b6000611747858286016116bf565b9250506020611758858286016116aa565b9150509250929050565b6000806040838503121561177557600080fd5b6000611783858286016116bf565b9250506020611794858286016116bf565b9150509250929050565b60008060008060008060c087890312156117b757600080fd5b60006117c589828a016116bf565b96505060206117d689828a016116bf565b95505060406117e789828a016116bf565b94505060606117f889828a016116bf565b935050608061180989828a016116bf565b92505060a061181a89828a016116bf565b9150509295509295509295565b6118308161233e565b82525050565b61183f81612350565b82525050565b61184e81612386565b82525050565b6000611861602383612272565b91507f416d6f756e7420686164206265656e20746f702075702073756363657373667560008301527f6c6c7900000000000000000000000000000000000000000000000000000000006020830152604082019050919050565b60006118c7601a83612272565b91507f43616c6c6572206973206e6f742074686520637573746f6d65720000000000006000830152602082019050919050565b6000611907602183612272565b91507f496e73756666696369656e742062616c616e636520666f72206175746f20706160008301527f79000000000000000000000000000000000000000000000000000000000000006020830152604082019050919050565b600061196d601883612272565b91507f496e737572616e636520616c72656164792061637469766500000000000000006000830152602082019050919050565b60006119ad603383612272565b91507f596f757220696e737572616e6365206973206e6f7720696e616374697665206460008301527f756520746f206c617465207061796d656e742e000000000000000000000000006020830152604082019050919050565b6000611a13601d83612272565b91507f416d6f756e74206d7573742062652067726561746572207468616e20300000006000830152602082019050919050565b6000611a53601483612272565b91507f496e73756666696369656e742062616c616e63650000000000000000000000006000830152602082019050919050565b6000611a93601683612272565b91507f496e737572616e63652068617320657870697265642e000000000000000000006000830152602082019050919050565b6000611ad3602183612272565b91507f43616c6c6572206973206e6f7420616e2061646d696e206f72206d616e61676560008301527f72000000000000000000000000000000000000000000000000000000000000006020830152604082019050919050565b6000611b39602883612272565b91507f4175746f207061792070726f6365737320636f6d706c6574656420737563636560008301527f737366756c6c79210000000000000000000000000000000000000000000000006020830152604082019050919050565b6000611b9f603883612272565b91507f506c65617365206164642062616c616e636520746f20636f6e74696e7565207460008301527f6865206175746f2d7061796d656e742070726f636573732e00000000000000006020830152604082019050919050565b6000611c05601183612272565b91507f496e76616c69642070617920646174652e0000000000000000000000000000006000830152602082019050919050565b6000611c45602483612272565b91507f4175746f207061796d656e7420636f6d706c657465642073756363657373667560008301527f6c6c7921000000000000000000000000000000000000000000000000000000006020830152604082019050919050565b6000611cab601883612272565b91507f496e737572616e6365206973206e6f74206163746976652e00000000000000006000830152602082019050919050565b6000611ceb601583612272565b91507f496e73756666696369656e74207061796d656e742e00000000000000000000006000830152602082019050919050565b6000611d2b602e83612272565b91507f437573746f6d6572206e6565647320746f20706179206d616e75616c6c79207760008301527f697468696e20313020646179732e0000000000000000000000000000000000006020830152604082019050919050565b6000611d91602383612272565b91507f596f757220696e737572616e63652069732063757272656e746c79206163746960008301527f76652e00000000000000000000000000000000000000000000000000000000006020830152604082019050919050565b6000611df7601983612272565b91507f43616c6c6572206973206e6f7420746865206d616e61676572000000000000006000830152602082019050919050565b6000611e37602983612272565b91507f506c656173652070617920796f757220696e737572616e63652077697468696e60008301527f20313020646179732e00000000000000000000000000000000000000000000006020830152604082019050919050565b611e998161237c565b82525050565b6000602082019050611eb46000830184611827565b92915050565b6000602082019050611ecf6000830184611836565b92915050565b60006020820190508181036000830152611eee81611854565b9050919050565b60006020820190508181036000830152611f0e816118ba565b9050919050565b60006020820190508181036000830152611f2e816118fa565b9050919050565b60006020820190508181036000830152611f4e81611960565b9050919050565b60006020820190508181036000830152611f6e816119a0565b9050919050565b60006020820190508181036000830152611f8e81611a06565b9050919050565b60006020820190508181036000830152611fae81611a46565b9050919050565b60006020820190508181036000830152611fce81611a86565b9050919050565b60006020820190508181036000830152611fee81611ac6565b9050919050565b6000602082019050818103600083015261200e81611b2c565b9050919050565b6000602082019050818103600083015261202e81611b92565b9050919050565b6000602082019050818103600083015261204e81611bf8565b9050919050565b6000602082019050818103600083015261206e81611c38565b9050919050565b6000602082019050818103600083015261208e81611c9e565b9050919050565b600060208201905081810360008301526120ae81611cde565b9050919050565b600060208201905081810360008301526120ce81611d1e565b9050919050565b600060208201905081810360008301526120ee81611d84565b9050919050565b6000602082019050818103600083015261210e81611dea565b9050919050565b6000602082019050818103600083015261212e81611e2a565b9050919050565b600060208201905061214a6000830184611e90565b92915050565b60006040820190506121656000830185611e90565b6121726020830184611827565b9392505050565b600060408201905061218e6000830185611e90565b61219b6020830184611836565b9392505050565b60006040820190506121b76000830185611e90565b6121c46020830184611845565b9392505050565b60006040820190506121e06000830185611e90565b6121ed6020830184611e90565b9392505050565b60006101008201905061220a600083018b611e90565b612217602083018a611e90565b6122246040830189611e90565b6122316060830188611e90565b61223e6080830187611e90565b61224b60a0830186611e90565b61225860c0830185611836565b61226560e0830184611836565b9998505050505050505050565b600082825260208201905092915050565b600061228e8261237c565b91506122998361237c565b9250827fffffffffffffffffffffffffffffffffffffffffffffffffffffffffffffffff038211156122ce576122cd612398565b5b828201905092915050565b60006122e48261237c565b91506122ef8361237c565b9250826122ff576122fe6123c7565b5b828204905092915050565b60006123158261237c565b91506123208361237c565b92508282101561233357612332612398565b5b828203905092915050565b60006123498261235c565b9050919050565b60008115159050919050565b600073ffffffffffffffffffffffffffffffffffffffff82169050919050565b6000819050919050565b60006123918261237c565b9050919050565b7f4e487b7100000000000000000000000000000000000000000000000000000000600052601160045260246000fd5b7f4e487b7100000000000000000000000000000000000000000000000000000000600052601260045260246000fd5b6123ff8161233e565b811461240a57600080fd5b50565b6124168161237c565b811461242157600080fd5b5056fea2646970667358221220b826618742075796f3e7889a34d9a719d571da84d179b1c6ae0fc425e2f77dc864736f6c63430008000033",
  "immutableReferences": {},
  "source": "// SPDX-License-Identifier: MIT\r\npragma solidity ^0.8.0;\r\n\r\ncontract PayModule {\r\n    struct Insurance {\r\n        uint256 insurancePurchaseID;\r\n        uint256 customerID;\r\n        uint256 insuranceID;\r\n        uint256 payAmount;\r\n        uint256 payDate;\r\n        uint256 expiryDate;\r\n        bool autoPay;\r\n        bool isActive;\r\n    }\r\n\r\n    struct Customer {\r\n        uint256 customerID;\r\n        address customerAddress;\r\n    }\r\n\r\n    mapping(uint256 => Insurance) public insurances;\r\n    mapping(address => bool) public admins;\r\n    mapping(uint256 => Customer) public customers;\r\n    mapping(address => uint256) public customerBalances;\r\n\r\n    address public manager;\r\n\r\n    uint256 public constant latePaymentLimit = 10 days;\r\n\r\n    event InsuranceApproved(\r\n        uint256 insurancePurchaseID,\r\n        address indexed customer,\r\n        uint256 insuranceID\r\n    );\r\n    event PaymentProcessed(\r\n        uint256 insurancePurchaseID,\r\n        address indexed customer,\r\n        uint256 amount\r\n    );\r\n    event InsuranceInactive(\r\n        uint256 insurancePurchaseID,\r\n        address indexed customer\r\n    );\r\n    event ReminderSent(address indexed customer, string message);\r\n    event PayDateUpdated(\r\n        uint256 insurancePurchaseID,\r\n        address indexed customer,\r\n        uint256 newPayDate\r\n    );\r\n    event BalanceAdded(address indexed customer, uint256 amount);\r\n    event AdminUpdated(address indexed admin, bool status);\r\n    event CustomerUpdated(\r\n        uint256 customerID,\r\n        address indexed customer,\r\n        uint256 balance\r\n    );\r\n    event AutoPayStatusChanged(\r\n        uint256 insurancePurchaseID,\r\n        address indexed customer,\r\n        bool newStatus\r\n    );\r\n    event StatusMessage(string msg);\r\n\r\n    modifier onlyManager() {\r\n        require(msg.sender == manager, \"Caller is not the manager\");\r\n        _;\r\n    }\r\n\r\n    modifier onlyAdminOrManager() {\r\n        require(\r\n            admins[msg.sender] || msg.sender == manager,\r\n            \"Caller is not an admin or manager\"\r\n        );\r\n        _;\r\n    }\r\n\r\n    modifier onlyCustomer(address customer) {\r\n        require(msg.sender == customer, \"Caller is not the customer\");\r\n        _;\r\n    }\r\n\r\n    constructor() {\r\n        manager = msg.sender;\r\n    }\r\n\r\n    function addAdmin(address adminAddress) external onlyManager {\r\n        admins[adminAddress] = true;\r\n        emit AdminUpdated(adminAddress, true);\r\n    }\r\n\r\n    function addCustomer(\r\n        uint256 customerID,\r\n        address customerAddress\r\n    ) external onlyAdminOrManager {\r\n        customers[customerID] = Customer({\r\n            customerID: customerID,\r\n            customerAddress: customerAddress\r\n        });\r\n        emit CustomerUpdated(customerID, customerAddress, 0);\r\n    }\r\n\r\n    function approveInsurance(\r\n        uint256 insurancePurchaseID,\r\n        uint256 customerID,\r\n        uint256 insuranceID,\r\n        uint256 payAmount,\r\n        uint256 payDate,\r\n        uint256 expiryDate\r\n    ) external onlyAdminOrManager {\r\n        require(\r\n            !insurances[insurancePurchaseID].isActive,\r\n            \"Insurance already active\"\r\n        );\r\n\r\n        insurances[insurancePurchaseID] = Insurance({\r\n            insurancePurchaseID: insurancePurchaseID,\r\n            customerID: customerID,\r\n            insuranceID: insuranceID,\r\n            payAmount: payAmount,\r\n            payDate: payDate,\r\n            expiryDate: expiryDate,\r\n            autoPay: true,\r\n            isActive: true\r\n        });\r\n\r\n        emit InsuranceApproved(\r\n            insurancePurchaseID,\r\n            customers[customerID].customerAddress,\r\n            insuranceID\r\n        );\r\n    }\r\n\r\n    function checkInsuranceStatus(uint256 insurancePurchaseID) external {\r\n        Insurance storage insurance = insurances[insurancePurchaseID];\r\n        require(insurance.isActive, \"Insurance is not active.\");\r\n\r\n        Customer storage customer = customers[insurance.customerID];\r\n\r\n        if (block.timestamp >= insurance.expiryDate) {\r\n            insurance.isActive = false;\r\n            emit InsuranceInactive(\r\n                insurancePurchaseID,\r\n                customer.customerAddress\r\n            );\r\n            revert(\"Insurance has expired.\");\r\n        } else {\r\n            if (block.timestamp >= insurance.payDate) {\r\n                uint256 lateDay = (block.timestamp - insurance.payDate) /\r\n                    1 days;\r\n\r\n                if (lateDay < latePaymentLimit / 1 days) {\r\n                    if (insurance.autoPay) {\r\n                        if (\r\n                            customerBalances[msg.sender] >= insurance.payAmount\r\n                        ) {\r\n                            makePayment(insurance, insurance.payAmount);\r\n                            emit StatusMessage(\r\n                                \"Auto pay process completed successfully!\"\r\n                            );\r\n                        } else {\r\n                            emit ReminderSent(\r\n                                customer.customerAddress,\r\n                                \"Insufficient balance for auto pay\"\r\n                            );\r\n                            emit StatusMessage(\r\n                                \"Please add balance to continue the auto-payment process.\"\r\n                            );\r\n                        }\r\n                    } else {\r\n                        emit ReminderSent(\r\n                            customer.customerAddress,\r\n                            \"Customer needs to pay manually within 10 days.\"\r\n                        );\r\n                        emit StatusMessage(\r\n                            \"Please pay your insurance within 10 days.\"\r\n                        );\r\n                    }\r\n                } else {\r\n                    insurance.isActive = false;\r\n                    emit InsuranceInactive(\r\n                        insurancePurchaseID,\r\n                        customer.customerAddress\r\n                    );\r\n                    emit StatusMessage(\r\n                        \"Your insurance is now inactive due to late payment.\"\r\n                    );\r\n                }\r\n            }\r\n            emit StatusMessage(\"Your insurance is currently active.\");\r\n        }\r\n    }\r\n\r\n    function manualPay(uint256 insurancePurchaseID) external payable {\r\n        Insurance storage insurance = insurances[insurancePurchaseID];\r\n\r\n        require(insurance.isActive, \"Insurance is not active.\");\r\n        require(\r\n            customerBalances[msg.sender] >= insurance.payAmount,\r\n            \"Insufficient payment.\"\r\n        );\r\n        makePayment(insurance, insurance.payAmount);\r\n        emit StatusMessage(\"Auto payment completed successfully!\");\r\n    }\r\n\r\n    function makePayment(\r\n        Insurance storage insurance,\r\n        uint256 payAmount\r\n    ) internal {\r\n        require(\r\n            customerBalances[msg.sender] >= payAmount,\r\n            \"Insufficient balance\"\r\n        );\r\n        customerBalances[msg.sender] -= payAmount;\r\n        insurance.payDate += 30 days;\r\n        emit PaymentProcessed(\r\n            insurance.insurancePurchaseID,\r\n            msg.sender,\r\n            payAmount\r\n        );\r\n    }\r\n\r\n    function updatePayDate(\r\n        uint256 insurancePurchaseID,\r\n        uint256 newPayDate\r\n    ) external onlyAdminOrManager {\r\n        Insurance storage insurance = insurances[insurancePurchaseID];\r\n        uint lastPayDate = insurance.expiryDate - 30 days;\r\n        require(newPayDate < lastPayDate, \"Invalid pay date.\");\r\n        insurance.payDate = newPayDate;\r\n        Customer storage customer = customers[insurance.customerID];\r\n        emit PayDateUpdated(\r\n            insurancePurchaseID,\r\n            customer.customerAddress,\r\n            newPayDate\r\n        );\r\n    }\r\n\r\n    // Top up\r\n    function addBalance() external payable onlyCustomer(msg.sender) {\r\n        require(msg.value > 0, \"Amount must be greater than 0\");\r\n\r\n        customerBalances[msg.sender] += msg.value;\r\n\r\n        emit BalanceAdded(msg.sender, msg.value);\r\n        emit StatusMessage(\"Amount had been top up successfully\");\r\n    }\r\n\r\n    function updateAutoPay(\r\n        uint256 insurancePurchaseID\r\n    ) external onlyCustomer(msg.sender) {\r\n        Insurance storage insurance = insurances[insurancePurchaseID];\r\n        insurance.autoPay = !insurance.autoPay;\r\n        emit AutoPayStatusChanged(\r\n            insurancePurchaseID,\r\n            msg.sender,\r\n            insurance.autoPay\r\n        );\r\n    }\r\n\r\n    function getCustomerBalance()\r\n        external\r\n        view\r\n        onlyCustomer(msg.sender)\r\n        returns (uint256)\r\n    {\r\n        return customerBalances[msg.sender];\r\n    }\r\n}\r\n",
  "sourcePath": "C:\\Users\\leeda\\OneDrive\\Desktop\\Great_Global\\Danny_Test\\SponsorAnimals\\contracts\\Payment.sol",
  "compiler": {
    "name": "solc",
    "version": "0.8.0+commit.c7dfd78e.Emscripten.clang"
  },
  "schemaVersion": "3.4.16",
  "updatedAt": "2024-09-24T12:53:08.242Z",
  "devdoc": {
    "kind": "dev",
    "methods": {},
    "version": 1
  },
  "userdoc": {
    "kind": "user",
    "methods": {},
    "version": 1
  }
}