{
  "contractName": "PaymentModule",
  "abi": [
    {
      "inputs": [],
      "stateMutability": "nonpayable",
      "type": "constructor"
    },
    {
      "anonymous": false,
      "inputs": [
        {
          "indexed": true,
          "internalType": "address",
          "name": "admin",
          "type": "address"
        },
        {
          "indexed": false,
          "internalType": "bool",
          "name": "status",
          "type": "bool"
        }
      ],
      "name": "AdminAdded",
      "type": "event"
    },
    {
      "anonymous": false,
      "inputs": [
        {
          "indexed": true,
          "internalType": "address",
          "name": "customer",
          "type": "address"
        },
        {
          "indexed": false,
          "internalType": "uint256",
          "name": "insurancePurchaseID",
          "type": "uint256"
        },
        {
          "indexed": false,
          "internalType": "bool",
          "name": "newStatus",
          "type": "bool"
        }
      ],
      "name": "AutoPayStatusChanged",
      "type": "event"
    },
    {
      "anonymous": false,
      "inputs": [
        {
          "indexed": true,
          "internalType": "address",
          "name": "customer",
          "type": "address"
        },
        {
          "indexed": false,
          "internalType": "uint256",
          "name": "amount",
          "type": "uint256"
        }
      ],
      "name": "BalanceAdded",
      "type": "event"
    },
    {
      "anonymous": false,
      "inputs": [
        {
          "indexed": true,
          "internalType": "address",
          "name": "customer",
          "type": "address"
        },
        {
          "indexed": false,
          "internalType": "uint256",
          "name": "insurancePurchaseID",
          "type": "uint256"
        },
        {
          "indexed": false,
          "internalType": "enum PaymentModule.InsuranceStatus",
          "name": "insStatus",
          "type": "uint8"
        }
      ],
      "name": "CancelInsurance",
      "type": "event"
    },
    {
      "anonymous": false,
      "inputs": [
        {
          "indexed": true,
          "internalType": "address",
          "name": "customer",
          "type": "address"
        }
      ],
      "name": "CustomerAdded",
      "type": "event"
    },
    {
      "anonymous": false,
      "inputs": [
        {
          "indexed": true,
          "internalType": "address",
          "name": "customer",
          "type": "address"
        },
        {
          "indexed": false,
          "internalType": "uint256",
          "name": "insurancePurchaseID",
          "type": "uint256"
        },
        {
          "indexed": false,
          "internalType": "uint256",
          "name": "insuranceID",
          "type": "uint256"
        }
      ],
      "name": "InsuranceApproved",
      "type": "event"
    },
    {
      "anonymous": false,
      "inputs": [
        {
          "indexed": true,
          "internalType": "address",
          "name": "customer",
          "type": "address"
        },
        {
          "indexed": false,
          "internalType": "uint256",
          "name": "insurancePurchaseID",
          "type": "uint256"
        }
      ],
      "name": "InsuranceInactive",
      "type": "event"
    },
    {
      "anonymous": false,
      "inputs": [
        {
          "indexed": true,
          "internalType": "address",
          "name": "customer",
          "type": "address"
        },
        {
          "indexed": false,
          "internalType": "uint256",
          "name": "insurancePurchaseID",
          "type": "uint256"
        },
        {
          "indexed": false,
          "internalType": "uint256",
          "name": "newPayDate",
          "type": "uint256"
        }
      ],
      "name": "PayDateUpdated",
      "type": "event"
    },
    {
      "anonymous": false,
      "inputs": [
        {
          "indexed": true,
          "internalType": "address",
          "name": "customer",
          "type": "address"
        },
        {
          "indexed": false,
          "internalType": "uint256",
          "name": "insurancePurchaseID",
          "type": "uint256"
        },
        {
          "indexed": false,
          "internalType": "uint256",
          "name": "amount",
          "type": "uint256"
        }
      ],
      "name": "PaymentProcessed",
      "type": "event"
    },
    {
      "anonymous": false,
      "inputs": [
        {
          "indexed": true,
          "internalType": "address",
          "name": "customer",
          "type": "address"
        },
        {
          "indexed": false,
          "internalType": "string",
          "name": "message",
          "type": "string"
        }
      ],
      "name": "ReminderSent",
      "type": "event"
    },
    {
      "anonymous": false,
      "inputs": [
        {
          "indexed": false,
          "internalType": "string",
          "name": "msg",
          "type": "string"
        }
      ],
      "name": "StatusMessage",
      "type": "event"
    },
    {
      "inputs": [
        {
          "internalType": "address",
          "name": "",
          "type": "address"
        }
      ],
      "name": "admins",
      "outputs": [
        {
          "internalType": "bool",
          "name": "",
          "type": "bool"
        }
      ],
      "stateMutability": "view",
      "type": "function",
      "constant": true
    },
    {
      "inputs": [
        {
          "internalType": "address",
          "name": "",
          "type": "address"
        }
      ],
      "name": "customerBalances",
      "outputs": [
        {
          "internalType": "uint256",
          "name": "",
          "type": "uint256"
        }
      ],
      "stateMutability": "view",
      "type": "function",
      "constant": true
    },
    {
      "inputs": [
        {
          "internalType": "address",
          "name": "",
          "type": "address"
        },
        {
          "internalType": "uint256",
          "name": "",
          "type": "uint256"
        }
      ],
      "name": "insuranceSubscribed",
      "outputs": [
        {
          "internalType": "uint256",
          "name": "insuranceSubscriptionID",
          "type": "uint256"
        },
        {
          "internalType": "uint256",
          "name": "insuranceID",
          "type": "uint256"
        },
        {
          "internalType": "uint256",
          "name": "payAmount",
          "type": "uint256"
        },
        {
          "internalType": "uint256",
          "name": "payDate",
          "type": "uint256"
        },
        {
          "internalType": "bool",
          "name": "autoPay",
          "type": "bool"
        },
        {
          "internalType": "enum PaymentModule.InsuranceStatus",
          "name": "insStatus",
          "type": "uint8"
        }
      ],
      "stateMutability": "view",
      "type": "function",
      "constant": true
    },
    {
      "inputs": [],
      "name": "latePaymentLimit",
      "outputs": [
        {
          "internalType": "uint256",
          "name": "",
          "type": "uint256"
        }
      ],
      "stateMutability": "view",
      "type": "function",
      "constant": true
    },
    {
      "inputs": [],
      "name": "manager",
      "outputs": [
        {
          "internalType": "address",
          "name": "",
          "type": "address"
        }
      ],
      "stateMutability": "view",
      "type": "function",
      "constant": true
    },
    {
      "inputs": [
        {
          "internalType": "address",
          "name": "adminAddress",
          "type": "address"
        }
      ],
      "name": "addAdmin",
      "outputs": [],
      "stateMutability": "nonpayable",
      "type": "function"
    },
    {
      "inputs": [],
      "name": "registerCustomer",
      "outputs": [],
      "stateMutability": "nonpayable",
      "type": "function"
    },
    {
      "inputs": [
        {
          "internalType": "address",
          "name": "customerAddr",
          "type": "address"
        },
        {
          "internalType": "uint256",
          "name": "_insuranceID",
          "type": "uint256"
        },
        {
          "internalType": "uint256",
          "name": "payAmount",
          "type": "uint256"
        },
        {
          "internalType": "uint256",
          "name": "payDate",
          "type": "uint256"
        }
      ],
      "name": "approveInsurance",
      "outputs": [],
      "stateMutability": "nonpayable",
      "type": "function"
    },
    {
      "inputs": [],
      "name": "dailyInsCheck",
      "outputs": [],
      "stateMutability": "nonpayable",
      "type": "function"
    },
    {
      "inputs": [
        {
          "internalType": "uint256",
          "name": "_insuranceSubscriptionID",
          "type": "uint256"
        }
      ],
      "name": "manualPay",
      "outputs": [],
      "stateMutability": "payable",
      "type": "function",
      "payable": true
    },
    {
      "inputs": [
        {
          "internalType": "uint256",
          "name": "_insuranceSubscriptionID",
          "type": "uint256"
        }
      ],
      "name": "chkManualPayInsurance",
      "outputs": [
        {
          "internalType": "uint256",
          "name": "",
          "type": "uint256"
        },
        {
          "internalType": "uint256",
          "name": "",
          "type": "uint256"
        }
      ],
      "stateMutability": "view",
      "type": "function",
      "constant": true
    },
    {
      "inputs": [],
      "name": "addBalance",
      "outputs": [],
      "stateMutability": "payable",
      "type": "function",
      "payable": true
    },
    {
      "inputs": [],
      "name": "getCustomerBalance",
      "outputs": [
        {
          "internalType": "uint256",
          "name": "",
          "type": "uint256"
        }
      ],
      "stateMutability": "view",
      "type": "function",
      "constant": true
    },
    {
      "inputs": [
        {
          "internalType": "uint256",
          "name": "_insuranceSubscriptionID",
          "type": "uint256"
        }
      ],
      "name": "updateAutoPay",
      "outputs": [],
      "stateMutability": "nonpayable",
      "type": "function"
    },
    {
      "inputs": [
        {
          "internalType": "uint256",
          "name": "_insuranceSubscriptionID",
          "type": "uint256"
        }
      ],
      "name": "chkAutoPayStatus",
      "outputs": [
        {
          "internalType": "bool",
          "name": "",
          "type": "bool"
        }
      ],
      "stateMutability": "view",
      "type": "function",
      "constant": true
    },
    {
      "inputs": [
        {
          "internalType": "address",
          "name": "customerAddress",
          "type": "address"
        },
        {
          "internalType": "uint256",
          "name": "_insuranceSubscriptionID",
          "type": "uint256"
        },
        {
          "internalType": "uint256",
          "name": "newPayDate",
          "type": "uint256"
        }
      ],
      "name": "updatePayDate",
      "outputs": [],
      "stateMutability": "nonpayable",
      "type": "function"
    },
    {
      "inputs": [
        {
          "internalType": "address",
          "name": "customerAddress",
          "type": "address"
        },
        {
          "internalType": "uint256",
          "name": "_insuranceSubscriptionID",
          "type": "uint256"
        }
      ],
      "name": "chkInsurancePayDate",
      "outputs": [
        {
          "internalType": "uint256",
          "name": "",
          "type": "uint256"
        }
      ],
      "stateMutability": "view",
      "type": "function",
      "constant": true
    },
    {
      "inputs": [
        {
          "internalType": "uint256",
          "name": "_insuranceSubscriptionID",
          "type": "uint256"
        }
      ],
      "name": "cancelInsurance",
      "outputs": [],
      "stateMutability": "nonpayable",
      "type": "function"
    },
    {
      "inputs": [
        {
          "internalType": "uint256",
          "name": "_insuranceSubscriptionID",
          "type": "uint256"
        }
      ],
      "name": "chkCancelInsuranceStatus",
      "outputs": [
        {
          "internalType": "string",
          "name": "",
          "type": "string"
        }
      ],
      "stateMutability": "view",
      "type": "function",
      "constant": true
    },
    {
      "inputs": [
        {
          "internalType": "uint256",
          "name": "amount",
          "type": "uint256"
        }
      ],
      "name": "withdrawMoney",
      "outputs": [],
      "stateMutability": "nonpayable",
      "type": "function"
    },
    {
      "inputs": [],
      "name": "viewTotalMoney",
      "outputs": [
        {
          "internalType": "uint256",
          "name": "",
          "type": "uint256"
        }
      ],
      "stateMutability": "view",
      "type": "function",
      "constant": true
    }
  ],
  "bytecode": "0x6080604052600060015534801561001557600080fd5b5033600760006101000a81548173ffffffffffffffffffffffffffffffffffffffff021916908373ffffffffffffffffffffffffffffffffffffffff16021790555061347f806100666000396000f3fe60806040526004361061012a5760003560e01c8063796bf714116100ab578063a853409a1161006f578063a853409a146103e7578063b163cc3814610412578063b77d552d1461041c578063cb743d6014610445578063cd3981ac14610470578063dcd4e566146104ad5761012a565b8063796bf7141461030357806380ba7b2e146103405780638b958c011461035757806390ee832714610380578063a760c67c146103a95761012a565b806354876921116100f257806354876921146102165780635cc185461461023f578063704802751461025b57806373805ff514610284578063791d66a1146102c65761012a565b8063273570111461012f5780632c15040414610146578063429b62e514610183578063450a4195146101c0578063481c6a75146101eb575b600080fd5b34801561013b57600080fd5b506101446104d6565b005b34801561015257600080fd5b5061016d600480360381019061016891906127a6565b610600565b60405161017a9190612e35565b60405180910390f35b34801561018f57600080fd5b506101aa60048036038101906101a5919061268f565b6106f6565b6040516101b79190612e35565b60405180910390f35b3480156101cc57600080fd5b506101d5610716565b6040516101e291906130b2565b60405180910390f35b3480156101f757600080fd5b5061020061071d565b60405161020d9190612e1a565b60405180910390f35b34801561022257600080fd5b5061023d600480360381019061023891906127a6565b610743565b005b610259600480360381019061025491906127a6565b610860565b005b34801561026757600080fd5b50610282600480360381019061027d919061268f565b610b2e565b005b34801561029057600080fd5b506102ab60048036038101906102a691906126b8565b610c68565b6040516102bd96959493929190613148565b60405180910390f35b3480156102d257600080fd5b506102ed60048036038101906102e8919061268f565b610ccb565b6040516102fa91906130b2565b60405180910390f35b34801561030f57600080fd5b5061032a600480360381019061032591906127a6565b610ce3565b6040516103379190612e50565b60405180910390f35b34801561034c57600080fd5b50610355610f94565b005b34801561036357600080fd5b5061037e600480360381019061037991906127a6565b61142f565b005b34801561038c57600080fd5b506103a760048036038101906103a291906127a6565b611623565b005b3480156103b557600080fd5b506103d060048036038101906103cb91906127a6565b6117f2565b6040516103de92919061311f565b60405180910390f35b3480156103f357600080fd5b506103fc611932565b60405161040991906130b2565b60405180910390f35b61041a611a05565b005b34801561042857600080fd5b50610443600480360381019061043e91906126f4565b611baf565b005b34801561045157600080fd5b5061045a611de9565b60405161046791906130b2565b60405180910390f35b34801561047c57600080fd5b50610497600480360381019061049291906126b8565b611e81565b6040516104a491906130b2565b60405180910390f35b3480156104b957600080fd5b506104d460048036038101906104cf9190612743565b611fc3565b005b600660003373ffffffffffffffffffffffffffffffffffffffff1673ffffffffffffffffffffffffffffffffffffffff16815260200190815260200160002060009054906101000a900460ff1615610563576040517f08c379a000000000000000000000000000000000000000000000000000000000815260040161055a90612ff2565b60405180910390fd5b6001600660003373ffffffffffffffffffffffffffffffffffffffff1673ffffffffffffffffffffffffffffffffffffffff16815260200190815260200160002060006101000a81548160ff0219169083151502179055503373ffffffffffffffffffffffffffffffffffffffff167fcd118a02bd36f224f6f1b93812f78d2bbc2c2dc1bc0f60c176e3b4fe09f1483f60405160405180910390a2565b6000600660003373ffffffffffffffffffffffffffffffffffffffff1673ffffffffffffffffffffffffffffffffffffffff16815260200190815260200160002060009054906101000a900460ff1661068e576040517f08c379a000000000000000000000000000000000000000000000000000000000815260040161068590613012565b60405180910390fd5b600460003373ffffffffffffffffffffffffffffffffffffffff1673ffffffffffffffffffffffffffffffffffffffff168152602001908152602001600020600083815260200190815260200160002060040160009054906101000a900460ff169050919050565b60026020528060005260406000206000915054906101000a900460ff1681565b620d2f0081565b600760009054906101000a900473ffffffffffffffffffffffffffffffffffffffff1681565b600760009054906101000a900473ffffffffffffffffffffffffffffffffffffffff1673ffffffffffffffffffffffffffffffffffffffff163373ffffffffffffffffffffffffffffffffffffffff16146107d3576040517f08c379a00000000000000000000000000000000000000000000000000000000081526004016107ca90612ed2565b60405180910390fd5b47811115610816576040517f08c379a000000000000000000000000000000000000000000000000000000000815260040161080d90612f72565b60405180910390fd5b3373ffffffffffffffffffffffffffffffffffffffff166108fc829081150290604051600060405180830381858888f1935050505015801561085c573d6000803e3d6000fd5b5050565b600660003373ffffffffffffffffffffffffffffffffffffffff1673ffffffffffffffffffffffffffffffffffffffff16815260200190815260200160002060009054906101000a900460ff166108ec576040517f08c379a00000000000000000000000000000000000000000000000000000000081526004016108e390613012565b60405180910390fd5b60006108f83383612476565b9050600115158115151415610aef576000600460003373ffffffffffffffffffffffffffffffffffffffff1673ffffffffffffffffffffffffffffffffffffffff1681526020019081526020016000206000848152602001908152602001600020905060016002811115610995577f4e487b7100000000000000000000000000000000000000000000000000000000600052602160045260246000fd5b8160040160019054906101000a900460ff1660028111156109df577f4e487b7100000000000000000000000000000000000000000000000000000000600052602160045260246000fd5b14610a1f576040517f08c379a0000000000000000000000000000000000000000000000000000000008152600401610a1690613052565b60405180910390fd5b8060020154600560003373ffffffffffffffffffffffffffffffffffffffff1673ffffffffffffffffffffffffffffffffffffffff168152602001908152602001600020541015610aa5576040517f08c379a0000000000000000000000000000000000000000000000000000000008152600401610a9c90612fb2565b60405180910390fd5b610ab433828360020154612598565b7f59317f1c2df5b48bcbedd4fa30236d9e2863d8e0f295a5c55f874c00338b9953604051610ae190612fd2565b60405180910390a150610b2a565b6040517f08c379a0000000000000000000000000000000000000000000000000000000008152600401610b2190613072565b60405180910390fd5b5050565b600760009054906101000a900473ffffffffffffffffffffffffffffffffffffffff1673ffffffffffffffffffffffffffffffffffffffff163373ffffffffffffffffffffffffffffffffffffffff1614610bbe576040517f08c379a0000000000000000000000000000000000000000000000000000000008152600401610bb590612ed2565b60405180910390fd5b6001600260008373ffffffffffffffffffffffffffffffffffffffff1673ffffffffffffffffffffffffffffffffffffffff16815260200190815260200160002060006101000a81548160ff0219169083151502179055508073ffffffffffffffffffffffffffffffffffffffff167f8a7039f4ea6f86a6a98d9c1efb0ea9d190f6b3fa37c32627cf48f767f51e36d56001604051610c5d9190612e35565b60405180910390a250565b6004602052816000526040600020602052806000526040600020600091509150508060000154908060010154908060020154908060030154908060040160009054906101000a900460ff16908060040160019054906101000a900460ff16905086565b60056020528060005260406000206000915090505481565b6060600660003373ffffffffffffffffffffffffffffffffffffffff1673ffffffffffffffffffffffffffffffffffffffff16815260200190815260200160002060009054906101000a900460ff16610d71576040517f08c379a0000000000000000000000000000000000000000000000000000000008152600401610d6890613012565b60405180910390fd5b6000600460003373ffffffffffffffffffffffffffffffffffffffff1673ffffffffffffffffffffffffffffffffffffffff1681526020019081526020016000206000848152602001908152602001600020905060006002811115610dff577f4e487b7100000000000000000000000000000000000000000000000000000000600052602160045260246000fd5b8160040160019054906101000a900460ff166002811115610e49577f4e487b7100000000000000000000000000000000000000000000000000000000600052602160045260246000fd5b1415610e8d576040518060400160405280600781526020017f50656e64696e6700000000000000000000000000000000000000000000000000815250915050610f8f565b60016002811115610ec7577f4e487b7100000000000000000000000000000000000000000000000000000000600052602160045260246000fd5b8160040160019054906101000a900460ff166002811115610f11577f4e487b7100000000000000000000000000000000000000000000000000000000600052602160045260246000fd5b1415610f55576040518060400160405280600881526020017f417070726f766564000000000000000000000000000000000000000000000000815250915050610f8f565b6040518060400160405280600981526020017f43616e63656c6c656400000000000000000000000000000000000000000000008152509150505b919050565b60005b60008054905081101561142c576000808281548110610fdf577f4e487b7100000000000000000000000000000000000000000000000000000000600052603260045260246000fd5b9060005260206000200160009054906101000a900473ffffffffffffffffffffffffffffffffffffffff1690506000600360008373ffffffffffffffffffffffffffffffffffffffff1673ffffffffffffffffffffffffffffffffffffffff168152602001908152602001600020905060008160000180549050905060005b81811015611415576000600460008673ffffffffffffffffffffffffffffffffffffffff1673ffffffffffffffffffffffffffffffffffffffff16815260200190815260200160002060008560000184815481106110e5577f4e487b7100000000000000000000000000000000000000000000000000000000600052603260045260246000fd5b9060005260206000200154815260200190815260200160002090506001600281111561113a577f4e487b7100000000000000000000000000000000000000000000000000000000600052602160045260246000fd5b8160040160019054906101000a900460ff166002811115611184577f4e487b7100000000000000000000000000000000000000000000000000000000600052602160045260246000fd5b1461118f5750611402565b80600301544210611400576000620151808260030154426111b0919061324c565b6111ba919061321b565b905062015180620d2f006111ce919061321b565b811015611323578160040160009054906101000a900460ff16156112d1578160020154600560008873ffffffffffffffffffffffffffffffffffffffff1673ffffffffffffffffffffffffffffffffffffffff168152602001908152602001600020541061127f5761124586838460020154612598565b7f59317f1c2df5b48bcbedd4fa30236d9e2863d8e0f295a5c55f874c00338b995360405161127290612f92565b60405180910390a16112cc565b8573ffffffffffffffffffffffffffffffffffffffff167f9b2ad96a106f22e7da7ab70854c90fa79af78ec7cb5240e520c1e7e4d94d6a686040516112c390612eb2565b60405180910390a25b61131e565b8573ffffffffffffffffffffffffffffffffffffffff167f9b2ad96a106f22e7da7ab70854c90fa79af78ec7cb5240e520c1e7e4d94d6a6860405161131590613092565b60405180910390a25b6113fe565b60028260040160016101000a81548160ff02191690836002811115611371577f4e487b7100000000000000000000000000000000000000000000000000000000600052602160045260246000fd5b02179055508573ffffffffffffffffffffffffffffffffffffffff167f5ee90b89f198c1100a6154d9a4bd805e7a470cfbd32dc4f84e42c6089adf9b6883600001546040516113c091906130b2565b60405180910390a27f59317f1c2df5b48bcbedd4fa30236d9e2863d8e0f295a5c55f874c00338b99536040516113f590612e92565b60405180910390a15b505b505b808061140d90613320565b91505061105e565b50505050808061142490613320565b915050610f97565b50565b600660003373ffffffffffffffffffffffffffffffffffffffff1673ffffffffffffffffffffffffffffffffffffffff16815260200190815260200160002060009054906101000a900460ff166114bb576040517f08c379a00000000000000000000000000000000000000000000000000000000081526004016114b290613012565b60405180910390fd5b60006114c73383612476565b90506001151581151514156115e4576000600460003373ffffffffffffffffffffffffffffffffffffffff1673ffffffffffffffffffffffffffffffffffffffff1681526020019081526020016000206000848152602001908152602001600020905060028160040160016101000a81548160ff02191690836002811115611578577f4e487b7100000000000000000000000000000000000000000000000000000000600052602160045260246000fd5b02179055503373ffffffffffffffffffffffffffffffffffffffff167f2b6a6c3460d70ff53160b5d29d6275c9c703fa573e82ba269a779d0767e04b2c848360040160019054906101000a900460ff166040516115d69291906130f6565b60405180910390a25061161f565b6040517f08c379a000000000000000000000000000000000000000000000000000000000815260040161161690613072565b60405180910390fd5b5050565b600660003373ffffffffffffffffffffffffffffffffffffffff1673ffffffffffffffffffffffffffffffffffffffff16815260200190815260200160002060009054906101000a900460ff166116af576040517f08c379a00000000000000000000000000000000000000000000000000000000081526004016116a690613012565b60405180910390fd5b60006116bb3383612476565b90506001151581151514156117b3576000600460003373ffffffffffffffffffffffffffffffffffffffff1673ffffffffffffffffffffffffffffffffffffffff168152602001908152602001600020600084815260200190815260200160002090508060040160009054906101000a900460ff16158160040160006101000a81548160ff0219169083151502179055503373ffffffffffffffffffffffffffffffffffffffff167f4da9aec0f36dc52c3a2f5705c3939e2d711626ea1713afb3a5fdba31e9313c0f848360040160009054906101000a900460ff166040516117a59291906130cd565b60405180910390a2506117ee565b6040517f08c379a00000000000000000000000000000000000000000000000000000000081526004016117e590613072565b60405180910390fd5b5050565b600080600660003373ffffffffffffffffffffffffffffffffffffffff1673ffffffffffffffffffffffffffffffffffffffff16815260200190815260200160002060009054906101000a900460ff16611881576040517f08c379a000000000000000000000000000000000000000000000000000000000815260040161187890613012565b60405180910390fd5b600460003373ffffffffffffffffffffffffffffffffffffffff1673ffffffffffffffffffffffffffffffffffffffff168152602001908152602001600020600084815260200190815260200160002060020154600460003373ffffffffffffffffffffffffffffffffffffffff1673ffffffffffffffffffffffffffffffffffffffff16815260200190815260200160002060008581526020019081526020016000206003015491509150915091565b6000600660003373ffffffffffffffffffffffffffffffffffffffff1673ffffffffffffffffffffffffffffffffffffffff16815260200190815260200160002060009054906101000a900460ff166119c0576040517f08c379a00000000000000000000000000000000000000000000000000000000081526004016119b790613012565b60405180910390fd5b600560003373ffffffffffffffffffffffffffffffffffffffff1673ffffffffffffffffffffffffffffffffffffffff16815260200190815260200160002054905090565b600660003373ffffffffffffffffffffffffffffffffffffffff1673ffffffffffffffffffffffffffffffffffffffff16815260200190815260200160002060009054906101000a900460ff16611a91576040517f08c379a0000000000000000000000000000000000000000000000000000000008152600401611a8890613012565b60405180910390fd5b60003411611ad4576040517f08c379a0000000000000000000000000000000000000000000000000000000008152600401611acb90612f32565b60405180910390fd5b34600560003373ffffffffffffffffffffffffffffffffffffffff1673ffffffffffffffffffffffffffffffffffffffff1681526020019081526020016000206000828254611b2391906131c5565b925050819055503373ffffffffffffffffffffffffffffffffffffffff167fe96dd7a15a3974e8e7d5eb80de2cb6fd69907a1ee089170cd976cfffaedfa8ac34604051611b7091906130b2565b60405180910390a27f59317f1c2df5b48bcbedd4fa30236d9e2863d8e0f295a5c55f874c00338b9953604051611ba590612ef2565b60405180910390a1565b600260003373ffffffffffffffffffffffffffffffffffffffff1673ffffffffffffffffffffffffffffffffffffffff16815260200190815260200160002060009054906101000a900460ff1680611c545750600760009054906101000a900473ffffffffffffffffffffffffffffffffffffffff1673ffffffffffffffffffffffffffffffffffffffff163373ffffffffffffffffffffffffffffffffffffffff16145b611c93576040517f08c379a0000000000000000000000000000000000000000000000000000000008152600401611c8a90612e72565b60405180910390fd5b42811015611cd6576040517f08c379a0000000000000000000000000000000000000000000000000000000008152600401611ccd90612f12565b60405180910390fd5b6000611ce28484612476565b9050600115158115151415611da8576000600460008673ffffffffffffffffffffffffffffffffffffffff1673ffffffffffffffffffffffffffffffffffffffff168152602001908152602001600020600085815260200190815260200160002090508281600301819055508473ffffffffffffffffffffffffffffffffffffffff167f36442393942618b4d1d34dbb61cc374882c1136e4aa18a43486977fddb3f22ca858360030154604051611d9a92919061311f565b60405180910390a250611de3565b6040517f08c379a0000000000000000000000000000000000000000000000000000000008152600401611dda90613072565b60405180910390fd5b50505050565b6000600760009054906101000a900473ffffffffffffffffffffffffffffffffffffffff1673ffffffffffffffffffffffffffffffffffffffff163373ffffffffffffffffffffffffffffffffffffffff1614611e7b576040517f08c379a0000000000000000000000000000000000000000000000000000000008152600401611e7290612ed2565b60405180910390fd5b47905090565b6000600260003373ffffffffffffffffffffffffffffffffffffffff1673ffffffffffffffffffffffffffffffffffffffff16815260200190815260200160002060009054906101000a900460ff1680611f285750600760009054906101000a900473ffffffffffffffffffffffffffffffffffffffff1673ffffffffffffffffffffffffffffffffffffffff163373ffffffffffffffffffffffffffffffffffffffff16145b611f67576040517f08c379a0000000000000000000000000000000000000000000000000000000008152600401611f5e90612e72565b60405180910390fd5b600460008473ffffffffffffffffffffffffffffffffffffffff1673ffffffffffffffffffffffffffffffffffffffff168152602001908152602001600020600083815260200190815260200160002060030154905092915050565b600260003373ffffffffffffffffffffffffffffffffffffffff1673ffffffffffffffffffffffffffffffffffffffff16815260200190815260200160002060009054906101000a900460ff16806120685750600760009054906101000a900473ffffffffffffffffffffffffffffffffffffffff1673ffffffffffffffffffffffffffffffffffffffff163373ffffffffffffffffffffffffffffffffffffffff16145b6120a7576040517f08c379a000000000000000000000000000000000000000000000000000000000815260040161209e90612e72565b60405180910390fd5b600660008573ffffffffffffffffffffffffffffffffffffffff1673ffffffffffffffffffffffffffffffffffffffff16815260200190815260200160002060009054906101000a900460ff16612133576040517f08c379a000000000000000000000000000000000000000000000000000000000815260040161212a90612f52565b60405180910390fd5b6000600360008673ffffffffffffffffffffffffffffffffffffffff1673ffffffffffffffffffffffffffffffffffffffff168152602001908152602001600020905060005b81600001805490508110156122775784600460008873ffffffffffffffffffffffffffffffffffffffff1673ffffffffffffffffffffffffffffffffffffffff1681526020019081526020016000206000846000018481548110612206577f4e487b7100000000000000000000000000000000000000000000000000000000600052603260045260246000fd5b90600052602060002001548152602001908152602001600020600101541415612264576040517f08c379a000000000000000000000000000000000000000000000000000000000815260040161225b90613032565b60405180910390fd5b808061226f90613320565b915050612179565b5060006040518060c0016040528083600001805490508152602001868152602001858152602001848152602001600115158152602001600160028111156122e7577f4e487b7100000000000000000000000000000000000000000000000000000000600052602160045260246000fd5b815250905080600460008873ffffffffffffffffffffffffffffffffffffffff1673ffffffffffffffffffffffffffffffffffffffff1681526020019081526020016000206000846000018054905081526020019081526020016000206000820151816000015560208201518160010155604082015181600201556060820151816003015560808201518160040160006101000a81548160ff02191690831515021790555060a08201518160040160016101000a81548160ff021916908360028111156123dd577f4e487b7100000000000000000000000000000000000000000000000000000000600052602160045260246000fd5b021790555090505081600001826000018054905090806001815401808255809150506001900390600052602060002001600090919091909150558573ffffffffffffffffffffffffffffffffffffffff167fc8892b36e5e192c72f691d1513641216fc24252a21a37a5939b5b677270adfb483600001805490508760405161246692919061311f565b60405180910390a2505050505050565b600080600360008573ffffffffffffffffffffffffffffffffffffffff1673ffffffffffffffffffffffffffffffffffffffff168152602001908152602001600020905060005b816000018054905081101561258b5783600460008773ffffffffffffffffffffffffffffffffffffffff1673ffffffffffffffffffffffffffffffffffffffff168152602001908152602001600020600084600001848154811061254a577f4e487b7100000000000000000000000000000000000000000000000000000000600052603260045260246000fd5b9060005260206000200154815260200190815260200160002060000154141561257857600192505050612592565b808061258390613320565b9150506124bd565b5060009150505b92915050565b80600560008573ffffffffffffffffffffffffffffffffffffffff1673ffffffffffffffffffffffffffffffffffffffff16815260200190815260200160002060008282546125e7919061324c565b9250508190555062278d0082600301600082825461260591906131c5565b925050819055508273ffffffffffffffffffffffffffffffffffffffff167f7bd379b31566817ff79103ff210fc7d86fa755c249a8dc25f96618362789e19183600001548360405161265892919061311f565b60405180910390a2505050565b6000813590506126748161341b565b92915050565b60008135905061268981613432565b92915050565b6000602082840312156126a157600080fd5b60006126af84828501612665565b91505092915050565b600080604083850312156126cb57600080fd5b60006126d985828601612665565b92505060206126ea8582860161267a565b9150509250929050565b60008060006060848603121561270957600080fd5b600061271786828701612665565b93505060206127288682870161267a565b92505060406127398682870161267a565b9150509250925092565b6000806000806080858703121561275957600080fd5b600061276787828801612665565b94505060206127788782880161267a565b93505060406127898782880161267a565b925050606061279a8782880161267a565b91505092959194509250565b6000602082840312156127b857600080fd5b60006127c68482850161267a565b91505092915050565b6127d881613280565b82525050565b6127e781613292565b82525050565b6127f6816132db565b82525050565b6000612807826131a9565b61281181856131b4565b93506128218185602086016132ed565b61282a816133f6565b840191505092915050565b60006128426022836131b4565b91507f43616c6c6572206973206e6f7420616e2061646d696e206f72206d616e61676560008301527f722e0000000000000000000000000000000000000000000000000000000000006020830152604082019050919050565b60006128a86034836131b4565b91507f496e737572616e636520686164206265656e2043616e63656c6c65642064756560008301527f20746f206f766572647565207061796d656e742e0000000000000000000000006020830152604082019050919050565b600061290e6021836131b4565b91507f496e73756666696369656e742062616c616e636520666f72206175746f20706160008301527f79000000000000000000000000000000000000000000000000000000000000006020830152604082019050919050565b6000612974601a836131b4565b91507f43616c6c6572206973206e6f7420746865206d616e616765722e0000000000006000830152602082019050919050565b60006129b46026836131b4565b91507f416d6f756e7420686164206265656e20746f707065642075702073756363657360008301527f7366756c6c7900000000000000000000000000000000000000000000000000006020830152604082019050919050565b6000612a1a6025836131b4565b91507f50617920646174652073686f756c64206e6f742062652070726576696f75732060008301527f74696d652e0000000000000000000000000000000000000000000000000000006020830152604082019050919050565b6000612a80601d836131b4565b91507f416d6f756e74206d7573742062652067726561746572207468616e20300000006000830152602082019050919050565b6000612ac06013836131b4565b91507f437573746f6d6572206e6f7420666f756e642e000000000000000000000000006000830152602082019050919050565b6000612b006020836131b4565b91507f496e73756666696369656e742062616c616e636520746f2077697468647261776000830152602082019050919050565b6000612b406028836131b4565b91507f4175746f207061792070726f6365737320636f6d706c6574656420737563636560008301527f737366756c6c79210000000000000000000000000000000000000000000000006020830152604082019050919050565b6000612ba66015836131b4565b91507f496e73756666696369656e742062616c616e63652e00000000000000000000006000830152602082019050919050565b6000612be66026836131b4565b91507f4d616e75616c207061796d656e7420636f6d706c65746564207375636365737360008301527f66756c6c792100000000000000000000000000000000000000000000000000006020830152604082019050919050565b6000612c4c601c836131b4565b91507f437573746f6d657220616c726561647920726567697374657265642e000000006000830152602082019050919050565b6000612c8c6019836131b4565b91507f43616c6c6572206973206e6f74206120637573746f6d65722e000000000000006000830152602082019050919050565b6000612ccc6027836131b4565b91507f5468697320696e737572616e63652068617320616c7265616479206265656e2060008301527f626f756768742e000000000000000000000000000000000000000000000000006020830152604082019050919050565b6000612d326018836131b4565b91507f496e737572616e6365206973206e6f74206163746976652e00000000000000006000830152602082019050919050565b6000612d726014836131b4565b91507f496e737572616e6365206e6f742065786973742e0000000000000000000000006000830152602082019050919050565b6000612db2602e836131b4565b91507f437573746f6d6572206e6565647320746f20706179206d616e75616c6c79207760008301527f697468696e20313020646179732e0000000000000000000000000000000000006020830152604082019050919050565b612e14816132d1565b82525050565b6000602082019050612e2f60008301846127cf565b92915050565b6000602082019050612e4a60008301846127de565b92915050565b60006020820190508181036000830152612e6a81846127fc565b905092915050565b60006020820190508181036000830152612e8b81612835565b9050919050565b60006020820190508181036000830152612eab8161289b565b9050919050565b60006020820190508181036000830152612ecb81612901565b9050919050565b60006020820190508181036000830152612eeb81612967565b9050919050565b60006020820190508181036000830152612f0b816129a7565b9050919050565b60006020820190508181036000830152612f2b81612a0d565b9050919050565b60006020820190508181036000830152612f4b81612a73565b9050919050565b60006020820190508181036000830152612f6b81612ab3565b9050919050565b60006020820190508181036000830152612f8b81612af3565b9050919050565b60006020820190508181036000830152612fab81612b33565b9050919050565b60006020820190508181036000830152612fcb81612b99565b9050919050565b60006020820190508181036000830152612feb81612bd9565b9050919050565b6000602082019050818103600083015261300b81612c3f565b9050919050565b6000602082019050818103600083015261302b81612c7f565b9050919050565b6000602082019050818103600083015261304b81612cbf565b9050919050565b6000602082019050818103600083015261306b81612d25565b9050919050565b6000602082019050818103600083015261308b81612d65565b9050919050565b600060208201905081810360008301526130ab81612da5565b9050919050565b60006020820190506130c76000830184612e0b565b92915050565b60006040820190506130e26000830185612e0b565b6130ef60208301846127de565b9392505050565b600060408201905061310b6000830185612e0b565b61311860208301846127ed565b9392505050565b60006040820190506131346000830185612e0b565b6131416020830184612e0b565b9392505050565b600060c08201905061315d6000830189612e0b565b61316a6020830188612e0b565b6131776040830187612e0b565b6131846060830186612e0b565b61319160808301856127de565b61319e60a08301846127ed565b979650505050505050565b600081519050919050565b600082825260208201905092915050565b60006131d0826132d1565b91506131db836132d1565b9250827fffffffffffffffffffffffffffffffffffffffffffffffffffffffffffffffff038211156132105761320f613369565b5b828201905092915050565b6000613226826132d1565b9150613231836132d1565b92508261324157613240613398565b5b828204905092915050565b6000613257826132d1565b9150613262836132d1565b92508282101561327557613274613369565b5b828203905092915050565b600061328b826132b1565b9050919050565b60008115159050919050565b60008190506132ac82613407565b919050565b600073ffffffffffffffffffffffffffffffffffffffff82169050919050565b6000819050919050565b60006132e68261329e565b9050919050565b60005b8381101561330b5780820151818401526020810190506132f0565b8381111561331a576000848401525b50505050565b600061332b826132d1565b91507fffffffffffffffffffffffffffffffffffffffffffffffffffffffffffffffff82141561335e5761335d613369565b5b600182019050919050565b7f4e487b7100000000000000000000000000000000000000000000000000000000600052601160045260246000fd5b7f4e487b7100000000000000000000000000000000000000000000000000000000600052601260045260246000fd5b7f4e487b7100000000000000000000000000000000000000000000000000000000600052602160045260246000fd5b6000601f19601f8301169050919050565b60038110613418576134176133c7565b5b50565b61342481613280565b811461342f57600080fd5b50565b61343b816132d1565b811461344657600080fd5b5056fea2646970667358221220d99bdbe6f7341a386263ab99c21ca055163e1d7e1075ded0cfa9531d58d0e11364736f6c63430008000033",
  "immutableReferences": {},
  "source": "// SPDX-License-Identifier: MIT\r\npragma solidity ^0.8.0;\r\n\r\ncontract PaymentModule {\r\n    enum InsuranceStatus {\r\n        Pending,\r\n        Approved,\r\n        Cancelled\r\n    }\r\n\r\n    struct InsuranceSubscription {\r\n        uint256 insuranceSubscriptionID;\r\n        uint256 insuranceID;\r\n        uint256 payAmount;\r\n        uint256 payDate;\r\n        bool autoPay;\r\n        InsuranceStatus insStatus;\r\n    }\r\n\r\n    struct Customer {\r\n        uint256[] subscribedPackages;\r\n    }\r\n\r\n    address[] private addedCustomer;\r\n    uint256 private custCount = 0;\r\n\r\n    uint256 public constant latePaymentLimit = 10 days;\r\n\r\n    mapping(address => bool) public admins;\r\n    mapping(address => Customer) private customers;\r\n    mapping(address => mapping(uint256 => InsuranceSubscription))\r\n        public insuranceSubscribed;\r\n    mapping(address => uint256) public customerBalances;\r\n    mapping(address => bool) private isCustomer;\r\n\r\n    event AdminAdded(address indexed admin, bool status);\r\n    event CustomerAdded(address indexed customer);\r\n    event InsuranceApproved(\r\n        address indexed customer,\r\n        uint256 insurancePurchaseID,\r\n        uint256 insuranceID\r\n    );\r\n    event InsuranceInactive(\r\n        address indexed customer,\r\n        uint256 insurancePurchaseID\r\n    );\r\n    event ReminderSent(address indexed customer, string message);\r\n    event StatusMessage(string msg);\r\n    event PaymentProcessed(\r\n        address indexed customer,\r\n        uint256 insurancePurchaseID,\r\n        uint256 amount\r\n    );\r\n    event BalanceAdded(address indexed customer, uint256 amount);\r\n    event AutoPayStatusChanged(\r\n        address indexed customer,\r\n        uint256 insurancePurchaseID,\r\n        bool newStatus\r\n    );\r\n    event PayDateUpdated(\r\n        address indexed customer,\r\n        uint256 insurancePurchaseID,\r\n        uint256 newPayDate\r\n    );\r\n    event CancelInsurance(\r\n        address indexed customer,\r\n        uint256 insurancePurchaseID,\r\n        InsuranceStatus insStatus\r\n    );\r\n\r\n    // Set the person who deploys as manager\r\n    address public manager;\r\n\r\n    constructor() {\r\n        manager = msg.sender;\r\n    }\r\n\r\n    // Modifier\r\n    modifier onlyOwner() {\r\n        require(msg.sender == manager, \"Caller is not the manager.\");\r\n        _;\r\n    }\r\n\r\n    modifier onlyAdminOrManager() {\r\n        require(\r\n            admins[msg.sender] || msg.sender == manager,\r\n            \"Caller is not an admin or manager.\"\r\n        );\r\n        _;\r\n    }\r\n\r\n    modifier onlyCustomer() {\r\n        require(isCustomer[msg.sender], \"Caller is not a customer.\");\r\n        _;\r\n    }\r\n\r\n    // Add Admin\r\n    function addAdmin(address adminAddress) external onlyOwner {\r\n        admins[adminAddress] = true;\r\n        emit AdminAdded(adminAddress, true);\r\n    }\r\n\r\n    // Add customer\r\n    function registerCustomer() external {\r\n        require(!isCustomer[msg.sender], \"Customer already registered.\");\r\n        isCustomer[msg.sender] = true;\r\n        emit CustomerAdded(msg.sender);\r\n    }\r\n\r\n    // Approve customer's subscription on insurance\r\n    function approveInsurance(\r\n        address customerAddr,\r\n        uint256 _insuranceID,\r\n        uint256 payAmount,\r\n        uint256 payDate\r\n    ) external onlyAdminOrManager {\r\n        require(isCustomer[customerAddr], \"Customer not found.\");\r\n\r\n        // Get current customer\r\n        Customer storage currCustomer = customers[customerAddr];\r\n\r\n        // Check if customer has already subscribed to this insurance\r\n        for (uint i = 0; i < currCustomer.subscribedPackages.length; i++) {\r\n            require(\r\n                insuranceSubscribed[customerAddr][\r\n                    currCustomer.subscribedPackages[i]\r\n                ].insuranceID != _insuranceID,\r\n                \"This insurance has already been bought.\"\r\n            );\r\n        }\r\n\r\n        // Create a new insurance subscription\r\n        InsuranceSubscription\r\n            memory newInsuranceSubscription = InsuranceSubscription({\r\n                insuranceSubscriptionID: currCustomer.subscribedPackages.length,\r\n                insuranceID: _insuranceID,\r\n                payAmount: payAmount,\r\n                payDate: payDate,\r\n                autoPay: true,\r\n                insStatus: InsuranceStatus.Approved\r\n            });\r\n\r\n        // Add new insurance subscription\r\n        insuranceSubscribed[customerAddr][\r\n            currCustomer.subscribedPackages.length\r\n        ] = newInsuranceSubscription;\r\n\r\n        // Push the new package ID inside\r\n        currCustomer.subscribedPackages.push(\r\n            currCustomer.subscribedPackages.length\r\n        );\r\n\r\n        emit InsuranceApproved(\r\n            customerAddr,\r\n            currCustomer.subscribedPackages.length,\r\n            _insuranceID\r\n        );\r\n    }\r\n\r\n    function dailyInsCheck() external {\r\n        for (uint256 i = 0; i < addedCustomer.length; i++) {\r\n            address currCustomerAddress = addedCustomer[i];\r\n            Customer storage currCustomer = customers[currCustomerAddress];\r\n\r\n            uint256 customerPackageCount = currCustomer\r\n                .subscribedPackages\r\n                .length;\r\n            for (uint256 j = 0; j < customerPackageCount; j++) {\r\n                InsuranceSubscription\r\n                    storage currInsurance = insuranceSubscribed[\r\n                        currCustomerAddress\r\n                    ][currCustomer.subscribedPackages[j]];\r\n\r\n                if (currInsurance.insStatus != InsuranceStatus.Approved)\r\n                    continue;\r\n\r\n                // Check if need pay\r\n                if (block.timestamp >= currInsurance.payDate) {\r\n                    // Calculate is there any delay\r\n                    uint256 lateDays = (block.timestamp -\r\n                        currInsurance.payDate) / 1 days;\r\n\r\n                    // Check if within late payment limit\r\n                    if (lateDays < latePaymentLimit / 1 days) {\r\n                        // Check if auto pay is enabled\r\n                        if (currInsurance.autoPay) {\r\n                            if (\r\n                                customerBalances[currCustomerAddress] >=\r\n                                currInsurance.payAmount\r\n                            ) {\r\n                                makePayment(\r\n                                    currCustomerAddress,\r\n                                    currInsurance,\r\n                                    currInsurance.payAmount\r\n                                );\r\n                                emit StatusMessage(\r\n                                    \"Auto pay process completed successfully!\"\r\n                                );\r\n                            } else {\r\n                                emit ReminderSent(\r\n                                    currCustomerAddress,\r\n                                    \"Insufficient balance for auto pay\"\r\n                                );\r\n                            }\r\n                        } else {\r\n                            emit ReminderSent(\r\n                                currCustomerAddress,\r\n                                \"Customer needs to pay manually within 10 days.\"\r\n                            );\r\n                        }\r\n                    } else {\r\n                        currInsurance.insStatus = InsuranceStatus.Cancelled;\r\n                        emit InsuranceInactive(\r\n                            currCustomerAddress,\r\n                            currInsurance.insuranceSubscriptionID\r\n                        );\r\n                        emit StatusMessage(\r\n                            \"Insurance had been Cancelled due to overdue payment.\"\r\n                        );\r\n                    }\r\n                }\r\n            }\r\n        }\r\n    }\r\n\r\n    function manualPay(\r\n        uint256 _insuranceSubscriptionID\r\n    ) external payable onlyCustomer {\r\n        bool validity = chkSubscriptionValidityInCustomer(\r\n            msg.sender,\r\n            _insuranceSubscriptionID\r\n        );\r\n\r\n        if (validity == true) {\r\n            InsuranceSubscription storage currInsurance = insuranceSubscribed[\r\n                msg.sender\r\n            ][_insuranceSubscriptionID];\r\n\r\n            require(\r\n                currInsurance.insStatus == InsuranceStatus.Approved,\r\n                \"Insurance is not active.\"\r\n            );\r\n            require(\r\n                customerBalances[msg.sender] >= currInsurance.payAmount,\r\n                \"Insufficient balance.\"\r\n            );\r\n\r\n            makePayment(msg.sender, currInsurance, currInsurance.payAmount);\r\n            emit StatusMessage(\"Manual payment completed successfully!\");\r\n        } else {\r\n            revert(\"Insurance not exist.\");\r\n        }\r\n    }\r\n\r\n    function chkManualPayInsurance(\r\n        uint256 _insuranceSubscriptionID\r\n    ) external view onlyCustomer returns (uint256, uint256) {\r\n        return (\r\n            insuranceSubscribed[msg.sender][_insuranceSubscriptionID].payAmount,\r\n            insuranceSubscribed[msg.sender][_insuranceSubscriptionID].payDate\r\n        );\r\n    }\r\n\r\n    function makePayment(\r\n        address custAddress,\r\n        InsuranceSubscription storage insurance,\r\n        uint256 payAmount\r\n    ) internal {\r\n        customerBalances[custAddress] -= payAmount;\r\n        insurance.payDate += 30 days;\r\n        emit PaymentProcessed(\r\n            custAddress,\r\n            insurance.insuranceSubscriptionID,\r\n            payAmount\r\n        );\r\n    }\r\n\r\n    function addBalance() external payable onlyCustomer {\r\n        require(msg.value > 0, \"Amount must be greater than 0\");\r\n\r\n        customerBalances[msg.sender] += msg.value;\r\n\r\n        emit BalanceAdded(msg.sender, msg.value);\r\n        emit StatusMessage(\"Amount had been topped up successfully\");\r\n    }\r\n\r\n    function getCustomerBalance() external view onlyCustomer returns (uint256) {\r\n        return customerBalances[msg.sender];\r\n    }\r\n\r\n    function updateAutoPay(\r\n        uint256 _insuranceSubscriptionID\r\n    ) external onlyCustomer {\r\n        bool validity = chkSubscriptionValidityInCustomer(\r\n            msg.sender,\r\n            _insuranceSubscriptionID\r\n        );\r\n\r\n        if (validity == true) {\r\n            InsuranceSubscription storage currInsurance = insuranceSubscribed[\r\n                msg.sender\r\n            ][_insuranceSubscriptionID];\r\n            currInsurance.autoPay = !currInsurance.autoPay;\r\n            emit AutoPayStatusChanged(\r\n                msg.sender,\r\n                _insuranceSubscriptionID,\r\n                currInsurance.autoPay\r\n            );\r\n        } else {\r\n            revert(\"Insurance not exist.\");\r\n        }\r\n    }\r\n\r\n    function chkAutoPayStatus(\r\n        uint256 _insuranceSubscriptionID\r\n    ) external view onlyCustomer returns (bool) {\r\n        return\r\n            insuranceSubscribed[msg.sender][_insuranceSubscriptionID].autoPay;\r\n    }\r\n\r\n    function updatePayDate(\r\n        address customerAddress,\r\n        uint256 _insuranceSubscriptionID,\r\n        uint256 newPayDate\r\n    ) external onlyAdminOrManager {\r\n        require(\r\n            newPayDate >= block.timestamp,\r\n            \"Pay date should not be previous time.\"\r\n        );\r\n\r\n        bool validity = chkSubscriptionValidityInCustomer(\r\n            customerAddress,\r\n            _insuranceSubscriptionID\r\n        );\r\n\r\n        if (validity == true) {\r\n            InsuranceSubscription storage currInsurance = insuranceSubscribed[\r\n                customerAddress\r\n            ][_insuranceSubscriptionID];\r\n            currInsurance.payDate = newPayDate;\r\n            emit PayDateUpdated(\r\n                customerAddress,\r\n                _insuranceSubscriptionID,\r\n                currInsurance.payDate\r\n            );\r\n        } else {\r\n            revert(\"Insurance not exist.\");\r\n        }\r\n    }\r\n\r\n    function chkInsurancePayDate(\r\n        address customerAddress,\r\n        uint256 _insuranceSubscriptionID\r\n    ) external view onlyAdminOrManager returns (uint256) {\r\n        return\r\n            insuranceSubscribed[customerAddress][_insuranceSubscriptionID]\r\n                .payDate;\r\n    }\r\n\r\n    // Cancel Payment\r\n    function cancelInsurance(\r\n        uint256 _insuranceSubscriptionID\r\n    ) external onlyCustomer {\r\n        bool validity = chkSubscriptionValidityInCustomer(\r\n            msg.sender,\r\n            _insuranceSubscriptionID\r\n        );\r\n\r\n        if (validity == true) {\r\n            InsuranceSubscription storage currInsurance = insuranceSubscribed[\r\n                msg.sender\r\n            ][_insuranceSubscriptionID];\r\n            currInsurance.insStatus = InsuranceStatus.Cancelled;\r\n            emit CancelInsurance(\r\n                msg.sender,\r\n                _insuranceSubscriptionID,\r\n                currInsurance.insStatus\r\n            );\r\n        } else {\r\n            revert(\"Insurance not exist.\");\r\n        }\r\n    }\r\n\r\n    function chkCancelInsuranceStatus(\r\n        uint256 _insuranceSubscriptionID\r\n    ) external view onlyCustomer returns (string memory) {\r\n        InsuranceSubscription storage currInsurance = insuranceSubscribed[\r\n            msg.sender\r\n        ][_insuranceSubscriptionID];\r\n        if (currInsurance.insStatus == InsuranceStatus.Pending) {\r\n            return \"Pending\";\r\n        } else if (currInsurance.insStatus == InsuranceStatus.Approved) {\r\n            return \"Approved\";\r\n        } else {\r\n            return \"Cancelled\";\r\n        }\r\n    }\r\n\r\n    function chkSubscriptionValidityInCustomer(\r\n        address custAddress,\r\n        uint256 _insuranceSubscriptionID\r\n    ) private view returns (bool validity) {\r\n        Customer storage currCustomer = customers[custAddress];\r\n        for (uint256 i = 0; i < currCustomer.subscribedPackages.length; i++) {\r\n            if (\r\n                insuranceSubscribed[custAddress][\r\n                    currCustomer.subscribedPackages[i]\r\n                ].insuranceSubscriptionID == _insuranceSubscriptionID\r\n            ) {\r\n                return true;\r\n            }\r\n        }\r\n        return false;\r\n    }\r\n\r\n    // Withdraw Ether from the contract\r\n    function withdrawMoney(uint256 amount) public onlyOwner {\r\n        require(\r\n            amount <= address(this).balance,\r\n            \"Insufficient balance to withdraw\"\r\n        );\r\n        payable(msg.sender).transfer(amount);\r\n    }\r\n\r\n    // View the total Ether balance in the contract\r\n    function viewTotalMoney() public view onlyOwner returns (uint256) {\r\n        return address(this).balance;\r\n    }\r\n}\r\n",
  "sourcePath": "C:\\Users\\Asus\\Desktop\\blockchain\\Assignment\\Great_Global\\Danny_Test\\SponsorAnimals\\contracts\\PaymentModule.sol",
  "compiler": {
    "name": "solc",
    "version": "0.8.0+commit.c7dfd78e.Emscripten.clang"
  },
  "schemaVersion": "3.4.16",
  "updatedAt": "2024-09-26T00:27:17.842Z",
  "networkType": "ethereum",
  "devdoc": {
    "kind": "dev",
    "methods": {},
    "version": 1
  },
  "userdoc": {
    "kind": "user",
    "methods": {},
    "version": 1
  }
}