{
  "contractName": "PaymentModule",
  "abi": [
    {
      "inputs": [],
      "stateMutability": "nonpayable",
      "type": "constructor"
    },
    {
      "anonymous": false,
      "inputs": [
        {
          "indexed": true,
          "internalType": "address",
          "name": "admin",
          "type": "address"
        },
        {
          "indexed": false,
          "internalType": "bool",
          "name": "status",
          "type": "bool"
        }
      ],
      "name": "AdminAdded",
      "type": "event"
    },
    {
      "anonymous": false,
      "inputs": [
        {
          "indexed": true,
          "internalType": "address",
          "name": "customer",
          "type": "address"
        },
        {
          "indexed": false,
          "internalType": "uint256",
          "name": "insurancePurchaseID",
          "type": "uint256"
        },
        {
          "indexed": false,
          "internalType": "bool",
          "name": "newStatus",
          "type": "bool"
        }
      ],
      "name": "AutoPayStatusChanged",
      "type": "event"
    },
    {
      "anonymous": false,
      "inputs": [
        {
          "indexed": true,
          "internalType": "address",
          "name": "customer",
          "type": "address"
        },
        {
          "indexed": false,
          "internalType": "uint256",
          "name": "amount",
          "type": "uint256"
        }
      ],
      "name": "BalanceAdded",
      "type": "event"
    },
    {
      "anonymous": false,
      "inputs": [
        {
          "indexed": true,
          "internalType": "address",
          "name": "customer",
          "type": "address"
        },
        {
          "indexed": false,
          "internalType": "uint256",
          "name": "insurancePurchaseID",
          "type": "uint256"
        },
        {
          "indexed": false,
          "internalType": "enum PaymentModule.InsuranceStatus",
          "name": "insStatus",
          "type": "uint8"
        }
      ],
      "name": "CancelInsurance",
      "type": "event"
    },
    {
      "anonymous": false,
      "inputs": [
        {
          "indexed": true,
          "internalType": "address",
          "name": "customer",
          "type": "address"
        }
      ],
      "name": "CustomerAdded",
      "type": "event"
    },
    {
      "anonymous": false,
      "inputs": [
        {
          "indexed": true,
          "internalType": "address",
          "name": "customer",
          "type": "address"
        },
        {
          "indexed": false,
          "internalType": "uint256",
          "name": "insurancePurchaseID",
          "type": "uint256"
        },
        {
          "indexed": false,
          "internalType": "uint256",
          "name": "insuranceID",
          "type": "uint256"
        }
      ],
      "name": "InsuranceApproved",
      "type": "event"
    },
    {
      "anonymous": false,
      "inputs": [
        {
          "indexed": true,
          "internalType": "address",
          "name": "customer",
          "type": "address"
        },
        {
          "indexed": false,
          "internalType": "uint256",
          "name": "insurancePurchaseID",
          "type": "uint256"
        }
      ],
      "name": "InsuranceInactive",
      "type": "event"
    },
    {
      "anonymous": false,
      "inputs": [
        {
          "indexed": true,
          "internalType": "address",
          "name": "customer",
          "type": "address"
        },
        {
          "indexed": false,
          "internalType": "uint256",
          "name": "insurancePurchaseID",
          "type": "uint256"
        },
        {
          "indexed": false,
          "internalType": "uint256",
          "name": "newPayDate",
          "type": "uint256"
        }
      ],
      "name": "PayDateUpdated",
      "type": "event"
    },
    {
      "anonymous": false,
      "inputs": [
        {
          "indexed": true,
          "internalType": "address",
          "name": "customer",
          "type": "address"
        },
        {
          "indexed": false,
          "internalType": "uint256",
          "name": "insurancePurchaseID",
          "type": "uint256"
        },
        {
          "indexed": false,
          "internalType": "uint256",
          "name": "amount",
          "type": "uint256"
        }
      ],
      "name": "PaymentProcessed",
      "type": "event"
    },
    {
      "anonymous": false,
      "inputs": [
        {
          "indexed": true,
          "internalType": "address",
          "name": "customer",
          "type": "address"
        },
        {
          "indexed": false,
          "internalType": "string",
          "name": "message",
          "type": "string"
        }
      ],
      "name": "ReminderSent",
      "type": "event"
    },
    {
      "anonymous": false,
      "inputs": [
        {
          "indexed": false,
          "internalType": "string",
          "name": "msg",
          "type": "string"
        }
      ],
      "name": "StatusMessage",
      "type": "event"
    },
    {
      "inputs": [
        {
          "internalType": "address",
          "name": "",
          "type": "address"
        }
      ],
      "name": "admins",
      "outputs": [
        {
          "internalType": "bool",
          "name": "",
          "type": "bool"
        }
      ],
      "stateMutability": "view",
      "type": "function",
      "constant": true
    },
    {
      "inputs": [
        {
          "internalType": "address",
          "name": "",
          "type": "address"
        }
      ],
      "name": "customerBalances",
      "outputs": [
        {
          "internalType": "uint256",
          "name": "",
          "type": "uint256"
        }
      ],
      "stateMutability": "view",
      "type": "function",
      "constant": true
    },
    {
      "inputs": [
        {
          "internalType": "address",
          "name": "",
          "type": "address"
        },
        {
          "internalType": "uint256",
          "name": "",
          "type": "uint256"
        }
      ],
      "name": "insuranceSubscribed",
      "outputs": [
        {
          "internalType": "uint256",
          "name": "insuranceSubscriptionID",
          "type": "uint256"
        },
        {
          "internalType": "uint256",
          "name": "insuranceID",
          "type": "uint256"
        },
        {
          "internalType": "uint256",
          "name": "payAmount",
          "type": "uint256"
        },
        {
          "internalType": "uint256",
          "name": "payDate",
          "type": "uint256"
        },
        {
          "internalType": "bool",
          "name": "autoPay",
          "type": "bool"
        },
        {
          "internalType": "enum PaymentModule.InsuranceStatus",
          "name": "insStatus",
          "type": "uint8"
        }
      ],
      "stateMutability": "view",
      "type": "function",
      "constant": true
    },
    {
      "inputs": [],
      "name": "latePaymentLimit",
      "outputs": [
        {
          "internalType": "uint256",
          "name": "",
          "type": "uint256"
        }
      ],
      "stateMutability": "view",
      "type": "function",
      "constant": true
    },
    {
      "inputs": [],
      "name": "manager",
      "outputs": [
        {
          "internalType": "address",
          "name": "",
          "type": "address"
        }
      ],
      "stateMutability": "view",
      "type": "function",
      "constant": true
    },
    {
      "inputs": [
        {
          "internalType": "address",
          "name": "adminAddress",
          "type": "address"
        }
      ],
      "name": "addAdmin",
      "outputs": [],
      "stateMutability": "nonpayable",
      "type": "function"
    },
    {
      "inputs": [],
      "name": "registerCustomer",
      "outputs": [],
      "stateMutability": "nonpayable",
      "type": "function"
    },
    {
      "inputs": [
        {
          "internalType": "address",
          "name": "customerAddr",
          "type": "address"
        },
        {
          "internalType": "uint256",
          "name": "_insuranceID",
          "type": "uint256"
        },
        {
          "internalType": "uint256",
          "name": "payAmount",
          "type": "uint256"
        },
        {
          "internalType": "uint256",
          "name": "payDate",
          "type": "uint256"
        }
      ],
      "name": "approveInsurance",
      "outputs": [],
      "stateMutability": "nonpayable",
      "type": "function"
    },
    {
      "inputs": [],
      "name": "dailyInsCheck",
      "outputs": [],
      "stateMutability": "nonpayable",
      "type": "function"
    },
    {
      "inputs": [
        {
          "internalType": "uint256",
          "name": "_insuranceSubscriptionID",
          "type": "uint256"
        }
      ],
      "name": "manualPay",
      "outputs": [],
      "stateMutability": "payable",
      "type": "function",
      "payable": true
    },
    {
      "inputs": [],
      "name": "addBalance",
      "outputs": [],
      "stateMutability": "payable",
      "type": "function",
      "payable": true
    },
    {
      "inputs": [
        {
          "internalType": "uint256",
          "name": "_insuranceSubscriptionID",
          "type": "uint256"
        }
      ],
      "name": "updateAutoPay",
      "outputs": [],
      "stateMutability": "nonpayable",
      "type": "function"
    },
    {
      "inputs": [],
      "name": "getCustomerBalance",
      "outputs": [
        {
          "internalType": "uint256",
          "name": "",
          "type": "uint256"
        }
      ],
      "stateMutability": "view",
      "type": "function",
      "constant": true
    },
    {
      "inputs": [
        {
          "internalType": "address",
          "name": "customerAddress",
          "type": "address"
        },
        {
          "internalType": "uint256",
          "name": "_insuranceSubscriptionID",
          "type": "uint256"
        },
        {
          "internalType": "uint256",
          "name": "newPayDate",
          "type": "uint256"
        }
      ],
      "name": "updatePayDate",
      "outputs": [],
      "stateMutability": "nonpayable",
      "type": "function"
    },
    {
      "inputs": [
        {
          "internalType": "uint256",
          "name": "_insuranceSubscriptionID",
          "type": "uint256"
        }
      ],
      "name": "cancelInsurance",
      "outputs": [],
      "stateMutability": "nonpayable",
      "type": "function"
    }
  ],
  "bytecode": "0x6080604052600060015534801561001557600080fd5b5033600660006101000a81548173ffffffffffffffffffffffffffffffffffffffff021916908373ffffffffffffffffffffffffffffffffffffffff160217905550612950806100666000396000f3fe6080604052600436106100e85760003560e01c8063791d66a11161008a578063a853409a11610059578063a853409a146102c4578063b163cc38146102ef578063b77d552d146102f9578063dcd4e56614610322576100e8565b8063791d66a11461021e57806380ba7b2e1461025b5780638b958c011461027257806390ee83271461029b576100e8565b8063481c6a75116100c6578063481c6a751461016c5780635cc185461461019757806370480275146101b357806373805ff5146101dc576100e8565b806327357011146100ed578063429b62e514610104578063450a419514610141575b600080fd5b3480156100f957600080fd5b5061010261034b565b005b34801561011057600080fd5b5061012b60048036038101906101269190611d2a565b61040b565b60405161013891906123d7565b60405180910390f35b34801561014d57600080fd5b5061015661042b565b60405161016391906125d2565b60405180910390f35b34801561017857600080fd5b50610181610432565b60405161018e91906123bc565b60405180910390f35b6101b160048036038101906101ac9190611e41565b610458565b005b3480156101bf57600080fd5b506101da60048036038101906101d59190611d2a565b61065b565b005b3480156101e857600080fd5b5061020360048036038101906101fe9190611d53565b610795565b60405161021596959493929190612668565b60405180910390f35b34801561022a57600080fd5b5061024560048036038101906102409190611d2a565b6107f8565b60405161025291906125d2565b60405180910390f35b34801561026757600080fd5b50610270610810565b005b34801561027e57600080fd5b5061029960048036038101906102949190611e41565b610cab565b005b3480156102a757600080fd5b506102c260048036038101906102bd9190611e41565b610eca565b005b3480156102d057600080fd5b506102d96110c4565b6040516102e691906125d2565b60405180910390f35b6102f7611200565b005b34801561030557600080fd5b50610320600480360381019061031b9190611d8f565b611414565b005b34801561032e57600080fd5b5061034960048036038101906103449190611dde565b61160f565b005b6000339080600181540180825580915050600190039060005260206000200160009091909190916101000a81548173ffffffffffffffffffffffffffffffffffffffff021916908373ffffffffffffffffffffffffffffffffffffffff160217905550600160008154809291906103c190612802565b91905055503373ffffffffffffffffffffffffffffffffffffffff167fcd118a02bd36f224f6f1b93812f78d2bbc2c2dc1bc0f60c176e3b4fe09f1483f60405160405180910390a2565b60026020528060005260406000206000915054906101000a900460ff1681565b620d2f0081565b600660009054906101000a900473ffffffffffffffffffffffffffffffffffffffff1681565b60006104643383611a36565b9050600115158115151415610657576000600460003373ffffffffffffffffffffffffffffffffffffffff1673ffffffffffffffffffffffffffffffffffffffff1681526020019081526020016000206000848152602001908152602001600020905060016002811115610501577f4e487b7100000000000000000000000000000000000000000000000000000000600052602160045260246000fd5b8160040160019054906101000a900460ff16600281111561054b577f4e487b7100000000000000000000000000000000000000000000000000000000600052602160045260246000fd5b1461058b576040517f08c379a000000000000000000000000000000000000000000000000000000000815260040161058290612552565b60405180910390fd5b8060020154600560003373ffffffffffffffffffffffffffffffffffffffff1673ffffffffffffffffffffffffffffffffffffffff168152602001908152602001600020541015610611576040517f08c379a000000000000000000000000000000000000000000000000000000000815260040161060890612572565b60405180910390fd5b61062033828360020154611c33565b7f59317f1c2df5b48bcbedd4fa30236d9e2863d8e0f295a5c55f874c00338b995360405161064d906124f2565b60405180910390a1505b5050565b600660009054906101000a900473ffffffffffffffffffffffffffffffffffffffff1673ffffffffffffffffffffffffffffffffffffffff163373ffffffffffffffffffffffffffffffffffffffff16146106eb576040517f08c379a00000000000000000000000000000000000000000000000000000000081526004016106e290612452565b60405180910390fd5b6001600260008373ffffffffffffffffffffffffffffffffffffffff1673ffffffffffffffffffffffffffffffffffffffff16815260200190815260200160002060006101000a81548160ff0219169083151502179055508073ffffffffffffffffffffffffffffffffffffffff167f8a7039f4ea6f86a6a98d9c1efb0ea9d190f6b3fa37c32627cf48f767f51e36d5600160405161078a91906123d7565b60405180910390a250565b6004602052816000526040600020602052806000526040600020600091509150508060000154908060010154908060020154908060030154908060040160009054906101000a900460ff16908060040160019054906101000a900460ff16905086565b60056020528060005260406000206000915090505481565b60005b600080549050811015610ca857600080828154811061085b577f4e487b7100000000000000000000000000000000000000000000000000000000600052603260045260246000fd5b9060005260206000200160009054906101000a900473ffffffffffffffffffffffffffffffffffffffff1690506000600360008373ffffffffffffffffffffffffffffffffffffffff1673ffffffffffffffffffffffffffffffffffffffff168152602001908152602001600020905060008160000180549050905060005b81811015610c91576000600460008673ffffffffffffffffffffffffffffffffffffffff1673ffffffffffffffffffffffffffffffffffffffff1681526020019081526020016000206000856000018481548110610961577f4e487b7100000000000000000000000000000000000000000000000000000000600052603260045260246000fd5b906000526020600020015481526020019081526020016000209050600160028111156109b6577f4e487b7100000000000000000000000000000000000000000000000000000000600052602160045260246000fd5b8160040160019054906101000a900460ff166002811115610a00577f4e487b7100000000000000000000000000000000000000000000000000000000600052602160045260246000fd5b14610a0b5750610c7e565b80600301544210610c7c57600062015180826003015442610a2c9190612761565b610a369190612730565b905062015180620d2f00610a4a9190612730565b811015610b9f578160040160009054906101000a900460ff1615610b4d578160020154600560008873ffffffffffffffffffffffffffffffffffffffff1673ffffffffffffffffffffffffffffffffffffffff1681526020019081526020016000205410610afb57610ac186838460020154611c33565b7f59317f1c2df5b48bcbedd4fa30236d9e2863d8e0f295a5c55f874c00338b9953604051610aee906124d2565b60405180910390a1610b48565b8573ffffffffffffffffffffffffffffffffffffffff167f9b2ad96a106f22e7da7ab70854c90fa79af78ec7cb5240e520c1e7e4d94d6a68604051610b3f90612432565b60405180910390a25b610b9a565b8573ffffffffffffffffffffffffffffffffffffffff167f9b2ad96a106f22e7da7ab70854c90fa79af78ec7cb5240e520c1e7e4d94d6a68604051610b91906125b2565b60405180910390a25b610c7a565b60028260040160016101000a81548160ff02191690836002811115610bed577f4e487b7100000000000000000000000000000000000000000000000000000000600052602160045260246000fd5b02179055508573ffffffffffffffffffffffffffffffffffffffff167f5ee90b89f198c1100a6154d9a4bd805e7a470cfbd32dc4f84e42c6089adf9b688360000154604051610c3c91906125d2565b60405180910390a27f59317f1c2df5b48bcbedd4fa30236d9e2863d8e0f295a5c55f874c00338b9953604051610c7190612412565b60405180910390a15b505b505b8080610c8990612802565b9150506108da565b505050508080610ca090612802565b915050610813565b50565b60005b600080549050811015610da05760008181548110610cf5577f4e487b7100000000000000000000000000000000000000000000000000000000600052603260045260246000fd5b9060005260206000200160009054906101000a900473ffffffffffffffffffffffffffffffffffffffff1673ffffffffffffffffffffffffffffffffffffffff163373ffffffffffffffffffffffffffffffffffffffff1614610d8d576040517f08c379a0000000000000000000000000000000000000000000000000000000008152600401610d8490612512565b60405180910390fd5b8080610d9890612802565b915050610cae565b506000610dad3383611a36565b9050600115158115151415610ec6576000600460003373ffffffffffffffffffffffffffffffffffffffff1673ffffffffffffffffffffffffffffffffffffffff1681526020019081526020016000206000848152602001908152602001600020905060028160040160016101000a81548160ff02191690836002811115610e5e577f4e487b7100000000000000000000000000000000000000000000000000000000600052602160045260246000fd5b02179055503373ffffffffffffffffffffffffffffffffffffffff167f2b6a6c3460d70ff53160b5d29d6275c9c703fa573e82ba269a779d0767e04b2c848360040160019054906101000a900460ff16604051610ebc929190612616565b60405180910390a2505b5050565b60005b600080549050811015610fbf5760008181548110610f14577f4e487b7100000000000000000000000000000000000000000000000000000000600052603260045260246000fd5b9060005260206000200160009054906101000a900473ffffffffffffffffffffffffffffffffffffffff1673ffffffffffffffffffffffffffffffffffffffff163373ffffffffffffffffffffffffffffffffffffffff1614610fac576040517f08c379a0000000000000000000000000000000000000000000000000000000008152600401610fa390612512565b60405180910390fd5b8080610fb790612802565b915050610ecd565b506000610fcc3383611a36565b90506001151581151514156110c0576000600460003373ffffffffffffffffffffffffffffffffffffffff1673ffffffffffffffffffffffffffffffffffffffff168152602001908152602001600020600084815260200190815260200160002090508060040160009054906101000a900460ff16158160040160006101000a81548160ff0219169083151502179055503373ffffffffffffffffffffffffffffffffffffffff167f4da9aec0f36dc52c3a2f5705c3939e2d711626ea1713afb3a5fdba31e9313c0f848360040160009054906101000a900460ff166040516110b69291906125ed565b60405180910390a2505b5050565b6000805b6000805490508110156111ba576000818154811061110f577f4e487b7100000000000000000000000000000000000000000000000000000000600052603260045260246000fd5b9060005260206000200160009054906101000a900473ffffffffffffffffffffffffffffffffffffffff1673ffffffffffffffffffffffffffffffffffffffff163373ffffffffffffffffffffffffffffffffffffffff16146111a7576040517f08c379a000000000000000000000000000000000000000000000000000000000815260040161119e90612512565b60405180910390fd5b80806111b290612802565b9150506110c8565b50600560003373ffffffffffffffffffffffffffffffffffffffff1673ffffffffffffffffffffffffffffffffffffffff16815260200190815260200160002054905090565b60005b6000805490508110156112f5576000818154811061124a577f4e487b7100000000000000000000000000000000000000000000000000000000600052603260045260246000fd5b9060005260206000200160009054906101000a900473ffffffffffffffffffffffffffffffffffffffff1673ffffffffffffffffffffffffffffffffffffffff163373ffffffffffffffffffffffffffffffffffffffff16146112e2576040517f08c379a00000000000000000000000000000000000000000000000000000000081526004016112d990612512565b60405180910390fd5b80806112ed90612802565b915050611203565b5060003411611339576040517f08c379a0000000000000000000000000000000000000000000000000000000008152600401611330906124b2565b60405180910390fd5b34600560003373ffffffffffffffffffffffffffffffffffffffff1673ffffffffffffffffffffffffffffffffffffffff168152602001908152602001600020600082825461138891906126da565b925050819055503373ffffffffffffffffffffffffffffffffffffffff167fe96dd7a15a3974e8e7d5eb80de2cb6fd69907a1ee089170cd976cfffaedfa8ac346040516113d591906125d2565b60405180910390a27f59317f1c2df5b48bcbedd4fa30236d9e2863d8e0f295a5c55f874c00338b995360405161140a90612472565b60405180910390a1565b600260003373ffffffffffffffffffffffffffffffffffffffff1673ffffffffffffffffffffffffffffffffffffffff16815260200190815260200160002060009054906101000a900460ff16806114b95750600660009054906101000a900473ffffffffffffffffffffffffffffffffffffffff1673ffffffffffffffffffffffffffffffffffffffff163373ffffffffffffffffffffffffffffffffffffffff16145b6114f8576040517f08c379a00000000000000000000000000000000000000000000000000000000081526004016114ef906123f2565b60405180910390fd5b4281101561153b576040517f08c379a000000000000000000000000000000000000000000000000000000000815260040161153290612492565b60405180910390fd5b60006115478484611a36565b9050600115158115151415611609576000600460008673ffffffffffffffffffffffffffffffffffffffff1673ffffffffffffffffffffffffffffffffffffffff168152602001908152602001600020600085815260200190815260200160002090508281600301819055508473ffffffffffffffffffffffffffffffffffffffff167f36442393942618b4d1d34dbb61cc374882c1136e4aa18a43486977fddb3f22ca8583600301546040516115ff92919061263f565b60405180910390a2505b50505050565b600260003373ffffffffffffffffffffffffffffffffffffffff1673ffffffffffffffffffffffffffffffffffffffff16815260200190815260200160002060009054906101000a900460ff16806116b45750600660009054906101000a900473ffffffffffffffffffffffffffffffffffffffff1673ffffffffffffffffffffffffffffffffffffffff163373ffffffffffffffffffffffffffffffffffffffff16145b6116f3576040517f08c379a00000000000000000000000000000000000000000000000000000000081526004016116ea906123f2565b60405180910390fd5b6000600360008673ffffffffffffffffffffffffffffffffffffffff1673ffffffffffffffffffffffffffffffffffffffff168152602001908152602001600020905060005b81600001805490508110156118375784600460008873ffffffffffffffffffffffffffffffffffffffff1673ffffffffffffffffffffffffffffffffffffffff16815260200190815260200160002060008460000184815481106117c6577f4e487b7100000000000000000000000000000000000000000000000000000000600052603260045260246000fd5b90600052602060002001548152602001908152602001600020600101541415611824576040517f08c379a000000000000000000000000000000000000000000000000000000000815260040161181b90612532565b60405180910390fd5b808061182f90612802565b915050611739565b5060006040518060c0016040528083600001805490508152602001868152602001858152602001848152602001600115158152602001600160028111156118a7577f4e487b7100000000000000000000000000000000000000000000000000000000600052602160045260246000fd5b815250905080600460008873ffffffffffffffffffffffffffffffffffffffff1673ffffffffffffffffffffffffffffffffffffffff1681526020019081526020016000206000846000018054905081526020019081526020016000206000820151816000015560208201518160010155604082015181600201556060820151816003015560808201518160040160006101000a81548160ff02191690831515021790555060a08201518160040160016101000a81548160ff0219169083600281111561199d577f4e487b7100000000000000000000000000000000000000000000000000000000600052602160045260246000fd5b021790555090505081600001826000018054905090806001815401808255809150506001900390600052602060002001600090919091909150558573ffffffffffffffffffffffffffffffffffffffff167fc8892b36e5e192c72f691d1513641216fc24252a21a37a5939b5b677270adfb4836000018054905087604051611a2692919061263f565b60405180910390a2505050505050565b600080600360008573ffffffffffffffffffffffffffffffffffffffff1673ffffffffffffffffffffffffffffffffffffffff168152602001908152602001600020905060005b8160000180549050811015611c265783600460008773ffffffffffffffffffffffffffffffffffffffff1673ffffffffffffffffffffffffffffffffffffffff1681526020019081526020016000206000846000018481548110611b0a577f4e487b7100000000000000000000000000000000000000000000000000000000600052603260045260246000fd5b906000526020600020015481526020019081526020016000206000015414611b67576040517f08c379a0000000000000000000000000000000000000000000000000000000008152600401611b5e90612592565b60405180910390fd5b83600460008773ffffffffffffffffffffffffffffffffffffffff1673ffffffffffffffffffffffffffffffffffffffff1681526020019081526020016000206000846000018481548110611be5577f4e487b7100000000000000000000000000000000000000000000000000000000600052603260045260246000fd5b90600052602060002001548152602001908152602001600020600001541415611c1357600192505050611c2d565b8080611c1e90612802565b915050611a7d565b5060009150505b92915050565b80600560008573ffffffffffffffffffffffffffffffffffffffff1673ffffffffffffffffffffffffffffffffffffffff1681526020019081526020016000206000828254611c829190612761565b9250508190555062278d00826003016000828254611ca091906126da565b925050819055508273ffffffffffffffffffffffffffffffffffffffff167f7bd379b31566817ff79103ff210fc7d86fa755c249a8dc25f96618362789e191836000015483604051611cf392919061263f565b60405180910390a2505050565b600081359050611d0f816128ec565b92915050565b600081359050611d2481612903565b92915050565b600060208284031215611d3c57600080fd5b6000611d4a84828501611d00565b91505092915050565b60008060408385031215611d6657600080fd5b6000611d7485828601611d00565b9250506020611d8585828601611d15565b9150509250929050565b600080600060608486031215611da457600080fd5b6000611db286828701611d00565b9350506020611dc386828701611d15565b9250506040611dd486828701611d15565b9150509250925092565b60008060008060808587031215611df457600080fd5b6000611e0287828801611d00565b9450506020611e1387828801611d15565b9350506040611e2487828801611d15565b9250506060611e3587828801611d15565b91505092959194509250565b600060208284031215611e5357600080fd5b6000611e6184828501611d15565b91505092915050565b611e7381612795565b82525050565b611e82816127a7565b82525050565b611e91816127f0565b82525050565b6000611ea46022836126c9565b91507f43616c6c6572206973206e6f7420616e2061646d696e206f72206d616e61676560008301527f722e0000000000000000000000000000000000000000000000000000000000006020830152604082019050919050565b6000611f0a6034836126c9565b91507f496e737572616e636520686164206265656e2043616e63656c6c65642064756560008301527f20746f206f766572647565207061796d656e742e0000000000000000000000006020830152604082019050919050565b6000611f706021836126c9565b91507f496e73756666696369656e742062616c616e636520666f72206175746f20706160008301527f79000000000000000000000000000000000000000000000000000000000000006020830152604082019050919050565b6000611fd6601a836126c9565b91507f43616c6c6572206973206e6f7420746865206d616e616765722e0000000000006000830152602082019050919050565b60006120166026836126c9565b91507f416d6f756e7420686164206265656e20746f707065642075702073756363657360008301527f7366756c6c7900000000000000000000000000000000000000000000000000006020830152604082019050919050565b600061207c6025836126c9565b91507f50617920646174652073686f756c64206e6f742062652070726576696f75732060008301527f74696d652e0000000000000000000000000000000000000000000000000000006020830152604082019050919050565b60006120e2601d836126c9565b91507f416d6f756e74206d7573742062652067726561746572207468616e20300000006000830152602082019050919050565b60006121226028836126c9565b91507f4175746f207061792070726f6365737320636f6d706c6574656420737563636560008301527f737366756c6c79210000000000000000000000000000000000000000000000006020830152604082019050919050565b60006121886026836126c9565b91507f4d616e75616c207061796d656e7420636f6d706c65746564207375636365737360008301527f66756c6c792100000000000000000000000000000000000000000000000000006020830152604082019050919050565b60006121ee6019836126c9565b91507f43616c6c6572206973206e6f74206120637573746f6d65722e000000000000006000830152602082019050919050565b600061222e6027836126c9565b91507f5468697320696e737572616e63652068617320616c7265616479206265656e2060008301527f626f756768742e000000000000000000000000000000000000000000000000006020830152604082019050919050565b60006122946018836126c9565b91507f496e737572616e6365206973206e6f74206163746976652e00000000000000006000830152602082019050919050565b60006122d46015836126c9565b91507f496e73756666696369656e74207061796d656e742e00000000000000000000006000830152602082019050919050565b60006123146014836126c9565b91507f496e737572616e6365206e6f742065786973742e0000000000000000000000006000830152602082019050919050565b6000612354602e836126c9565b91507f437573746f6d6572206e6565647320746f20706179206d616e75616c6c79207760008301527f697468696e20313020646179732e0000000000000000000000000000000000006020830152604082019050919050565b6123b6816127e6565b82525050565b60006020820190506123d16000830184611e6a565b92915050565b60006020820190506123ec6000830184611e79565b92915050565b6000602082019050818103600083015261240b81611e97565b9050919050565b6000602082019050818103600083015261242b81611efd565b9050919050565b6000602082019050818103600083015261244b81611f63565b9050919050565b6000602082019050818103600083015261246b81611fc9565b9050919050565b6000602082019050818103600083015261248b81612009565b9050919050565b600060208201905081810360008301526124ab8161206f565b9050919050565b600060208201905081810360008301526124cb816120d5565b9050919050565b600060208201905081810360008301526124eb81612115565b9050919050565b6000602082019050818103600083015261250b8161217b565b9050919050565b6000602082019050818103600083015261252b816121e1565b9050919050565b6000602082019050818103600083015261254b81612221565b9050919050565b6000602082019050818103600083015261256b81612287565b9050919050565b6000602082019050818103600083015261258b816122c7565b9050919050565b600060208201905081810360008301526125ab81612307565b9050919050565b600060208201905081810360008301526125cb81612347565b9050919050565b60006020820190506125e760008301846123ad565b92915050565b600060408201905061260260008301856123ad565b61260f6020830184611e79565b9392505050565b600060408201905061262b60008301856123ad565b6126386020830184611e88565b9392505050565b600060408201905061265460008301856123ad565b61266160208301846123ad565b9392505050565b600060c08201905061267d60008301896123ad565b61268a60208301886123ad565b61269760408301876123ad565b6126a460608301866123ad565b6126b16080830185611e79565b6126be60a0830184611e88565b979650505050505050565b600082825260208201905092915050565b60006126e5826127e6565b91506126f0836127e6565b9250827fffffffffffffffffffffffffffffffffffffffffffffffffffffffffffffffff038211156127255761272461284b565b5b828201905092915050565b600061273b826127e6565b9150612746836127e6565b9250826127565761275561287a565b5b828204905092915050565b600061276c826127e6565b9150612777836127e6565b92508282101561278a5761278961284b565b5b828203905092915050565b60006127a0826127c6565b9050919050565b60008115159050919050565b60008190506127c1826128d8565b919050565b600073ffffffffffffffffffffffffffffffffffffffff82169050919050565b6000819050919050565b60006127fb826127b3565b9050919050565b600061280d826127e6565b91507fffffffffffffffffffffffffffffffffffffffffffffffffffffffffffffffff8214156128405761283f61284b565b5b600182019050919050565b7f4e487b7100000000000000000000000000000000000000000000000000000000600052601160045260246000fd5b7f4e487b7100000000000000000000000000000000000000000000000000000000600052601260045260246000fd5b7f4e487b7100000000000000000000000000000000000000000000000000000000600052602160045260246000fd5b600381106128e9576128e86128a9565b5b50565b6128f581612795565b811461290057600080fd5b50565b61290c816127e6565b811461291757600080fd5b5056fea264697066735822122066a6bf0ab53f621cb96ff4a1e13bc2679add20e51c7e88523ddcf0df761558ec64736f6c63430008000033",
  "immutableReferences": {},
  "source": "// SPDX-License-Identifier: MIT\r\npragma solidity ^0.8.0;\r\n\r\ncontract PaymentModule {\r\n    enum InsuranceStatus {\r\n        Pending,\r\n        Approved,\r\n        Cancelled\r\n    }\r\n\r\n    struct InsuranceSubscription {\r\n        uint256 insuranceSubscriptionID;\r\n        uint256 insuranceID;\r\n        uint256 payAmount;\r\n        uint256 payDate;\r\n        bool autoPay;\r\n        InsuranceStatus insStatus;\r\n    }\r\n\r\n    struct Customer {\r\n        uint256[] subscribedPackages;\r\n    }\r\n\r\n    address[] private addedCustomer;\r\n    uint256 private custCount = 0;\r\n\r\n    uint256 public constant latePaymentLimit = 10 days;\r\n\r\n    mapping(address => bool) public admins;\r\n    mapping(address => Customer) private customers;\r\n    mapping(address => mapping(uint256 => InsuranceSubscription))\r\n        public insuranceSubscribed;\r\n    mapping(address => uint256) public customerBalances;\r\n\r\n    event AdminAdded(address indexed admin, bool status);\r\n    event CustomerAdded(address indexed customer);\r\n    event InsuranceApproved(\r\n        address indexed customer,\r\n        uint256 insurancePurchaseID,\r\n        uint256 insuranceID\r\n    );\r\n    event InsuranceInactive(\r\n        address indexed customer,\r\n        uint256 insurancePurchaseID\r\n    );\r\n    event ReminderSent(address indexed customer, string message);\r\n    event StatusMessage(string msg);\r\n    event PaymentProcessed(\r\n        address indexed customer,\r\n        uint256 insurancePurchaseID,\r\n        uint256 amount\r\n    );\r\n    event BalanceAdded(address indexed customer, uint256 amount);\r\n    event AutoPayStatusChanged(\r\n        address indexed customer,\r\n        uint256 insurancePurchaseID,\r\n        bool newStatus\r\n    );\r\n    event PayDateUpdated(\r\n        address indexed customer,\r\n        uint256 insurancePurchaseID,\r\n        uint256 newPayDate\r\n    );\r\n    event CancelInsurance(\r\n        address indexed customer,\r\n        uint256 insurancePurchaseID,\r\n        InsuranceStatus insStatus\r\n    );\r\n\r\n    // Set the person who deploys as manager\r\n    address public manager;\r\n\r\n    constructor() {\r\n        manager = msg.sender;\r\n    }\r\n\r\n    // Modifier\r\n    modifier onlyManager() {\r\n        require(msg.sender == manager, \"Caller is not the manager.\");\r\n        _;\r\n    }\r\n\r\n    modifier onlyAdminOrManager() {\r\n        require(\r\n            admins[msg.sender] || msg.sender == manager,\r\n            \"Caller is not an admin or manager.\"\r\n        );\r\n        _;\r\n    }\r\n\r\n    modifier onlyCustomer() {\r\n        for (uint256 i; i < addedCustomer.length; i++) {\r\n            if (msg.sender != addedCustomer[i]) {\r\n                revert(\"Caller is not a customer.\");\r\n            }\r\n        }\r\n        _;\r\n    }\r\n\r\n    // Add Admin\r\n    function addAdmin(address adminAddress) external onlyManager {\r\n        admins[adminAddress] = true;\r\n        emit AdminAdded(adminAddress, true);\r\n    }\r\n\r\n    // Add customer\r\n    function registerCustomer() external {\r\n        addedCustomer.push(msg.sender);\r\n        custCount++;\r\n        emit CustomerAdded(msg.sender);\r\n    }\r\n\r\n    // Approve customer's subscription on insurance\r\n    function approveInsurance(\r\n        address customerAddr,\r\n        uint256 _insuranceID,\r\n        uint256 payAmount,\r\n        uint256 payDate\r\n    ) external onlyAdminOrManager {\r\n        // Get current customer\r\n        Customer storage currCustomer = customers[customerAddr];\r\n\r\n        // Check if customer has already subscribed to this insurance\r\n        for (uint i = 0; i < currCustomer.subscribedPackages.length; i++) {\r\n            require(\r\n                insuranceSubscribed[customerAddr][\r\n                    currCustomer.subscribedPackages[i]\r\n                ].insuranceID != _insuranceID,\r\n                \"This insurance has already been bought.\"\r\n            );\r\n        }\r\n\r\n        // Create a new insurance subscription\r\n        InsuranceSubscription\r\n            memory newInsuranceSubscription = InsuranceSubscription({\r\n                insuranceSubscriptionID: currCustomer.subscribedPackages.length,\r\n                insuranceID: _insuranceID,\r\n                payAmount: payAmount,\r\n                payDate: payDate,\r\n                autoPay: true,\r\n                insStatus: InsuranceStatus.Approved\r\n            });\r\n\r\n        // Add new insurance subscription\r\n        insuranceSubscribed[customerAddr][\r\n            currCustomer.subscribedPackages.length\r\n        ] = newInsuranceSubscription;\r\n\r\n        // Push the new package ID inside\r\n        currCustomer.subscribedPackages.push(\r\n            currCustomer.subscribedPackages.length\r\n        );\r\n\r\n        emit InsuranceApproved(\r\n            customerAddr,\r\n            currCustomer.subscribedPackages.length,\r\n            _insuranceID\r\n        );\r\n    }\r\n\r\n    function dailyInsCheck() public {\r\n        for (uint256 i = 0; i < addedCustomer.length; i++) {\r\n            address currCustomerAddress = addedCustomer[i];\r\n            Customer storage currCustomer = customers[currCustomerAddress];\r\n\r\n            uint256 customerPackageCount = currCustomer\r\n                .subscribedPackages\r\n                .length;\r\n            for (uint256 j = 0; j < customerPackageCount; j++) {\r\n                InsuranceSubscription\r\n                    storage currInsurance = insuranceSubscribed[\r\n                        currCustomerAddress\r\n                    ][currCustomer.subscribedPackages[j]];\r\n\r\n                if (currInsurance.insStatus != InsuranceStatus.Approved)\r\n                    continue;\r\n\r\n                // Check if need pay\r\n                if (block.timestamp >= currInsurance.payDate) {\r\n                    // Calculate is there any delay\r\n                    uint256 lateDays = (block.timestamp -\r\n                        currInsurance.payDate) / 1 days;\r\n\r\n                    // Check if within late payment limit\r\n                    if (lateDays < latePaymentLimit / 1 days) {\r\n                        // Check if auto pay is enabled\r\n                        if (currInsurance.autoPay) {\r\n                            if (\r\n                                customerBalances[currCustomerAddress] >=\r\n                                currInsurance.payAmount\r\n                            ) {\r\n                                makePayment(\r\n                                    currCustomerAddress,\r\n                                    currInsurance,\r\n                                    currInsurance.payAmount\r\n                                );\r\n                                emit StatusMessage(\r\n                                    \"Auto pay process completed successfully!\"\r\n                                );\r\n                            } else {\r\n                                emit ReminderSent(\r\n                                    currCustomerAddress,\r\n                                    \"Insufficient balance for auto pay\"\r\n                                );\r\n                            }\r\n                        } else {\r\n                            emit ReminderSent(\r\n                                currCustomerAddress,\r\n                                \"Customer needs to pay manually within 10 days.\"\r\n                            );\r\n                        }\r\n                    } else {\r\n                        currInsurance.insStatus = InsuranceStatus.Cancelled;\r\n                        emit InsuranceInactive(\r\n                            currCustomerAddress,\r\n                            currInsurance.insuranceSubscriptionID\r\n                        );\r\n                        emit StatusMessage(\r\n                            \"Insurance had been Cancelled due to overdue payment.\"\r\n                        );\r\n                    }\r\n                }\r\n            }\r\n        }\r\n    }\r\n\r\n    function manualPay(uint256 _insuranceSubscriptionID) external payable {\r\n        bool validity = chkSubscriptionValidityInCustomer(\r\n            msg.sender,\r\n            _insuranceSubscriptionID\r\n        );\r\n\r\n        if (validity == true) {\r\n            InsuranceSubscription storage currInsurance = insuranceSubscribed[\r\n                msg.sender\r\n            ][_insuranceSubscriptionID];\r\n\r\n            require(\r\n                currInsurance.insStatus == InsuranceStatus.Approved,\r\n                \"Insurance is not active.\"\r\n            );\r\n            require(\r\n                customerBalances[msg.sender] >= currInsurance.payAmount,\r\n                \"Insufficient payment.\"\r\n            );\r\n            makePayment(msg.sender, currInsurance, currInsurance.payAmount);\r\n            emit StatusMessage(\"Manual payment completed successfully!\");\r\n        }\r\n    }\r\n\r\n    function makePayment(\r\n        address custAddress,\r\n        InsuranceSubscription storage insurance,\r\n        uint256 payAmount\r\n    ) internal {\r\n        customerBalances[custAddress] -= payAmount;\r\n        insurance.payDate += 30 days;\r\n        emit PaymentProcessed(\r\n            custAddress,\r\n            insurance.insuranceSubscriptionID,\r\n            payAmount\r\n        );\r\n    }\r\n\r\n    function addBalance() external payable onlyCustomer {\r\n        require(msg.value > 0, \"Amount must be greater than 0\");\r\n\r\n        customerBalances[msg.sender] += msg.value;\r\n\r\n        emit BalanceAdded(msg.sender, msg.value);\r\n        emit StatusMessage(\"Amount had been topped up successfully\");\r\n    }\r\n\r\n    function updateAutoPay(\r\n        uint256 _insuranceSubscriptionID\r\n    ) external onlyCustomer {\r\n        bool validity = chkSubscriptionValidityInCustomer(\r\n            msg.sender,\r\n            _insuranceSubscriptionID\r\n        );\r\n\r\n        if (validity == true) {\r\n            InsuranceSubscription storage currInsurance = insuranceSubscribed[\r\n                msg.sender\r\n            ][_insuranceSubscriptionID];\r\n            currInsurance.autoPay = !currInsurance.autoPay;\r\n            emit AutoPayStatusChanged(\r\n                msg.sender,\r\n                _insuranceSubscriptionID,\r\n                currInsurance.autoPay\r\n            );\r\n        }\r\n    }\r\n\r\n    function getCustomerBalance() external view onlyCustomer returns (uint256) {\r\n        return customerBalances[msg.sender];\r\n    }\r\n\r\n    function updatePayDate(\r\n        address customerAddress,\r\n        uint256 _insuranceSubscriptionID,\r\n        uint256 newPayDate\r\n    ) external onlyAdminOrManager {\r\n        require(\r\n            newPayDate >= block.timestamp,\r\n            \"Pay date should not be previous time.\"\r\n        );\r\n\r\n        bool validity = chkSubscriptionValidityInCustomer(\r\n            customerAddress,\r\n            _insuranceSubscriptionID\r\n        );\r\n\r\n        if (validity == true) {\r\n            InsuranceSubscription storage currInsurance = insuranceSubscribed[\r\n                customerAddress\r\n            ][_insuranceSubscriptionID];\r\n            currInsurance.payDate = newPayDate;\r\n            emit PayDateUpdated(\r\n                customerAddress,\r\n                _insuranceSubscriptionID,\r\n                currInsurance.payDate\r\n            );\r\n        }\r\n    }\r\n\r\n    // Cancel Payment\r\n    function cancelInsurance(\r\n        uint256 _insuranceSubscriptionID\r\n    ) external onlyCustomer {\r\n        bool validity = chkSubscriptionValidityInCustomer(\r\n            msg.sender,\r\n            _insuranceSubscriptionID\r\n        );\r\n\r\n        if (validity == true) {\r\n            InsuranceSubscription storage currInsurance = insuranceSubscribed[\r\n                msg.sender\r\n            ][_insuranceSubscriptionID];\r\n            currInsurance.insStatus = InsuranceStatus.Cancelled;\r\n            emit CancelInsurance(\r\n                msg.sender,\r\n                _insuranceSubscriptionID,\r\n                currInsurance.insStatus\r\n            );\r\n        }\r\n    }\r\n\r\n    function chkSubscriptionValidityInCustomer(\r\n        address custAddress,\r\n        uint256 _insuranceSubscriptionID\r\n    ) private view returns (bool validity) {\r\n        Customer storage currCustomer = customers[custAddress];\r\n        for (uint256 i = 0; i < currCustomer.subscribedPackages.length; i++) {\r\n            require(\r\n                insuranceSubscribed[custAddress][\r\n                    currCustomer.subscribedPackages[i]\r\n                ].insuranceSubscriptionID == _insuranceSubscriptionID,\r\n                \"Insurance not exist.\"\r\n            );\r\n            if (\r\n                insuranceSubscribed[custAddress][\r\n                    currCustomer.subscribedPackages[i]\r\n                ].insuranceSubscriptionID == _insuranceSubscriptionID\r\n            ) {\r\n                return true;\r\n            }\r\n        }\r\n        return false;\r\n    }\r\n}\r\n",
  "sourcePath": "C:\\Users\\leeda\\OneDrive\\Desktop\\Great_Global\\Danny_Test\\SponsorAnimals\\contracts\\PaymentModule.sol",
  "compiler": {
    "name": "solc",
    "version": "0.8.0+commit.c7dfd78e.Emscripten.clang"
  },
  "schemaVersion": "3.4.16",
  "updatedAt": "2024-09-24T22:01:59.711Z",
  "networkType": "ethereum",
  "devdoc": {
    "kind": "dev",
    "methods": {},
    "version": 1
  },
  "userdoc": {
    "kind": "user",
    "methods": {},
    "version": 1
  }
}