{
  "contractName": "purchasePackage",
  "abi": [
    {
      "inputs": [],
      "stateMutability": "nonpayable",
      "type": "constructor"
    },
    {
      "anonymous": false,
      "inputs": [
        {
          "indexed": false,
          "internalType": "address",
          "name": "user",
          "type": "address"
        },
        {
          "indexed": false,
          "internalType": "uint256",
          "name": "packageId",
          "type": "uint256"
        }
      ],
      "name": "ApprovalRequested",
      "type": "event"
    },
    {
      "anonymous": false,
      "inputs": [
        {
          "indexed": false,
          "internalType": "address",
          "name": "user",
          "type": "address"
        },
        {
          "indexed": false,
          "internalType": "uint256",
          "name": "packageId",
          "type": "uint256"
        }
      ],
      "name": "PackageApproved",
      "type": "event"
    },
    {
      "anonymous": false,
      "inputs": [
        {
          "indexed": false,
          "internalType": "address",
          "name": "user",
          "type": "address"
        },
        {
          "indexed": false,
          "internalType": "uint256",
          "name": "packageId",
          "type": "uint256"
        }
      ],
      "name": "PackageSubscribed",
      "type": "event"
    },
    {
      "inputs": [],
      "name": "admin",
      "outputs": [
        {
          "internalType": "address",
          "name": "",
          "type": "address"
        }
      ],
      "stateMutability": "view",
      "type": "function"
    },
    {
      "inputs": [
        {
          "internalType": "uint256",
          "name": "",
          "type": "uint256"
        }
      ],
      "name": "insurancePackages",
      "outputs": [
        {
          "internalType": "uint256",
          "name": "packageId",
          "type": "uint256"
        },
        {
          "internalType": "string",
          "name": "packageName",
          "type": "string"
        },
        {
          "internalType": "uint256",
          "name": "minAge",
          "type": "uint256"
        },
        {
          "internalType": "uint256",
          "name": "maxAge",
          "type": "uint256"
        }
      ],
      "stateMutability": "view",
      "type": "function"
    },
    {
      "inputs": [],
      "name": "packageCount",
      "outputs": [
        {
          "internalType": "uint256",
          "name": "",
          "type": "uint256"
        }
      ],
      "stateMutability": "view",
      "type": "function"
    },
    {
      "inputs": [
        {
          "internalType": "uint256",
          "name": "",
          "type": "uint256"
        }
      ],
      "name": "pendingApprovals",
      "outputs": [
        {
          "internalType": "address",
          "name": "userAddress",
          "type": "address"
        },
        {
          "internalType": "uint256",
          "name": "packageId",
          "type": "uint256"
        }
      ],
      "stateMutability": "view",
      "type": "function"
    },
    {
      "inputs": [
        {
          "internalType": "address",
          "name": "",
          "type": "address"
        }
      ],
      "name": "users",
      "outputs": [
        {
          "internalType": "string",
          "name": "name",
          "type": "string"
        },
        {
          "internalType": "uint256",
          "name": "age",
          "type": "uint256"
        }
      ],
      "stateMutability": "view",
      "type": "function"
    },
    {
      "inputs": [
        {
          "internalType": "uint256",
          "name": "_packageId",
          "type": "uint256"
        }
      ],
      "name": "subscribeToPackage",
      "outputs": [],
      "stateMutability": "nonpayable",
      "type": "function"
    },
    {
      "inputs": [
        {
          "internalType": "uint256",
          "name": "_requestIndex",
          "type": "uint256"
        }
      ],
      "name": "approvePackageSubscription",
      "outputs": [],
      "stateMutability": "nonpayable",
      "type": "function"
    },
    {
      "inputs": [],
      "name": "getPendingApprovalsLength",
      "outputs": [
        {
          "internalType": "uint256",
          "name": "",
          "type": "uint256"
        }
      ],
      "stateMutability": "view",
      "type": "function"
    },
    {
      "inputs": [
        {
          "internalType": "uint256",
          "name": "index",
          "type": "uint256"
        }
      ],
      "name": "getApprovalRequest",
      "outputs": [
        {
          "internalType": "address",
          "name": "",
          "type": "address"
        },
        {
          "internalType": "uint256",
          "name": "",
          "type": "uint256"
        }
      ],
      "stateMutability": "view",
      "type": "function"
    },
    {
      "inputs": [
        {
          "internalType": "string",
          "name": "_name",
          "type": "string"
        },
        {
          "internalType": "uint256",
          "name": "_minAge",
          "type": "uint256"
        },
        {
          "internalType": "uint256",
          "name": "_maxAge",
          "type": "uint256"
        }
      ],
      "name": "addInsurancePackage",
      "outputs": [],
      "stateMutability": "nonpayable",
      "type": "function"
    },
    {
      "inputs": [
        {
          "internalType": "string",
          "name": "_name",
          "type": "string"
        },
        {
          "internalType": "uint256",
          "name": "_age",
          "type": "uint256"
        }
      ],
      "name": "registerUser",
      "outputs": [],
      "stateMutability": "nonpayable",
      "type": "function"
    },
    {
      "inputs": [
        {
          "internalType": "address",
          "name": "_user",
          "type": "address"
        }
      ],
      "name": "getUserSubscribedPackages",
      "outputs": [
        {
          "internalType": "uint256[]",
          "name": "",
          "type": "uint256[]"
        }
      ],
      "stateMutability": "view",
      "type": "function"
    }
  ],
  "bytecode": "0x60806040523480156200001157600080fd5b50336000806101000a81548173ffffffffffffffffffffffffffffffffffffffff021916908373ffffffffffffffffffffffffffffffffffffffff1602179055506200009c6040518060400160405280601481526020017f4261736963204865616c7468205061636b6167650000000000000000000000008152506012603c6200013660201b60201c565b620000e66040518060400160405280601681526020017f5072656d69756d204865616c7468205061636b61676500000000000000000000815250601e60466200013660201b60201c565b620001306040518060400160405280601581526020017f53656e696f72204865616c7468205061636b6167650000000000000000000000815250603260506200013660201b60201c565b62000495565b60008054906101000a900473ffffffffffffffffffffffffffffffffffffffff1673ffffffffffffffffffffffffffffffffffffffff163373ffffffffffffffffffffffffffffffffffffffff1614620001c7576040517f08c379a0000000000000000000000000000000000000000000000000000000008152600401620001be9062000376565b60405180910390fd5b60046000815480929190620001dc90620003e9565b91905055506040518060800160405280600454815260200184815260200183815260200182815250600260006004548152602001908152602001600020600082015181600001556020820151816001019080519060200190620002419291906200025e565b506040820151816002015560608201518160030155905050505050565b8280546200026c90620003b3565b90600052602060002090601f016020900481019282620002905760008555620002dc565b82601f10620002ab57805160ff1916838001178555620002dc565b82800160010185558215620002dc579182015b82811115620002db578251825591602001919060010190620002be565b5b509050620002eb9190620002ef565b5090565b5b808211156200030a576000816000905550600101620002f0565b5090565b60006200031d60228362000398565b91507f4f6e6c792061646d696e2063616e20706572666f726d2074686973206163746960008301527f6f6e0000000000000000000000000000000000000000000000000000000000006020830152604082019050919050565b6000602082019050818103600083015262000391816200030e565b9050919050565b600082825260208201905092915050565b6000819050919050565b60006002820490506001821680620003cc57607f821691505b60208210811415620003e357620003e262000466565b5b50919050565b6000620003f682620003a9565b91507fffffffffffffffffffffffffffffffffffffffffffffffffffffffffffffffff8214156200042c576200042b62000437565b5b600182019050919050565b7f4e487b7100000000000000000000000000000000000000000000000000000000600052601160045260246000fd5b7f4e487b7100000000000000000000000000000000000000000000000000000000600052602260045260246000fd5b61197080620004a56000396000f3fe608060405234801561001057600080fd5b50600436106100b45760003560e01c8063bd3078bd11610071578063bd3078bd146101b8578063d3951002146101d4578063d984cfaa146101f0578063ee0ebe0c1461020c578063f62cca491461022a578063f851a4401461025b576100b4565b806326f53bba146100b9578063304e0ba1146100e957806346327c5714610107578063686b656e146101235780637c7ad74d14610154578063a87430ba14610187575b600080fd5b6100d360048036038101906100ce91906111b3565b610279565b6040516100e09190611552565b60405180910390f35b6100f1610313565b6040516100fe9190611624565b60405180910390f35b610121600480360381019061011c9190611297565b6103af565b005b61013d60048036038101906101389190611297565b610685565b60405161014b929190611529565b60405180910390f35b61016e60048036038101906101699190611297565b6106d9565b60405161017e949392919061163f565b60405180910390f35b6101a1600480360381019061019c91906111b3565b610791565b6040516101af929190611574565b60405180910390f35b6101d260048036038101906101cd9190611297565b61083d565b005b6101ee60048036038101906101e991906111dc565b610b47565b005b61020a60048036038101906102059190611230565b610bb1565b005b610214610cd2565b6040516102219190611624565b60405180910390f35b610244600480360381019061023f9190611297565b610cd8565b604051610252929190611529565b60405180910390f35b610263610e7b565b604051610270919061150e565b60405180910390f35b6060600160008373ffffffffffffffffffffffffffffffffffffffff1673ffffffffffffffffffffffffffffffffffffffff16815260200190815260200160002060020180548060200260200160405190810160405280929190818152602001828054801561030757602002820191906000526020600020905b8154815260200190600101908083116102f3575b50505050509050919050565b60008060009054906101000a900473ffffffffffffffffffffffffffffffffffffffff1673ffffffffffffffffffffffffffffffffffffffff163373ffffffffffffffffffffffffffffffffffffffff16146103a4576040517f08c379a000000000000000000000000000000000000000000000000000000000815260040161039b90611604565b60405180910390fd5b600380549050905090565b60008054906101000a900473ffffffffffffffffffffffffffffffffffffffff1673ffffffffffffffffffffffffffffffffffffffff163373ffffffffffffffffffffffffffffffffffffffff161461043d576040517f08c379a000000000000000000000000000000000000000000000000000000000815260040161043490611604565b60405180910390fd5b600060038281548110610479577f4e487b7100000000000000000000000000000000000000000000000000000000600052603260045260246000fd5b90600052602060002090600202016040518060400160405290816000820160009054906101000a900473ffffffffffffffffffffffffffffffffffffffff1673ffffffffffffffffffffffffffffffffffffffff1673ffffffffffffffffffffffffffffffffffffffff16815260200160018201548152505090506000816000015190506000826020015190506000600160008473ffffffffffffffffffffffffffffffffffffffff1673ffffffffffffffffffffffffffffffffffffffff1681526020019081526020016000209050806002018290806001815401808255809150506001900390600052602060002001600090919091909150557fe79df6e8a5ea92622d88b164dc4a6b17f2183759f1f129a2fdba30694e02027883836040516105a5929190611529565b60405180910390a17f671dde66ff2f7d4a4f1e06017ac6992cbfd420c6403bb713991e55f0acdd748483836040516105de929190611529565b60405180910390a18181600201600183600201805490506105ff9190611741565b81548110610636577f4e487b7100000000000000000000000000000000000000000000000000000000600052603260045260246000fd5b906000526020600020015414610675577f4e487b7100000000000000000000000000000000000000000000000000000000600052600160045260246000fd5b61067e85610e9f565b5050505050565b6003818154811061069557600080fd5b90600052602060002090600202016000915090508060000160009054906101000a900473ffffffffffffffffffffffffffffffffffffffff16908060010154905082565b6002602052806000526040600020600091509050806000015490806001018054610702906117f3565b80601f016020809104026020016040519081016040528092919081815260200182805461072e906117f3565b801561077b5780601f106107505761010080835404028352916020019161077b565b820191906000526020600020905b81548152906001019060200180831161075e57829003601f168201915b5050505050908060020154908060030154905084565b60016020528060005260406000206000915090508060000180546107b4906117f3565b80601f01602080910402602001604051908101604052809291908181526020018280546107e0906117f3565b801561082d5780601f106108025761010080835404028352916020019161082d565b820191906000526020600020905b81548152906001019060200180831161081057829003601f168201915b5050505050908060010154905082565b60006002600083815260200190815260200160002060405180608001604052908160008201548152602001600182018054610877906117f3565b80601f01602080910402602001604051908101604052809291908181526020018280546108a3906117f3565b80156108f05780601f106108c5576101008083540402835291602001916108f0565b820191906000526020600020905b8154815290600101906020018083116108d357829003601f168201915b505050505081526020016002820154815260200160038201548152505090506000600160003373ffffffffffffffffffffffffffffffffffffffff1673ffffffffffffffffffffffffffffffffffffffff1681526020019081526020016000209050816040015181600101541015801561097257508160600151816001015411155b6109b1576040517f08c379a00000000000000000000000000000000000000000000000000000000081526004016109a8906115e4565b60405180910390fd5b60005b8160020180549050811015610a5f5783826002018281548110610a00577f4e487b7100000000000000000000000000000000000000000000000000000000600052603260045260246000fd5b90600052602060002001541415610a4c576040517f08c379a0000000000000000000000000000000000000000000000000000000008152600401610a43906115c4565b60405180910390fd5b8080610a5790611825565b9150506109b4565b50600360405180604001604052803373ffffffffffffffffffffffffffffffffffffffff16815260200185815250908060018154018082558091505060019003906000526020600020906002020160009091909190915060008201518160000160006101000a81548173ffffffffffffffffffffffffffffffffffffffff021916908373ffffffffffffffffffffffffffffffffffffffff1602179055506020820151816001015550507f476871eccc7ab517c1c23acfd3954e8ed6fe523bbe0b0ab9a9611d3324ec08ee3384604051610b3a929190611529565b60405180910390a1505050565b6000600160003373ffffffffffffffffffffffffffffffffffffffff1673ffffffffffffffffffffffffffffffffffffffff168152602001908152602001600020905082816000019080519060200190610ba292919061107e565b50818160010181905550505050565b60008054906101000a900473ffffffffffffffffffffffffffffffffffffffff1673ffffffffffffffffffffffffffffffffffffffff163373ffffffffffffffffffffffffffffffffffffffff1614610c3f576040517f08c379a0000000000000000000000000000000000000000000000000000000008152600401610c3690611604565b60405180910390fd5b60046000815480929190610c5290611825565b91905055506040518060800160405280600454815260200184815260200183815260200182815250600260006004548152602001908152602001600020600082015181600001556020820151816001019080519060200190610cb592919061107e565b506040820151816002015560608201518160030155905050505050565b60045481565b60008060008054906101000a900473ffffffffffffffffffffffffffffffffffffffff1673ffffffffffffffffffffffffffffffffffffffff163373ffffffffffffffffffffffffffffffffffffffff1614610d69576040517f08c379a0000000000000000000000000000000000000000000000000000000008152600401610d6090611604565b60405180910390fd5b6003805490508310610db0576040517f08c379a0000000000000000000000000000000000000000000000000000000008152600401610da7906115a4565b60405180910390fd5b600060038481548110610dec577f4e487b7100000000000000000000000000000000000000000000000000000000600052603260045260246000fd5b90600052602060002090600202016040518060400160405290816000820160009054906101000a900473ffffffffffffffffffffffffffffffffffffffff1673ffffffffffffffffffffffffffffffffffffffff1673ffffffffffffffffffffffffffffffffffffffff1681526020016001820154815250509050806000015181602001519250925050915091565b60008054906101000a900473ffffffffffffffffffffffffffffffffffffffff1681565b6003805490508110610ee6576040517f08c379a0000000000000000000000000000000000000000000000000000000008152600401610edd906115a4565b60405180910390fd5b60036001600380549050610efa9190611741565b81548110610f31577f4e487b7100000000000000000000000000000000000000000000000000000000600052603260045260246000fd5b906000526020600020906002020160038281548110610f79577f4e487b7100000000000000000000000000000000000000000000000000000000600052603260045260246000fd5b90600052602060002090600202016000820160009054906101000a900473ffffffffffffffffffffffffffffffffffffffff168160000160006101000a81548173ffffffffffffffffffffffffffffffffffffffff021916908373ffffffffffffffffffffffffffffffffffffffff160217905550600182015481600101559050506003805480611033577f4e487b7100000000000000000000000000000000000000000000000000000000600052603160045260246000fd5b6001900381819060005260206000209060020201600080820160006101000a81549073ffffffffffffffffffffffffffffffffffffffff021916905560018201600090555050905550565b82805461108a906117f3565b90600052602060002090601f0160209004810192826110ac57600085556110f3565b82601f106110c557805160ff19168380011785556110f3565b828001600101855582156110f3579182015b828111156110f25782518255916020019190600101906110d7565b5b5090506111009190611104565b5090565b5b8082111561111d576000816000905550600101611105565b5090565b600061113461112f846116bc565b61168b565b90508281526020810184848401111561114c57600080fd5b6111578482856117b1565b509392505050565b60008135905061116e8161190c565b92915050565b600082601f83011261118557600080fd5b8135611195848260208601611121565b91505092915050565b6000813590506111ad81611923565b92915050565b6000602082840312156111c557600080fd5b60006111d38482850161115f565b91505092915050565b600080604083850312156111ef57600080fd5b600083013567ffffffffffffffff81111561120957600080fd5b61121585828601611174565b92505060206112268582860161119e565b9150509250929050565b60008060006060848603121561124557600080fd5b600084013567ffffffffffffffff81111561125f57600080fd5b61126b86828701611174565b935050602061127c8682870161119e565b925050604061128d8682870161119e565b9150509250925092565b6000602082840312156112a957600080fd5b60006112b78482850161119e565b91505092915050565b60006112cc83836114f0565b60208301905092915050565b6112e181611775565b82525050565b60006112f2826116fc565b6112fc818561171f565b9350611307836116ec565b8060005b8381101561133857815161131f88826112c0565b975061132a83611712565b92505060018101905061130b565b5085935050505092915050565b600061135082611707565b61135a8185611730565b935061136a8185602086016117c0565b611373816118fb565b840191505092915050565b600061138b600d83611730565b91507f496e76616c696420696e646578000000000000000000000000000000000000006000830152602082019050919050565b60006113cb602a83611730565b91507f596f752061726520616c7265616479207375627363726962656420746f20746860008301527f6973207061636b616765000000000000000000000000000000000000000000006020830152604082019050919050565b6000611431602583611730565b91507f596f7520646f6573206e6f74207175616c69667920666f72207468697320706160008301527f636b6167650000000000000000000000000000000000000000000000000000006020830152604082019050919050565b6000611497602283611730565b91507f4f6e6c792061646d696e2063616e20706572666f726d2074686973206163746960008301527f6f6e0000000000000000000000000000000000000000000000000000000000006020830152604082019050919050565b6114f9816117a7565b82525050565b611508816117a7565b82525050565b600060208201905061152360008301846112d8565b92915050565b600060408201905061153e60008301856112d8565b61154b60208301846114ff565b9392505050565b6000602082019050818103600083015261156c81846112e7565b905092915050565b6000604082019050818103600083015261158e8185611345565b905061159d60208301846114ff565b9392505050565b600060208201905081810360008301526115bd8161137e565b9050919050565b600060208201905081810360008301526115dd816113be565b9050919050565b600060208201905081810360008301526115fd81611424565b9050919050565b6000602082019050818103600083015261161d8161148a565b9050919050565b600060208201905061163960008301846114ff565b92915050565b600060808201905061165460008301876114ff565b81810360208301526116668186611345565b905061167560408301856114ff565b61168260608301846114ff565b95945050505050565b6000604051905081810181811067ffffffffffffffff821117156116b2576116b16118cc565b5b8060405250919050565b600067ffffffffffffffff8211156116d7576116d66118cc565b5b601f19601f8301169050602081019050919050565b6000819050602082019050919050565b600081519050919050565b600081519050919050565b6000602082019050919050565b600082825260208201905092915050565b600082825260208201905092915050565b600061174c826117a7565b9150611757836117a7565b92508282101561176a5761176961186e565b5b828203905092915050565b600061178082611787565b9050919050565b600073ffffffffffffffffffffffffffffffffffffffff82169050919050565b6000819050919050565b82818337600083830152505050565b60005b838110156117de5780820151818401526020810190506117c3565b838111156117ed576000848401525b50505050565b6000600282049050600182168061180b57607f821691505b6020821081141561181f5761181e61189d565b5b50919050565b6000611830826117a7565b91507fffffffffffffffffffffffffffffffffffffffffffffffffffffffffffffffff8214156118635761186261186e565b5b600182019050919050565b7f4e487b7100000000000000000000000000000000000000000000000000000000600052601160045260246000fd5b7f4e487b7100000000000000000000000000000000000000000000000000000000600052602260045260246000fd5b7f4e487b7100000000000000000000000000000000000000000000000000000000600052604160045260246000fd5b6000601f19601f8301169050919050565b61191581611775565b811461192057600080fd5b50565b61192c816117a7565b811461193757600080fd5b5056fea264697066735822122019ee5f9188e55ab591f63cebf30b0482731dac059ea7d0c3c653d9f9071098f064736f6c63430008000033",
  "immutableReferences": {},
  "source": "// SPDX-License-Identifier: MIT\r\npragma solidity ^0.8.0;\r\n\r\ncontract purchasePackage {\r\n    address public admin;\r\n\r\n    struct InsurancePackage {\r\n        uint256 packageId;\r\n        string packageName;\r\n        uint256 minAge;\r\n        uint256 maxAge;\r\n    }\r\n\r\n    struct User {\r\n        string name;\r\n        uint256 age;\r\n        uint256[] subscribedPackages; // Store ID packages that the user subscribed\r\n    }\r\n\r\n    struct ApprovalRequest {\r\n        address userAddress;\r\n        uint256 packageId;\r\n    }\r\n\r\n    mapping(address => User) public users;\r\n    mapping(uint256 => InsurancePackage) public insurancePackages;\r\n    ApprovalRequest[] public pendingApprovals; // Store approval requests\r\n\r\n    uint256 public packageCount;\r\n\r\n    event PackageSubscribed(address user, uint256 packageId);\r\n    event ApprovalRequested(address user, uint256 packageId);\r\n    event PackageApproved(address user, uint256 packageId);\r\n\r\n    modifier onlyAdmin() {\r\n        require(msg.sender == admin, \"Only admin can perform this action\");\r\n        _;\r\n    }\r\n\r\n    constructor() {\r\n        admin = msg.sender;\r\n\r\n        // Add dummy data insurance packages\r\n        addInsurancePackage(\"Basic Health Package\", 18, 60);\r\n        addInsurancePackage(\"Premium Health Package\", 30, 70);\r\n        addInsurancePackage(\"Senior Health Package\", 50, 80);\r\n    }\r\n\r\n    //  User subscribe to a package and checks if they qualify based on their details\r\n    function subscribeToPackage(uint256 _packageId) public {\r\n        InsurancePackage memory package = insurancePackages[_packageId];\r\n        User storage user = users[msg.sender];\r\n\r\n        // Check if user qualifies based on age\r\n        require(\r\n            user.age >= package.minAge && user.age <= package.maxAge,\r\n            \"You does not qualify for this package\"\r\n        );\r\n\r\n        // Check if user is already subscribed to this package\r\n        for (uint256 i = 0; i < user.subscribedPackages.length; i++) {\r\n            if (user.subscribedPackages[i] == _packageId) {\r\n                revert(\"You are already subscribed to this package\");\r\n            }\r\n        }\r\n\r\n        // Send the request for admin approval\r\n        pendingApprovals.push(ApprovalRequest(msg.sender, _packageId));\r\n        emit ApprovalRequested(msg.sender, _packageId);\r\n    }\r\n\r\n    //  Admin approves the user subscription and adds the package to the user's subscribed list\r\n    function approvePackageSubscription(\r\n        uint256 _requestIndex\r\n    ) public onlyAdmin {\r\n        // Retrieve the approval request\r\n        ApprovalRequest memory request = pendingApprovals[_requestIndex];\r\n        address userAddress = request.userAddress;\r\n        uint256 packageId = request.packageId;\r\n\r\n        User storage user = users[userAddress];\r\n\r\n        // Add the package to the user's subscribed packages\r\n        user.subscribedPackages.push(packageId);\r\n        emit PackageApproved(userAddress, packageId);\r\n        emit PackageSubscribed(userAddress, packageId); // Emit an event indicating the user has subscribed\r\n\r\n        // Check the package was actually added to the user's subscriptions\r\n        assert(\r\n            user.subscribedPackages[user.subscribedPackages.length - 1] ==\r\n                packageId\r\n        );\r\n\r\n        // Remove the request from pending approvals\r\n        _removePendingApproval(_requestIndex);\r\n    }\r\n\r\n    //  To remove an approval request after it has been processed\r\n    function _removePendingApproval(uint256 _index) internal {\r\n        require(_index < pendingApprovals.length, \"Invalid index\");\r\n        pendingApprovals[_index] = pendingApprovals[\r\n            pendingApprovals.length - 1\r\n        ];\r\n        pendingApprovals.pop();\r\n    }\r\n\r\n    // Admin can view the number of pending approval requests\r\n    function getPendingApprovalsLength()\r\n        public\r\n        view\r\n        onlyAdmin\r\n        returns (uint256)\r\n    {\r\n        return pendingApprovals.length;\r\n    }\r\n\r\n    //  Admin retrieve specific approval request details from user\r\n    function getApprovalRequest(\r\n        uint256 index\r\n    ) public view onlyAdmin returns (address, uint256) {\r\n        require(index < pendingApprovals.length, \"Invalid index\");\r\n        ApprovalRequest memory request = pendingApprovals[index];\r\n        return (request.userAddress, request.packageId);\r\n    }\r\n\r\n    //  Admin adds a new insurance package to the system (test for dummy data for choose insurance package)\r\n    function addInsurancePackage(\r\n        string memory _name,\r\n        uint256 _minAge,\r\n        uint256 _maxAge\r\n    ) public onlyAdmin {\r\n        packageCount++;\r\n        insurancePackages[packageCount] = InsurancePackage({\r\n            packageId: packageCount,\r\n            packageName: _name,\r\n            minAge: _minAge,\r\n            maxAge: _maxAge\r\n        });\r\n    }\r\n\r\n    //  Register user details (test for dummy data for user details)\r\n    function registerUser(string memory _name, uint256 _age) public {\r\n        User storage user = users[msg.sender];\r\n        user.name = _name;\r\n        user.age = _age;\r\n    }\r\n\r\n    // Retrieve the user's subscribed packages\r\n    function getUserSubscribedPackages(\r\n        address _user\r\n    ) public view returns (uint256[] memory) {\r\n        return users[_user].subscribedPackages;\r\n    }\r\n}\r\n",
  "sourcePath": "C:\\Users\\leeda\\OneDrive\\Desktop\\Great_Global\\Danny_Test\\SponsorAnimals\\contracts\\Purchase.sol",
  "compiler": {
    "name": "solc",
    "version": "0.8.0+commit.c7dfd78e.Emscripten.clang"
  },
  "schemaVersion": "3.4.16",
  "updatedAt": "2024-09-24T12:53:08.248Z",
  "devdoc": {
    "kind": "dev",
    "methods": {},
    "version": 1
  },
  "userdoc": {
    "kind": "user",
    "methods": {},
    "version": 1
  }
}