{
  "contractName": "PurchasePackage",
  "abi": [
    {
      "inputs": [
        {
          "internalType": "address",
          "name": "_adminPolicyAddress",
          "type": "address"
        },
        {
          "internalType": "address",
          "name": "_userAuthAddress",
          "type": "address"
        }
      ],
      "stateMutability": "nonpayable",
      "type": "constructor"
    },
    {
      "anonymous": false,
      "inputs": [
        {
          "indexed": true,
          "internalType": "address",
          "name": "user",
          "type": "address"
        },
        {
          "indexed": false,
          "internalType": "uint256",
          "name": "packageId",
          "type": "uint256"
        }
      ],
      "name": "PackageSubscribed",
      "type": "event"
    },
    {
      "anonymous": false,
      "inputs": [
        {
          "indexed": true,
          "internalType": "string",
          "name": "user",
          "type": "string"
        },
        {
          "indexed": false,
          "internalType": "uint256",
          "name": "packageId",
          "type": "uint256"
        },
        {
          "indexed": false,
          "internalType": "enum PurchasePackage.InsuranceStatus",
          "name": "status",
          "type": "uint8"
        }
      ],
      "name": "SubscriptionApproved",
      "type": "event"
    },
    {
      "anonymous": false,
      "inputs": [
        {
          "indexed": true,
          "internalType": "string",
          "name": "user",
          "type": "string"
        },
        {
          "indexed": false,
          "internalType": "uint256",
          "name": "packageId",
          "type": "uint256"
        }
      ],
      "name": "SubscriptionRequested",
      "type": "event"
    },
    {
      "inputs": [
        {
          "internalType": "string",
          "name": "",
          "type": "string"
        },
        {
          "internalType": "uint256",
          "name": "",
          "type": "uint256"
        }
      ],
      "name": "Subscriptions",
      "outputs": [
        {
          "internalType": "uint256",
          "name": "packageId",
          "type": "uint256"
        },
        {
          "internalType": "uint256",
          "name": "payDate",
          "type": "uint256"
        },
        {
          "internalType": "enum PurchasePackage.InsuranceStatus",
          "name": "status",
          "type": "uint8"
        }
      ],
      "stateMutability": "view",
      "type": "function"
    },
    {
      "inputs": [],
      "name": "admin",
      "outputs": [
        {
          "internalType": "address",
          "name": "",
          "type": "address"
        }
      ],
      "stateMutability": "view",
      "type": "function"
    },
    {
      "inputs": [],
      "name": "adminContract",
      "outputs": [
        {
          "internalType": "contract AdminInsurancePolicy",
          "name": "",
          "type": "address"
        }
      ],
      "stateMutability": "view",
      "type": "function"
    },
    {
      "inputs": [
        {
          "internalType": "string",
          "name": "",
          "type": "string"
        }
      ],
      "name": "subscriptionCount",
      "outputs": [
        {
          "internalType": "uint256",
          "name": "",
          "type": "uint256"
        }
      ],
      "stateMutability": "view",
      "type": "function"
    },
    {
      "inputs": [],
      "name": "userAuthContract",
      "outputs": [
        {
          "internalType": "contract UserAuth",
          "name": "",
          "type": "address"
        }
      ],
      "stateMutability": "view",
      "type": "function"
    },
    {
      "inputs": [
        {
          "internalType": "uint256",
          "name": "_packageId",
          "type": "uint256"
        }
      ],
      "name": "subscribeToPackage",
      "outputs": [],
      "stateMutability": "nonpayable",
      "type": "function"
    },
    {
      "inputs": [
        {
          "internalType": "string",
          "name": "_user",
          "type": "string"
        },
        {
          "internalType": "uint256",
          "name": "_packageID",
          "type": "uint256"
        }
      ],
      "name": "approveSubscription",
      "outputs": [],
      "stateMutability": "nonpayable",
      "type": "function"
    },
    {
      "inputs": [],
      "name": "viewPackages",
      "outputs": [
        {
          "components": [
            {
              "internalType": "string",
              "name": "userEmail",
              "type": "string"
            },
            {
              "internalType": "uint256",
              "name": "packageID",
              "type": "uint256"
            }
          ],
          "internalType": "struct PurchasePackage.PackageData[]",
          "name": "",
          "type": "tuple[]"
        },
        {
          "components": [
            {
              "internalType": "string",
              "name": "userEmail",
              "type": "string"
            },
            {
              "internalType": "uint256",
              "name": "packageID",
              "type": "uint256"
            }
          ],
          "internalType": "struct PurchasePackage.PackageData[]",
          "name": "",
          "type": "tuple[]"
        },
        {
          "components": [
            {
              "internalType": "string",
              "name": "userEmail",
              "type": "string"
            },
            {
              "internalType": "uint256",
              "name": "packageID",
              "type": "uint256"
            }
          ],
          "internalType": "struct PurchasePackage.PackageData[]",
          "name": "",
          "type": "tuple[]"
        }
      ],
      "stateMutability": "view",
      "type": "function"
    },
    {
      "inputs": [
        {
          "internalType": "uint256",
          "name": "_packageId",
          "type": "uint256"
        }
      ],
      "name": "getPackageDetails",
      "outputs": [
        {
          "internalType": "string",
          "name": "",
          "type": "string"
        },
        {
          "internalType": "uint256",
          "name": "",
          "type": "uint256"
        },
        {
          "internalType": "uint256",
          "name": "",
          "type": "uint256"
        },
        {
          "internalType": "uint256",
          "name": "",
          "type": "uint256"
        },
        {
          "internalType": "bool",
          "name": "",
          "type": "bool"
        }
      ],
      "stateMutability": "view",
      "type": "function"
    },
    {
      "inputs": [],
      "name": "viewAllSubscriptions",
      "outputs": [
        {
          "components": [
            {
              "internalType": "string",
              "name": "userEmail",
              "type": "string"
            },
            {
              "internalType": "uint256",
              "name": "packageID",
              "type": "uint256"
            }
          ],
          "internalType": "struct PurchasePackage.PackageData[]",
          "name": "",
          "type": "tuple[]"
        },
        {
          "components": [
            {
              "internalType": "string",
              "name": "userEmail",
              "type": "string"
            },
            {
              "internalType": "uint256",
              "name": "packageID",
              "type": "uint256"
            }
          ],
          "internalType": "struct PurchasePackage.PackageData[]",
          "name": "",
          "type": "tuple[]"
        },
        {
          "components": [
            {
              "internalType": "string",
              "name": "userEmail",
              "type": "string"
            },
            {
              "internalType": "uint256",
              "name": "packageID",
              "type": "uint256"
            }
          ],
          "internalType": "struct PurchasePackage.PackageData[]",
          "name": "",
          "type": "tuple[]"
        }
      ],
      "stateMutability": "view",
      "type": "function"
    }
  ],
  "bytecode": "0x60806040523480156200001157600080fd5b5060405162002c9d38038062002c9d833981810160405281019062000037919062000118565b816000806101000a81548173ffffffffffffffffffffffffffffffffffffffff021916908373ffffffffffffffffffffffffffffffffffffffff16021790555080600160006101000a81548173ffffffffffffffffffffffffffffffffffffffff021916908373ffffffffffffffffffffffffffffffffffffffff16021790555033600260006101000a81548173ffffffffffffffffffffffffffffffffffffffff021916908373ffffffffffffffffffffffffffffffffffffffff1602179055505050620001a7565b60008151905062000112816200018d565b92915050565b600080604083850312156200012c57600080fd5b60006200013c8582860162000101565b92505060206200014f8582860162000101565b9150509250929050565b600062000166826200016d565b9050919050565b600073ffffffffffffffffffffffffffffffffffffffff82169050919050565b620001988162000159565b8114620001a457600080fd5b50565b612ae680620001b76000396000f3fe608060405234801561001057600080fd5b506004361061009e5760003560e01c8063a76e908a11610066578063a76e908a14610161578063bd3078bd14610193578063c05c5e94146101af578063efa7808a146101cd578063f851a440146101ed5761009e565b806309ac920a146100a3578063415e6102146100c35780636c435e36146100df5780638ebc2ce514610113578063a5407a4414610143575b600080fd5b6100ab61020b565b6040516100ba93929190612560565b60405180910390f35b6100dd60048036038101906100d89190612075565b6109e1565b005b6100f960048036038101906100f49190612158565b610d2a565b60405161010a9594939291906125e2565b60405180910390f35b61012d60048036038101906101289190611ff3565b610df3565b60405161013a91906126dc565b60405180910390f35b61014b610e21565b60405161015891906125c7565b60405180910390f35b61017b60048036038101906101769190612075565b610e47565b60405161018a93929190612720565b60405180910390f35b6101ad60048036038101906101a89190612158565b610ea1565b005b6101b7611368565b6040516101c491906125ac565b60405180910390f35b6101d561138c565b6040516101e493929190612560565b60405180910390f35b6101f5611d60565b6040516102029190612545565b60405180910390f35b60608060606000600160009054906101000a900473ffffffffffffffffffffffffffffffffffffffff1673ffffffffffffffffffffffffffffffffffffffff166343ae37c36040518163ffffffff1660e01b815260040160006040518083038186803b15801561027a57600080fd5b505afa15801561028e573d6000803e3d6000fd5b505050506040513d6000823e3d601f19601f820116820180604052508101906102b79190612034565b905060006004826040516102cb919061252e565b90815260200160405180910390205490506000806000805b848110156105065760006003876040516102fd919061252e565b90815260200160405180910390206000838152602001908152602001600020905060016002811115610358577f4e487b7100000000000000000000000000000000000000000000000000000000600052602160045260246000fd5b8160020160009054906101000a900460ff1660028111156103a2577f4e487b7100000000000000000000000000000000000000000000000000000000600052602160045260246000fd5b14156103bb5784806103b390612959565b9550506104f2565b6002808111156103f4577f4e487b7100000000000000000000000000000000000000000000000000000000600052602160045260246000fd5b8160020160009054906101000a900460ff16600281111561043e577f4e487b7100000000000000000000000000000000000000000000000000000000600052602160045260246000fd5b141561045757838061044f90612959565b9450506104f1565b60006002811115610491577f4e487b7100000000000000000000000000000000000000000000000000000000600052602160045260246000fd5b8160020160009054906101000a900460ff1660028111156104db577f4e487b7100000000000000000000000000000000000000000000000000000000600052602160045260246000fd5b14156104f05782806104ec90612959565b9350505b5b5b5080806104fe90612959565b9150506102e3565b5060008367ffffffffffffffff811115610549577f4e487b7100000000000000000000000000000000000000000000000000000000600052604160045260246000fd5b60405190808252806020026020018201604052801561058257816020015b61056f611d86565b8152602001906001900390816105675790505b50905060008367ffffffffffffffff8111156105c7577f4e487b7100000000000000000000000000000000000000000000000000000000600052604160045260246000fd5b60405190808252806020026020018201604052801561060057816020015b6105ed611d86565b8152602001906001900390816105e55790505b50905060008367ffffffffffffffff811115610645577f4e487b7100000000000000000000000000000000000000000000000000000000600052604160045260246000fd5b60405190808252806020026020018201604052801561067e57816020015b61066b611d86565b8152602001906001900390816106635790505b50905060009550600094506000935060005b878110156109ca57600060038a6040516106aa919061252e565b90815260200160405180910390206000838152602001908152602001600020905060016002811115610705577f4e487b7100000000000000000000000000000000000000000000000000000000600052602160045260246000fd5b8160020160009054906101000a900460ff16600281111561074f577f4e487b7100000000000000000000000000000000000000000000000000000000600052602160045260246000fd5b14156107c55760405180604001604052808b815260200182600001548152508589815181106107a7577f4e487b7100000000000000000000000000000000000000000000000000000000600052603260045260246000fd5b602002602001018190525087806107bd90612959565b9850506109b6565b6002808111156107fe577f4e487b7100000000000000000000000000000000000000000000000000000000600052602160045260246000fd5b8160020160009054906101000a900460ff166002811115610848577f4e487b7100000000000000000000000000000000000000000000000000000000600052602160045260246000fd5b14156108be5760405180604001604052808b815260200182600001548152508488815181106108a0577f4e487b7100000000000000000000000000000000000000000000000000000000600052603260045260246000fd5b602002602001018190525086806108b690612959565b9750506109b5565b600060028111156108f8577f4e487b7100000000000000000000000000000000000000000000000000000000600052602160045260246000fd5b8160020160009054906101000a900460ff166002811115610942577f4e487b7100000000000000000000000000000000000000000000000000000000600052602160045260246000fd5b14156109b45760405180604001604052808b8152602001826000015481525083878151811061099a577f4e487b7100000000000000000000000000000000000000000000000000000000600052603260045260246000fd5b602002602001018190525085806109b090612959565b9650505b5b5b5080806109c290612959565b915050610690565b508282829a509a509a505050505050505050909192565b600160009054906101000a900473ffffffffffffffffffffffffffffffffffffffff1673ffffffffffffffffffffffffffffffffffffffff1663643d430c6040518163ffffffff1660e01b815260040160206040518083038186803b158015610a4957600080fd5b505afa158015610a5d573d6000803e3d6000fd5b505050506040513d601f19601f82011682018060405250810190610a819190611f60565b73ffffffffffffffffffffffffffffffffffffffff163373ffffffffffffffffffffffffffffffffffffffff1614610aee576040517f08c379a0000000000000000000000000000000000000000000000000000000008152600401610ae59061265c565b60405180910390fd5b60006002811115610b28577f4e487b7100000000000000000000000000000000000000000000000000000000600052602160045260246000fd5b600383604051610b38919061252e565b9081526020016040518091039020600083815260200190815260200160002060020160009054906101000a900460ff166002811115610ba0577f4e487b7100000000000000000000000000000000000000000000000000000000600052602160045260246000fd5b14610be0576040517f08c379a0000000000000000000000000000000000000000000000000000000008152600401610bd79061269c565b60405180910390fd5b6001600383604051610bf2919061252e565b9081526020016040518091039020600083815260200190815260200160002060020160006101000a81548160ff02191690836002811115610c5c577f4e487b7100000000000000000000000000000000000000000000000000000000600052602160045260246000fd5b021790555042600383604051610c72919061252e565b908152602001604051809103902060008381526020019081526020016000206001018190555081604051610ca6919061252e565b60405180910390207fa1ff25ac09c50f38300e20690f0214377bce91708a243726e0a967a32ffd30fb82600385604051610ce0919061252e565b9081526020016040518091039020600085815260200190815260200160002060020160009054906101000a900460ff16604051610d1e9291906126f7565b60405180910390a25050565b606060008060008060008054906101000a900473ffffffffffffffffffffffffffffffffffffffff1673ffffffffffffffffffffffffffffffffffffffff16632b07fce3876040518263ffffffff1660e01b8152600401610d8b91906126dc565b60006040518083038186803b158015610da357600080fd5b505afa158015610db7573d6000803e3d6000fd5b505050506040513d6000823e3d601f19601f82011682018060405250810190610de091906120c9565b9450945094509450945091939590929450565b6004818051602081018201805184825260208301602085012081835280955050505050506000915090505481565b600160009054906101000a900473ffffffffffffffffffffffffffffffffffffffff1681565b600382805160208101820180518482526020830160208501208183528095505050505050602052806000526040600020600091509150508060000154908060010154908060020160009054906101000a900460ff16905083565b6000600160009054906101000a900473ffffffffffffffffffffffffffffffffffffffff1673ffffffffffffffffffffffffffffffffffffffff166343ae37c36040518163ffffffff1660e01b815260040160006040518083038186803b158015610f0b57600080fd5b505afa158015610f1f573d6000803e3d6000fd5b505050506040513d6000823e3d601f19601f82011682018060405250810190610f489190612034565b905060008060009054906101000a900473ffffffffffffffffffffffffffffffffffffffff1673ffffffffffffffffffffffffffffffffffffffff166343f67094846040518263ffffffff1660e01b8152600401610fa691906126dc565b60206040518083038186803b158015610fbe57600080fd5b505afa158015610fd2573d6000803e3d6000fd5b505050506040513d601f19601f82011682018060405250810190610ff69190611fca565b905080611038576040517f08c379a000000000000000000000000000000000000000000000000000000000815260040161102f9061267c565b60405180910390fd5b6000600160009054906101000a900473ffffffffffffffffffffffffffffffffffffffff1673ffffffffffffffffffffffffffffffffffffffff16637cae3d4d6040518163ffffffff1660e01b815260040160206040518083038186803b1580156110a257600080fd5b505afa1580156110b6573d6000803e3d6000fd5b505050506040513d601f19601f820116820180604052508101906110da9190612181565b60ff161161111d576040517f08c379a0000000000000000000000000000000000000000000000000000000008152600401611114906126bc565b60405180910390fd5b60005b600483604051611130919061252e565b9081526020016040518091039020548110156111ce5783600384604051611157919061252e565b908152602001604051809103902060008381526020019081526020016000206000015414156111bb576040517f08c379a00000000000000000000000000000000000000000000000000000000081526004016111b29061263c565b60405180910390fd5b80806111c690612959565b915050611120565b506040518060600160405280848152602001643aff743d34815260200160006002811115611225577f4e487b7100000000000000000000000000000000000000000000000000000000600052602160045260246000fd5b815250600383604051611238919061252e565b90815260200160405180910390206000600485604051611258919061252e565b9081526020016040518091039020548152602001908152602001600020600082015181600001556020820151816001015560408201518160020160006101000a81548160ff021916908360028111156112da577f4e487b7100000000000000000000000000000000000000000000000000000000600052602160045260246000fd5b02179055509050506004826040516112f2919061252e565b9081526020016040518091039020600081548092919061131190612959565b919050555081604051611324919061252e565b60405180910390207f2259e4429803e2dabfdeb8ef13ff06878b1fe0790767e6c04228d7b92c130ad38460405161135b91906126dc565b60405180910390a2505050565b60008054906101000a900473ffffffffffffffffffffffffffffffffffffffff1681565b6060806060600160009054906101000a900473ffffffffffffffffffffffffffffffffffffffff1673ffffffffffffffffffffffffffffffffffffffff1663643d430c6040518163ffffffff1660e01b815260040160206040518083038186803b1580156113f957600080fd5b505afa15801561140d573d6000803e3d6000fd5b505050506040513d601f19601f820116820180604052508101906114319190611f60565b73ffffffffffffffffffffffffffffffffffffffff163373ffffffffffffffffffffffffffffffffffffffff161461149e576040517f08c379a00000000000000000000000000000000000000000000000000000000081526004016114959061265c565b60405180910390fd5b6000600160009054906101000a900473ffffffffffffffffffffffffffffffffffffffff1673ffffffffffffffffffffffffffffffffffffffff16631bb647226040518163ffffffff1660e01b815260040160006040518083038186803b15801561150857600080fd5b505afa15801561151c573d6000803e3d6000fd5b505050506040513d6000823e3d601f19601f820116820180604052508101906115459190611f89565b90506000806000905060008060005b85518110156117fe576000868281518110611598577f4e487b7100000000000000000000000000000000000000000000000000000000600052603260045260246000fd5b602002602001015190506004816040516115b2919061252e565b908152602001604051809103902054955060005b868110156117e95760006003836040516115e0919061252e565b9081526020016040518091039020600083815260200190815260200160002090506001600281111561163b577f4e487b7100000000000000000000000000000000000000000000000000000000600052602160045260246000fd5b8160020160009054906101000a900460ff166002811115611685577f4e487b7100000000000000000000000000000000000000000000000000000000600052602160045260246000fd5b141561169e57868061169690612959565b9750506117d5565b6002808111156116d7577f4e487b7100000000000000000000000000000000000000000000000000000000600052602160045260246000fd5b8160020160009054906101000a900460ff166002811115611721577f4e487b7100000000000000000000000000000000000000000000000000000000600052602160045260246000fd5b141561173a57858061173290612959565b9650506117d4565b60006002811115611774577f4e487b7100000000000000000000000000000000000000000000000000000000600052602160045260246000fd5b8160020160009054906101000a900460ff1660028111156117be577f4e487b7100000000000000000000000000000000000000000000000000000000600052602160045260246000fd5b14156117d35784806117cf90612959565b9550505b5b5b5080806117e190612959565b9150506115c6565b505080806117f690612959565b915050611554565b5060008367ffffffffffffffff811115611841577f4e487b7100000000000000000000000000000000000000000000000000000000600052604160045260246000fd5b60405190808252806020026020018201604052801561187a57816020015b611867611d86565b81526020019060019003908161185f5790505b50905060008367ffffffffffffffff8111156118bf577f4e487b7100000000000000000000000000000000000000000000000000000000600052604160045260246000fd5b6040519080825280602002602001820160405280156118f857816020015b6118e5611d86565b8152602001906001900390816118dd5790505b50905060008367ffffffffffffffff81111561193d577f4e487b7100000000000000000000000000000000000000000000000000000000600052604160045260246000fd5b60405190808252806020026020018201604052801561197657816020015b611963611d86565b81526020019060019003908161195b5790505b50905060009550600094506000935060005b8851811015611d495760008982815181106119cc577f4e487b7100000000000000000000000000000000000000000000000000000000600052603260045260246000fd5b602002602001015190506004816040516119e6919061252e565b908152602001604051809103902054985060005b89811015611d34576000600383604051611a14919061252e565b90815260200160405180910390206000838152602001908152602001600020905060016002811115611a6f577f4e487b7100000000000000000000000000000000000000000000000000000000600052602160045260246000fd5b8160020160009054906101000a900460ff166002811115611ab9577f4e487b7100000000000000000000000000000000000000000000000000000000600052602160045260246000fd5b1415611b2f5760405180604001604052808481526020018260000154815250878b81518110611b11577f4e487b7100000000000000000000000000000000000000000000000000000000600052603260045260246000fd5b60200260200101819052508980611b2790612959565b9a5050611d20565b600280811115611b68577f4e487b7100000000000000000000000000000000000000000000000000000000600052602160045260246000fd5b8160020160009054906101000a900460ff166002811115611bb2577f4e487b7100000000000000000000000000000000000000000000000000000000600052602160045260246000fd5b1415611c285760405180604001604052808481526020018260000154815250868a81518110611c0a577f4e487b7100000000000000000000000000000000000000000000000000000000600052603260045260246000fd5b60200260200101819052508880611c2090612959565b995050611d1f565b60006002811115611c62577f4e487b7100000000000000000000000000000000000000000000000000000000600052602160045260246000fd5b8160020160009054906101000a900460ff166002811115611cac577f4e487b7100000000000000000000000000000000000000000000000000000000600052602160045260246000fd5b1415611d1e5760405180604001604052808481526020018260000154815250858981518110611d04577f4e487b7100000000000000000000000000000000000000000000000000000000600052603260045260246000fd5b60200260200101819052508780611d1a90612959565b9850505b5b5b508080611d2c90612959565b9150506119fa565b50508080611d4190612959565b915050611988565b508282829a509a509a505050505050505050909192565b600260009054906101000a900473ffffffffffffffffffffffffffffffffffffffff1681565b604051806040016040528060608152602001600081525090565b6000611db3611dae84612788565b612757565b9050808382526020820190508260005b85811015611df35781518501611dd98882611ef7565b845260208401935060208301925050600181019050611dc3565b5050509392505050565b6000611e10611e0b846127b4565b612757565b905082815260208101848484011115611e2857600080fd5b611e33848285612917565b509392505050565b6000611e4e611e49846127b4565b612757565b905082815260208101848484011115611e6657600080fd5b611e71848285612926565b509392505050565b600081519050611e8881612a54565b92915050565b600082601f830112611e9f57600080fd5b8151611eaf848260208601611da0565b91505092915050565b600081519050611ec781612a6b565b92915050565b600082601f830112611ede57600080fd5b8135611eee848260208601611dfd565b91505092915050565b600082601f830112611f0857600080fd5b8151611f18848260208601611e3b565b91505092915050565b600081359050611f3081612a82565b92915050565b600081519050611f4581612a82565b92915050565b600081519050611f5a81612a99565b92915050565b600060208284031215611f7257600080fd5b6000611f8084828501611e79565b91505092915050565b600060208284031215611f9b57600080fd5b600082015167ffffffffffffffff811115611fb557600080fd5b611fc184828501611e8e565b91505092915050565b600060208284031215611fdc57600080fd5b6000611fea84828501611eb8565b91505092915050565b60006020828403121561200557600080fd5b600082013567ffffffffffffffff81111561201f57600080fd5b61202b84828501611ecd565b91505092915050565b60006020828403121561204657600080fd5b600082015167ffffffffffffffff81111561206057600080fd5b61206c84828501611ef7565b91505092915050565b6000806040838503121561208857600080fd5b600083013567ffffffffffffffff8111156120a257600080fd5b6120ae85828601611ecd565b92505060206120bf85828601611f21565b9150509250929050565b600080600080600060a086880312156120e157600080fd5b600086015167ffffffffffffffff8111156120fb57600080fd5b61210788828901611ef7565b955050602061211888828901611f36565b945050604061212988828901611f36565b935050606061213a88828901611f36565b925050608061214b88828901611eb8565b9150509295509295909350565b60006020828403121561216a57600080fd5b600061217884828501611f21565b91505092915050565b60006020828403121561219357600080fd5b60006121a184828501611f4b565b91505092915050565b60006121b683836124d3565b905092915050565b6121c781612855565b82525050565b60006121d8826127f4565b6121e28185612817565b9350836020820285016121f4856127e4565b8060005b85811015612230578484038952815161221185826121aa565b945061221c8361280a565b925060208a019950506001810190506121f8565b50829750879550505050505092915050565b61224b81612867565b82525050565b61225a816128bd565b82525050565b612269816128e1565b82525050565b61227881612905565b82525050565b6000612289826127ff565b6122938185612828565b93506122a3818560208601612926565b6122ac81612a2f565b840191505092915050565b60006122c2826127ff565b6122cc8185612839565b93506122dc818560208601612926565b6122e581612a2f565b840191505092915050565b60006122fb826127ff565b612305818561284a565b9350612315818560208601612926565b80840191505092915050565b600061232e603c83612839565b91507f596f75206861642073756273637269626564207468652073616d65207061636b60008301527f616765206f722077616974696e6720666f7220617070726f7665642e000000006020830152604082019050919050565b6000612394603a83612839565b91507f4d6574616d61736b206163636f756e7420616e6420616464726573732075736560008301527f6420746f207369676e20696e20646f206e6f74206d617463682e0000000000006020830152604082019050919050565b60006123fa601583612839565b91507f5061636b616765206973206e6f742061637469766500000000000000000000006000830152602082019050919050565b600061243a601b83612839565b91507f54686973207265717565737420646f6573206e6f7420657869737400000000006000830152602082019050919050565b600061247a603183612839565b91507f5573657220646f6573206e6f74206d6565742074686520616765206c696d697460008301527f20666f722074686973207061636b6167650000000000000000000000000000006020830152604082019050919050565b600060408301600083015184820360008601526124f0828261227e565b91505060208301516125056020860182612510565b508091505092915050565b612519816128a6565b82525050565b612528816128a6565b82525050565b600061253a82846122f0565b915081905092915050565b600060208201905061255a60008301846121be565b92915050565b6000606082019050818103600083015261257a81866121cd565b9050818103602083015261258e81856121cd565b905081810360408301526125a281846121cd565b9050949350505050565b60006020820190506125c16000830184612251565b92915050565b60006020820190506125dc6000830184612260565b92915050565b600060a08201905081810360008301526125fc81886122b7565b905061260b602083018761251f565b612618604083018661251f565b612625606083018561251f565b6126326080830184612242565b9695505050505050565b6000602082019050818103600083015261265581612321565b9050919050565b6000602082019050818103600083015261267581612387565b9050919050565b60006020820190508181036000830152612695816123ed565b9050919050565b600060208201905081810360008301526126b58161242d565b9050919050565b600060208201905081810360008301526126d58161246d565b9050919050565b60006020820190506126f1600083018461251f565b92915050565b600060408201905061270c600083018561251f565b612719602083018461226f565b9392505050565b6000606082019050612735600083018661251f565b612742602083018561251f565b61274f604083018461226f565b949350505050565b6000604051905081810181811067ffffffffffffffff8211171561277e5761277d612a00565b5b8060405250919050565b600067ffffffffffffffff8211156127a3576127a2612a00565b5b602082029050602081019050919050565b600067ffffffffffffffff8211156127cf576127ce612a00565b5b601f19601f8301169050602081019050919050565b6000819050602082019050919050565b600081519050919050565b600081519050919050565b6000602082019050919050565b600082825260208201905092915050565b600082825260208201905092915050565b600082825260208201905092915050565b600081905092915050565b600061286082612886565b9050919050565b60008115159050919050565b600081905061288182612a40565b919050565b600073ffffffffffffffffffffffffffffffffffffffff82169050919050565b6000819050919050565b600060ff82169050919050565b60006128c8826128cf565b9050919050565b60006128da82612886565b9050919050565b60006128ec826128f3565b9050919050565b60006128fe82612886565b9050919050565b600061291082612873565b9050919050565b82818337600083830152505050565b60005b83811015612944578082015181840152602081019050612929565b83811115612953576000848401525b50505050565b6000612964826128a6565b91507fffffffffffffffffffffffffffffffffffffffffffffffffffffffffffffffff821415612997576129966129a2565b5b600182019050919050565b7f4e487b7100000000000000000000000000000000000000000000000000000000600052601160045260246000fd5b7f4e487b7100000000000000000000000000000000000000000000000000000000600052602160045260246000fd5b7f4e487b7100000000000000000000000000000000000000000000000000000000600052604160045260246000fd5b6000601f19601f8301169050919050565b60038110612a5157612a506129d1565b5b50565b612a5d81612855565b8114612a6857600080fd5b50565b612a7481612867565b8114612a7f57600080fd5b50565b612a8b816128a6565b8114612a9657600080fd5b50565b612aa2816128b0565b8114612aad57600080fd5b5056fea26469706673582212207210773ae0768fe2211bfd08b02ce4e225be736c5d0bce9189308e4caa690fa164736f6c63430008000033",
  "immutableReferences": {},
  "source": "// SPDX-License-Identifier: MIT\r\npragma solidity ^0.8.0;\r\n\r\nimport \"./AdminInsurancePolicy.sol\"; // Import the AdminInsurancePolicy contract\r\nimport \"./UserAuth.sol\";\r\n\r\ncontract PurchasePackage {\r\n    AdminInsurancePolicy public adminContract;\r\n    UserAuth public userAuthContract;\r\n    address public admin;\r\n\r\n    enum InsuranceStatus {\r\n        Pending,\r\n        Approved,\r\n        Cancelled\r\n    }\r\n\r\n    struct Subscription {\r\n        uint256 packageId;\r\n        uint256 payDate;\r\n        InsuranceStatus status;\r\n    }\r\n\r\n    struct PackageData {\r\n        string userEmail;\r\n        uint256 packageID;\r\n    }\r\n\r\n    mapping(string => mapping(uint256 => Subscription)) public Subscriptions;\r\n    mapping(string => uint256) public subscriptionCount;\r\n\r\n    event PackageSubscribed(address indexed user, uint256 packageId);\r\n    event SubscriptionRequested(string indexed user, uint256 packageId);\r\n    event SubscriptionApproved(\r\n        string indexed user,\r\n        uint256 packageId,\r\n        InsuranceStatus status\r\n    );\r\n\r\n    constructor(address _adminPolicyAddress, address _userAuthAddress) {\r\n        adminContract = AdminInsurancePolicy(_adminPolicyAddress);\r\n        userAuthContract = UserAuth(_userAuthAddress);\r\n        admin = msg.sender;\r\n    }\r\n\r\n    modifier sameAdmin() {\r\n        require(\r\n            msg.sender == userAuthContract.getCurrentAdmin(),\r\n            \"Metamask account and address used to sign in do not match.\"\r\n        );\r\n        _;\r\n    }\r\n\r\n    // Function for subscribing to a package (requests admin approval)\r\n    function subscribeToPackage(uint256 _packageId) public {\r\n        string memory user = userAuthContract.getCurrentUser();\r\n        // Fetch the policy details from the AdminInsurancePolicy contract\r\n\r\n        bool isActive = adminContract.getPolicyAvailibility(_packageId);\r\n\r\n        // Ensure the package is active and the user meets the age limit\r\n        require(isActive, \"Package is not active\");\r\n        require(\r\n            userAuthContract.getUserAge() > 0,\r\n            \"User does not meet the age limit for this package\"\r\n        );\r\n\r\n        // Check to make sure cannot subscribed redundent packageId\r\n        for (uint256 i = 0; i < subscriptionCount[user]; i++){\r\n            require(Subscriptions[user][i].packageId != _packageId, \"You had subscribed the same package or waiting for approved.\");\r\n        }\r\n\r\n        // Create a subscription request\r\n        Subscriptions[user][subscriptionCount[user]] = Subscription({\r\n            packageId: _packageId,\r\n            payDate: 253393911092, // Impossibly future date\r\n            status: InsuranceStatus.Pending\r\n        });\r\n\r\n        subscriptionCount[user]++;\r\n\r\n        emit SubscriptionRequested(user, _packageId);\r\n    }\r\n\r\n    // Function for admin to approve a subscription request\r\n    function approveSubscription(\r\n        string memory _user,\r\n        uint256 _packageID\r\n    ) public sameAdmin {\r\n        require(\r\n            Subscriptions[_user][_packageID].status == InsuranceStatus.Pending,\r\n            \"This request does not exist\"\r\n        );\r\n\r\n        Subscriptions[_user][_packageID].status = InsuranceStatus.Approved;\r\n        Subscriptions[_user][_packageID].payDate = block.timestamp;\r\n\r\n        emit SubscriptionApproved(\r\n            _user,\r\n            _packageID,\r\n            Subscriptions[_user][_packageID].status\r\n        );\r\n    }\r\n\r\n    function viewPackages()\r\n        public\r\n        view\r\n        returns (\r\n            PackageData[] memory,\r\n            PackageData[] memory,\r\n            PackageData[] memory\r\n        )\r\n    {\r\n        string memory user = userAuthContract.getCurrentUser();\r\n        uint256 totalSubscriptions = subscriptionCount[user];\r\n\r\n        // Initialize counts to keep track of the number of approved, cancelled, and pending packages\r\n        uint256 approvedCount = 0;\r\n        uint256 cancelledCount = 0;\r\n        uint256 pendingCount = 0;\r\n\r\n        // First, count the total number of subscriptions in each category\r\n        for (uint256 i = 0; i < totalSubscriptions; i++) {\r\n            Subscription storage subscription = Subscriptions[user][i];\r\n\r\n            if (subscription.status == InsuranceStatus.Approved) {\r\n                approvedCount++;\r\n            } else if (subscription.status == InsuranceStatus.Cancelled) {\r\n                cancelledCount++;\r\n            } else if (subscription.status == InsuranceStatus.Pending) {\r\n                pendingCount++;\r\n            }\r\n        }\r\n\r\n        // Initialize arrays with the correct sizes\r\n        PackageData[] memory approvedPackages = new PackageData[](\r\n            approvedCount\r\n        );\r\n        PackageData[] memory cancelledPackages = new PackageData[](\r\n            cancelledCount\r\n        );\r\n        PackageData[] memory pendingPackages = new PackageData[](pendingCount);\r\n\r\n        // Reset counts to use as indices\r\n        approvedCount = 0;\r\n        cancelledCount = 0;\r\n        pendingCount = 0;\r\n\r\n        // Loop through the user's subscriptions and fill the arrays\r\n        for (uint256 i = 0; i < totalSubscriptions; i++) {\r\n            Subscription storage subscription = Subscriptions[user][i];\r\n\r\n            if (subscription.status == InsuranceStatus.Approved) {\r\n                approvedPackages[approvedCount] = PackageData({\r\n                    userEmail: user,\r\n                    packageID: subscription.packageId\r\n                });\r\n                approvedCount++;\r\n            } else if (subscription.status == InsuranceStatus.Cancelled) {\r\n                cancelledPackages[cancelledCount] = PackageData({\r\n                    userEmail: user,\r\n                    packageID: subscription.packageId\r\n                });\r\n                cancelledCount++;\r\n            } else if (subscription.status == InsuranceStatus.Pending) {\r\n                pendingPackages[pendingCount] = PackageData({\r\n                    userEmail: user,\r\n                    packageID: subscription.packageId\r\n                });\r\n                pendingCount++;\r\n            }\r\n        }\r\n\r\n        return (approvedPackages, cancelledPackages, pendingPackages);\r\n    }\r\n\r\n    // Function to get details of a specific package by ID\r\n    function getPackageDetails(\r\n        uint256 _packageId\r\n    ) public view returns (string memory, uint256, uint256, uint256, bool) {\r\n        return adminContract.getPolicy(_packageId); // Fetch package details from AdminInsurancePolicy\r\n    }\r\n\r\n    // Function for the admin to view all subscriptions\r\n    function viewAllSubscriptions()\r\n        public\r\n        view\r\n        sameAdmin\r\n        returns (\r\n            PackageData[] memory,\r\n            PackageData[] memory,\r\n            PackageData[] memory\r\n        )\r\n    {\r\n        string[] memory registeredUserEmails = userAuthContract\r\n            .getRegisteredUserEmails();\r\n\r\n        uint256 totalSubscriptions;\r\n        uint256 approvedCount = 0;\r\n        uint256 cancelledCount = 0;\r\n        uint256 pendingCount = 0;\r\n\r\n        // First, calculate the total count of each category\r\n        for (uint256 i = 0; i < registeredUserEmails.length; i++) {\r\n            string memory currentUser = registeredUserEmails[i];\r\n            totalSubscriptions = subscriptionCount[currentUser];\r\n\r\n            for (uint256 j = 0; j < totalSubscriptions; j++) {\r\n                Subscription storage subscription = Subscriptions[currentUser][\r\n                    j\r\n                ];\r\n\r\n                if (subscription.status == InsuranceStatus.Approved) {\r\n                    approvedCount++;\r\n                } else if (subscription.status == InsuranceStatus.Cancelled) {\r\n                    cancelledCount++;\r\n                } else if (subscription.status == InsuranceStatus.Pending) {\r\n                    pendingCount++;\r\n                }\r\n            }\r\n        }\r\n\r\n        // Now, initialize the arrays with the correct size\r\n        PackageData[] memory approvedPackages = new PackageData[](\r\n            approvedCount\r\n        );\r\n        PackageData[] memory cancelledPackages = new PackageData[](\r\n            cancelledCount\r\n        );\r\n        PackageData[] memory pendingPackages = new PackageData[](pendingCount);\r\n\r\n        // Reset counts to use as indices while adding items\r\n        approvedCount = 0;\r\n        cancelledCount = 0;\r\n        pendingCount = 0;\r\n\r\n        // Loop through users again and populate the arrays\r\n        for (uint256 i = 0; i < registeredUserEmails.length; i++) {\r\n            string memory currentUser = registeredUserEmails[i];\r\n            totalSubscriptions = subscriptionCount[currentUser];\r\n\r\n            for (uint256 j = 0; j < totalSubscriptions; j++) {\r\n                Subscription storage subscription = Subscriptions[currentUser][\r\n                    j\r\n                ];\r\n\r\n                if (subscription.status == InsuranceStatus.Approved) {\r\n                    approvedPackages[approvedCount] = PackageData({\r\n                        userEmail: currentUser,\r\n                        packageID: subscription.packageId\r\n                    });\r\n                    approvedCount++;\r\n                } else if (subscription.status == InsuranceStatus.Cancelled) {\r\n                    cancelledPackages[cancelledCount] = PackageData({\r\n                        userEmail: currentUser,\r\n                        packageID: subscription.packageId\r\n                    });\r\n                    cancelledCount++;\r\n                } else if (subscription.status == InsuranceStatus.Pending) {\r\n                    pendingPackages[pendingCount] = PackageData({\r\n                        userEmail: currentUser,\r\n                        packageID: subscription.packageId\r\n                    });\r\n                    pendingCount++;\r\n                }\r\n            }\r\n        }\r\n\r\n        return (approvedPackages, cancelledPackages, pendingPackages);\r\n    }\r\n}",
  "sourcePath": "C:\\Users\\keeke\\Desktop\\BlockChain\\Great_Global\\Danny_Test\\SponsorAnimals\\contracts\\PurchasePackage.sol",
  "compiler": {
    "name": "solc",
    "version": "0.8.0+commit.c7dfd78e.Emscripten.clang"
  },
  "schemaVersion": "3.4.16",
  "updatedAt": "2024-09-26T07:45:19.048Z",
  "devdoc": {
    "kind": "dev",
    "methods": {},
    "version": 1
  },
  "userdoc": {
    "kind": "user",
    "methods": {},
    "version": 1
  }
}