{
  "contractName": "PurchasePackage",
  "abi": [
    {
      "inputs": [
        {
          "internalType": "address",
          "name": "_adminPolicyAddress",
          "type": "address"
        },
        {
          "internalType": "address",
          "name": "_userAuthAddress",
          "type": "address"
        }
      ],
      "stateMutability": "nonpayable",
      "type": "constructor"
    },
    {
      "anonymous": false,
      "inputs": [
        {
          "indexed": true,
          "internalType": "address",
          "name": "user",
          "type": "address"
        },
        {
          "indexed": false,
          "internalType": "uint256",
          "name": "packageId",
          "type": "uint256"
        }
      ],
      "name": "PackageSubscribed",
      "type": "event"
    },
    {
      "anonymous": false,
      "inputs": [
        {
          "indexed": true,
          "internalType": "string",
          "name": "user",
          "type": "string"
        },
        {
          "indexed": false,
          "internalType": "uint256",
          "name": "packageId",
          "type": "uint256"
        },
        {
          "indexed": false,
          "internalType": "enum PurchasePackage.InsuranceStatus",
          "name": "status",
          "type": "uint8"
        }
      ],
      "name": "SubscriptionApproved",
      "type": "event"
    },
    {
      "anonymous": false,
      "inputs": [
        {
          "indexed": true,
          "internalType": "string",
          "name": "user",
          "type": "string"
        },
        {
          "indexed": false,
          "internalType": "uint256",
          "name": "packageId",
          "type": "uint256"
        }
      ],
      "name": "SubscriptionRequested",
      "type": "event"
    },
    {
      "inputs": [
        {
          "internalType": "string",
          "name": "",
          "type": "string"
        },
        {
          "internalType": "uint256",
          "name": "",
          "type": "uint256"
        }
      ],
      "name": "Subscriptions",
      "outputs": [
        {
          "internalType": "uint256",
          "name": "packageId",
          "type": "uint256"
        },
        {
          "internalType": "uint256",
          "name": "payDate",
          "type": "uint256"
        },
        {
          "internalType": "enum PurchasePackage.InsuranceStatus",
          "name": "status",
          "type": "uint8"
        }
      ],
      "stateMutability": "view",
      "type": "function"
    },
    {
      "inputs": [],
      "name": "admin",
      "outputs": [
        {
          "internalType": "address",
          "name": "",
          "type": "address"
        }
      ],
      "stateMutability": "view",
      "type": "function"
    },
    {
      "inputs": [],
      "name": "adminContract",
      "outputs": [
        {
          "internalType": "contract AdminInsurancePolicy",
          "name": "",
          "type": "address"
        }
      ],
      "stateMutability": "view",
      "type": "function"
    },
    {
      "inputs": [
        {
          "internalType": "string",
          "name": "",
          "type": "string"
        }
      ],
      "name": "subscriptionCount",
      "outputs": [
        {
          "internalType": "uint256",
          "name": "",
          "type": "uint256"
        }
      ],
      "stateMutability": "view",
      "type": "function"
    },
    {
      "inputs": [],
      "name": "userAuthContract",
      "outputs": [
        {
          "internalType": "contract UserAuth",
          "name": "",
          "type": "address"
        }
      ],
      "stateMutability": "view",
      "type": "function"
    },
    {
      "inputs": [
        {
          "internalType": "uint256",
          "name": "_packageId",
          "type": "uint256"
        }
      ],
      "name": "subscribeToPackage",
      "outputs": [],
      "stateMutability": "nonpayable",
      "type": "function"
    },
    {
      "inputs": [
        {
          "internalType": "string",
          "name": "_user",
          "type": "string"
        },
        {
          "internalType": "uint256",
          "name": "_packageID",
          "type": "uint256"
        }
      ],
      "name": "approveSubscription",
      "outputs": [],
      "stateMutability": "nonpayable",
      "type": "function"
    },
    {
      "inputs": [],
      "name": "viewPackages",
      "outputs": [
        {
          "components": [
            {
              "internalType": "string",
              "name": "userEmail",
              "type": "string"
            },
            {
              "internalType": "uint256",
              "name": "packageID",
              "type": "uint256"
            }
          ],
          "internalType": "struct PurchasePackage.PackageData[]",
          "name": "",
          "type": "tuple[]"
        },
        {
          "components": [
            {
              "internalType": "string",
              "name": "userEmail",
              "type": "string"
            },
            {
              "internalType": "uint256",
              "name": "packageID",
              "type": "uint256"
            }
          ],
          "internalType": "struct PurchasePackage.PackageData[]",
          "name": "",
          "type": "tuple[]"
        },
        {
          "components": [
            {
              "internalType": "string",
              "name": "userEmail",
              "type": "string"
            },
            {
              "internalType": "uint256",
              "name": "packageID",
              "type": "uint256"
            }
          ],
          "internalType": "struct PurchasePackage.PackageData[]",
          "name": "",
          "type": "tuple[]"
        }
      ],
      "stateMutability": "view",
      "type": "function"
    },
    {
      "inputs": [
        {
          "internalType": "uint256",
          "name": "_packageId",
          "type": "uint256"
        }
      ],
      "name": "getPackageDetails",
      "outputs": [
        {
          "internalType": "string",
          "name": "",
          "type": "string"
        },
        {
          "internalType": "uint256",
          "name": "",
          "type": "uint256"
        },
        {
          "internalType": "uint256",
          "name": "",
          "type": "uint256"
        },
        {
          "internalType": "uint256",
          "name": "",
          "type": "uint256"
        },
        {
          "internalType": "bool",
          "name": "",
          "type": "bool"
        }
      ],
      "stateMutability": "view",
      "type": "function"
    },
    {
      "inputs": [],
      "name": "viewAllSubscriptions",
      "outputs": [
        {
          "components": [
            {
              "internalType": "string",
              "name": "userEmail",
              "type": "string"
            },
            {
              "internalType": "uint256",
              "name": "packageID",
              "type": "uint256"
            }
          ],
          "internalType": "struct PurchasePackage.PackageData[]",
          "name": "",
          "type": "tuple[]"
        },
        {
          "components": [
            {
              "internalType": "string",
              "name": "userEmail",
              "type": "string"
            },
            {
              "internalType": "uint256",
              "name": "packageID",
              "type": "uint256"
            }
          ],
          "internalType": "struct PurchasePackage.PackageData[]",
          "name": "",
          "type": "tuple[]"
        },
        {
          "components": [
            {
              "internalType": "string",
              "name": "userEmail",
              "type": "string"
            },
            {
              "internalType": "uint256",
              "name": "packageID",
              "type": "uint256"
            }
          ],
          "internalType": "struct PurchasePackage.PackageData[]",
          "name": "",
          "type": "tuple[]"
        }
      ],
      "stateMutability": "view",
      "type": "function"
    }
  ],
  "bytecode": "0x60806040523480156200001157600080fd5b5060405162002b2938038062002b29833981810160405281019062000037919062000118565b816000806101000a81548173ffffffffffffffffffffffffffffffffffffffff021916908373ffffffffffffffffffffffffffffffffffffffff16021790555080600160006101000a81548173ffffffffffffffffffffffffffffffffffffffff021916908373ffffffffffffffffffffffffffffffffffffffff16021790555033600260006101000a81548173ffffffffffffffffffffffffffffffffffffffff021916908373ffffffffffffffffffffffffffffffffffffffff1602179055505050620001a7565b60008151905062000112816200018d565b92915050565b600080604083850312156200012c57600080fd5b60006200013c8582860162000101565b92505060206200014f8582860162000101565b9150509250929050565b600062000166826200016d565b9050919050565b600073ffffffffffffffffffffffffffffffffffffffff82169050919050565b620001988162000159565b8114620001a457600080fd5b50565b61297280620001b76000396000f3fe608060405234801561001057600080fd5b506004361061009e5760003560e01c8063a76e908a11610066578063a76e908a14610161578063bd3078bd14610193578063c05c5e94146101af578063efa7808a146101cd578063f851a440146101ed5761009e565b806309ac920a146100a3578063415e6102146100c35780636c435e36146100df5780638ebc2ce514610113578063a5407a4414610143575b600080fd5b6100ab61020b565b6040516100ba93929190612430565b60405180910390f35b6100dd60048036038101906100d89190611fab565b6109e1565b005b6100f960048036038101906100f4919061208e565b610d2a565b60405161010a9594939291906124b2565b60405180910390f35b61012d60048036038101906101289190611f29565b610df3565b60405161013a919061258c565b60405180910390f35b61014b610e21565b6040516101589190612497565b60405180910390f35b61017b60048036038101906101769190611fab565b610e47565b60405161018a939291906125d0565b60405180910390f35b6101ad60048036038101906101a8919061208e565b610ea1565b005b6101b76112b3565b6040516101c4919061247c565b60405180910390f35b6101d56112d7565b6040516101e493929190612430565b60405180910390f35b6101f5611cab565b6040516102029190612415565b60405180910390f35b60608060606000600160009054906101000a900473ffffffffffffffffffffffffffffffffffffffff1673ffffffffffffffffffffffffffffffffffffffff166343ae37c36040518163ffffffff1660e01b815260040160006040518083038186803b15801561027a57600080fd5b505afa15801561028e573d6000803e3d6000fd5b505050506040513d6000823e3d601f19601f820116820180604052508101906102b79190611f6a565b905060006004826040516102cb91906123fe565b90815260200160405180910390205490506000806000805b848110156105065760006003876040516102fd91906123fe565b90815260200160405180910390206000838152602001908152602001600020905060016002811115610358577f4e487b7100000000000000000000000000000000000000000000000000000000600052602160045260246000fd5b8160020160009054906101000a900460ff1660028111156103a2577f4e487b7100000000000000000000000000000000000000000000000000000000600052602160045260246000fd5b14156103bb5784806103b3906127fc565b9550506104f2565b6002808111156103f4577f4e487b7100000000000000000000000000000000000000000000000000000000600052602160045260246000fd5b8160020160009054906101000a900460ff16600281111561043e577f4e487b7100000000000000000000000000000000000000000000000000000000600052602160045260246000fd5b141561045757838061044f906127fc565b9450506104f1565b60006002811115610491577f4e487b7100000000000000000000000000000000000000000000000000000000600052602160045260246000fd5b8160020160009054906101000a900460ff1660028111156104db577f4e487b7100000000000000000000000000000000000000000000000000000000600052602160045260246000fd5b14156104f05782806104ec906127fc565b9350505b5b5b5080806104fe906127fc565b9150506102e3565b5060008367ffffffffffffffff811115610549577f4e487b7100000000000000000000000000000000000000000000000000000000600052604160045260246000fd5b60405190808252806020026020018201604052801561058257816020015b61056f611cd1565b8152602001906001900390816105675790505b50905060008367ffffffffffffffff8111156105c7577f4e487b7100000000000000000000000000000000000000000000000000000000600052604160045260246000fd5b60405190808252806020026020018201604052801561060057816020015b6105ed611cd1565b8152602001906001900390816105e55790505b50905060008367ffffffffffffffff811115610645577f4e487b7100000000000000000000000000000000000000000000000000000000600052604160045260246000fd5b60405190808252806020026020018201604052801561067e57816020015b61066b611cd1565b8152602001906001900390816106635790505b50905060009550600094506000935060005b878110156109ca57600060038a6040516106aa91906123fe565b90815260200160405180910390206000838152602001908152602001600020905060016002811115610705577f4e487b7100000000000000000000000000000000000000000000000000000000600052602160045260246000fd5b8160020160009054906101000a900460ff16600281111561074f577f4e487b7100000000000000000000000000000000000000000000000000000000600052602160045260246000fd5b14156107c55760405180604001604052808b815260200182600001548152508589815181106107a7577f4e487b7100000000000000000000000000000000000000000000000000000000600052603260045260246000fd5b602002602001018190525087806107bd906127fc565b9850506109b6565b6002808111156107fe577f4e487b7100000000000000000000000000000000000000000000000000000000600052602160045260246000fd5b8160020160009054906101000a900460ff166002811115610848577f4e487b7100000000000000000000000000000000000000000000000000000000600052602160045260246000fd5b14156108be5760405180604001604052808b815260200182600001548152508488815181106108a0577f4e487b7100000000000000000000000000000000000000000000000000000000600052603260045260246000fd5b602002602001018190525086806108b6906127fc565b9750506109b5565b600060028111156108f8577f4e487b7100000000000000000000000000000000000000000000000000000000600052602160045260246000fd5b8160020160009054906101000a900460ff166002811115610942577f4e487b7100000000000000000000000000000000000000000000000000000000600052602160045260246000fd5b14156109b45760405180604001604052808b8152602001826000015481525083878151811061099a577f4e487b7100000000000000000000000000000000000000000000000000000000600052603260045260246000fd5b602002602001018190525085806109b0906127fc565b9650505b5b5b5080806109c2906127fc565b915050610690565b508282829a509a509a505050505050505050909192565b600160009054906101000a900473ffffffffffffffffffffffffffffffffffffffff1673ffffffffffffffffffffffffffffffffffffffff1663643d430c6040518163ffffffff1660e01b815260040160206040518083038186803b158015610a4957600080fd5b505afa158015610a5d573d6000803e3d6000fd5b505050506040513d601f19601f82011682018060405250810190610a819190611e96565b73ffffffffffffffffffffffffffffffffffffffff163373ffffffffffffffffffffffffffffffffffffffff1614610aee576040517f08c379a0000000000000000000000000000000000000000000000000000000008152600401610ae59061250c565b60405180910390fd5b60006002811115610b28577f4e487b7100000000000000000000000000000000000000000000000000000000600052602160045260246000fd5b600383604051610b3891906123fe565b9081526020016040518091039020600083815260200190815260200160002060020160009054906101000a900460ff166002811115610ba0577f4e487b7100000000000000000000000000000000000000000000000000000000600052602160045260246000fd5b14610be0576040517f08c379a0000000000000000000000000000000000000000000000000000000008152600401610bd79061254c565b60405180910390fd5b6001600383604051610bf291906123fe565b9081526020016040518091039020600083815260200190815260200160002060020160006101000a81548160ff02191690836002811115610c5c577f4e487b7100000000000000000000000000000000000000000000000000000000600052602160045260246000fd5b021790555042600383604051610c7291906123fe565b908152602001604051809103902060008381526020019081526020016000206001018190555081604051610ca691906123fe565b60405180910390207fa1ff25ac09c50f38300e20690f0214377bce91708a243726e0a967a32ffd30fb82600385604051610ce091906123fe565b9081526020016040518091039020600085815260200190815260200160002060020160009054906101000a900460ff16604051610d1e9291906125a7565b60405180910390a25050565b606060008060008060008054906101000a900473ffffffffffffffffffffffffffffffffffffffff1673ffffffffffffffffffffffffffffffffffffffff16632b07fce3876040518263ffffffff1660e01b8152600401610d8b919061258c565b60006040518083038186803b158015610da357600080fd5b505afa158015610db7573d6000803e3d6000fd5b505050506040513d6000823e3d601f19601f82011682018060405250810190610de09190611fff565b9450945094509450945091939590929450565b6004818051602081018201805184825260208301602085012081835280955050505050506000915090505481565b600160009054906101000a900473ffffffffffffffffffffffffffffffffffffffff1681565b600382805160208101820180518482526020830160208501208183528095505050505050602052806000526040600020600091509150508060000154908060010154908060020160009054906101000a900460ff16905083565b6000600160009054906101000a900473ffffffffffffffffffffffffffffffffffffffff1673ffffffffffffffffffffffffffffffffffffffff166343ae37c36040518163ffffffff1660e01b815260040160006040518083038186803b158015610f0b57600080fd5b505afa158015610f1f573d6000803e3d6000fd5b505050506040513d6000823e3d601f19601f82011682018060405250810190610f489190611f6a565b905060008060009054906101000a900473ffffffffffffffffffffffffffffffffffffffff1673ffffffffffffffffffffffffffffffffffffffff166343f67094846040518263ffffffff1660e01b8152600401610fa6919061258c565b60206040518083038186803b158015610fbe57600080fd5b505afa158015610fd2573d6000803e3d6000fd5b505050506040513d601f19601f82011682018060405250810190610ff69190611f00565b905080611038576040517f08c379a000000000000000000000000000000000000000000000000000000000815260040161102f9061252c565b60405180910390fd5b6000600160009054906101000a900473ffffffffffffffffffffffffffffffffffffffff1673ffffffffffffffffffffffffffffffffffffffff16637cae3d4d6040518163ffffffff1660e01b815260040160206040518083038186803b1580156110a257600080fd5b505afa1580156110b6573d6000803e3d6000fd5b505050506040513d601f19601f820116820180604052508101906110da91906120b7565b1161111a576040517f08c379a00000000000000000000000000000000000000000000000000000000081526004016111119061256c565b60405180910390fd5b6040518060600160405280848152602001643aff743d34815260200160006002811115611170577f4e487b7100000000000000000000000000000000000000000000000000000000600052602160045260246000fd5b81525060038360405161118391906123fe565b908152602001604051809103902060006004856040516111a391906123fe565b9081526020016040518091039020548152602001908152602001600020600082015181600001556020820151816001015560408201518160020160006101000a81548160ff02191690836002811115611225577f4e487b7100000000000000000000000000000000000000000000000000000000600052602160045260246000fd5b021790555090505060048260405161123d91906123fe565b9081526020016040518091039020600081548092919061125c906127fc565b91905055508160405161126f91906123fe565b60405180910390207f2259e4429803e2dabfdeb8ef13ff06878b1fe0790767e6c04228d7b92c130ad3846040516112a6919061258c565b60405180910390a2505050565b60008054906101000a900473ffffffffffffffffffffffffffffffffffffffff1681565b6060806060600160009054906101000a900473ffffffffffffffffffffffffffffffffffffffff1673ffffffffffffffffffffffffffffffffffffffff1663643d430c6040518163ffffffff1660e01b815260040160206040518083038186803b15801561134457600080fd5b505afa158015611358573d6000803e3d6000fd5b505050506040513d601f19601f8201168201806040525081019061137c9190611e96565b73ffffffffffffffffffffffffffffffffffffffff163373ffffffffffffffffffffffffffffffffffffffff16146113e9576040517f08c379a00000000000000000000000000000000000000000000000000000000081526004016113e09061250c565b60405180910390fd5b6000600160009054906101000a900473ffffffffffffffffffffffffffffffffffffffff1673ffffffffffffffffffffffffffffffffffffffff16631bb647226040518163ffffffff1660e01b815260040160006040518083038186803b15801561145357600080fd5b505afa158015611467573d6000803e3d6000fd5b505050506040513d6000823e3d601f19601f820116820180604052508101906114909190611ebf565b90506000806000905060008060005b85518110156117495760008682815181106114e3577f4e487b7100000000000000000000000000000000000000000000000000000000600052603260045260246000fd5b602002602001015190506004816040516114fd91906123fe565b908152602001604051809103902054955060005b8681101561173457600060038360405161152b91906123fe565b90815260200160405180910390206000838152602001908152602001600020905060016002811115611586577f4e487b7100000000000000000000000000000000000000000000000000000000600052602160045260246000fd5b8160020160009054906101000a900460ff1660028111156115d0577f4e487b7100000000000000000000000000000000000000000000000000000000600052602160045260246000fd5b14156115e95786806115e1906127fc565b975050611720565b600280811115611622577f4e487b7100000000000000000000000000000000000000000000000000000000600052602160045260246000fd5b8160020160009054906101000a900460ff16600281111561166c577f4e487b7100000000000000000000000000000000000000000000000000000000600052602160045260246000fd5b141561168557858061167d906127fc565b96505061171f565b600060028111156116bf577f4e487b7100000000000000000000000000000000000000000000000000000000600052602160045260246000fd5b8160020160009054906101000a900460ff166002811115611709577f4e487b7100000000000000000000000000000000000000000000000000000000600052602160045260246000fd5b141561171e57848061171a906127fc565b9550505b5b5b50808061172c906127fc565b915050611511565b50508080611741906127fc565b91505061149f565b5060008367ffffffffffffffff81111561178c577f4e487b7100000000000000000000000000000000000000000000000000000000600052604160045260246000fd5b6040519080825280602002602001820160405280156117c557816020015b6117b2611cd1565b8152602001906001900390816117aa5790505b50905060008367ffffffffffffffff81111561180a577f4e487b7100000000000000000000000000000000000000000000000000000000600052604160045260246000fd5b60405190808252806020026020018201604052801561184357816020015b611830611cd1565b8152602001906001900390816118285790505b50905060008367ffffffffffffffff811115611888577f4e487b7100000000000000000000000000000000000000000000000000000000600052604160045260246000fd5b6040519080825280602002602001820160405280156118c157816020015b6118ae611cd1565b8152602001906001900390816118a65790505b50905060009550600094506000935060005b8851811015611c94576000898281518110611917577f4e487b7100000000000000000000000000000000000000000000000000000000600052603260045260246000fd5b6020026020010151905060048160405161193191906123fe565b908152602001604051809103902054985060005b89811015611c7f57600060038360405161195f91906123fe565b908152602001604051809103902060008381526020019081526020016000209050600160028111156119ba577f4e487b7100000000000000000000000000000000000000000000000000000000600052602160045260246000fd5b8160020160009054906101000a900460ff166002811115611a04577f4e487b7100000000000000000000000000000000000000000000000000000000600052602160045260246000fd5b1415611a7a5760405180604001604052808481526020018260000154815250878b81518110611a5c577f4e487b7100000000000000000000000000000000000000000000000000000000600052603260045260246000fd5b60200260200101819052508980611a72906127fc565b9a5050611c6b565b600280811115611ab3577f4e487b7100000000000000000000000000000000000000000000000000000000600052602160045260246000fd5b8160020160009054906101000a900460ff166002811115611afd577f4e487b7100000000000000000000000000000000000000000000000000000000600052602160045260246000fd5b1415611b735760405180604001604052808481526020018260000154815250868a81518110611b55577f4e487b7100000000000000000000000000000000000000000000000000000000600052603260045260246000fd5b60200260200101819052508880611b6b906127fc565b995050611c6a565b60006002811115611bad577f4e487b7100000000000000000000000000000000000000000000000000000000600052602160045260246000fd5b8160020160009054906101000a900460ff166002811115611bf7577f4e487b7100000000000000000000000000000000000000000000000000000000600052602160045260246000fd5b1415611c695760405180604001604052808481526020018260000154815250858981518110611c4f577f4e487b7100000000000000000000000000000000000000000000000000000000600052603260045260246000fd5b60200260200101819052508780611c65906127fc565b9850505b5b5b508080611c77906127fc565b915050611945565b50508080611c8c906127fc565b9150506118d3565b508282829a509a509a505050505050505050909192565b600260009054906101000a900473ffffffffffffffffffffffffffffffffffffffff1681565b604051806040016040528060608152602001600081525090565b6000611cfe611cf984612638565b612607565b9050808382526020820190508260005b85811015611d3e5781518501611d248882611e42565b845260208401935060208301925050600181019050611d0e565b5050509392505050565b6000611d5b611d5684612664565b612607565b905082815260208101848484011115611d7357600080fd5b611d7e8482856127ba565b509392505050565b6000611d99611d9484612664565b612607565b905082815260208101848484011115611db157600080fd5b611dbc8482856127c9565b509392505050565b600081519050611dd3816128f7565b92915050565b600082601f830112611dea57600080fd5b8151611dfa848260208601611ceb565b91505092915050565b600081519050611e128161290e565b92915050565b600082601f830112611e2957600080fd5b8135611e39848260208601611d48565b91505092915050565b600082601f830112611e5357600080fd5b8151611e63848260208601611d86565b91505092915050565b600081359050611e7b81612925565b92915050565b600081519050611e9081612925565b92915050565b600060208284031215611ea857600080fd5b6000611eb684828501611dc4565b91505092915050565b600060208284031215611ed157600080fd5b600082015167ffffffffffffffff811115611eeb57600080fd5b611ef784828501611dd9565b91505092915050565b600060208284031215611f1257600080fd5b6000611f2084828501611e03565b91505092915050565b600060208284031215611f3b57600080fd5b600082013567ffffffffffffffff811115611f5557600080fd5b611f6184828501611e18565b91505092915050565b600060208284031215611f7c57600080fd5b600082015167ffffffffffffffff811115611f9657600080fd5b611fa284828501611e42565b91505092915050565b60008060408385031215611fbe57600080fd5b600083013567ffffffffffffffff811115611fd857600080fd5b611fe485828601611e18565b9250506020611ff585828601611e6c565b9150509250929050565b600080600080600060a0868803121561201757600080fd5b600086015167ffffffffffffffff81111561203157600080fd5b61203d88828901611e42565b955050602061204e88828901611e81565b945050604061205f88828901611e81565b935050606061207088828901611e81565b925050608061208188828901611e03565b9150509295509295909350565b6000602082840312156120a057600080fd5b60006120ae84828501611e6c565b91505092915050565b6000602082840312156120c957600080fd5b60006120d784828501611e81565b91505092915050565b60006120ec83836123a3565b905092915050565b6120fd81612705565b82525050565b600061210e826126a4565b61211881856126c7565b93508360208202850161212a85612694565b8060005b85811015612166578484038952815161214785826120e0565b9450612152836126ba565b925060208a0199505060018101905061212e565b50829750879550505050505092915050565b61218181612717565b82525050565b61219081612760565b82525050565b61219f81612784565b82525050565b6121ae816127a8565b82525050565b60006121bf826126af565b6121c981856126d8565b93506121d98185602086016127c9565b6121e2816128d2565b840191505092915050565b60006121f8826126af565b61220281856126e9565b93506122128185602086016127c9565b61221b816128d2565b840191505092915050565b6000612231826126af565b61223b81856126fa565b935061224b8185602086016127c9565b80840191505092915050565b6000612264603a836126e9565b91507f4d6574616d61736b206163636f756e7420616e6420616464726573732075736560008301527f6420746f207369676e20696e20646f206e6f74206d617463682e0000000000006020830152604082019050919050565b60006122ca6015836126e9565b91507f5061636b616765206973206e6f742061637469766500000000000000000000006000830152602082019050919050565b600061230a601b836126e9565b91507f54686973207265717565737420646f6573206e6f7420657869737400000000006000830152602082019050919050565b600061234a6031836126e9565b91507f5573657220646f6573206e6f74206d6565742074686520616765206c696d697460008301527f20666f722074686973207061636b6167650000000000000000000000000000006020830152604082019050919050565b600060408301600083015184820360008601526123c082826121b4565b91505060208301516123d560208601826123e0565b508091505092915050565b6123e981612756565b82525050565b6123f881612756565b82525050565b600061240a8284612226565b915081905092915050565b600060208201905061242a60008301846120f4565b92915050565b6000606082019050818103600083015261244a8186612103565b9050818103602083015261245e8185612103565b905081810360408301526124728184612103565b9050949350505050565b60006020820190506124916000830184612187565b92915050565b60006020820190506124ac6000830184612196565b92915050565b600060a08201905081810360008301526124cc81886121ed565b90506124db60208301876123ef565b6124e860408301866123ef565b6124f560608301856123ef565b6125026080830184612178565b9695505050505050565b6000602082019050818103600083015261252581612257565b9050919050565b60006020820190508181036000830152612545816122bd565b9050919050565b60006020820190508181036000830152612565816122fd565b9050919050565b600060208201905081810360008301526125858161233d565b9050919050565b60006020820190506125a160008301846123ef565b92915050565b60006040820190506125bc60008301856123ef565b6125c960208301846121a5565b9392505050565b60006060820190506125e560008301866123ef565b6125f260208301856123ef565b6125ff60408301846121a5565b949350505050565b6000604051905081810181811067ffffffffffffffff8211171561262e5761262d6128a3565b5b8060405250919050565b600067ffffffffffffffff821115612653576126526128a3565b5b602082029050602081019050919050565b600067ffffffffffffffff82111561267f5761267e6128a3565b5b601f19601f8301169050602081019050919050565b6000819050602082019050919050565b600081519050919050565b600081519050919050565b6000602082019050919050565b600082825260208201905092915050565b600082825260208201905092915050565b600082825260208201905092915050565b600081905092915050565b600061271082612736565b9050919050565b60008115159050919050565b6000819050612731826128e3565b919050565b600073ffffffffffffffffffffffffffffffffffffffff82169050919050565b6000819050919050565b600061276b82612772565b9050919050565b600061277d82612736565b9050919050565b600061278f82612796565b9050919050565b60006127a182612736565b9050919050565b60006127b382612723565b9050919050565b82818337600083830152505050565b60005b838110156127e75780820151818401526020810190506127cc565b838111156127f6576000848401525b50505050565b600061280782612756565b91507fffffffffffffffffffffffffffffffffffffffffffffffffffffffffffffffff82141561283a57612839612845565b5b600182019050919050565b7f4e487b7100000000000000000000000000000000000000000000000000000000600052601160045260246000fd5b7f4e487b7100000000000000000000000000000000000000000000000000000000600052602160045260246000fd5b7f4e487b7100000000000000000000000000000000000000000000000000000000600052604160045260246000fd5b6000601f19601f8301169050919050565b600381106128f4576128f3612874565b5b50565b61290081612705565b811461290b57600080fd5b50565b61291781612717565b811461292257600080fd5b50565b61292e81612756565b811461293957600080fd5b5056fea26469706673582212206e6b4768a350c26bcfd0028aa77a44f6a01cb5d754ae0990ccdb7c8df7879f7e64736f6c63430008000033",
  "immutableReferences": {},
  "source": "// SPDX-License-Identifier: MIT\r\npragma solidity ^0.8.0;\r\n\r\nimport \"./AdminInsurancePolicy.sol\"; // Import the AdminInsurancePolicy contract\r\nimport \"./UserAuth.sol\";\r\n\r\ncontract PurchasePackage {\r\n    AdminInsurancePolicy public adminContract;\r\n    UserAuth public userAuthContract;\r\n    address public admin;\r\n\r\n    enum InsuranceStatus {\r\n        Pending,\r\n        Approved,\r\n        Cancelled\r\n    }\r\n\r\n    struct Subscription {\r\n        uint256 packageId;\r\n        uint256 payDate;\r\n        InsuranceStatus status;\r\n    }\r\n\r\n    struct PackageData {\r\n        string userEmail;\r\n        uint256 packageID;\r\n    }\r\n\r\n    mapping(string => mapping(uint256 => Subscription)) public Subscriptions;\r\n    mapping(string => uint256) public subscriptionCount;\r\n\r\n    event PackageSubscribed(address indexed user, uint256 packageId);\r\n    event SubscriptionRequested(string indexed user, uint256 packageId);\r\n    event SubscriptionApproved(\r\n        string indexed user,\r\n        uint256 packageId,\r\n        InsuranceStatus status\r\n    );\r\n\r\n    constructor(address _adminPolicyAddress, address _userAuthAddress) {\r\n        adminContract = AdminInsurancePolicy(_adminPolicyAddress);\r\n        userAuthContract = UserAuth(_userAuthAddress);\r\n        admin = msg.sender;\r\n    }\r\n\r\n    modifier sameAdmin() {\r\n        require(\r\n            msg.sender == userAuthContract.getCurrentAdmin(),\r\n            \"Metamask account and address used to sign in do not match.\"\r\n        );\r\n        _;\r\n    }\r\n\r\n    // Function for subscribing to a package (requests admin approval)\r\n    function subscribeToPackage(uint256 _packageId) public {\r\n        string memory user = userAuthContract.getCurrentUser();\r\n        // Fetch the policy details from the AdminInsurancePolicy contract\r\n\r\n        bool isActive = adminContract.getPolicyAvailibility(_packageId);\r\n\r\n        // Ensure the package is active and the user meets the age limit\r\n        require(isActive, \"Package is not active\");\r\n        require(\r\n            userAuthContract.getUserAge() > 0,\r\n            \"User does not meet the age limit for this package\"\r\n        );\r\n\r\n        // Create a subscription request\r\n        Subscriptions[user][subscriptionCount[user]] = Subscription({\r\n            packageId: _packageId,\r\n            payDate: 253393911092, // Impossibly future date\r\n            status: InsuranceStatus.Pending\r\n        });\r\n\r\n        subscriptionCount[user]++;\r\n\r\n        emit SubscriptionRequested(user, _packageId);\r\n    }\r\n\r\n    // Function for admin to approve a subscription request\r\n    function approveSubscription(\r\n        string memory _user,\r\n        uint256 _packageID\r\n    ) public sameAdmin {\r\n        require(\r\n            Subscriptions[_user][_packageID].status == InsuranceStatus.Pending,\r\n            \"This request does not exist\"\r\n        );\r\n\r\n        Subscriptions[_user][_packageID].status = InsuranceStatus.Approved;\r\n        Subscriptions[_user][_packageID].payDate = block.timestamp;\r\n\r\n        emit SubscriptionApproved(\r\n            _user,\r\n            _packageID,\r\n            Subscriptions[_user][_packageID].status\r\n        );\r\n    }\r\n\r\n    function viewPackages()\r\n        public\r\n        view\r\n        returns (\r\n            PackageData[] memory,\r\n            PackageData[] memory,\r\n            PackageData[] memory\r\n        )\r\n    {\r\n        string memory user = userAuthContract.getCurrentUser();\r\n        uint256 totalSubscriptions = subscriptionCount[user];\r\n\r\n        // Initialize counts to keep track of the number of approved, cancelled, and pending packages\r\n        uint256 approvedCount = 0;\r\n        uint256 cancelledCount = 0;\r\n        uint256 pendingCount = 0;\r\n\r\n        // First, count the total number of subscriptions in each category\r\n        for (uint256 i = 0; i < totalSubscriptions; i++) {\r\n            Subscription storage subscription = Subscriptions[user][i];\r\n\r\n            if (subscription.status == InsuranceStatus.Approved) {\r\n                approvedCount++;\r\n            } else if (subscription.status == InsuranceStatus.Cancelled) {\r\n                cancelledCount++;\r\n            } else if (subscription.status == InsuranceStatus.Pending) {\r\n                pendingCount++;\r\n            }\r\n        }\r\n\r\n        // Initialize arrays with the correct sizes\r\n        PackageData[] memory approvedPackages = new PackageData[](\r\n            approvedCount\r\n        );\r\n        PackageData[] memory cancelledPackages = new PackageData[](\r\n            cancelledCount\r\n        );\r\n        PackageData[] memory pendingPackages = new PackageData[](pendingCount);\r\n\r\n        // Reset counts to use as indices\r\n        approvedCount = 0;\r\n        cancelledCount = 0;\r\n        pendingCount = 0;\r\n\r\n        // Loop through the user's subscriptions and fill the arrays\r\n        for (uint256 i = 0; i < totalSubscriptions; i++) {\r\n            Subscription storage subscription = Subscriptions[user][i];\r\n\r\n            if (subscription.status == InsuranceStatus.Approved) {\r\n                approvedPackages[approvedCount] = PackageData({\r\n                    userEmail: user,\r\n                    packageID: subscription.packageId\r\n                });\r\n                approvedCount++;\r\n            } else if (subscription.status == InsuranceStatus.Cancelled) {\r\n                cancelledPackages[cancelledCount] = PackageData({\r\n                    userEmail: user,\r\n                    packageID: subscription.packageId\r\n                });\r\n                cancelledCount++;\r\n            } else if (subscription.status == InsuranceStatus.Pending) {\r\n                pendingPackages[pendingCount] = PackageData({\r\n                    userEmail: user,\r\n                    packageID: subscription.packageId\r\n                });\r\n                pendingCount++;\r\n            }\r\n        }\r\n\r\n        return (approvedPackages, cancelledPackages, pendingPackages);\r\n    }\r\n\r\n    // Function to get details of a specific package by ID\r\n    function getPackageDetails(\r\n        uint256 _packageId\r\n    ) public view returns (string memory, uint256, uint256, uint256, bool) {\r\n        return adminContract.getPolicy(_packageId); // Fetch package details from AdminInsurancePolicy\r\n    }\r\n\r\n    // Function for the admin to view all subscriptions\r\n    function viewAllSubscriptions()\r\n        public\r\n        view\r\n        sameAdmin\r\n        returns (\r\n            PackageData[] memory,\r\n            PackageData[] memory,\r\n            PackageData[] memory\r\n        )\r\n    {\r\n        string[] memory registeredUserEmails = userAuthContract\r\n            .getRegisteredUserEmails();\r\n\r\n        uint256 totalSubscriptions;\r\n        uint256 approvedCount = 0;\r\n        uint256 cancelledCount = 0;\r\n        uint256 pendingCount = 0;\r\n\r\n        // First, calculate the total count of each category\r\n        for (uint256 i = 0; i < registeredUserEmails.length; i++) {\r\n            string memory currentUser = registeredUserEmails[i];\r\n            totalSubscriptions = subscriptionCount[currentUser];\r\n\r\n            for (uint256 j = 0; j < totalSubscriptions; j++) {\r\n                Subscription storage subscription = Subscriptions[currentUser][\r\n                    j\r\n                ];\r\n\r\n                if (subscription.status == InsuranceStatus.Approved) {\r\n                    approvedCount++;\r\n                } else if (subscription.status == InsuranceStatus.Cancelled) {\r\n                    cancelledCount++;\r\n                } else if (subscription.status == InsuranceStatus.Pending) {\r\n                    pendingCount++;\r\n                }\r\n            }\r\n        }\r\n\r\n        // Now, initialize the arrays with the correct size\r\n        PackageData[] memory approvedPackages = new PackageData[](\r\n            approvedCount\r\n        );\r\n        PackageData[] memory cancelledPackages = new PackageData[](\r\n            cancelledCount\r\n        );\r\n        PackageData[] memory pendingPackages = new PackageData[](pendingCount);\r\n\r\n        // Reset counts to use as indices while adding items\r\n        approvedCount = 0;\r\n        cancelledCount = 0;\r\n        pendingCount = 0;\r\n\r\n        // Loop through users again and populate the arrays\r\n        for (uint256 i = 0; i < registeredUserEmails.length; i++) {\r\n            string memory currentUser = registeredUserEmails[i];\r\n            totalSubscriptions = subscriptionCount[currentUser];\r\n\r\n            for (uint256 j = 0; j < totalSubscriptions; j++) {\r\n                Subscription storage subscription = Subscriptions[currentUser][\r\n                    j\r\n                ];\r\n\r\n                if (subscription.status == InsuranceStatus.Approved) {\r\n                    approvedPackages[approvedCount] = PackageData({\r\n                        userEmail: currentUser,\r\n                        packageID: subscription.packageId\r\n                    });\r\n                    approvedCount++;\r\n                } else if (subscription.status == InsuranceStatus.Cancelled) {\r\n                    cancelledPackages[cancelledCount] = PackageData({\r\n                        userEmail: currentUser,\r\n                        packageID: subscription.packageId\r\n                    });\r\n                    cancelledCount++;\r\n                } else if (subscription.status == InsuranceStatus.Pending) {\r\n                    pendingPackages[pendingCount] = PackageData({\r\n                        userEmail: currentUser,\r\n                        packageID: subscription.packageId\r\n                    });\r\n                    pendingCount++;\r\n                }\r\n            }\r\n        }\r\n\r\n        return (approvedPackages, cancelledPackages, pendingPackages);\r\n    }\r\n}\r\n",
  "sourcePath": "C:\\Users\\Clarist Liew\\OneDrive\\Desktop\\BC\\Great_Global\\Danny_Test\\SponsorAnimals\\contracts\\PurchasePackage.sol",
  "compiler": {
    "name": "solc",
    "version": "0.8.0+commit.c7dfd78e.Emscripten.clang"
  },
  "schemaVersion": "3.4.16",
  "updatedAt": "2024-09-26T02:51:01.191Z",
  "devdoc": {
    "kind": "dev",
    "methods": {},
    "version": 1
  },
  "userdoc": {
    "kind": "user",
    "methods": {},
    "version": 1
  }
}