{
  "contractName": "SponsorAnimals",
  "abi": [
    {
      "inputs": [],
      "stateMutability": "nonpayable",
      "type": "constructor"
    },
    {
      "inputs": [
        {
          "internalType": "uint256",
          "name": "",
          "type": "uint256"
        }
      ],
      "name": "adopters",
      "outputs": [
        {
          "internalType": "address",
          "name": "",
          "type": "address"
        }
      ],
      "stateMutability": "view",
      "type": "function",
      "constant": true
    },
    {
      "inputs": [],
      "name": "name",
      "outputs": [
        {
          "internalType": "string",
          "name": "",
          "type": "string"
        }
      ],
      "stateMutability": "view",
      "type": "function",
      "constant": true
    },
    {
      "inputs": [],
      "name": "owner",
      "outputs": [
        {
          "internalType": "address payable",
          "name": "",
          "type": "address"
        }
      ],
      "stateMutability": "view",
      "type": "function",
      "constant": true
    },
    {
      "inputs": [
        {
          "internalType": "uint256",
          "name": "AnimalId",
          "type": "uint256"
        },
        {
          "internalType": "uint256",
          "name": "animalFee",
          "type": "uint256"
        }
      ],
      "name": "adopt",
      "outputs": [
        {
          "internalType": "uint256",
          "name": "",
          "type": "uint256"
        }
      ],
      "stateMutability": "payable",
      "type": "function",
      "payable": true
    },
    {
      "inputs": [],
      "name": "getAdopters",
      "outputs": [
        {
          "internalType": "address[8]",
          "name": "",
          "type": "address[8]"
        }
      ],
      "stateMutability": "view",
      "type": "function",
      "constant": true
    }
  ],
  "bytecode": "0x608060405234801561001057600080fd5b506040518060400160405280600a81526020017f5a6f6f204e6567617261000000000000000000000000000000000000000000008152506008908051906020019061005c9291906100a3565b5033600960006101000a81548173ffffffffffffffffffffffffffffffffffffffff021916908373ffffffffffffffffffffffffffffffffffffffff1602179055506101a7565b8280546100af90610146565b90600052602060002090601f0160209004810192826100d15760008555610118565b82601f106100ea57805160ff1916838001178555610118565b82800160010185558215610118579182015b828111156101175782518255916020019190600101906100fc565b5b5090506101259190610129565b5090565b5b8082111561014257600081600090555060010161012a565b5090565b6000600282049050600182168061015e57607f821691505b6020821081141561017257610171610178565b5b50919050565b7f4e487b7100000000000000000000000000000000000000000000000000000000600052602260045260246000fd5b610756806101b66000396000f3fe60806040526004361061004a5760003560e01c806306fdde031461004f5780633de4eb171461007a57806343ae80d3146100a55780635c2a9d8c146100e25780638da5cb5b14610112575b600080fd5b34801561005b57600080fd5b5061006461013d565b6040516100719190610590565b60405180910390f35b34801561008657600080fd5b5061008f6101cb565b60405161009c9190610574565b60405180910390f35b3480156100b157600080fd5b506100cc60048036038101906100c791906103f5565b61024c565b6040516100d9919061053e565b60405180910390f35b6100fc60048036038101906100f7919061041e565b610282565b60405161010991906105b2565b60405180910390f35b34801561011e57600080fd5b50610127610397565b6040516101349190610559565b60405180910390f35b6008805461014a90610697565b80601f016020809104026020016040519081016040528092919081815260200182805461017690610697565b80156101c35780601f10610198576101008083540402835291602001916101c3565b820191906000526020600020905b8154815290600101906020018083116101a657829003601f168201915b505050505081565b6101d36103bd565b6000600880602002604051908101604052809291908260088015610242576020028201915b8160009054906101000a900473ffffffffffffffffffffffffffffffffffffffff1673ffffffffffffffffffffffffffffffffffffffff16815260200190600101908083116101f8575b5050505050905090565b6000816008811061025c57600080fd5b016000915054906101000a900473ffffffffffffffffffffffffffffffffffffffff1681565b6000808310158015610295575060078311155b61029e57600080fd5b33600084600881106102d9577f4e487b7100000000000000000000000000000000000000000000000000000000600052603260045260246000fd5b0160006101000a81548173ffffffffffffffffffffffffffffffffffffffff021916908373ffffffffffffffffffffffffffffffffffffffff1602179055508134101561032557600080fd5b600960009054906101000a900473ffffffffffffffffffffffffffffffffffffffff1673ffffffffffffffffffffffffffffffffffffffff166108fc349081150290604051600060405180830381858888f1935050505015801561038d573d6000803e3d6000fd5b5082905092915050565b600960009054906101000a900473ffffffffffffffffffffffffffffffffffffffff1681565b604051806101000160405280600890602082028036833780820191505090505090565b6000813590506103ef81610709565b92915050565b60006020828403121561040757600080fd5b6000610415848285016103e0565b91505092915050565b6000806040838503121561043157600080fd5b600061043f858286016103e0565b9250506020610450858286016103e0565b9150509250929050565b60006104668383610481565b60208301905092915050565b61047b81610628565b82525050565b61048a81610616565b82525050565b61049981610616565b82525050565b6104a8816105d7565b6104b281846105fa565b92506104bd826105cd565b8060005b838110156104ee5781516104d5878261045a565b96506104e0836105ed565b9250506001810190506104c1565b505050505050565b6000610501826105e2565b61050b8185610605565b935061051b818560208601610664565b610524816106f8565b840191505092915050565b6105388161065a565b82525050565b60006020820190506105536000830184610490565b92915050565b600060208201905061056e6000830184610472565b92915050565b60006101008201905061058a600083018461049f565b92915050565b600060208201905081810360008301526105aa81846104f6565b905092915050565b60006020820190506105c7600083018461052f565b92915050565b6000819050919050565b600060089050919050565b600081519050919050565b6000602082019050919050565b600081905092915050565b600082825260208201905092915050565b60006106218261063a565b9050919050565b60006106338261063a565b9050919050565b600073ffffffffffffffffffffffffffffffffffffffff82169050919050565b6000819050919050565b60005b83811015610682578082015181840152602081019050610667565b83811115610691576000848401525b50505050565b600060028204905060018216806106af57607f821691505b602082108114156106c3576106c26106c9565b5b50919050565b7f4e487b7100000000000000000000000000000000000000000000000000000000600052602260045260246000fd5b6000601f19601f8301169050919050565b6107128161065a565b811461071d57600080fd5b5056fea264697066735822122081f3952b2f9709a7a02233a9cee85a8e7f1cccffbc0568e1bf4d6413e0fbd84a64736f6c63430008000033",
  "immutableReferences": {},
  "source": "// SPDX-License-Identifier: MIT\r\n//pragma solidity >=0.4.22 <0.8.0;\r\n//pragma solidity ^0.5.0;\r\npragma solidity ^0.8.0;\r\n\r\ncontract SponsorAnimals {\r\n    address[8] public adopters;\r\n    string public name;\r\n    address payable public owner;\r\n\r\n    constructor() {\r\n        name = \"Zoo Negara\";\r\n        owner = payable(msg.sender);\r\n    }\r\n\r\n    // Adopting a AnimalId\r\n    function adopt(\r\n        uint AnimalId,\r\n        uint animalFee\r\n    ) public payable returns (uint) {\r\n        require(AnimalId >= 0 && AnimalId <= 7);\r\n        adopters[AnimalId] = msg.sender;\r\n\r\n        //Require that there is enough Ether in the transaction\r\n        require(msg.value >= animalFee);\r\n\r\n        owner.transfer(msg.value);\r\n\r\n        return AnimalId;\r\n    }\r\n\r\n    // Retrieving the adopters\r\n    function getAdopters() public view returns (address[8] memory) {\r\n        return adopters;\r\n    }\r\n}\r\n",
  "sourcePath": "C:\\Users\\leeda\\OneDrive\\Desktop\\Great_Global\\Danny_Test\\SponsorAnimals\\contracts\\SponsorAnimals.sol",
  "compiler": {
    "name": "solc",
    "version": "0.8.0+commit.c7dfd78e.Emscripten.clang"
  },
  "schemaVersion": "3.4.16",
  "updatedAt": "2024-09-24T12:53:10.483Z",
  "networkType": "ethereum",
  "devdoc": {
    "kind": "dev",
    "methods": {},
    "version": 1
  },
  "userdoc": {
    "kind": "user",
    "methods": {},
    "version": 1
  }
}