{
  "contractName": "UserAuth",
  "abi": [
    {
      "inputs": [],
      "stateMutability": "nonpayable",
      "type": "constructor"
    },
    {
      "anonymous": false,
      "inputs": [
        {
          "indexed": true,
          "internalType": "address",
          "name": "adminAddress",
          "type": "address"
        }
      ],
      "name": "AdminAssigned",
      "type": "event"
    },
    {
      "anonymous": false,
      "inputs": [
        {
          "indexed": true,
          "internalType": "address",
          "name": "adminAddress",
          "type": "address"
        }
      ],
      "name": "AdminLoggedOut",
      "type": "event"
    },
    {
      "anonymous": false,
      "inputs": [
        {
          "indexed": true,
          "internalType": "address",
          "name": "adminAddress",
          "type": "address"
        }
      ],
      "name": "AdminRemoved",
      "type": "event"
    },
    {
      "anonymous": false,
      "inputs": [
        {
          "indexed": true,
          "internalType": "address",
          "name": "userAddress",
          "type": "address"
        },
        {
          "indexed": false,
          "internalType": "bytes32",
          "name": "oldHashedPassword",
          "type": "bytes32"
        },
        {
          "indexed": false,
          "internalType": "bytes32",
          "name": "newHashedPassword",
          "type": "bytes32"
        }
      ],
      "name": "PasswordReset",
      "type": "event"
    },
    {
      "anonymous": false,
      "inputs": [
        {
          "indexed": true,
          "internalType": "string",
          "name": "email",
          "type": "string"
        }
      ],
      "name": "UserLoggedOut",
      "type": "event"
    },
    {
      "anonymous": false,
      "inputs": [
        {
          "indexed": true,
          "internalType": "address",
          "name": "userAddress",
          "type": "address"
        },
        {
          "indexed": false,
          "internalType": "string",
          "name": "_name",
          "type": "string"
        },
        {
          "indexed": false,
          "internalType": "string",
          "name": "email",
          "type": "string"
        },
        {
          "indexed": false,
          "internalType": "uint256",
          "name": "_age",
          "type": "uint256"
        }
      ],
      "name": "UserRegistered",
      "type": "event"
    },
    {
      "inputs": [
        {
          "internalType": "uint256",
          "name": "",
          "type": "uint256"
        }
      ],
      "name": "adminAddresses",
      "outputs": [
        {
          "internalType": "address",
          "name": "",
          "type": "address"
        }
      ],
      "stateMutability": "view",
      "type": "function",
      "constant": true
    },
    {
      "inputs": [
        {
          "internalType": "address",
          "name": "",
          "type": "address"
        }
      ],
      "name": "admins",
      "outputs": [
        {
          "internalType": "bool",
          "name": "",
          "type": "bool"
        }
      ],
      "stateMutability": "view",
      "type": "function",
      "constant": true
    },
    {
      "inputs": [],
      "name": "currentAdmin",
      "outputs": [
        {
          "internalType": "address",
          "name": "",
          "type": "address"
        }
      ],
      "stateMutability": "view",
      "type": "function",
      "constant": true
    },
    {
      "inputs": [],
      "name": "currentUser",
      "outputs": [
        {
          "internalType": "string",
          "name": "",
          "type": "string"
        }
      ],
      "stateMutability": "view",
      "type": "function",
      "constant": true
    },
    {
      "inputs": [],
      "name": "owner",
      "outputs": [
        {
          "internalType": "address",
          "name": "",
          "type": "address"
        }
      ],
      "stateMutability": "view",
      "type": "function",
      "constant": true
    },
    {
      "inputs": [
        {
          "internalType": "uint256",
          "name": "",
          "type": "uint256"
        }
      ],
      "name": "registeredUserEmails",
      "outputs": [
        {
          "internalType": "string",
          "name": "",
          "type": "string"
        }
      ],
      "stateMutability": "view",
      "type": "function",
      "constant": true
    },
    {
      "inputs": [
        {
          "internalType": "string",
          "name": "_name",
          "type": "string"
        },
        {
          "internalType": "string",
          "name": "_email",
          "type": "string"
        },
        {
          "internalType": "uint256",
          "name": "_age",
          "type": "uint256"
        },
        {
          "internalType": "string",
          "name": "_password",
          "type": "string"
        }
      ],
      "name": "register",
      "outputs": [],
      "stateMutability": "nonpayable",
      "type": "function"
    },
    {
      "inputs": [
        {
          "internalType": "address",
          "name": "_adminAddress",
          "type": "address"
        }
      ],
      "name": "adminSignIn",
      "outputs": [
        {
          "internalType": "bool",
          "name": "",
          "type": "bool"
        }
      ],
      "stateMutability": "nonpayable",
      "type": "function"
    },
    {
      "inputs": [
        {
          "internalType": "address",
          "name": "_adminAddress",
          "type": "address"
        }
      ],
      "name": "assignAdmin",
      "outputs": [],
      "stateMutability": "nonpayable",
      "type": "function"
    },
    {
      "inputs": [
        {
          "internalType": "address",
          "name": "_adminAddress",
          "type": "address"
        }
      ],
      "name": "removeAdmin",
      "outputs": [],
      "stateMutability": "nonpayable",
      "type": "function"
    },
    {
      "inputs": [
        {
          "internalType": "string",
          "name": "_identifier",
          "type": "string"
        },
        {
          "internalType": "string",
          "name": "_password",
          "type": "string"
        }
      ],
      "name": "signIn",
      "outputs": [
        {
          "internalType": "bool",
          "name": "",
          "type": "bool"
        }
      ],
      "stateMutability": "nonpayable",
      "type": "function"
    },
    {
      "inputs": [
        {
          "internalType": "string",
          "name": "_identifier",
          "type": "string"
        },
        {
          "internalType": "string",
          "name": "_newPassword",
          "type": "string"
        }
      ],
      "name": "resetPassword",
      "outputs": [],
      "stateMutability": "nonpayable",
      "type": "function"
    },
    {
      "inputs": [],
      "name": "logoutUser",
      "outputs": [],
      "stateMutability": "nonpayable",
      "type": "function"
    },
    {
      "inputs": [],
      "name": "logoutAdmin",
      "outputs": [],
      "stateMutability": "nonpayable",
      "type": "function"
    },
    {
      "inputs": [],
      "name": "getAllRegisteredUsers",
      "outputs": [
        {
          "internalType": "string[]",
          "name": "",
          "type": "string[]"
        }
      ],
      "stateMutability": "view",
      "type": "function",
      "constant": true
    },
    {
      "inputs": [],
      "name": "getAllAdmins",
      "outputs": [
        {
          "internalType": "address[]",
          "name": "",
          "type": "address[]"
        }
      ],
      "stateMutability": "view",
      "type": "function",
      "constant": true
    },
    {
      "inputs": [],
      "name": "getUserAge",
      "outputs": [
        {
          "internalType": "uint256",
          "name": "",
          "type": "uint256"
        }
      ],
      "stateMutability": "view",
      "type": "function",
      "constant": true
    }
  ],
  "bytecode": "0x608060405234801561001057600080fd5b5033600460006101000a81548173ffffffffffffffffffffffffffffffffffffffff021916908373ffffffffffffffffffffffffffffffffffffffff1602179055506001600360003373ffffffffffffffffffffffffffffffffffffffff1673ffffffffffffffffffffffffffffffffffffffff16815260200190815260200160002060006101000a81548160ff0219169083151502179055506002339080600181540180825580915050600190039060005260206000200160009091909190916101000a81548173ffffffffffffffffffffffffffffffffffffffff021916908373ffffffffffffffffffffffffffffffffffffffff1602179055506129728061011c6000396000f3fe608060405234801561001057600080fd5b506004361061010b5760003560e01c80637cae3d4d116100a2578063ba4bcd7211610071578063ba4bcd72146102a6578063c8518ecb146102c4578063d8f145d2146102f4578063e9523c97146102fe578063fb0bc6a31461031c5761010b565b80637cae3d4d1461021c5780638da5cb5b1461023a57806392ee033414610258578063ba44eecf146102765761010b565b8063429b62e5116100de578063429b62e5146101965780635a06a718146101c6578063679a9c2c146101f65780636b9624cc146102125761010b565b80631785f53c146101105780632c162dbc1461012c578063397388af1461015c5780633da7d2ed1461017a575b600080fd5b61012a60048036038101906101259190611b21565b610338565b005b61014660048036038101906101419190611b4a565b610839565b60405161015391906123a7565b60405180910390f35b610164610ae4565b6040516101719190612385565b60405180910390f35b610194600480360381019061018f9190611b21565b610bbd565b005b6101b060048036038101906101ab9190611b21565b610e6b565b6040516101bd91906123a7565b60405180910390f35b6101e060048036038101906101db9190611c61565b610e8b565b6040516101ed91906123eb565b60405180910390f35b610210600480360381019061020b9190611b4a565b610f37565b005b61021a611168565b005b6102246112a3565b60405161023191906125f2565b60405180910390f35b61024261133b565b60405161024f9190612348565b60405180910390f35b610260611361565b60405161026d91906123eb565b60405180910390f35b610290600480360381019061028b9190611c61565b6113ef565b60405161029d9190612348565b60405180910390f35b6102ae61142e565b6040516102bb9190612348565b60405180910390f35b6102de60048036038101906102d99190611b21565b611454565b6040516102eb91906123a7565b60405180910390f35b6102fc61152c565b005b6103066115e8565b6040516103139190612363565b60405180910390f35b61033660048036038101906103319190611bb6565b611676565b005b600460009054906101000a900473ffffffffffffffffffffffffffffffffffffffff1673ffffffffffffffffffffffffffffffffffffffff163373ffffffffffffffffffffffffffffffffffffffff16146103c8576040517f08c379a00000000000000000000000000000000000000000000000000000000081526004016103bf90612472565b60405180910390fd5b600660009054906101000a900473ffffffffffffffffffffffffffffffffffffffff1673ffffffffffffffffffffffffffffffffffffffff163373ffffffffffffffffffffffffffffffffffffffff1614610458576040517f08c379a000000000000000000000000000000000000000000000000000000000815260040161044f90612492565b60405180910390fd5b600360008273ffffffffffffffffffffffffffffffffffffffff1673ffffffffffffffffffffffffffffffffffffffff16815260200190815260200160002060009054906101000a900460ff166104e4576040517f08c379a00000000000000000000000000000000000000000000000000000000081526004016104db906124d2565b60405180910390fd5b600460009054906101000a900473ffffffffffffffffffffffffffffffffffffffff1673ffffffffffffffffffffffffffffffffffffffff168173ffffffffffffffffffffffffffffffffffffffff161415610575576040517f08c379a000000000000000000000000000000000000000000000000000000000815260040161056c90612552565b60405180910390fd5b6000600360008373ffffffffffffffffffffffffffffffffffffffff1673ffffffffffffffffffffffffffffffffffffffff16815260200190815260200160002060006101000a81548160ff02191690831515021790555060005b6002805490508110156107f2578173ffffffffffffffffffffffffffffffffffffffff166002828154811061062e577f4e487b7100000000000000000000000000000000000000000000000000000000600052603260045260246000fd5b9060005260206000200160009054906101000a900473ffffffffffffffffffffffffffffffffffffffff1673ffffffffffffffffffffffffffffffffffffffff1614156107df5760026001600280549050610689919061272d565b815481106106c0577f4e487b7100000000000000000000000000000000000000000000000000000000600052603260045260246000fd5b9060005260206000200160009054906101000a900473ffffffffffffffffffffffffffffffffffffffff1660028281548110610725577f4e487b7100000000000000000000000000000000000000000000000000000000600052603260045260246000fd5b9060005260206000200160006101000a81548173ffffffffffffffffffffffffffffffffffffffff021916908373ffffffffffffffffffffffffffffffffffffffff16021790555060028054806107a5577f4e487b7100000000000000000000000000000000000000000000000000000000600052603160045260246000fd5b6001900381819060005260206000200160006101000a81549073ffffffffffffffffffffffffffffffffffffffff021916905590556107f2565b80806107ea90612827565b9150506105d0565b508073ffffffffffffffffffffffffffffffffffffffff167fa3b62bc36326052d97ea62d63c3d60308ed4c3ea8ac079dd8499f1e9c4f80c0f60405160405180910390a250565b60008060008460405161084c919061231a565b90815260200160405180910390206040518060c0016040529081600082018054610875906127f5565b80601f01602080910402602001604051908101604052809291908181526020018280546108a1906127f5565b80156108ee5780601f106108c3576101008083540402835291602001916108ee565b820191906000526020600020905b8154815290600101906020018083116108d157829003601f168201915b50505050508152602001600182018054610907906127f5565b80601f0160208091040260200160405190810160405280929190818152602001828054610933906127f5565b80156109805780601f1061095557610100808354040283529160200191610980565b820191906000526020600020905b81548152906001019060200180831161096357829003601f168201915b5050505050815260200160028201548152602001600382015481526020016004820160009054906101000a900460ff1615151515815260200160058201805480602002602001604051908101604052809291908181526020018280548015610a0757602002820191906000526020600020905b8154815260200190600101908083116109f3575b50505050508152505090508060800151610a56576040517f08c379a0000000000000000000000000000000000000000000000000000000008152600401610a4d90612572565b60405180910390fd5b82604051602001610a67919061231a565b60405160208183030381529060405280519060200120816060015114610ac2576040517f08c379a0000000000000000000000000000000000000000000000000000000008152600401610ab9906124f2565b60405180910390fd5b8360059080519060200190610ad892919061199f565b50600191505092915050565b60606001805480602002602001604051908101604052809291908181526020016000905b82821015610bb4578382906000526020600020018054610b27906127f5565b80601f0160208091040260200160405190810160405280929190818152602001828054610b53906127f5565b8015610ba05780601f10610b7557610100808354040283529160200191610ba0565b820191906000526020600020905b815481529060010190602001808311610b8357829003601f168201915b505050505081526020019060010190610b08565b50505050905090565b600460009054906101000a900473ffffffffffffffffffffffffffffffffffffffff1673ffffffffffffffffffffffffffffffffffffffff163373ffffffffffffffffffffffffffffffffffffffff1614610c4d576040517f08c379a0000000000000000000000000000000000000000000000000000000008152600401610c4490612472565b60405180910390fd5b600660009054906101000a900473ffffffffffffffffffffffffffffffffffffffff1673ffffffffffffffffffffffffffffffffffffffff163373ffffffffffffffffffffffffffffffffffffffff1614610cdd576040517f08c379a0000000000000000000000000000000000000000000000000000000008152600401610cd490612492565b60405180910390fd5b600360008273ffffffffffffffffffffffffffffffffffffffff1673ffffffffffffffffffffffffffffffffffffffff16815260200190815260200160002060009054906101000a900460ff1615610d6a576040517f08c379a0000000000000000000000000000000000000000000000000000000008152600401610d6190612592565b60405180910390fd5b6001600360008373ffffffffffffffffffffffffffffffffffffffff1673ffffffffffffffffffffffffffffffffffffffff16815260200190815260200160002060006101000a81548160ff0219169083151502179055506002819080600181540180825580915050600190039060005260206000200160009091909190916101000a81548173ffffffffffffffffffffffffffffffffffffffff021916908373ffffffffffffffffffffffffffffffffffffffff1602179055508073ffffffffffffffffffffffffffffffffffffffff167fdb33970bd9bc1a413c7dac3b21e061709de094761c9396ef6d49b9ebdb79393360405160405180910390a250565b60036020528060005260406000206000915054906101000a900460ff1681565b60018181548110610e9b57600080fd5b906000526020600020016000915090508054610eb6906127f5565b80601f0160208091040260200160405190810160405280929190818152602001828054610ee2906127f5565b8015610f2f5780601f10610f0457610100808354040283529160200191610f2f565b820191906000526020600020905b815481529060010190602001808311610f1257829003601f168201915b505050505081565b600082604051610f47919061231a565b908152602001604051809103902060040160009054906101000a900460ff16610fa5576040517f08c379a0000000000000000000000000000000000000000000000000000000008152600401610f9c90612572565b60405180910390fd5b600082604051602001610fb8919061231a565b60405160208183030381529060405280519060200120600084604051610fde919061231a565b9081526020016040518091039020600101604051602001610fff9190612331565b6040516020818303038152906040528051906020012014905080611058576040517f08c379a000000000000000000000000000000000000000000000000000000000815260040161104f906124b2565b60405180910390fd5b60008260405160200161106b919061231a565b60405160208183030381529060405280519060200120905060008085604051611094919061231a565b9081526020016040518091039020600301549050808214156110eb576040517f08c379a00000000000000000000000000000000000000000000000000000000081526004016110e290612532565b60405180910390fd5b816000866040516110fc919061231a565b9081526020016040518091039020600301819055503373ffffffffffffffffffffffffffffffffffffffff167f1b50a644b0847d53b0509345d2ba19a27e755cb5c52b363d882785c5ff7bee7982846040516111599291906123c2565b60405180910390a25050505050565b600073ffffffffffffffffffffffffffffffffffffffff16600660009054906101000a900473ffffffffffffffffffffffffffffffffffffffff1673ffffffffffffffffffffffffffffffffffffffff1614156111fa576040517f08c379a00000000000000000000000000000000000000000000000000000000081526004016111f1906125b2565b60405180910390fd5b600660009054906101000a900473ffffffffffffffffffffffffffffffffffffffff1673ffffffffffffffffffffffffffffffffffffffff167f7f7a416fbf0cacca70e58b8eee9540ca8335651c62f987f130ae945a0d210d3960405160405180910390a26000600660006101000a81548173ffffffffffffffffffffffffffffffffffffffff021916908373ffffffffffffffffffffffffffffffffffffffff160217905550565b60008060056040516112b59190612331565b908152602001604051809103902060040160009054906101000a900460ff16611313576040517f08c379a000000000000000000000000000000000000000000000000000000000815260040161130a90612452565b60405180910390fd5b600060056040516113249190612331565b908152602001604051809103902060020154905090565b600460009054906101000a900473ffffffffffffffffffffffffffffffffffffffff1681565b6005805461136e906127f5565b80601f016020809104026020016040519081016040528092919081815260200182805461139a906127f5565b80156113e75780601f106113bc576101008083540402835291602001916113e7565b820191906000526020600020905b8154815290600101906020018083116113ca57829003601f168201915b505050505081565b600281815481106113ff57600080fd5b906000526020600020016000915054906101000a900473ffffffffffffffffffffffffffffffffffffffff1681565b600660009054906101000a900473ffffffffffffffffffffffffffffffffffffffff1681565b6000600360008373ffffffffffffffffffffffffffffffffffffffff1673ffffffffffffffffffffffffffffffffffffffff16815260200190815260200160002060009054906101000a900460ff166114e2576040517f08c379a00000000000000000000000000000000000000000000000000000000081526004016114d9906124d2565b60405180910390fd5b81600660006101000a81548173ffffffffffffffffffffffffffffffffffffffff021916908373ffffffffffffffffffffffffffffffffffffffff16021790555060019050919050565b60006005805461153b906127f5565b90501161157d576040517f08c379a0000000000000000000000000000000000000000000000000000000008152600401611574906125d2565b60405180910390fd5b600560405161158c9190612331565b60405180910390207f34ed8fb20d85b6fb0e3319e6d5a3ffdec9605b798082611f73aaab3e4ad7d43060405160405180910390a260405180602001604052806000815250600590805190602001906115e592919061199f565b50565b6060600280548060200260200160405190810160405280929190818152602001828054801561166c57602002820191906000526020600020905b8160009054906101000a900473ffffffffffffffffffffffffffffffffffffffff1673ffffffffffffffffffffffffffffffffffffffff1681526020019060010190808311611622575b5050505050905090565b60006001905060005b60018054905081101561177b57600181815481106116c6577f4e487b7100000000000000000000000000000000000000000000000000000000600052603260045260246000fd5b906000526020600020016040516020016116e09190612331565b6040516020818303038152906040528051906020012085604051602001611707919061231a565b60405160208183030381529060405280519060200120141561172857600091505b81611768576040517f08c379a000000000000000000000000000000000000000000000000000000000815260040161175f90612512565b60405180910390fd5b808061177390612827565b91505061167f565b5060008260405160200161178f919061231a565b6040516020818303038152906040528051906020012090506040518060c00160405280878152602001868152602001858152602001828152602001600115158152602001606467ffffffffffffffff811115611814577f4e487b7100000000000000000000000000000000000000000000000000000000600052604160045260246000fd5b6040519080825280602002602001820160405280156118425781602001602082028036833780820191505090505b50815250600086604051611856919061231a565b9081526020016040518091039020600082015181600001908051906020019061188092919061199f565b50602082015181600101908051906020019061189d92919061199f565b50604082015181600201556060820151816003015560808201518160040160006101000a81548160ff02191690831515021790555060a08201518160050190805190602001906118ee929190611a25565b5090505060018590806001815401808255809150506001900390600052602060002001600090919091909150908051906020019061192d92919061199f565b50846005908051906020019061194492919061199f565b503373ffffffffffffffffffffffffffffffffffffffff167fb43e07573ffd613ee4cb14f22ebd42b902fb524682771d8e82932bd48bcda24787878760405161198f9392919061240d565b60405180910390a2505050505050565b8280546119ab906127f5565b90600052602060002090601f0160209004810192826119cd5760008555611a14565b82601f106119e657805160ff1916838001178555611a14565b82800160010185558215611a14579182015b82811115611a135782518255916020019190600101906119f8565b5b509050611a219190611a72565b5090565b828054828255906000526020600020908101928215611a61579160200282015b82811115611a60578251825591602001919060010190611a45565b5b509050611a6e9190611a72565b5090565b5b80821115611a8b576000816000905550600101611a73565b5090565b6000611aa2611a9d8461263e565b61260d565b905082815260208101848484011115611aba57600080fd5b611ac58482856127b3565b509392505050565b600081359050611adc8161290e565b92915050565b600082601f830112611af357600080fd5b8135611b03848260208601611a8f565b91505092915050565b600081359050611b1b81612925565b92915050565b600060208284031215611b3357600080fd5b6000611b4184828501611acd565b91505092915050565b60008060408385031215611b5d57600080fd5b600083013567ffffffffffffffff811115611b7757600080fd5b611b8385828601611ae2565b925050602083013567ffffffffffffffff811115611ba057600080fd5b611bac85828601611ae2565b9150509250929050565b60008060008060808587031215611bcc57600080fd5b600085013567ffffffffffffffff811115611be657600080fd5b611bf287828801611ae2565b945050602085013567ffffffffffffffff811115611c0f57600080fd5b611c1b87828801611ae2565b9350506040611c2c87828801611b0c565b925050606085013567ffffffffffffffff811115611c4957600080fd5b611c5587828801611ae2565b91505092959194509250565b600060208284031215611c7357600080fd5b6000611c8184828501611b0c565b91505092915050565b6000611c968383611cb6565b60208301905092915050565b6000611cae8383611dc5565b905092915050565b611cbf81612761565b82525050565b611cce81612761565b82525050565b6000611cdf826126a3565b611ce981856126de565b9350611cf48361266e565b8060005b83811015611d25578151611d0c8882611c8a565b9750611d17836126c4565b925050600181019050611cf8565b5085935050505092915050565b6000611d3d826126ae565b611d4781856126ef565b935083602082028501611d598561267e565b8060005b85811015611d955784840389528151611d768582611ca2565b9450611d81836126d1565b925060208a01995050600181019050611d5d565b50829750879550505050505092915050565b611db081612773565b82525050565b611dbf8161277f565b82525050565b6000611dd0826126b9565b611dda8185612700565b9350611dea8185602086016127c2565b611df3816128fd565b840191505092915050565b6000611e09826126b9565b611e138185612711565b9350611e238185602086016127c2565b611e2c816128fd565b840191505092915050565b6000611e42826126b9565b611e4c8185612722565b9350611e5c8185602086016127c2565b80840191505092915050565b60008154611e75816127f5565b611e7f8186612722565b94506001821660008114611e9a5760018114611eab57611ede565b60ff19831686528186019350611ede565b611eb48561268e565b60005b83811015611ed657815481890152600182019150602081019050611eb7565b838801955050505b50505092915050565b6000611ef4601383612711565b91507f55736572206e6f742072656769737465726564000000000000000000000000006000830152602082019050919050565b6000611f34602b83612711565b91507f4f6e6c7920636f6e7472616374206f776e65722063616e20706572666f726d2060008301527f7468697320616374696f6e0000000000000000000000000000000000000000006020830152604082019050919050565b6000611f9a603a83612711565b91507f4d6574616d61736b206163636f756e7420616e6420616464726573732075736560008301527f6420746f207369676e20696e20646f206e6f74206d617463682e0000000000006020830152604082019050919050565b6000612000600e83612711565b91507f496e76616c696420656d61696c2e0000000000000000000000000000000000006000830152602082019050919050565b6000612040601d83612711565b91507f546869732061646472657373206973206e6f7420616e2061646d696e2e0000006000830152602082019050919050565b6000612080601683612711565b91507f50617373776f726420697320696e636f72726563742e000000000000000000006000830152602082019050919050565b60006120c0602c83612711565b91507f456d61696c20697320616c72656164792072656769737465726564206279206160008301527f6e6f7468657220757365722e00000000000000000000000000000000000000006020830152604082019050919050565b6000612126603483612711565b91507f4e65772070617373776f72642063616e6e6f74206265207468652073616d652060008301527f617320746865206f6c642070617373776f72642e0000000000000000000000006020830152604082019050919050565b600061218c602183612711565b91507f4f776e65722063616e6e6f742062652072656d6f7665642061732061646d696e60008301527f2e000000000000000000000000000000000000000000000000000000000000006020830152604082019050919050565b60006121f2601483612711565b91507f55736572206e6f7420726567697374657265642e0000000000000000000000006000830152602082019050919050565b6000612232602183612711565b91507f54686973206164647265737320697320616c726561647920616e2061646d696e60008301527f2e000000000000000000000000000000000000000000000000000000000000006020830152604082019050919050565b6000612298602083612711565b91507f4e6f2061646d696e2069732063757272656e746c79207369676e656420696e2e6000830152602082019050919050565b60006122d8601f83612711565b91507f4e6f20757365722069732063757272656e746c79207369676e656420696e2e006000830152602082019050919050565b612314816127a9565b82525050565b60006123268284611e37565b915081905092915050565b600061233d8284611e68565b915081905092915050565b600060208201905061235d6000830184611cc5565b92915050565b6000602082019050818103600083015261237d8184611cd4565b905092915050565b6000602082019050818103600083015261239f8184611d32565b905092915050565b60006020820190506123bc6000830184611da7565b92915050565b60006040820190506123d76000830185611db6565b6123e46020830184611db6565b9392505050565b600060208201905081810360008301526124058184611dfe565b905092915050565b600060608201905081810360008301526124278186611dfe565b9050818103602083015261243b8185611dfe565b905061244a604083018461230b565b949350505050565b6000602082019050818103600083015261246b81611ee7565b9050919050565b6000602082019050818103600083015261248b81611f27565b9050919050565b600060208201905081810360008301526124ab81611f8d565b9050919050565b600060208201905081810360008301526124cb81611ff3565b9050919050565b600060208201905081810360008301526124eb81612033565b9050919050565b6000602082019050818103600083015261250b81612073565b9050919050565b6000602082019050818103600083015261252b816120b3565b9050919050565b6000602082019050818103600083015261254b81612119565b9050919050565b6000602082019050818103600083015261256b8161217f565b9050919050565b6000602082019050818103600083015261258b816121e5565b9050919050565b600060208201905081810360008301526125ab81612225565b9050919050565b600060208201905081810360008301526125cb8161228b565b9050919050565b600060208201905081810360008301526125eb816122cb565b9050919050565b6000602082019050612607600083018461230b565b92915050565b6000604051905081810181811067ffffffffffffffff82111715612634576126336128ce565b5b8060405250919050565b600067ffffffffffffffff821115612659576126586128ce565b5b601f19601f8301169050602081019050919050565b6000819050602082019050919050565b6000819050602082019050919050565b60008190508160005260206000209050919050565b600081519050919050565b600081519050919050565b600081519050919050565b6000602082019050919050565b6000602082019050919050565b600082825260208201905092915050565b600082825260208201905092915050565b600082825260208201905092915050565b600082825260208201905092915050565b600081905092915050565b6000612738826127a9565b9150612743836127a9565b92508282101561275657612755612870565b5b828203905092915050565b600061276c82612789565b9050919050565b60008115159050919050565b6000819050919050565b600073ffffffffffffffffffffffffffffffffffffffff82169050919050565b6000819050919050565b82818337600083830152505050565b60005b838110156127e05780820151818401526020810190506127c5565b838111156127ef576000848401525b50505050565b6000600282049050600182168061280d57607f821691505b602082108114156128215761282061289f565b5b50919050565b6000612832826127a9565b91507fffffffffffffffffffffffffffffffffffffffffffffffffffffffffffffffff82141561286557612864612870565b5b600182019050919050565b7f4e487b7100000000000000000000000000000000000000000000000000000000600052601160045260246000fd5b7f4e487b7100000000000000000000000000000000000000000000000000000000600052602260045260246000fd5b7f4e487b7100000000000000000000000000000000000000000000000000000000600052604160045260246000fd5b6000601f19601f8301169050919050565b61291781612761565b811461292257600080fd5b50565b61292e816127a9565b811461293957600080fd5b5056fea26469706673582212203a471d27028fdeda5ccb3dc0b88a6264b0130b5aabebae6b6d827c50d4ce8eae64736f6c63430008000033",
  "immutableReferences": {},
  "source": "// SPDX-License-Identifier: MIT\r\npragma solidity ^0.8.0;\r\n\r\ncontract UserAuth {\r\n    struct User {\r\n        string name;\r\n        string email;\r\n        uint age;\r\n        bytes32 hashedPassword;\r\n        bool isRegistered;\r\n        uint256[] subscribedPackages;\r\n    }\r\n\r\n    mapping(string => User) private users;\r\n\r\n    string[] public registeredUserEmails; // External array to store all registered users' email\r\n    address[] public adminAddresses; // Array to store all admin addresses\r\n\r\n    mapping(address => bool) public admins; // Mapping to keep track of admins\r\n    address public owner; // Contract owner\r\n\r\n    string public currentUser; // For other contracts to know who the current user is\r\n    address public currentAdmin; // For other contracts to know who the current admin is\r\n\r\n    event UserRegistered(\r\n        address indexed userAddress,\r\n        string _name,\r\n        string email,\r\n        uint _age\r\n    );\r\n    event PasswordReset(\r\n        address indexed userAddress,\r\n        bytes32 oldHashedPassword,\r\n        bytes32 newHashedPassword\r\n    );\r\n    event AdminAssigned(address indexed adminAddress);\r\n    event AdminRemoved(address indexed adminAddress);\r\n    event UserLoggedOut(string indexed email);\r\n    event AdminLoggedOut(address indexed adminAddress);\r\n\r\n    modifier onlyOwner() {\r\n        require(\r\n            msg.sender == owner,\r\n            \"Only contract owner can perform this action\"\r\n        );\r\n        _;\r\n    }\r\n\r\n    modifier onlyAdmin() {\r\n        require(admins[msg.sender], \"Only admins can perform this action\");\r\n        _;\r\n    }\r\n\r\n    modifier sameAdmin() {\r\n        require(\r\n            msg.sender == currentAdmin,\r\n            \"Metamask account and address used to sign in do not match.\"\r\n        );\r\n        _;\r\n    }\r\n\r\n    constructor() {\r\n        owner = msg.sender; // Set contract creator as the first admin\r\n        admins[msg.sender] = true;\r\n        adminAddresses.push(msg.sender); // Add owner to adminAddresses array\r\n    }\r\n\r\n    // Register a new user with additional attributes and hashed password\r\n    function register(\r\n        string memory _name,\r\n        string memory _email,\r\n        uint _age,\r\n        string memory _password\r\n    ) public {\r\n        bool validEmail = true;\r\n        for (uint i = 0; i < registeredUserEmails.length; i++) {\r\n            if (\r\n                keccak256(abi.encodePacked(_email)) ==\r\n                keccak256(abi.encodePacked(registeredUserEmails[i]))\r\n            ) {\r\n                validEmail = false;\r\n            }\r\n            require(validEmail, \"Email is already registered by another user.\");\r\n        }\r\n\r\n        bytes32 hashedPassword = keccak256(abi.encodePacked(_password)); // Hash the password\r\n        users[_email] = User({\r\n            name: _name,\r\n            email: _email,\r\n            age: _age,\r\n            hashedPassword: hashedPassword,\r\n            isRegistered: true,\r\n            subscribedPackages: new uint256[](100)\r\n        });\r\n\r\n        // Add the user address to the external registeredUsers array\r\n        registeredUserEmails.push(_email);\r\n        currentUser = _email;\r\n\r\n        emit UserRegistered(msg.sender, _name, _email, _age);\r\n    }\r\n\r\n    // Admin sign in using just the address\r\n    function adminSignIn(address _adminAddress) public returns (bool) {\r\n        require(admins[_adminAddress], \"This address is not an admin.\");\r\n\r\n        currentAdmin = _adminAddress;\r\n        return true;\r\n    }\r\n\r\n    // Admin function to assign a new admin\r\n    function assignAdmin(address _adminAddress) public onlyOwner sameAdmin {\r\n        require(!admins[_adminAddress], \"This address is already an admin.\");\r\n        admins[_adminAddress] = true;\r\n\r\n        adminAddresses.push(_adminAddress);\r\n\r\n        emit AdminAssigned(_adminAddress);\r\n    }\r\n\r\n    // Admin function to remove an admin\r\n    function removeAdmin(address _adminAddress) public onlyOwner sameAdmin {\r\n        require(admins[_adminAddress], \"This address is not an admin.\");\r\n        require(_adminAddress != owner, \"Owner cannot be removed as admin.\");\r\n        admins[_adminAddress] = false;\r\n\r\n        for (uint i = 0; i < adminAddresses.length; i++) {\r\n            if (adminAddresses[i] == _adminAddress) {\r\n                adminAddresses[i] = adminAddresses[adminAddresses.length - 1];\r\n                adminAddresses.pop();\r\n                break;\r\n            }\r\n        }\r\n\r\n        emit AdminRemoved(_adminAddress);\r\n    }\r\n\r\n    // Sign in using email and password\r\n    function signIn(string memory _identifier, string memory _password) public returns (bool) {\r\n        User memory user = users[_identifier];\r\n        require(user.isRegistered, \"User not registered.\");\r\n        require(\r\n            user.hashedPassword == keccak256(abi.encodePacked(_password)),\r\n            \"Password is incorrect.\"\r\n        );\r\n\r\n        currentUser = _identifier;\r\n        return true;\r\n    }\r\n\r\n    // Reset password\r\n    function resetPassword(\r\n        string memory _identifier,\r\n        string memory _newPassword\r\n    ) public {\r\n        require(users[_identifier].isRegistered, \"User not registered.\");\r\n        bool isValid = keccak256(abi.encodePacked(users[_identifier].email)) ==\r\n            keccak256(abi.encodePacked(_identifier));\r\n        require(isValid, \"Invalid email.\");\r\n\r\n        bytes32 newHashedPassword = keccak256(abi.encodePacked(_newPassword));\r\n        bytes32 oldHashedPassword = users[_identifier].hashedPassword;\r\n\r\n        require(\r\n            newHashedPassword != oldHashedPassword,\r\n            \"New password cannot be the same as the old password.\"\r\n        );\r\n\r\n        users[_identifier].hashedPassword = newHashedPassword;\r\n\r\n        emit PasswordReset(msg.sender, oldHashedPassword, newHashedPassword);\r\n    }\r\n\r\n    // Logout for the current user\r\n    function logoutUser() public {\r\n        require(bytes(currentUser).length > 0, \"No user is currently signed in.\");\r\n        emit UserLoggedOut(currentUser);\r\n        currentUser = \"\"; // Reset current user\r\n    }\r\n\r\n    // Logout for the current admin\r\n    function logoutAdmin() public {\r\n        require(currentAdmin != address(0), \"No admin is currently signed in.\");\r\n        emit AdminLoggedOut(currentAdmin);\r\n        currentAdmin = address(0); // Reset current admin\r\n    }\r\n\r\n    // Function to get all registered user emails\r\n    function getAllRegisteredUsers() public view returns (string[] memory) {\r\n        return registeredUserEmails;\r\n    }\r\n\r\n    // Function to get all registered admin addresses\r\n    function getAllAdmins() public view returns (address[] memory) {\r\n        return adminAddresses;\r\n    }\r\n\r\n    function getUserAge() public view returns (uint) {\r\n        require(users[currentUser].isRegistered, \"User not registered\");\r\n        return users[currentUser].age;\r\n    }\r\n}\r\n",
  "sourcePath": "C:\\Users\\keeke\\Desktop\\BlockChain\\Great_Global\\Danny_Test\\SponsorAnimals\\contracts\\UserAuth.sol",
  "compiler": {
    "name": "solc",
    "version": "0.8.0+commit.c7dfd78e.Emscripten.clang"
  },
  "schemaVersion": "3.4.16",
  "updatedAt": "2024-09-25T21:43:00.515Z",
  "networkType": "ethereum",
  "devdoc": {
    "kind": "dev",
    "methods": {},
    "version": 1
  },
  "userdoc": {
    "kind": "user",
    "methods": {},
    "version": 1
  }
}