{
  "contractName": "UserAuth",
  "abi": [
    {
      "inputs": [],
      "stateMutability": "nonpayable",
      "type": "constructor"
    },
    {
      "anonymous": false,
      "inputs": [
        {
          "indexed": true,
          "internalType": "address",
          "name": "adminAddress",
          "type": "address"
        }
      ],
      "name": "AdminAssigned",
      "type": "event"
    },
    {
      "anonymous": false,
      "inputs": [
        {
          "indexed": true,
          "internalType": "address",
          "name": "adminAddress",
          "type": "address"
        }
      ],
      "name": "AdminRemoved",
      "type": "event"
    },
    {
      "anonymous": false,
      "inputs": [
        {
          "indexed": true,
          "internalType": "address",
          "name": "userAddress",
          "type": "address"
        },
        {
          "indexed": false,
          "internalType": "bytes32",
          "name": "oldHashedPassword",
          "type": "bytes32"
        },
        {
          "indexed": false,
          "internalType": "bytes32",
          "name": "newHashedPassword",
          "type": "bytes32"
        }
      ],
      "name": "PasswordReset",
      "type": "event"
    },
    {
      "anonymous": false,
      "inputs": [
        {
          "indexed": true,
          "internalType": "address",
          "name": "userAddress",
          "type": "address"
        },
        {
          "indexed": false,
          "internalType": "string",
          "name": "_name",
          "type": "string"
        },
        {
          "indexed": false,
          "internalType": "string",
          "name": "email",
          "type": "string"
        },
        {
          "indexed": false,
          "internalType": "uint256",
          "name": "_age",
          "type": "uint256"
        }
      ],
      "name": "UserRegistered",
      "type": "event"
    },
    {
      "inputs": [
        {
          "internalType": "uint256",
          "name": "",
          "type": "uint256"
        }
      ],
      "name": "adminAddresses",
      "outputs": [
        {
          "internalType": "address",
          "name": "",
          "type": "address"
        }
      ],
      "stateMutability": "view",
      "type": "function",
      "constant": true
    },
    {
      "inputs": [
        {
          "internalType": "address",
          "name": "",
          "type": "address"
        }
      ],
      "name": "admins",
      "outputs": [
        {
          "internalType": "bool",
          "name": "",
          "type": "bool"
        }
      ],
      "stateMutability": "view",
      "type": "function",
      "constant": true
    },
    {
      "inputs": [],
      "name": "currentAdmin",
      "outputs": [
        {
          "internalType": "address",
          "name": "",
          "type": "address"
        }
      ],
      "stateMutability": "view",
      "type": "function",
      "constant": true
    },
    {
      "inputs": [],
      "name": "currentUser",
      "outputs": [
        {
          "internalType": "string",
          "name": "",
          "type": "string"
        }
      ],
      "stateMutability": "view",
      "type": "function",
      "constant": true
    },
    {
      "inputs": [],
      "name": "owner",
      "outputs": [
        {
          "internalType": "address",
          "name": "",
          "type": "address"
        }
      ],
      "stateMutability": "view",
      "type": "function",
      "constant": true
    },
    {
      "inputs": [
        {
          "internalType": "uint256",
          "name": "",
          "type": "uint256"
        }
      ],
      "name": "registeredUserEmails",
      "outputs": [
        {
          "internalType": "string",
          "name": "",
          "type": "string"
        }
      ],
      "stateMutability": "view",
      "type": "function",
      "constant": true
    },
    {
      "inputs": [
        {
          "internalType": "string",
          "name": "_name",
          "type": "string"
        },
        {
          "internalType": "string",
          "name": "_email",
          "type": "string"
        },
        {
          "internalType": "uint256",
          "name": "_age",
          "type": "uint256"
        },
        {
          "internalType": "string",
          "name": "_password",
          "type": "string"
        }
      ],
      "name": "register",
      "outputs": [],
      "stateMutability": "nonpayable",
      "type": "function"
    },
    {
      "inputs": [
        {
          "internalType": "address",
          "name": "_adminAddress",
          "type": "address"
        }
      ],
      "name": "adminSignIn",
      "outputs": [
        {
          "internalType": "bool",
          "name": "",
          "type": "bool"
        }
      ],
      "stateMutability": "nonpayable",
      "type": "function"
    },
    {
      "inputs": [
        {
          "internalType": "address",
          "name": "_adminAddress",
          "type": "address"
        }
      ],
      "name": "assignAdmin",
      "outputs": [],
      "stateMutability": "nonpayable",
      "type": "function"
    },
    {
      "inputs": [
        {
          "internalType": "address",
          "name": "_adminAddress",
          "type": "address"
        }
      ],
      "name": "removeAdmin",
      "outputs": [],
      "stateMutability": "nonpayable",
      "type": "function"
    },
    {
      "inputs": [
        {
          "internalType": "string",
          "name": "_identifier",
          "type": "string"
        },
        {
          "internalType": "string",
          "name": "_password",
          "type": "string"
        }
      ],
      "name": "signIn",
      "outputs": [
        {
          "internalType": "bool",
          "name": "",
          "type": "bool"
        }
      ],
      "stateMutability": "view",
      "type": "function",
      "constant": true
    },
    {
      "inputs": [
        {
          "internalType": "string",
          "name": "_identifier",
          "type": "string"
        },
        {
          "internalType": "string",
          "name": "_newPassword",
          "type": "string"
        }
      ],
      "name": "resetPassword",
      "outputs": [],
      "stateMutability": "nonpayable",
      "type": "function"
    },
    {
      "inputs": [],
      "name": "getAllRegisteredUsers",
      "outputs": [
        {
          "internalType": "string[]",
          "name": "",
          "type": "string[]"
        }
      ],
      "stateMutability": "view",
      "type": "function",
      "constant": true
    },
    {
      "inputs": [],
      "name": "getAllAdmins",
      "outputs": [
        {
          "internalType": "address[]",
          "name": "",
          "type": "address[]"
        }
      ],
      "stateMutability": "view",
      "type": "function",
      "constant": true
    },
    {
      "inputs": [],
      "name": "getUserAge",
      "outputs": [
        {
          "internalType": "uint256",
          "name": "",
          "type": "uint256"
        }
      ],
      "stateMutability": "view",
      "type": "function",
      "constant": true
    }
  ],
  "bytecode": "0x608060405234801561001057600080fd5b5033600460006101000a81548173ffffffffffffffffffffffffffffffffffffffff021916908373ffffffffffffffffffffffffffffffffffffffff1602179055506001600360003373ffffffffffffffffffffffffffffffffffffffff1673ffffffffffffffffffffffffffffffffffffffff16815260200190815260200160002060006101000a81548160ff0219169083151502179055506002339080600181540180825580915050600190039060005260206000200160009091909190916101000a81548173ffffffffffffffffffffffffffffffffffffffff021916908373ffffffffffffffffffffffffffffffffffffffff16021790555061267a8061011c6000396000f3fe608060405234801561001057600080fd5b50600436106100f55760003560e01c80637cae3d4d11610097578063ba4bcd7211610066578063ba4bcd7214610286578063c8518ecb146102a4578063e9523c97146102d4578063fb0bc6a3146102f2576100f5565b80637cae3d4d146101fc5780638da5cb5b1461021a57806392ee033414610238578063ba44eecf14610256576100f5565b80633da7d2ed116100d35780633da7d2ed14610164578063429b62e5146101805780635a06a718146101b0578063679a9c2c146101e0576100f5565b80631785f53c146100fa5780632c162dbc14610116578063397388af14610146575b600080fd5b610114600480360381019061010f91906118e9565b61030e565b005b610130600480360381019061012b9190611912565b61080f565b60405161013d91906120ef565b60405180910390f35b61014e610aa3565b60405161015b91906120cd565b60405180910390f35b61017e600480360381019061017991906118e9565b610b7c565b005b61019a600480360381019061019591906118e9565b610e2a565b6040516101a791906120ef565b60405180910390f35b6101ca60048036038101906101c59190611a29565b610e4a565b6040516101d79190612133565b60405180910390f35b6101fa60048036038101906101f59190611912565b610ef6565b005b610204611127565b60405161021191906122fa565b60405180910390f35b6102226111bf565b60405161022f9190612090565b60405180910390f35b6102406111e5565b60405161024d9190612133565b60405180910390f35b610270600480360381019061026b9190611a29565b611273565b60405161027d9190612090565b60405180910390f35b61028e6112b2565b60405161029b9190612090565b60405180910390f35b6102be60048036038101906102b991906118e9565b6112d8565b6040516102cb91906120ef565b60405180910390f35b6102dc6113b0565b6040516102e991906120ab565b60405180910390f35b61030c6004803603810190610307919061197e565b61143e565b005b600460009054906101000a900473ffffffffffffffffffffffffffffffffffffffff1673ffffffffffffffffffffffffffffffffffffffff163373ffffffffffffffffffffffffffffffffffffffff161461039e576040517f08c379a0000000000000000000000000000000000000000000000000000000008152600401610395906121ba565b60405180910390fd5b600660009054906101000a900473ffffffffffffffffffffffffffffffffffffffff1673ffffffffffffffffffffffffffffffffffffffff163373ffffffffffffffffffffffffffffffffffffffff161461042e576040517f08c379a0000000000000000000000000000000000000000000000000000000008152600401610425906121da565b60405180910390fd5b600360008273ffffffffffffffffffffffffffffffffffffffff1673ffffffffffffffffffffffffffffffffffffffff16815260200190815260200160002060009054906101000a900460ff166104ba576040517f08c379a00000000000000000000000000000000000000000000000000000000081526004016104b19061221a565b60405180910390fd5b600460009054906101000a900473ffffffffffffffffffffffffffffffffffffffff1673ffffffffffffffffffffffffffffffffffffffff168173ffffffffffffffffffffffffffffffffffffffff16141561054b576040517f08c379a00000000000000000000000000000000000000000000000000000000081526004016105429061229a565b60405180910390fd5b6000600360008373ffffffffffffffffffffffffffffffffffffffff1673ffffffffffffffffffffffffffffffffffffffff16815260200190815260200160002060006101000a81548160ff02191690831515021790555060005b6002805490508110156107c8578173ffffffffffffffffffffffffffffffffffffffff1660028281548110610604577f4e487b7100000000000000000000000000000000000000000000000000000000600052603260045260246000fd5b9060005260206000200160009054906101000a900473ffffffffffffffffffffffffffffffffffffffff1673ffffffffffffffffffffffffffffffffffffffff1614156107b5576002600160028054905061065f9190612435565b81548110610696577f4e487b7100000000000000000000000000000000000000000000000000000000600052603260045260246000fd5b9060005260206000200160009054906101000a900473ffffffffffffffffffffffffffffffffffffffff16600282815481106106fb577f4e487b7100000000000000000000000000000000000000000000000000000000600052603260045260246000fd5b9060005260206000200160006101000a81548173ffffffffffffffffffffffffffffffffffffffff021916908373ffffffffffffffffffffffffffffffffffffffff160217905550600280548061077b577f4e487b7100000000000000000000000000000000000000000000000000000000600052603160045260246000fd5b6001900381819060005260206000200160006101000a81549073ffffffffffffffffffffffffffffffffffffffff021916905590556107c8565b80806107c09061252f565b9150506105a6565b508073ffffffffffffffffffffffffffffffffffffffff167fa3b62bc36326052d97ea62d63c3d60308ed4c3ea8ac079dd8499f1e9c4f80c0f60405160405180910390a250565b6000806000846040516108229190612062565b90815260200160405180910390206040518060c001604052908160008201805461084b906124fd565b80601f0160208091040260200160405190810160405280929190818152602001828054610877906124fd565b80156108c45780601f10610899576101008083540402835291602001916108c4565b820191906000526020600020905b8154815290600101906020018083116108a757829003601f168201915b505050505081526020016001820180546108dd906124fd565b80601f0160208091040260200160405190810160405280929190818152602001828054610909906124fd565b80156109565780601f1061092b57610100808354040283529160200191610956565b820191906000526020600020905b81548152906001019060200180831161093957829003601f168201915b5050505050815260200160028201548152602001600382015481526020016004820160009054906101000a900460ff16151515158152602001600582018054806020026020016040519081016040528092919081815260200182805480156109dd57602002820191906000526020600020905b8154815260200190600101908083116109c9575b50505050508152505090508060800151610a2c576040517f08c379a0000000000000000000000000000000000000000000000000000000008152600401610a23906122ba565b60405180910390fd5b82604051602001610a3d9190612062565b60405160208183030381529060405280519060200120816060015114610a98576040517f08c379a0000000000000000000000000000000000000000000000000000000008152600401610a8f9061223a565b60405180910390fd5b600191505092915050565b60606001805480602002602001604051908101604052809291908181526020016000905b82821015610b73578382906000526020600020018054610ae6906124fd565b80601f0160208091040260200160405190810160405280929190818152602001828054610b12906124fd565b8015610b5f5780601f10610b3457610100808354040283529160200191610b5f565b820191906000526020600020905b815481529060010190602001808311610b4257829003601f168201915b505050505081526020019060010190610ac7565b50505050905090565b600460009054906101000a900473ffffffffffffffffffffffffffffffffffffffff1673ffffffffffffffffffffffffffffffffffffffff163373ffffffffffffffffffffffffffffffffffffffff1614610c0c576040517f08c379a0000000000000000000000000000000000000000000000000000000008152600401610c03906121ba565b60405180910390fd5b600660009054906101000a900473ffffffffffffffffffffffffffffffffffffffff1673ffffffffffffffffffffffffffffffffffffffff163373ffffffffffffffffffffffffffffffffffffffff1614610c9c576040517f08c379a0000000000000000000000000000000000000000000000000000000008152600401610c93906121da565b60405180910390fd5b600360008273ffffffffffffffffffffffffffffffffffffffff1673ffffffffffffffffffffffffffffffffffffffff16815260200190815260200160002060009054906101000a900460ff1615610d29576040517f08c379a0000000000000000000000000000000000000000000000000000000008152600401610d20906122da565b60405180910390fd5b6001600360008373ffffffffffffffffffffffffffffffffffffffff1673ffffffffffffffffffffffffffffffffffffffff16815260200190815260200160002060006101000a81548160ff0219169083151502179055506002819080600181540180825580915050600190039060005260206000200160009091909190916101000a81548173ffffffffffffffffffffffffffffffffffffffff021916908373ffffffffffffffffffffffffffffffffffffffff1602179055508073ffffffffffffffffffffffffffffffffffffffff167fdb33970bd9bc1a413c7dac3b21e061709de094761c9396ef6d49b9ebdb79393360405160405180910390a250565b60036020528060005260406000206000915054906101000a900460ff1681565b60018181548110610e5a57600080fd5b906000526020600020016000915090508054610e75906124fd565b80601f0160208091040260200160405190810160405280929190818152602001828054610ea1906124fd565b8015610eee5780601f10610ec357610100808354040283529160200191610eee565b820191906000526020600020905b815481529060010190602001808311610ed157829003601f168201915b505050505081565b600082604051610f069190612062565b908152602001604051809103902060040160009054906101000a900460ff16610f64576040517f08c379a0000000000000000000000000000000000000000000000000000000008152600401610f5b906122ba565b60405180910390fd5b600082604051602001610f779190612062565b60405160208183030381529060405280519060200120600084604051610f9d9190612062565b9081526020016040518091039020600101604051602001610fbe9190612079565b6040516020818303038152906040528051906020012014905080611017576040517f08c379a000000000000000000000000000000000000000000000000000000000815260040161100e906121fa565b60405180910390fd5b60008260405160200161102a9190612062565b604051602081830303815290604052805190602001209050600080856040516110539190612062565b9081526020016040518091039020600301549050808214156110aa576040517f08c379a00000000000000000000000000000000000000000000000000000000081526004016110a19061227a565b60405180910390fd5b816000866040516110bb9190612062565b9081526020016040518091039020600301819055503373ffffffffffffffffffffffffffffffffffffffff167f1b50a644b0847d53b0509345d2ba19a27e755cb5c52b363d882785c5ff7bee79828460405161111892919061210a565b60405180910390a25050505050565b60008060056040516111399190612079565b908152602001604051809103902060040160009054906101000a900460ff16611197576040517f08c379a000000000000000000000000000000000000000000000000000000000815260040161118e9061219a565b60405180910390fd5b600060056040516111a89190612079565b908152602001604051809103902060020154905090565b600460009054906101000a900473ffffffffffffffffffffffffffffffffffffffff1681565b600580546111f2906124fd565b80601f016020809104026020016040519081016040528092919081815260200182805461121e906124fd565b801561126b5780601f106112405761010080835404028352916020019161126b565b820191906000526020600020905b81548152906001019060200180831161124e57829003601f168201915b505050505081565b6002818154811061128357600080fd5b906000526020600020016000915054906101000a900473ffffffffffffffffffffffffffffffffffffffff1681565b600660009054906101000a900473ffffffffffffffffffffffffffffffffffffffff1681565b6000600360008373ffffffffffffffffffffffffffffffffffffffff1673ffffffffffffffffffffffffffffffffffffffff16815260200190815260200160002060009054906101000a900460ff16611366576040517f08c379a000000000000000000000000000000000000000000000000000000000815260040161135d9061221a565b60405180910390fd5b81600660006101000a81548173ffffffffffffffffffffffffffffffffffffffff021916908373ffffffffffffffffffffffffffffffffffffffff16021790555060019050919050565b6060600280548060200260200160405190810160405280929190818152602001828054801561143457602002820191906000526020600020905b8160009054906101000a900473ffffffffffffffffffffffffffffffffffffffff1673ffffffffffffffffffffffffffffffffffffffff16815260200190600101908083116113ea575b5050505050905090565b60006001905060005b600180549050811015611543576001818154811061148e577f4e487b7100000000000000000000000000000000000000000000000000000000600052603260045260246000fd5b906000526020600020016040516020016114a89190612079565b60405160208183030381529060405280519060200120856040516020016114cf9190612062565b6040516020818303038152906040528051906020012014156114f057600091505b81611530576040517f08c379a00000000000000000000000000000000000000000000000000000000081526004016115279061225a565b60405180910390fd5b808061153b9061252f565b915050611447565b506000826040516020016115579190612062565b6040516020818303038152906040528051906020012090506040518060c00160405280878152602001868152602001858152602001828152602001600115158152602001606467ffffffffffffffff8111156115dc577f4e487b7100000000000000000000000000000000000000000000000000000000600052604160045260246000fd5b60405190808252806020026020018201604052801561160a5781602001602082028036833780820191505090505b5081525060008660405161161e9190612062565b90815260200160405180910390206000820151816000019080519060200190611648929190611767565b506020820151816001019080519060200190611665929190611767565b50604082015181600201556060820151816003015560808201518160040160006101000a81548160ff02191690831515021790555060a08201518160050190805190602001906116b69291906117ed565b509050506001859080600181540180825580915050600190039060005260206000200160009091909190915090805190602001906116f5929190611767565b50846005908051906020019061170c929190611767565b503373ffffffffffffffffffffffffffffffffffffffff167fb43e07573ffd613ee4cb14f22ebd42b902fb524682771d8e82932bd48bcda24787878760405161175793929190612155565b60405180910390a2505050505050565b828054611773906124fd565b90600052602060002090601f01602090048101928261179557600085556117dc565b82601f106117ae57805160ff19168380011785556117dc565b828001600101855582156117dc579182015b828111156117db5782518255916020019190600101906117c0565b5b5090506117e9919061183a565b5090565b828054828255906000526020600020908101928215611829579160200282015b8281111561182857825182559160200191906001019061180d565b5b509050611836919061183a565b5090565b5b8082111561185357600081600090555060010161183b565b5090565b600061186a61186584612346565b612315565b90508281526020810184848401111561188257600080fd5b61188d8482856124bb565b509392505050565b6000813590506118a481612616565b92915050565b600082601f8301126118bb57600080fd5b81356118cb848260208601611857565b91505092915050565b6000813590506118e38161262d565b92915050565b6000602082840312156118fb57600080fd5b600061190984828501611895565b91505092915050565b6000806040838503121561192557600080fd5b600083013567ffffffffffffffff81111561193f57600080fd5b61194b858286016118aa565b925050602083013567ffffffffffffffff81111561196857600080fd5b611974858286016118aa565b9150509250929050565b6000806000806080858703121561199457600080fd5b600085013567ffffffffffffffff8111156119ae57600080fd5b6119ba878288016118aa565b945050602085013567ffffffffffffffff8111156119d757600080fd5b6119e3878288016118aa565b93505060406119f4878288016118d4565b925050606085013567ffffffffffffffff811115611a1157600080fd5b611a1d878288016118aa565b91505092959194509250565b600060208284031215611a3b57600080fd5b6000611a49848285016118d4565b91505092915050565b6000611a5e8383611a7e565b60208301905092915050565b6000611a768383611b8d565b905092915050565b611a8781612469565b82525050565b611a9681612469565b82525050565b6000611aa7826123ab565b611ab181856123e6565b9350611abc83612376565b8060005b83811015611aed578151611ad48882611a52565b9750611adf836123cc565b925050600181019050611ac0565b5085935050505092915050565b6000611b05826123b6565b611b0f81856123f7565b935083602082028501611b2185612386565b8060005b85811015611b5d5784840389528151611b3e8582611a6a565b9450611b49836123d9565b925060208a01995050600181019050611b25565b50829750879550505050505092915050565b611b788161247b565b82525050565b611b8781612487565b82525050565b6000611b98826123c1565b611ba28185612408565b9350611bb28185602086016124ca565b611bbb81612605565b840191505092915050565b6000611bd1826123c1565b611bdb8185612419565b9350611beb8185602086016124ca565b611bf481612605565b840191505092915050565b6000611c0a826123c1565b611c14818561242a565b9350611c248185602086016124ca565b80840191505092915050565b60008154611c3d816124fd565b611c47818661242a565b94506001821660008114611c625760018114611c7357611ca6565b60ff19831686528186019350611ca6565b611c7c85612396565b60005b83811015611c9e57815481890152600182019150602081019050611c7f565b838801955050505b50505092915050565b6000611cbc601383612419565b91507f55736572206e6f742072656769737465726564000000000000000000000000006000830152602082019050919050565b6000611cfc602b83612419565b91507f4f6e6c7920636f6e7472616374206f776e65722063616e20706572666f726d2060008301527f7468697320616374696f6e0000000000000000000000000000000000000000006020830152604082019050919050565b6000611d62603a83612419565b91507f4d6574616d61736b206163636f756e7420616e6420616464726573732075736560008301527f6420746f207369676e20696e20646f206e6f74206d617463682e0000000000006020830152604082019050919050565b6000611dc8600e83612419565b91507f496e76616c696420656d61696c2e0000000000000000000000000000000000006000830152602082019050919050565b6000611e08601d83612419565b91507f546869732061646472657373206973206e6f7420616e2061646d696e2e0000006000830152602082019050919050565b6000611e48601683612419565b91507f50617373776f726420697320696e636f72726563742e000000000000000000006000830152602082019050919050565b6000611e88602c83612419565b91507f456d61696c20697320616c72656164792072656769737465726564206279206160008301527f6e6f7468657220757365722e00000000000000000000000000000000000000006020830152604082019050919050565b6000611eee603483612419565b91507f4e65772070617373776f72642063616e6e6f74206265207468652073616d652060008301527f617320746865206f6c642070617373776f72642e0000000000000000000000006020830152604082019050919050565b6000611f54602183612419565b91507f4f776e65722063616e6e6f742062652072656d6f7665642061732061646d696e60008301527f2e000000000000000000000000000000000000000000000000000000000000006020830152604082019050919050565b6000611fba601483612419565b91507f55736572206e6f7420726567697374657265642e0000000000000000000000006000830152602082019050919050565b6000611ffa602183612419565b91507f54686973206164647265737320697320616c726561647920616e2061646d696e60008301527f2e000000000000000000000000000000000000000000000000000000000000006020830152604082019050919050565b61205c816124b1565b82525050565b600061206e8284611bff565b915081905092915050565b60006120858284611c30565b915081905092915050565b60006020820190506120a56000830184611a8d565b92915050565b600060208201905081810360008301526120c58184611a9c565b905092915050565b600060208201905081810360008301526120e78184611afa565b905092915050565b60006020820190506121046000830184611b6f565b92915050565b600060408201905061211f6000830185611b7e565b61212c6020830184611b7e565b9392505050565b6000602082019050818103600083015261214d8184611bc6565b905092915050565b6000606082019050818103600083015261216f8186611bc6565b905081810360208301526121838185611bc6565b90506121926040830184612053565b949350505050565b600060208201905081810360008301526121b381611caf565b9050919050565b600060208201905081810360008301526121d381611cef565b9050919050565b600060208201905081810360008301526121f381611d55565b9050919050565b6000602082019050818103600083015261221381611dbb565b9050919050565b6000602082019050818103600083015261223381611dfb565b9050919050565b6000602082019050818103600083015261225381611e3b565b9050919050565b6000602082019050818103600083015261227381611e7b565b9050919050565b6000602082019050818103600083015261229381611ee1565b9050919050565b600060208201905081810360008301526122b381611f47565b9050919050565b600060208201905081810360008301526122d381611fad565b9050919050565b600060208201905081810360008301526122f381611fed565b9050919050565b600060208201905061230f6000830184612053565b92915050565b6000604051905081810181811067ffffffffffffffff8211171561233c5761233b6125d6565b5b8060405250919050565b600067ffffffffffffffff821115612361576123606125d6565b5b601f19601f8301169050602081019050919050565b6000819050602082019050919050565b6000819050602082019050919050565b60008190508160005260206000209050919050565b600081519050919050565b600081519050919050565b600081519050919050565b6000602082019050919050565b6000602082019050919050565b600082825260208201905092915050565b600082825260208201905092915050565b600082825260208201905092915050565b600082825260208201905092915050565b600081905092915050565b6000612440826124b1565b915061244b836124b1565b92508282101561245e5761245d612578565b5b828203905092915050565b600061247482612491565b9050919050565b60008115159050919050565b6000819050919050565b600073ffffffffffffffffffffffffffffffffffffffff82169050919050565b6000819050919050565b82818337600083830152505050565b60005b838110156124e85780820151818401526020810190506124cd565b838111156124f7576000848401525b50505050565b6000600282049050600182168061251557607f821691505b60208210811415612529576125286125a7565b5b50919050565b600061253a826124b1565b91507fffffffffffffffffffffffffffffffffffffffffffffffffffffffffffffffff82141561256d5761256c612578565b5b600182019050919050565b7f4e487b7100000000000000000000000000000000000000000000000000000000600052601160045260246000fd5b7f4e487b7100000000000000000000000000000000000000000000000000000000600052602260045260246000fd5b7f4e487b7100000000000000000000000000000000000000000000000000000000600052604160045260246000fd5b6000601f19601f8301169050919050565b61261f81612469565b811461262a57600080fd5b50565b612636816124b1565b811461264157600080fd5b5056fea26469706673582212208691dd4623ffd9884b17849b8b9fee75c492ad45dbe0f753efd6dec227a4c3cf64736f6c63430008000033",
  "immutableReferences": {},
  "source": "// SPDX-License-Identifier: MIT\r\npragma solidity ^0.8.0;\r\n\r\ncontract UserAuth {\r\n    struct User {\r\n        string name;\r\n        string email;\r\n        uint age;\r\n        bytes32 hashedPassword;\r\n        bool isRegistered;\r\n        uint256[] subscribedPackages;\r\n    }\r\n\r\n    mapping(string => User) private users;\r\n\r\n    string[] public registeredUserEmails; // External array to store all registered users' email\r\n    address[] public adminAddresses; // Array to store all admin addresses\r\n\r\n    mapping(address => bool) public admins; // Mapping to keep track of admins\r\n    address public owner; // Contract owner\r\n\r\n    string public currentUser; // For other contracts to know who the current user is\r\n    address public currentAdmin; // For other contracts to know who the current admin is\r\n\r\n    event UserRegistered(\r\n        address indexed userAddress,\r\n        string _name,\r\n        string email,\r\n        uint _age\r\n    );\r\n    event PasswordReset(\r\n        address indexed userAddress,\r\n        bytes32 oldHashedPassword,\r\n        bytes32 newHashedPassword\r\n    );\r\n\r\n    event AdminAssigned(address indexed adminAddress);\r\n    event AdminRemoved(address indexed adminAddress);\r\n\r\n    modifier onlyOwner() {\r\n        require(\r\n            msg.sender == owner,\r\n            \"Only contract owner can perform this action\"\r\n        );\r\n        _;\r\n    }\r\n\r\n    modifier onlyAdmin() {\r\n        require(admins[msg.sender], \"Only admins can perform this action\");\r\n        _;\r\n    }\r\n\r\n    modifier sameAdmin() {\r\n        require(\r\n            msg.sender == currentAdmin,\r\n            \"Metamask account and address used to sign in do not match.\"\r\n        );\r\n        _;\r\n    }\r\n\r\n    constructor() {\r\n        owner = msg.sender; // Set contract creator as the first admin\r\n        admins[msg.sender] = true;\r\n        adminAddresses.push(msg.sender); // Add owner to adminAddresses array\r\n    }\r\n\r\n    // Register a new user with additional attributes and hashed password\r\n    function register(\r\n        string memory _name,\r\n        string memory _email,\r\n        uint _age,\r\n        string memory _password\r\n    ) public {\r\n        bool validEmail = true;\r\n        for (uint i = 0; i < registeredUserEmails.length; i++) {\r\n            // Compare the hashes of the strings\r\n            if (\r\n                keccak256(abi.encodePacked(_email)) ==\r\n                keccak256(abi.encodePacked(registeredUserEmails[i]))\r\n            ) {\r\n                validEmail = false; // Set to false if email matches\r\n            }\r\n            require(validEmail, \"Email is already registered by another user.\");\r\n        }\r\n\r\n        bytes32 hashedPassword = keccak256(abi.encodePacked(_password)); // Hash the password\r\n        users[_email] = User({\r\n            name: _name,\r\n            email: _email,\r\n            age: _age,\r\n            hashedPassword: hashedPassword,\r\n            isRegistered: true,\r\n            subscribedPackages: new uint256[](100)\r\n        });\r\n\r\n        // Add the user address to the external registeredUsers array\r\n        registeredUserEmails.push(_email);\r\n        currentUser = _email;\r\n\r\n        emit UserRegistered(msg.sender, _name, _email, _age);\r\n    }\r\n\r\n    // Admin sign in using just the address\r\n    function adminSignIn(address _adminAddress) public returns (bool) {\r\n        require(admins[_adminAddress], \"This address is not an admin.\"); // Check if the address is an admin\r\n\r\n        currentAdmin = _adminAddress;\r\n        return true; // Admin sign-in successful\r\n    }\r\n\r\n    // Admin function to assign a new admin\r\n    function assignAdmin(address _adminAddress) public onlyOwner sameAdmin {\r\n        require(!admins[_adminAddress], \"This address is already an admin.\");\r\n        admins[_adminAddress] = true;\r\n\r\n        adminAddresses.push(_adminAddress); // Add to adminAddresses array\r\n\r\n        emit AdminAssigned(_adminAddress);\r\n    }\r\n\r\n    // Admin function to remove an admin\r\n    function removeAdmin(address _adminAddress) public onlyOwner sameAdmin {\r\n        require(admins[_adminAddress], \"This address is not an admin.\");\r\n        require(_adminAddress != owner, \"Owner cannot be removed as admin.\");\r\n        admins[_adminAddress] = false;\r\n\r\n        // Remove admin from adminAddresses array\r\n        for (uint i = 0; i < adminAddresses.length; i++) {\r\n            if (adminAddresses[i] == _adminAddress) {\r\n                adminAddresses[i] = adminAddresses[adminAddresses.length - 1];\r\n                adminAddresses.pop();\r\n                break;\r\n            }\r\n        }\r\n\r\n        emit AdminRemoved(_adminAddress);\r\n    }\r\n\r\n    // Sign in using either name or email and password\r\n    function signIn(\r\n        string memory _identifier,\r\n        string memory _password\r\n    ) public view returns (bool) {\r\n        User memory user = users[_identifier];\r\n        require(user.isRegistered, \"User not registered.\");\r\n        require(\r\n            user.hashedPassword == keccak256(abi.encodePacked(_password)),\r\n            \"Password is incorrect.\"\r\n        );\r\n\r\n        return true; // Sign in successful\r\n    }\r\n\r\n    // CHECK IF THIS NEEDS UPDATING\r\n    function resetPassword(\r\n        string memory _identifier,\r\n        string memory _newPassword\r\n    ) public {\r\n        require(users[_identifier].isRegistered, \"User not registered.\");\r\n\r\n        bool isValid = keccak256(abi.encodePacked(users[_identifier].email)) ==\r\n            keccak256(abi.encodePacked(_identifier));\r\n\r\n        require(isValid, \"Invalid email.\");\r\n\r\n        bytes32 newHashedPassword = keccak256(abi.encodePacked(_newPassword));\r\n        bytes32 oldHashedPassword = users[_identifier].hashedPassword;\r\n\r\n        require(\r\n            newHashedPassword != oldHashedPassword,\r\n            \"New password cannot be the same as the old password.\"\r\n        );\r\n\r\n        users[_identifier].hashedPassword = newHashedPassword;\r\n\r\n        emit PasswordReset(msg.sender, oldHashedPassword, newHashedPassword);\r\n    }\r\n\r\n    // Function to get all registered user addresses\r\n    function getAllRegisteredUsers() public view returns (string[] memory) {\r\n        return registeredUserEmails;\r\n    }\r\n\r\n    // Function to get all registered admin addresses\r\n    function getAllAdmins() public view returns (address[] memory) {\r\n        return adminAddresses;\r\n    }\r\n\r\n    function getUserAge() public view returns (uint) {\r\n        require(users[currentUser].isRegistered, \"User not registered\");\r\n        return users[currentUser].age;\r\n    }\r\n\r\n    // LOGOUT\r\n}\r\n",
  "sourcePath": "C:\\Users\\keeke\\Desktop\\BlockChain\\Great_Global\\Danny_Test\\SponsorAnimals\\contracts\\UserAuth.sol",
  "compiler": {
    "name": "solc",
    "version": "0.8.0+commit.c7dfd78e.Emscripten.clang"
  },
  "schemaVersion": "3.4.16",
  "updatedAt": "2024-09-25T20:55:36.329Z",
  "networkType": "ethereum",
  "devdoc": {
    "kind": "dev",
    "methods": {},
    "version": 1
  },
  "userdoc": {
    "kind": "user",
    "methods": {},
    "version": 1
  }
}