{
  "contractName": "UserAuth",
  "abi": [
    {
      "inputs": [],
      "stateMutability": "nonpayable",
      "type": "constructor"
    },
    {
      "anonymous": false,
      "inputs": [
        {
          "indexed": true,
          "internalType": "address",
          "name": "adminAddress",
          "type": "address"
        }
      ],
      "name": "AdminAssigned",
      "type": "event"
    },
    {
      "anonymous": false,
      "inputs": [
        {
          "indexed": true,
          "internalType": "address",
          "name": "adminAddress",
          "type": "address"
        }
      ],
      "name": "AdminRemoved",
      "type": "event"
    },
    {
      "anonymous": false,
      "inputs": [
        {
          "indexed": true,
          "internalType": "address",
          "name": "userAddress",
          "type": "address"
        },
        {
          "indexed": false,
          "internalType": "uint256",
          "name": "insuranceId",
          "type": "uint256"
        }
      ],
      "name": "InsuranceSubscribed",
      "type": "event"
    },
    {
      "anonymous": false,
      "inputs": [
        {
          "indexed": true,
          "internalType": "address",
          "name": "userAddress",
          "type": "address"
        },
        {
          "indexed": false,
          "internalType": "bytes32",
          "name": "oldHashedPassword",
          "type": "bytes32"
        },
        {
          "indexed": false,
          "internalType": "bytes32",
          "name": "newHashedPassword",
          "type": "bytes32"
        }
      ],
      "name": "PasswordReset",
      "type": "event"
    },
    {
      "anonymous": false,
      "inputs": [
        {
          "indexed": true,
          "internalType": "address",
          "name": "userAddress",
          "type": "address"
        },
        {
          "indexed": false,
          "internalType": "string",
          "name": "_name",
          "type": "string"
        },
        {
          "indexed": false,
          "internalType": "string",
          "name": "email",
          "type": "string"
        },
        {
          "indexed": false,
          "internalType": "uint256",
          "name": "_age",
          "type": "uint256"
        }
      ],
      "name": "UserRegistered",
      "type": "event"
    },
    {
      "inputs": [
        {
          "internalType": "uint256",
          "name": "",
          "type": "uint256"
        }
      ],
      "name": "adminAddresses",
      "outputs": [
        {
          "internalType": "address",
          "name": "",
          "type": "address"
        }
      ],
      "stateMutability": "view",
      "type": "function"
    },
    {
      "inputs": [
        {
          "internalType": "address",
          "name": "",
          "type": "address"
        }
      ],
      "name": "admins",
      "outputs": [
        {
          "internalType": "bool",
          "name": "",
          "type": "bool"
        }
      ],
      "stateMutability": "view",
      "type": "function"
    },
    {
      "inputs": [],
      "name": "owner",
      "outputs": [
        {
          "internalType": "address",
          "name": "",
          "type": "address"
        }
      ],
      "stateMutability": "view",
      "type": "function"
    },
    {
      "inputs": [
        {
          "internalType": "uint256",
          "name": "",
          "type": "uint256"
        }
      ],
      "name": "registeredUsers",
      "outputs": [
        {
          "internalType": "address",
          "name": "",
          "type": "address"
        }
      ],
      "stateMutability": "view",
      "type": "function"
    },
    {
      "inputs": [
        {
          "internalType": "address",
          "name": "",
          "type": "address"
        }
      ],
      "name": "users",
      "outputs": [
        {
          "internalType": "string",
          "name": "name",
          "type": "string"
        },
        {
          "internalType": "string",
          "name": "email",
          "type": "string"
        },
        {
          "internalType": "uint256",
          "name": "age",
          "type": "uint256"
        },
        {
          "internalType": "bytes32",
          "name": "hashedPassword",
          "type": "bytes32"
        },
        {
          "internalType": "bool",
          "name": "isRegistered",
          "type": "bool"
        }
      ],
      "stateMutability": "view",
      "type": "function"
    },
    {
      "inputs": [
        {
          "internalType": "string",
          "name": "_name",
          "type": "string"
        },
        {
          "internalType": "string",
          "name": "_email",
          "type": "string"
        },
        {
          "internalType": "uint256",
          "name": "_age",
          "type": "uint256"
        },
        {
          "internalType": "string",
          "name": "_password",
          "type": "string"
        }
      ],
      "name": "register",
      "outputs": [],
      "stateMutability": "nonpayable",
      "type": "function"
    },
    {
      "inputs": [
        {
          "internalType": "address",
          "name": "_adminAddress",
          "type": "address"
        }
      ],
      "name": "assignAdmin",
      "outputs": [],
      "stateMutability": "nonpayable",
      "type": "function"
    },
    {
      "inputs": [
        {
          "internalType": "address",
          "name": "_adminAddress",
          "type": "address"
        }
      ],
      "name": "removeAdmin",
      "outputs": [],
      "stateMutability": "nonpayable",
      "type": "function"
    },
    {
      "inputs": [
        {
          "internalType": "string",
          "name": "_identifier",
          "type": "string"
        },
        {
          "internalType": "string",
          "name": "_password",
          "type": "string"
        }
      ],
      "name": "signIn",
      "outputs": [
        {
          "internalType": "bool",
          "name": "",
          "type": "bool"
        }
      ],
      "stateMutability": "view",
      "type": "function"
    },
    {
      "inputs": [
        {
          "internalType": "string",
          "name": "_identifier",
          "type": "string"
        },
        {
          "internalType": "string",
          "name": "_newPassword",
          "type": "string"
        }
      ],
      "name": "resetPassword",
      "outputs": [],
      "stateMutability": "nonpayable",
      "type": "function"
    },
    {
      "inputs": [],
      "name": "getAllRegisteredUsers",
      "outputs": [
        {
          "internalType": "address[]",
          "name": "",
          "type": "address[]"
        }
      ],
      "stateMutability": "view",
      "type": "function"
    }
  ],
  "bytecode": "0x608060405234801561000f575f80fd5b503360065f6101000a81548173ffffffffffffffffffffffffffffffffffffffff021916908373ffffffffffffffffffffffffffffffffffffffff160217905550600160055f3373ffffffffffffffffffffffffffffffffffffffff1673ffffffffffffffffffffffffffffffffffffffff1681526020019081526020015f205f6101000a81548160ff021916908315150217905550600433908060018154018082558091505060019003905f5260205f20015f9091909190916101000a81548173ffffffffffffffffffffffffffffffffffffffff021916908373ffffffffffffffffffffffffffffffffffffffff160217905550612581806101125f395ff3fe608060405234801561000f575f80fd5b50600436106100a7575f3560e01c8063679a9c2c1161006f578063679a9c2c146101615780637259e0f81461017d5780638da5cb5b146101ad578063a87430ba146101cb578063ba44eecf146101ff578063fb0bc6a31461022f576100a7565b80631785f53c146100ab5780632c162dbc146100c7578063397388af146100f75780633da7d2ed14610115578063429b62e514610131575b5f80fd5b6100c560048036038101906100c09190611618565b61024b565b005b6100e160048036038101906100dc919061177f565b61060c565b6040516100ee919061180f565b60405180910390f35b6100ff61096b565b60405161010c91906118df565b60405180910390f35b61012f600480360381019061012a9190611618565b6109f6565b005b61014b60048036038101906101469190611618565b610c0a565b604051610158919061180f565b60405180910390f35b61017b6004803603810190610176919061177f565b610c27565b005b61019760048036038101906101929190611932565b610f5f565b6040516101a4919061196c565b60405180910390f35b6101b5610f9a565b6040516101c2919061196c565b60405180910390f35b6101e560048036038101906101e09190611618565b610fbf565b6040516101f6959493929190611a26565b60405180910390f35b61021960048036038101906102149190611932565b611108565b604051610226919061196c565b60405180910390f35b61024960048036038101906102449190611a85565b611143565b005b60065f9054906101000a900473ffffffffffffffffffffffffffffffffffffffff1673ffffffffffffffffffffffffffffffffffffffff163373ffffffffffffffffffffffffffffffffffffffff16146102da576040517f08c379a00000000000000000000000000000000000000000000000000000000081526004016102d190611bad565b60405180910390fd5b60055f8273ffffffffffffffffffffffffffffffffffffffff1673ffffffffffffffffffffffffffffffffffffffff1681526020019081526020015f205f9054906101000a900460ff16610363576040517f08c379a000000000000000000000000000000000000000000000000000000000815260040161035a90611c15565b60405180910390fd5b60065f9054906101000a900473ffffffffffffffffffffffffffffffffffffffff1673ffffffffffffffffffffffffffffffffffffffff168173ffffffffffffffffffffffffffffffffffffffff16036103f2576040517f08c379a00000000000000000000000000000000000000000000000000000000081526004016103e990611ca3565b60405180910390fd5b5f60055f8373ffffffffffffffffffffffffffffffffffffffff1673ffffffffffffffffffffffffffffffffffffffff1681526020019081526020015f205f6101000a81548160ff0219169083151502179055505f5b6004805490508110156105c5578173ffffffffffffffffffffffffffffffffffffffff16600482815481106104805761047f611cc1565b5b905f5260205f20015f9054906101000a900473ffffffffffffffffffffffffffffffffffffffff1673ffffffffffffffffffffffffffffffffffffffff16036105b257600460016004805490506104d79190611d1b565b815481106104e8576104e7611cc1565b5b905f5260205f20015f9054906101000a900473ffffffffffffffffffffffffffffffffffffffff166004828154811061052457610523611cc1565b5b905f5260205f20015f6101000a81548173ffffffffffffffffffffffffffffffffffffffff021916908373ffffffffffffffffffffffffffffffffffffffff160217905550600480548061057b5761057a611d4e565b5b600190038181905f5260205f20015f6101000a81549073ffffffffffffffffffffffffffffffffffffffff021916905590556105c5565b80806105bd90611d7b565b915050610448565b508073ffffffffffffffffffffffffffffffffffffffff167fa3b62bc36326052d97ea62d63c3d60308ed4c3ea8ac079dd8499f1e9c4f80c0f60405160405180910390a250565b5f8060018460405161061e9190611dfc565b90815260200160405180910390205f9054906101000a900473ffffffffffffffffffffffffffffffffffffffff1690505f73ffffffffffffffffffffffffffffffffffffffff168173ffffffffffffffffffffffffffffffffffffffff16036106c2576002846040516106919190611dfc565b90815260200160405180910390205f9054906101000a900473ffffffffffffffffffffffffffffffffffffffff1690505b5f805f8373ffffffffffffffffffffffffffffffffffffffff1673ffffffffffffffffffffffffffffffffffffffff1681526020019081526020015f206040518060c00160405290815f8201805461071990611e3f565b80601f016020809104026020016040519081016040528092919081815260200182805461074590611e3f565b80156107905780601f1061076757610100808354040283529160200191610790565b820191905f5260205f20905b81548152906001019060200180831161077357829003601f168201915b505050505081526020016001820180546107a990611e3f565b80601f01602080910402602001604051908101604052809291908181526020018280546107d590611e3f565b80156108205780601f106107f757610100808354040283529160200191610820565b820191905f5260205f20905b81548152906001019060200180831161080357829003601f168201915b505050505081526020016002820154815260200160038201548152602001600482015f9054906101000a900460ff16151515158152602001600582018054806020026020016040519081016040528092919081815260200182805480156108a457602002820191905f5260205f20905b815481526020019060010190808311610890575b505050505081525050905080608001516108f3576040517f08c379a00000000000000000000000000000000000000000000000000000000081526004016108ea90611eb9565b60405180910390fd5b836040516020016109049190611dfc565b6040516020818303038152906040528051906020012081606001511461095f576040517f08c379a000000000000000000000000000000000000000000000000000000000815260040161095690611f21565b60405180910390fd5b60019250505092915050565b606060038054806020026020016040519081016040528092919081815260200182805480156109ec57602002820191905f5260205f20905b815f9054906101000a900473ffffffffffffffffffffffffffffffffffffffff1673ffffffffffffffffffffffffffffffffffffffff16815260200190600101908083116109a3575b5050505050905090565b60065f9054906101000a900473ffffffffffffffffffffffffffffffffffffffff1673ffffffffffffffffffffffffffffffffffffffff163373ffffffffffffffffffffffffffffffffffffffff1614610a85576040517f08c379a0000000000000000000000000000000000000000000000000000000008152600401610a7c90611bad565b60405180910390fd5b60055f8273ffffffffffffffffffffffffffffffffffffffff1673ffffffffffffffffffffffffffffffffffffffff1681526020019081526020015f205f9054906101000a900460ff1615610b0f576040517f08c379a0000000000000000000000000000000000000000000000000000000008152600401610b0690611faf565b60405180910390fd5b600160055f8373ffffffffffffffffffffffffffffffffffffffff1673ffffffffffffffffffffffffffffffffffffffff1681526020019081526020015f205f6101000a81548160ff021916908315150217905550600481908060018154018082558091505060019003905f5260205f20015f9091909190916101000a81548173ffffffffffffffffffffffffffffffffffffffff021916908373ffffffffffffffffffffffffffffffffffffffff1602179055508073ffffffffffffffffffffffffffffffffffffffff167fdb33970bd9bc1a413c7dac3b21e061709de094761c9396ef6d49b9ebdb79393360405160405180910390a250565b6005602052805f5260405f205f915054906101000a900460ff1681565b5f803373ffffffffffffffffffffffffffffffffffffffff1673ffffffffffffffffffffffffffffffffffffffff1681526020019081526020015f206004015f9054906101000a900460ff16610cb2576040517f08c379a0000000000000000000000000000000000000000000000000000000008152600401610ca990611eb9565b60405180910390fd5b5f82604051602001610cc49190611dfc565b604051602081830303815290604052805190602001205f803373ffffffffffffffffffffffffffffffffffffffff1673ffffffffffffffffffffffffffffffffffffffff1681526020019081526020015f205f01604051602001610d28919061205f565b604051602081830303815290604052805190602001201480610dd3575082604051602001610d569190611dfc565b604051602081830303815290604052805190602001205f803373ffffffffffffffffffffffffffffffffffffffff1673ffffffffffffffffffffffffffffffffffffffff1681526020019081526020015f20600101604051602001610dbb919061205f565b60405160208183030381529060405280519060200120145b905080610e15576040517f08c379a0000000000000000000000000000000000000000000000000000000008152600401610e0c906120bf565b60405180910390fd5b5f82604051602001610e279190611dfc565b6040516020818303038152906040528051906020012090505f805f3373ffffffffffffffffffffffffffffffffffffffff1673ffffffffffffffffffffffffffffffffffffffff1681526020019081526020015f20600301549050808203610ec4576040517f08c379a0000000000000000000000000000000000000000000000000000000008152600401610ebb9061214d565b60405180910390fd5b815f803373ffffffffffffffffffffffffffffffffffffffff1673ffffffffffffffffffffffffffffffffffffffff1681526020019081526020015f20600301819055503373ffffffffffffffffffffffffffffffffffffffff167f1b50a644b0847d53b0509345d2ba19a27e755cb5c52b363d882785c5ff7bee798284604051610f5092919061216b565b60405180910390a25050505050565b60038181548110610f6e575f80fd5b905f5260205f20015f915054906101000a900473ffffffffffffffffffffffffffffffffffffffff1681565b60065f9054906101000a900473ffffffffffffffffffffffffffffffffffffffff1681565b5f602052805f5260405f205f91509050805f018054610fdd90611e3f565b80601f016020809104026020016040519081016040528092919081815260200182805461100990611e3f565b80156110545780601f1061102b57610100808354040283529160200191611054565b820191905f5260205f20905b81548152906001019060200180831161103757829003601f168201915b50505050509080600101805461106990611e3f565b80601f016020809104026020016040519081016040528092919081815260200182805461109590611e3f565b80156110e05780601f106110b7576101008083540402835291602001916110e0565b820191905f5260205f20905b8154815290600101906020018083116110c357829003601f168201915b505050505090806002015490806003015490806004015f9054906101000a900460ff16905085565b60048181548110611117575f80fd5b905f5260205f20015f915054906101000a900473ffffffffffffffffffffffffffffffffffffffff1681565b5f803373ffffffffffffffffffffffffffffffffffffffff1673ffffffffffffffffffffffffffffffffffffffff1681526020019081526020015f206004015f9054906101000a900460ff16156111cf576040517f08c379a00000000000000000000000000000000000000000000000000000000081526004016111c690612202565b60405180910390fd5b5f73ffffffffffffffffffffffffffffffffffffffff166001846040516111f69190611dfc565b90815260200160405180910390205f9054906101000a900473ffffffffffffffffffffffffffffffffffffffff1673ffffffffffffffffffffffffffffffffffffffff161461127a576040517f08c379a000000000000000000000000000000000000000000000000000000000815260040161127190612290565b60405180910390fd5b5f8160405160200161128c9190611dfc565b6040516020818303038152906040528051906020012090506040518060c00160405280868152602001858152602001848152602001828152602001600115158152602001606467ffffffffffffffff8111156112eb576112ea61165b565b5b6040519080825280602002602001820160405280156113195781602001602082028036833780820191505090505b508152505f803373ffffffffffffffffffffffffffffffffffffffff1673ffffffffffffffffffffffffffffffffffffffff1681526020019081526020015f205f820151815f01908161136c9190612439565b5060208201518160010190816113829190612439565b5060408201518160020155606082015181600301556080820151816004015f6101000a81548160ff02191690831515021790555060a08201518160050190805190602001906113d2929190611547565b50905050336001856040516113e79190611dfc565b90815260200160405180910390205f6101000a81548173ffffffffffffffffffffffffffffffffffffffff021916908373ffffffffffffffffffffffffffffffffffffffff160217905550336002866040516114439190611dfc565b90815260200160405180910390205f6101000a81548173ffffffffffffffffffffffffffffffffffffffff021916908373ffffffffffffffffffffffffffffffffffffffff160217905550600333908060018154018082558091505060019003905f5260205f20015f9091909190916101000a81548173ffffffffffffffffffffffffffffffffffffffff021916908373ffffffffffffffffffffffffffffffffffffffff1602179055503373ffffffffffffffffffffffffffffffffffffffff167fb43e07573ffd613ee4cb14f22ebd42b902fb524682771d8e82932bd48bcda24786868660405161153893929190612508565b60405180910390a25050505050565b828054828255905f5260205f20908101928215611581579160200282015b82811115611580578251825591602001919060010190611565565b5b50905061158e9190611592565b5090565b5b808211156115a9575f815f905550600101611593565b5090565b5f604051905090565b5f80fd5b5f80fd5b5f73ffffffffffffffffffffffffffffffffffffffff82169050919050565b5f6115e7826115be565b9050919050565b6115f7816115dd565b8114611601575f80fd5b50565b5f81359050611612816115ee565b92915050565b5f6020828403121561162d5761162c6115b6565b5b5f61163a84828501611604565b91505092915050565b5f80fd5b5f80fd5b5f601f19601f8301169050919050565b7f4e487b71000000000000000000000000000000000000000000000000000000005f52604160045260245ffd5b6116918261164b565b810181811067ffffffffffffffff821117156116b0576116af61165b565b5b80604052505050565b5f6116c26115ad565b90506116ce8282611688565b919050565b5f67ffffffffffffffff8211156116ed576116ec61165b565b5b6116f68261164b565b9050602081019050919050565b828183375f83830152505050565b5f61172361171e846116d3565b6116b9565b90508281526020810184848401111561173f5761173e611647565b5b61174a848285611703565b509392505050565b5f82601f83011261176657611765611643565b5b8135611776848260208601611711565b91505092915050565b5f8060408385031215611795576117946115b6565b5b5f83013567ffffffffffffffff8111156117b2576117b16115ba565b5b6117be85828601611752565b925050602083013567ffffffffffffffff8111156117df576117de6115ba565b5b6117eb85828601611752565b9150509250929050565b5f8115159050919050565b611809816117f5565b82525050565b5f6020820190506118225f830184611800565b92915050565b5f81519050919050565b5f82825260208201905092915050565b5f819050602082019050919050565b61185a816115dd565b82525050565b5f61186b8383611851565b60208301905092915050565b5f602082019050919050565b5f61188d82611828565b6118978185611832565b93506118a283611842565b805f5b838110156118d25781516118b98882611860565b97506118c483611877565b9250506001810190506118a5565b5085935050505092915050565b5f6020820190508181035f8301526118f78184611883565b905092915050565b5f819050919050565b611911816118ff565b811461191b575f80fd5b50565b5f8135905061192c81611908565b92915050565b5f60208284031215611947576119466115b6565b5b5f6119548482850161191e565b91505092915050565b611966816115dd565b82525050565b5f60208201905061197f5f83018461195d565b92915050565b5f81519050919050565b5f82825260208201905092915050565b5f5b838110156119bc5780820151818401526020810190506119a1565b5f8484015250505050565b5f6119d182611985565b6119db818561198f565b93506119eb81856020860161199f565b6119f48161164b565b840191505092915050565b611a08816118ff565b82525050565b5f819050919050565b611a2081611a0e565b82525050565b5f60a0820190508181035f830152611a3e81886119c7565b90508181036020830152611a5281876119c7565b9050611a6160408301866119ff565b611a6e6060830185611a17565b611a7b6080830184611800565b9695505050505050565b5f805f8060808587031215611a9d57611a9c6115b6565b5b5f85013567ffffffffffffffff811115611aba57611ab96115ba565b5b611ac687828801611752565b945050602085013567ffffffffffffffff811115611ae757611ae66115ba565b5b611af387828801611752565b9350506040611b048782880161191e565b925050606085013567ffffffffffffffff811115611b2557611b246115ba565b5b611b3187828801611752565b91505092959194509250565b7f4f6e6c7920636f6e7472616374206f776e65722063616e20706572666f726d205f8201527f7468697320616374696f6e000000000000000000000000000000000000000000602082015250565b5f611b97602b8361198f565b9150611ba282611b3d565b604082019050919050565b5f6020820190508181035f830152611bc481611b8b565b9050919050565b7f546869732061646472657373206973206e6f7420616e2061646d696e2e0000005f82015250565b5f611bff601d8361198f565b9150611c0a82611bcb565b602082019050919050565b5f6020820190508181035f830152611c2c81611bf3565b9050919050565b7f4f776e65722063616e6e6f742062652072656d6f7665642061732061646d696e5f8201527f2e00000000000000000000000000000000000000000000000000000000000000602082015250565b5f611c8d60218361198f565b9150611c9882611c33565b604082019050919050565b5f6020820190508181035f830152611cba81611c81565b9050919050565b7f4e487b71000000000000000000000000000000000000000000000000000000005f52603260045260245ffd5b7f4e487b71000000000000000000000000000000000000000000000000000000005f52601160045260245ffd5b5f611d25826118ff565b9150611d30836118ff565b9250828203905081811115611d4857611d47611cee565b5b92915050565b7f4e487b71000000000000000000000000000000000000000000000000000000005f52603160045260245ffd5b5f611d85826118ff565b91507fffffffffffffffffffffffffffffffffffffffffffffffffffffffffffffffff8203611db757611db6611cee565b5b600182019050919050565b5f81905092915050565b5f611dd682611985565b611de08185611dc2565b9350611df081856020860161199f565b80840191505092915050565b5f611e078284611dcc565b915081905092915050565b7f4e487b71000000000000000000000000000000000000000000000000000000005f52602260045260245ffd5b5f6002820490506001821680611e5657607f821691505b602082108103611e6957611e68611e12565b5b50919050565b7f55736572206e6f7420726567697374657265642e0000000000000000000000005f82015250565b5f611ea360148361198f565b9150611eae82611e6f565b602082019050919050565b5f6020820190508181035f830152611ed081611e97565b9050919050565b7f50617373776f726420697320696e636f72726563742e000000000000000000005f82015250565b5f611f0b60168361198f565b9150611f1682611ed7565b602082019050919050565b5f6020820190508181035f830152611f3881611eff565b9050919050565b7f54686973206164647265737320697320616c726561647920616e2061646d696e5f8201527f2e00000000000000000000000000000000000000000000000000000000000000602082015250565b5f611f9960218361198f565b9150611fa482611f3f565b604082019050919050565b5f6020820190508181035f830152611fc681611f8d565b9050919050565b5f819050815f5260205f209050919050565b5f8154611feb81611e3f565b611ff58186611dc2565b9450600182165f811461200f576001811461202457612056565b60ff1983168652811515820286019350612056565b61202d85611fcd565b5f5b8381101561204e5781548189015260018201915060208101905061202f565b838801955050505b50505092915050565b5f61206a8284611fdf565b915081905092915050565b7f496e76616c6964206e616d65206f7220656d61696c2e000000000000000000005f82015250565b5f6120a960168361198f565b91506120b482612075565b602082019050919050565b5f6020820190508181035f8301526120d68161209d565b9050919050565b7f4e65772070617373776f72642063616e6e6f74206265207468652073616d65205f8201527f617320746865206f6c642070617373776f72642e000000000000000000000000602082015250565b5f61213760348361198f565b9150612142826120dd565b604082019050919050565b5f6020820190508181035f8301526121648161212b565b9050919050565b5f60408201905061217e5f830185611a17565b61218b6020830184611a17565b9392505050565b7f5573657220616c726561647920726567697374657265642077697468207468695f8201527f7320616464726573732e00000000000000000000000000000000000000000000602082015250565b5f6121ec602a8361198f565b91506121f782612192565b604082019050919050565b5f6020820190508181035f830152612219816121e0565b9050919050565b7f456d61696c20697320616c7265616479207265676973746572656420627920615f8201527f6e6f7468657220757365722e0000000000000000000000000000000000000000602082015250565b5f61227a602c8361198f565b915061228582612220565b604082019050919050565b5f6020820190508181035f8301526122a78161226e565b9050919050565b5f6020601f8301049050919050565b5f82821b905092915050565b5f600883026122f87fffffffffffffffffffffffffffffffffffffffffffffffffffffffffffffffff826122bd565b61230286836122bd565b95508019841693508086168417925050509392505050565b5f819050919050565b5f61233d612338612333846118ff565b61231a565b6118ff565b9050919050565b5f819050919050565b61235683612323565b61236a61236282612344565b8484546122c9565b825550505050565b5f90565b61237e612372565b61238981848461234d565b505050565b5b818110156123ac576123a15f82612376565b60018101905061238f565b5050565b601f8211156123f1576123c281611fcd565b6123cb846122ae565b810160208510156123da578190505b6123ee6123e6856122ae565b83018261238e565b50505b505050565b5f82821c905092915050565b5f6124115f19846008026123f6565b1980831691505092915050565b5f6124298383612402565b9150826002028217905092915050565b61244282611985565b67ffffffffffffffff81111561245b5761245a61165b565b5b6124658254611e3f565b6124708282856123b0565b5f60209050601f8311600181146124a1575f841561248f578287015190505b612499858261241e565b865550612500565b601f1984166124af86611fcd565b5f5b828110156124d6578489015182556001820191506020850194506020810190506124b1565b868310156124f357848901516124ef601f891682612402565b8355505b6001600288020188555050505b505050505050565b5f6060820190508181035f83015261252081866119c7565b9050818103602083015261253481856119c7565b905061254360408301846119ff565b94935050505056fea264697066735822122059f91e1a5aa141829c95a9410ef50bbeb95d7a0e9e09011d4f8b7f8b05301f2064736f6c63430008150033",
  "immutableReferences": {},
  "source": "// SPDX-License-Identifier: MIT\r\npragma solidity ^0.8.0;\r\n\r\ncontract UserAuth {\r\n    struct User {\r\n        string name;\r\n        string email;\r\n        uint age;\r\n        bytes32 hashedPassword;\r\n        bool isRegistered;\r\n        uint256[] subscribedPackages;\r\n    }\r\n\r\n    mapping(address => User) public users;\r\n    mapping(string => address) private emailToAddress;\r\n    mapping(string => address) private nameToAddress;\r\n\r\n    address[] public registeredUsers; // External array to store all registered users' addresses\r\n    address[] public adminAddresses; // Array to store all admin addresses\r\n\r\n    mapping(address => bool) public admins; // Mapping to keep track of admins\r\n    address public owner; // Contract owner\r\n\r\n    event UserRegistered(\r\n        address indexed userAddress,\r\n        string _name,\r\n        string email,\r\n        uint _age\r\n    );\r\n    event PasswordReset(\r\n        address indexed userAddress,\r\n        bytes32 oldHashedPassword,\r\n        bytes32 newHashedPassword\r\n    );\r\n    event InsuranceSubscribed(address indexed userAddress, uint256 insuranceId);\r\n    event AdminAssigned(address indexed adminAddress);\r\n    event AdminRemoved(address indexed adminAddress);\r\n\r\n    modifier onlyOwner() {\r\n        require(\r\n            msg.sender == owner,\r\n            \"Only contract owner can perform this action\"\r\n        );\r\n        _;\r\n    }\r\n\r\n    modifier onlyAdmin() {\r\n        require(admins[msg.sender], \"Only admins can perform this action\");\r\n        _;\r\n    }\r\n\r\n    constructor() {\r\n        owner = msg.sender; // Set contract creator as the first admin\r\n        admins[msg.sender] = true;\r\n        adminAddresses.push(msg.sender); // Add owner to adminAddresses array\r\n    }\r\n\r\n    // Register a new user with additional attributes and hashed password\r\n    function register(\r\n        string memory _name,\r\n        string memory _email,\r\n        uint _age,\r\n        string memory _password\r\n    ) public {\r\n        require(\r\n            !users[msg.sender].isRegistered,\r\n            \"User already registered with this address.\"\r\n        );\r\n        require(\r\n            emailToAddress[_email] == address(0),\r\n            \"Email is already registered by another user.\"\r\n        ); // Check if email is already used\r\n\r\n        bytes32 hashedPassword = keccak256(abi.encodePacked(_password)); // Hash the password\r\n        users[msg.sender] = User({\r\n            name: _name,\r\n            email: _email,\r\n            age: _age,\r\n            hashedPassword: hashedPassword,\r\n            isRegistered: true,\r\n            subscribedPackages: new uint256[](100)\r\n        });\r\n\r\n        // Map email and name to address for easy lookup\r\n        emailToAddress[_email] = msg.sender;\r\n        nameToAddress[_name] = msg.sender;\r\n\r\n        // Add the user address to the external registeredUsers array\r\n        registeredUsers.push(msg.sender);\r\n\r\n        emit UserRegistered(msg.sender, _name, _email, _age);\r\n    }\r\n\r\n    // Admin function to assign a new admin\r\n    function assignAdmin(address _adminAddress) public onlyOwner {\r\n        require(!admins[_adminAddress], \"This address is already an admin.\");\r\n        admins[_adminAddress] = true;\r\n\r\n        adminAddresses.push(_adminAddress); // Add to adminAddresses array\r\n\r\n        emit AdminAssigned(_adminAddress);\r\n    }\r\n\r\n    // Admin function to remove an admin\r\n    function removeAdmin(address _adminAddress) public onlyOwner {\r\n        require(admins[_adminAddress], \"This address is not an admin.\");\r\n        require(_adminAddress != owner, \"Owner cannot be removed as admin.\");\r\n        admins[_adminAddress] = false;\r\n\r\n        // Remove admin from adminAddresses array\r\n        for (uint i = 0; i < adminAddresses.length; i++) {\r\n            if (adminAddresses[i] == _adminAddress) {\r\n                adminAddresses[i] = adminAddresses[adminAddresses.length - 1];\r\n                adminAddresses.pop();\r\n                break;\r\n            }\r\n        }\r\n\r\n        emit AdminRemoved(_adminAddress);\r\n    }\r\n\r\n    // Sign in using either name or email and password\r\n    function signIn(\r\n        string memory _identifier,\r\n        string memory _password\r\n    ) public view returns (bool) {\r\n        address userAddress = emailToAddress[_identifier];\r\n        if (userAddress == address(0)) {\r\n            userAddress = nameToAddress[_identifier];\r\n        }\r\n\r\n        User memory user = users[userAddress];\r\n        require(user.isRegistered, \"User not registered.\");\r\n        require(\r\n            user.hashedPassword == keccak256(abi.encodePacked(_password)),\r\n            \"Password is incorrect.\"\r\n        );\r\n\r\n        return true; // Sign in successful\r\n    }\r\n\r\n    function resetPassword(\r\n        string memory _identifier,\r\n        string memory _newPassword\r\n    ) public {\r\n        require(users[msg.sender].isRegistered, \"User not registered.\");\r\n\r\n        bool isValid = (keccak256(abi.encodePacked(users[msg.sender].name)) ==\r\n            keccak256(abi.encodePacked(_identifier)) ||\r\n            keccak256(abi.encodePacked(users[msg.sender].email)) ==\r\n            keccak256(abi.encodePacked(_identifier)));\r\n\r\n        require(isValid, \"Invalid name or email.\");\r\n\r\n        bytes32 newHashedPassword = keccak256(abi.encodePacked(_newPassword));\r\n        bytes32 oldHashedPassword = users[msg.sender].hashedPassword;\r\n\r\n        require(\r\n            newHashedPassword != oldHashedPassword,\r\n            \"New password cannot be the same as the old password.\"\r\n        );\r\n\r\n        users[msg.sender].hashedPassword = newHashedPassword;\r\n\r\n        emit PasswordReset(msg.sender, oldHashedPassword, newHashedPassword);\r\n    }\r\n\r\n    // Function to get all registered user addresses\r\n    function getAllRegisteredUsers() public view returns (address[] memory) {\r\n        return registeredUsers;\r\n    }\r\n}\r\n",
  "sourcePath": "C:\\Users\\leeda\\OneDrive\\Desktop\\Great_Global\\Danny_Test\\SponsorAnimals\\contracts\\UserAuth.sol",
  "compiler": {
    "name": "solc",
    "version": "0.8.21+commit.d9974bed.Emscripten.clang"
  },
  "schemaVersion": "3.4.16",
  "updatedAt": "2024-09-25T11:49:19.786Z",
  "devdoc": {
    "kind": "dev",
    "methods": {},
    "version": 1
  },
  "userdoc": {
    "kind": "user",
    "methods": {},
    "version": 1
  }
}