{
  "contractName": "UserAuth",
  "abi": [
    {
      "inputs": [],
      "stateMutability": "nonpayable",
      "type": "constructor"
    },
    {
      "anonymous": false,
      "inputs": [
        {
          "indexed": true,
          "internalType": "address",
          "name": "adminAddress",
          "type": "address"
        }
      ],
      "name": "AdminAssigned",
      "type": "event"
    },
    {
      "anonymous": false,
      "inputs": [
        {
          "indexed": true,
          "internalType": "address",
          "name": "adminAddress",
          "type": "address"
        }
      ],
      "name": "AdminLoggedOut",
      "type": "event"
    },
    {
      "anonymous": false,
      "inputs": [
        {
          "indexed": true,
          "internalType": "address",
          "name": "adminAddress",
          "type": "address"
        }
      ],
      "name": "AdminRemoved",
      "type": "event"
    },
    {
      "anonymous": false,
      "inputs": [
        {
          "indexed": true,
          "internalType": "address",
          "name": "userAddress",
          "type": "address"
        },
        {
          "indexed": false,
          "internalType": "bytes32",
          "name": "oldHashedPassword",
          "type": "bytes32"
        },
        {
          "indexed": false,
          "internalType": "bytes32",
          "name": "newHashedPassword",
          "type": "bytes32"
        }
      ],
      "name": "PasswordReset",
      "type": "event"
    },
    {
      "anonymous": false,
      "inputs": [
        {
          "indexed": true,
          "internalType": "string",
          "name": "email",
          "type": "string"
        }
      ],
      "name": "UserLoggedOut",
      "type": "event"
    },
    {
      "anonymous": false,
      "inputs": [
        {
          "indexed": true,
          "internalType": "address",
          "name": "userAddress",
          "type": "address"
        },
        {
          "indexed": false,
          "internalType": "string",
          "name": "_name",
          "type": "string"
        },
        {
          "indexed": false,
          "internalType": "string",
          "name": "email",
          "type": "string"
        },
        {
          "indexed": false,
          "internalType": "uint8",
          "name": "_age",
          "type": "uint8"
        }
      ],
      "name": "UserRegistered",
      "type": "event"
    },
    {
      "inputs": [
        {
          "internalType": "uint256",
          "name": "",
          "type": "uint256"
        }
      ],
      "name": "adminAddresses",
      "outputs": [
        {
          "internalType": "address",
          "name": "",
          "type": "address"
        }
      ],
      "stateMutability": "view",
      "type": "function",
      "constant": true
    },
    {
      "inputs": [
        {
          "internalType": "address",
          "name": "",
          "type": "address"
        }
      ],
      "name": "admins",
      "outputs": [
        {
          "internalType": "bool",
          "name": "",
          "type": "bool"
        }
      ],
      "stateMutability": "view",
      "type": "function",
      "constant": true
    },
    {
      "inputs": [],
      "name": "currentAdmin",
      "outputs": [
        {
          "internalType": "address",
          "name": "",
          "type": "address"
        }
      ],
      "stateMutability": "view",
      "type": "function",
      "constant": true
    },
    {
      "inputs": [],
      "name": "currentUser",
      "outputs": [
        {
          "internalType": "string",
          "name": "",
          "type": "string"
        }
      ],
      "stateMutability": "view",
      "type": "function",
      "constant": true
    },
    {
      "inputs": [],
      "name": "owner",
      "outputs": [
        {
          "internalType": "address",
          "name": "",
          "type": "address"
        }
      ],
      "stateMutability": "view",
      "type": "function",
      "constant": true
    },
    {
      "inputs": [
        {
          "internalType": "uint256",
          "name": "",
          "type": "uint256"
        }
      ],
      "name": "registeredUserEmails",
      "outputs": [
        {
          "internalType": "string",
          "name": "",
          "type": "string"
        }
      ],
      "stateMutability": "view",
      "type": "function",
      "constant": true
    },
    {
      "inputs": [
        {
          "internalType": "string",
          "name": "_name",
          "type": "string"
        },
        {
          "internalType": "string",
          "name": "_email",
          "type": "string"
        },
        {
          "internalType": "address",
          "name": "_refundAddress",
          "type": "address"
        },
        {
          "internalType": "uint8",
          "name": "_age",
          "type": "uint8"
        },
        {
          "internalType": "string",
          "name": "_password",
          "type": "string"
        }
      ],
      "name": "register",
      "outputs": [],
      "stateMutability": "nonpayable",
      "type": "function"
    },
    {
      "inputs": [
        {
          "internalType": "address",
          "name": "_adminAddress",
          "type": "address"
        }
      ],
      "name": "adminSignIn",
      "outputs": [
        {
          "internalType": "bool",
          "name": "",
          "type": "bool"
        }
      ],
      "stateMutability": "nonpayable",
      "type": "function"
    },
    {
      "inputs": [
        {
          "internalType": "address",
          "name": "_adminAddress",
          "type": "address"
        }
      ],
      "name": "assignAdmin",
      "outputs": [],
      "stateMutability": "nonpayable",
      "type": "function"
    },
    {
      "inputs": [
        {
          "internalType": "address",
          "name": "_adminAddress",
          "type": "address"
        }
      ],
      "name": "removeAdmin",
      "outputs": [],
      "stateMutability": "nonpayable",
      "type": "function"
    },
    {
      "inputs": [
        {
          "internalType": "string",
          "name": "_identifier",
          "type": "string"
        },
        {
          "internalType": "string",
          "name": "_password",
          "type": "string"
        }
      ],
      "name": "signIn",
      "outputs": [
        {
          "internalType": "bool",
          "name": "",
          "type": "bool"
        }
      ],
      "stateMutability": "nonpayable",
      "type": "function"
    },
    {
      "inputs": [
        {
          "internalType": "string",
          "name": "_identifier",
          "type": "string"
        },
        {
          "internalType": "string",
          "name": "_newPassword",
          "type": "string"
        }
      ],
      "name": "resetPassword",
      "outputs": [],
      "stateMutability": "nonpayable",
      "type": "function"
    },
    {
      "inputs": [],
      "name": "logoutUser",
      "outputs": [],
      "stateMutability": "nonpayable",
      "type": "function"
    },
    {
      "inputs": [],
      "name": "logoutAdmin",
      "outputs": [],
      "stateMutability": "nonpayable",
      "type": "function"
    },
    {
      "inputs": [],
      "name": "getAllRegisteredUsers",
      "outputs": [
        {
          "internalType": "string[]",
          "name": "",
          "type": "string[]"
        }
      ],
      "stateMutability": "view",
      "type": "function",
      "constant": true
    },
    {
      "inputs": [],
      "name": "getAllAdmins",
      "outputs": [
        {
          "internalType": "address[]",
          "name": "",
          "type": "address[]"
        }
      ],
      "stateMutability": "view",
      "type": "function",
      "constant": true
    },
    {
      "inputs": [],
      "name": "getUserAge",
      "outputs": [
        {
          "internalType": "uint8",
          "name": "",
          "type": "uint8"
        }
      ],
      "stateMutability": "view",
      "type": "function",
      "constant": true
    },
    {
      "inputs": [],
      "name": "getCurrentUser",
      "outputs": [
        {
          "internalType": "string",
          "name": "",
          "type": "string"
        }
      ],
      "stateMutability": "view",
      "type": "function",
      "constant": true
    },
    {
      "inputs": [],
      "name": "getCurrentAdmin",
      "outputs": [
        {
          "internalType": "address",
          "name": "",
          "type": "address"
        }
      ],
      "stateMutability": "view",
      "type": "function",
      "constant": true
    },
    {
      "inputs": [],
      "name": "getRegisteredUserEmails",
      "outputs": [
        {
          "internalType": "string[]",
          "name": "",
          "type": "string[]"
        }
      ],
      "stateMutability": "view",
      "type": "function",
      "constant": true
    },
    {
      "inputs": [
        {
          "internalType": "string",
          "name": "_user",
          "type": "string"
        }
      ],
      "name": "getUserRefundAddress",
      "outputs": [
        {
          "internalType": "address",
          "name": "",
          "type": "address"
        }
      ],
      "stateMutability": "view",
      "type": "function",
      "constant": true
    }
  ],
  "bytecode": "0x608060405234801561001057600080fd5b5033600460006101000a81548173ffffffffffffffffffffffffffffffffffffffff021916908373ffffffffffffffffffffffffffffffffffffffff1602179055506001600360003373ffffffffffffffffffffffffffffffffffffffff1673ffffffffffffffffffffffffffffffffffffffff16815260200190815260200160002060006101000a81548160ff0219169083151502179055506002339080600181540180825580915050600190039060005260206000200160009091909190916101000a81548173ffffffffffffffffffffffffffffffffffffffff021916908373ffffffffffffffffffffffffffffffffffffffff160217905550612d898061011c6000396000f3fe608060405234801561001057600080fd5b50600436106101375760003560e01c80636b9624cc116100b8578063ba44eecf1161007c578063ba44eecf1461032c578063ba4bcd721461035c578063c8518ecb1461037a578063d8f145d2146103aa578063e9523c97146103b4578063f1d2caee146103d257610137565b80636b9624cc146102985780637cae3d4d146102a25780638da5cb5b146102c057806392ee0334146102de578063b0bcdd91146102fc57610137565b8063429b62e5116100ff578063429b62e5146101e057806343ae37c3146102105780635a06a7181461022e578063643d430c1461025e578063679a9c2c1461027c57610137565b80631785f53c1461013c5780631bb64722146101585780632c162dbc14610176578063397388af146101a65780633da7d2ed146101c4575b600080fd5b61015660048036038101906101519190611ebf565b6103ee565b005b6101606108ef565b60405161016d9190612778565b60405180910390f35b610190600480360381019061018b9190611f29565b6109c8565b60405161019d919061279a565b60405180910390f35b6101ae610cdc565b6040516101bb9190612778565b60405180910390f35b6101de60048036038101906101d99190611ebf565b610db5565b005b6101fa60048036038101906101f59190611ebf565b611063565b604051610207919061279a565b60405180910390f35b610218611083565b60405161022591906127de565b60405180910390f35b61024860048036038101906102439190612054565b611115565b60405161025591906127de565b60405180910390f35b6102666111c1565b604051610273919061273b565b60405180910390f35b61029660048036038101906102919190611f29565b6111eb565b005b6102a061141c565b005b6102aa611557565b6040516102b791906129e5565b60405180910390f35b6102c86115fc565b6040516102d5919061273b565b60405180910390f35b6102e6611622565b6040516102f391906127de565b60405180910390f35b61031660048036038101906103119190611ee8565b6116b0565b604051610323919061273b565b60405180910390f35b61034660048036038101906103419190612054565b6116fa565b604051610353919061273b565b60405180910390f35b610364611739565b604051610371919061273b565b60405180910390f35b610394600480360381019061038f9190611ebf565b61175f565b6040516103a1919061279a565b60405180910390f35b6103b2611837565b005b6103bc6118f3565b6040516103c99190612756565b60405180910390f35b6103ec60048036038101906103e79190611f95565b611981565b005b600460009054906101000a900473ffffffffffffffffffffffffffffffffffffffff1673ffffffffffffffffffffffffffffffffffffffff163373ffffffffffffffffffffffffffffffffffffffff161461047e576040517f08c379a000000000000000000000000000000000000000000000000000000000815260040161047590612865565b60405180910390fd5b600660009054906101000a900473ffffffffffffffffffffffffffffffffffffffff1673ffffffffffffffffffffffffffffffffffffffff163373ffffffffffffffffffffffffffffffffffffffff161461050e576040517f08c379a000000000000000000000000000000000000000000000000000000000815260040161050590612885565b60405180910390fd5b600360008273ffffffffffffffffffffffffffffffffffffffff1673ffffffffffffffffffffffffffffffffffffffff16815260200190815260200160002060009054906101000a900460ff1661059a576040517f08c379a0000000000000000000000000000000000000000000000000000000008152600401610591906128c5565b60405180910390fd5b600460009054906101000a900473ffffffffffffffffffffffffffffffffffffffff1673ffffffffffffffffffffffffffffffffffffffff168173ffffffffffffffffffffffffffffffffffffffff16141561062b576040517f08c379a000000000000000000000000000000000000000000000000000000000815260040161062290612945565b60405180910390fd5b6000600360008373ffffffffffffffffffffffffffffffffffffffff1673ffffffffffffffffffffffffffffffffffffffff16815260200190815260200160002060006101000a81548160ff02191690831515021790555060005b6002805490508110156108a8578173ffffffffffffffffffffffffffffffffffffffff16600282815481106106e4577f4e487b7100000000000000000000000000000000000000000000000000000000600052603260045260246000fd5b9060005260206000200160009054906101000a900473ffffffffffffffffffffffffffffffffffffffff1673ffffffffffffffffffffffffffffffffffffffff161415610895576002600160028054905061073f9190612b20565b81548110610776577f4e487b7100000000000000000000000000000000000000000000000000000000600052603260045260246000fd5b9060005260206000200160009054906101000a900473ffffffffffffffffffffffffffffffffffffffff16600282815481106107db577f4e487b7100000000000000000000000000000000000000000000000000000000600052603260045260246000fd5b9060005260206000200160006101000a81548173ffffffffffffffffffffffffffffffffffffffff021916908373ffffffffffffffffffffffffffffffffffffffff160217905550600280548061085b577f4e487b7100000000000000000000000000000000000000000000000000000000600052603160045260246000fd5b6001900381819060005260206000200160006101000a81549073ffffffffffffffffffffffffffffffffffffffff021916905590556108a8565b80806108a090612c27565b915050610686565b508073ffffffffffffffffffffffffffffffffffffffff167fa3b62bc36326052d97ea62d63c3d60308ed4c3ea8ac079dd8499f1e9c4f80c0f60405160405180910390a250565b60606001805480602002602001604051908101604052809291908181526020016000905b828210156109bf57838290600052602060002001805461093290612bf5565b80601f016020809104026020016040519081016040528092919081815260200182805461095e90612bf5565b80156109ab5780601f10610980576101008083540402835291602001916109ab565b820191906000526020600020905b81548152906001019060200180831161098e57829003601f168201915b505050505081526020019060010190610913565b50505050905090565b6000806000846040516109db919061270d565b90815260200160405180910390206040518060e0016040529081600082018054610a0490612bf5565b80601f0160208091040260200160405190810160405280929190818152602001828054610a3090612bf5565b8015610a7d5780601f10610a5257610100808354040283529160200191610a7d565b820191906000526020600020905b815481529060010190602001808311610a6057829003601f168201915b50505050508152602001600182018054610a9690612bf5565b80601f0160208091040260200160405190810160405280929190818152602001828054610ac290612bf5565b8015610b0f5780601f10610ae457610100808354040283529160200191610b0f565b820191906000526020600020905b815481529060010190602001808311610af257829003601f168201915b505050505081526020016002820160009054906101000a900473ffffffffffffffffffffffffffffffffffffffff1673ffffffffffffffffffffffffffffffffffffffff1673ffffffffffffffffffffffffffffffffffffffff1681526020016002820160149054906101000a900460ff1660ff1660ff168152602001600382015481526020016004820160009054906101000a900460ff1615151515815260200160058201805480602002602001604051908101604052809291908181526020018280548015610bff57602002820191906000526020600020905b815481526020019060010190808311610beb575b50505050508152505090508060a00151610c4e576040517f08c379a0000000000000000000000000000000000000000000000000000000008152600401610c4590612965565b60405180910390fd5b82604051602001610c5f919061270d565b60405160208183030381529060405280519060200120816080015114610cba576040517f08c379a0000000000000000000000000000000000000000000000000000000008152600401610cb1906128e5565b60405180910390fd5b8360059080519060200190610cd0929190611d28565b50600191505092915050565b60606001805480602002602001604051908101604052809291908181526020016000905b82821015610dac578382906000526020600020018054610d1f90612bf5565b80601f0160208091040260200160405190810160405280929190818152602001828054610d4b90612bf5565b8015610d985780601f10610d6d57610100808354040283529160200191610d98565b820191906000526020600020905b815481529060010190602001808311610d7b57829003601f168201915b505050505081526020019060010190610d00565b50505050905090565b600460009054906101000a900473ffffffffffffffffffffffffffffffffffffffff1673ffffffffffffffffffffffffffffffffffffffff163373ffffffffffffffffffffffffffffffffffffffff1614610e45576040517f08c379a0000000000000000000000000000000000000000000000000000000008152600401610e3c90612865565b60405180910390fd5b600660009054906101000a900473ffffffffffffffffffffffffffffffffffffffff1673ffffffffffffffffffffffffffffffffffffffff163373ffffffffffffffffffffffffffffffffffffffff1614610ed5576040517f08c379a0000000000000000000000000000000000000000000000000000000008152600401610ecc90612885565b60405180910390fd5b600360008273ffffffffffffffffffffffffffffffffffffffff1673ffffffffffffffffffffffffffffffffffffffff16815260200190815260200160002060009054906101000a900460ff1615610f62576040517f08c379a0000000000000000000000000000000000000000000000000000000008152600401610f5990612985565b60405180910390fd5b6001600360008373ffffffffffffffffffffffffffffffffffffffff1673ffffffffffffffffffffffffffffffffffffffff16815260200190815260200160002060006101000a81548160ff0219169083151502179055506002819080600181540180825580915050600190039060005260206000200160009091909190916101000a81548173ffffffffffffffffffffffffffffffffffffffff021916908373ffffffffffffffffffffffffffffffffffffffff1602179055508073ffffffffffffffffffffffffffffffffffffffff167fdb33970bd9bc1a413c7dac3b21e061709de094761c9396ef6d49b9ebdb79393360405160405180910390a250565b60036020528060005260406000206000915054906101000a900460ff1681565b60606005805461109290612bf5565b80601f01602080910402602001604051908101604052809291908181526020018280546110be90612bf5565b801561110b5780601f106110e05761010080835404028352916020019161110b565b820191906000526020600020905b8154815290600101906020018083116110ee57829003601f168201915b5050505050905090565b6001818154811061112557600080fd5b90600052602060002001600091509050805461114090612bf5565b80601f016020809104026020016040519081016040528092919081815260200182805461116c90612bf5565b80156111b95780601f1061118e576101008083540402835291602001916111b9565b820191906000526020600020905b81548152906001019060200180831161119c57829003601f168201915b505050505081565b6000600660009054906101000a900473ffffffffffffffffffffffffffffffffffffffff16905090565b6000826040516111fb919061270d565b908152602001604051809103902060040160009054906101000a900460ff16611259576040517f08c379a000000000000000000000000000000000000000000000000000000000815260040161125090612965565b60405180910390fd5b60008260405160200161126c919061270d565b60405160208183030381529060405280519060200120600084604051611292919061270d565b90815260200160405180910390206001016040516020016112b39190612724565b604051602081830303815290604052805190602001201490508061130c576040517f08c379a0000000000000000000000000000000000000000000000000000000008152600401611303906128a5565b60405180910390fd5b60008260405160200161131f919061270d565b60405160208183030381529060405280519060200120905060008085604051611348919061270d565b90815260200160405180910390206003015490508082141561139f576040517f08c379a000000000000000000000000000000000000000000000000000000000815260040161139690612925565b60405180910390fd5b816000866040516113b0919061270d565b9081526020016040518091039020600301819055503373ffffffffffffffffffffffffffffffffffffffff167f1b50a644b0847d53b0509345d2ba19a27e755cb5c52b363d882785c5ff7bee79828460405161140d9291906127b5565b60405180910390a25050505050565b600073ffffffffffffffffffffffffffffffffffffffff16600660009054906101000a900473ffffffffffffffffffffffffffffffffffffffff1673ffffffffffffffffffffffffffffffffffffffff1614156114ae576040517f08c379a00000000000000000000000000000000000000000000000000000000081526004016114a5906129a5565b60405180910390fd5b600660009054906101000a900473ffffffffffffffffffffffffffffffffffffffff1673ffffffffffffffffffffffffffffffffffffffff167f7f7a416fbf0cacca70e58b8eee9540ca8335651c62f987f130ae945a0d210d3960405160405180910390a26000600660006101000a81548173ffffffffffffffffffffffffffffffffffffffff021916908373ffffffffffffffffffffffffffffffffffffffff160217905550565b60008060056040516115699190612724565b908152602001604051809103902060040160009054906101000a900460ff166115c7576040517f08c379a00000000000000000000000000000000000000000000000000000000081526004016115be90612845565b60405180910390fd5b600060056040516115d89190612724565b908152602001604051809103902060020160149054906101000a900460ff16905090565b600460009054906101000a900473ffffffffffffffffffffffffffffffffffffffff1681565b6005805461162f90612bf5565b80601f016020809104026020016040519081016040528092919081815260200182805461165b90612bf5565b80156116a85780601f1061167d576101008083540402835291602001916116a8565b820191906000526020600020905b81548152906001019060200180831161168b57829003601f168201915b505050505081565b600080826040516116c1919061270d565b908152602001604051809103902060020160009054906101000a900473ffffffffffffffffffffffffffffffffffffffff169050919050565b6002818154811061170a57600080fd5b906000526020600020016000915054906101000a900473ffffffffffffffffffffffffffffffffffffffff1681565b600660009054906101000a900473ffffffffffffffffffffffffffffffffffffffff1681565b6000600360008373ffffffffffffffffffffffffffffffffffffffff1673ffffffffffffffffffffffffffffffffffffffff16815260200190815260200160002060009054906101000a900460ff166117ed576040517f08c379a00000000000000000000000000000000000000000000000000000000081526004016117e4906128c5565b60405180910390fd5b81600660006101000a81548173ffffffffffffffffffffffffffffffffffffffff021916908373ffffffffffffffffffffffffffffffffffffffff16021790555060019050919050565b60006005805461184690612bf5565b905011611888576040517f08c379a000000000000000000000000000000000000000000000000000000000815260040161187f906129c5565b60405180910390fd5b60056040516118979190612724565b60405180910390207f34ed8fb20d85b6fb0e3319e6d5a3ffdec9605b798082611f73aaab3e4ad7d43060405160405180910390a260405180602001604052806000815250600590805190602001906118f0929190611d28565b50565b6060600280548060200260200160405190810160405280929190818152602001828054801561197757602002820191906000526020600020905b8160009054906101000a900473ffffffffffffffffffffffffffffffffffffffff1673ffffffffffffffffffffffffffffffffffffffff168152602001906001019080831161192d575b5050505050905090565b60006001905060005b600180549050811015611a8657600181815481106119d1577f4e487b7100000000000000000000000000000000000000000000000000000000600052603260045260246000fd5b906000526020600020016040516020016119eb9190612724565b6040516020818303038152906040528051906020012086604051602001611a12919061270d565b604051602081830303815290604052805190602001201415611a3357600091505b81611a73576040517f08c379a0000000000000000000000000000000000000000000000000000000008152600401611a6a90612905565b60405180910390fd5b8080611a7e90612c27565b91505061198a565b50600082604051602001611a9a919061270d565b6040516020818303038152906040528051906020012090506040518060e001604052808881526020018781526020018673ffffffffffffffffffffffffffffffffffffffff1681526020018560ff168152602001828152602001600115158152602001606467ffffffffffffffff811115611b3e577f4e487b7100000000000000000000000000000000000000000000000000000000600052604160045260246000fd5b604051908082528060200260200182016040528015611b6c5781602001602082028036833780820191505090505b50815250600087604051611b80919061270d565b90815260200160405180910390206000820151816000019080519060200190611baa929190611d28565b506020820151816001019080519060200190611bc7929190611d28565b5060408201518160020160006101000a81548173ffffffffffffffffffffffffffffffffffffffff021916908373ffffffffffffffffffffffffffffffffffffffff16021790555060608201518160020160146101000a81548160ff021916908360ff1602179055506080820151816003015560a08201518160040160006101000a81548160ff02191690831515021790555060c0820151816005019080519060200190611c76929190611dae565b50905050600186908060018154018082558091505060019003906000526020600020016000909190919091509080519060200190611cb5929190611d28565b508560059080519060200190611ccc929190611d28565b503373ffffffffffffffffffffffffffffffffffffffff167fb55f2195f4d9bf657054eaed9581ba0a67e1eec660941cf665585e5352fcbea0888887604051611d1793929190612800565b60405180910390a250505050505050565b828054611d3490612bf5565b90600052602060002090601f016020900481019282611d565760008555611d9d565b82601f10611d6f57805160ff1916838001178555611d9d565b82800160010185558215611d9d579182015b82811115611d9c578251825591602001919060010190611d81565b5b509050611daa9190611dfb565b5090565b828054828255906000526020600020908101928215611dea579160200282015b82811115611de9578251825591602001919060010190611dce565b5b509050611df79190611dfb565b5090565b5b80821115611e14576000816000905550600101611dfc565b5090565b6000611e2b611e2684612a31565b612a00565b905082815260208101848484011115611e4357600080fd5b611e4e848285612bb3565b509392505050565b600081359050611e6581612d0e565b92915050565b600082601f830112611e7c57600080fd5b8135611e8c848260208601611e18565b91505092915050565b600081359050611ea481612d25565b92915050565b600081359050611eb981612d3c565b92915050565b600060208284031215611ed157600080fd5b6000611edf84828501611e56565b91505092915050565b600060208284031215611efa57600080fd5b600082013567ffffffffffffffff811115611f1457600080fd5b611f2084828501611e6b565b91505092915050565b60008060408385031215611f3c57600080fd5b600083013567ffffffffffffffff811115611f5657600080fd5b611f6285828601611e6b565b925050602083013567ffffffffffffffff811115611f7f57600080fd5b611f8b85828601611e6b565b9150509250929050565b600080600080600060a08688031215611fad57600080fd5b600086013567ffffffffffffffff811115611fc757600080fd5b611fd388828901611e6b565b955050602086013567ffffffffffffffff811115611ff057600080fd5b611ffc88828901611e6b565b945050604061200d88828901611e56565b935050606061201e88828901611eaa565b925050608086013567ffffffffffffffff81111561203b57600080fd5b61204788828901611e6b565b9150509295509295909350565b60006020828403121561206657600080fd5b600061207484828501611e95565b91505092915050565b600061208983836120a9565b60208301905092915050565b60006120a183836121b8565b905092915050565b6120b281612b54565b82525050565b6120c181612b54565b82525050565b60006120d282612a96565b6120dc8185612ad1565b93506120e783612a61565b8060005b838110156121185781516120ff888261207d565b975061210a83612ab7565b9250506001810190506120eb565b5085935050505092915050565b600061213082612aa1565b61213a8185612ae2565b93508360208202850161214c85612a71565b8060005b8581101561218857848403895281516121698582612095565b945061217483612ac4565b925060208a01995050600181019050612150565b50829750879550505050505092915050565b6121a381612b66565b82525050565b6121b281612b72565b82525050565b60006121c382612aac565b6121cd8185612af3565b93506121dd818560208601612bc2565b6121e681612cfd565b840191505092915050565b60006121fc82612aac565b6122068185612b04565b9350612216818560208601612bc2565b61221f81612cfd565b840191505092915050565b600061223582612aac565b61223f8185612b15565b935061224f818560208601612bc2565b80840191505092915050565b6000815461226881612bf5565b6122728186612b15565b9450600182166000811461228d576001811461229e576122d1565b60ff198316865281860193506122d1565b6122a785612a81565b60005b838110156122c9578154818901526001820191506020810190506122aa565b838801955050505b50505092915050565b60006122e7601383612b04565b91507f55736572206e6f742072656769737465726564000000000000000000000000006000830152602082019050919050565b6000612327602b83612b04565b91507f4f6e6c7920636f6e7472616374206f776e65722063616e20706572666f726d2060008301527f7468697320616374696f6e0000000000000000000000000000000000000000006020830152604082019050919050565b600061238d603a83612b04565b91507f4d6574616d61736b206163636f756e7420616e6420616464726573732075736560008301527f6420746f207369676e20696e20646f206e6f74206d617463682e0000000000006020830152604082019050919050565b60006123f3600e83612b04565b91507f496e76616c696420656d61696c2e0000000000000000000000000000000000006000830152602082019050919050565b6000612433601d83612b04565b91507f546869732061646472657373206973206e6f7420616e2061646d696e2e0000006000830152602082019050919050565b6000612473601683612b04565b91507f50617373776f726420697320696e636f72726563742e000000000000000000006000830152602082019050919050565b60006124b3602c83612b04565b91507f456d61696c20697320616c72656164792072656769737465726564206279206160008301527f6e6f7468657220757365722e00000000000000000000000000000000000000006020830152604082019050919050565b6000612519603483612b04565b91507f4e65772070617373776f72642063616e6e6f74206265207468652073616d652060008301527f617320746865206f6c642070617373776f72642e0000000000000000000000006020830152604082019050919050565b600061257f602183612b04565b91507f4f776e65722063616e6e6f742062652072656d6f7665642061732061646d696e60008301527f2e000000000000000000000000000000000000000000000000000000000000006020830152604082019050919050565b60006125e5601483612b04565b91507f55736572206e6f7420726567697374657265642e0000000000000000000000006000830152602082019050919050565b6000612625602183612b04565b91507f54686973206164647265737320697320616c726561647920616e2061646d696e60008301527f2e000000000000000000000000000000000000000000000000000000000000006020830152604082019050919050565b600061268b602083612b04565b91507f4e6f2061646d696e2069732063757272656e746c79207369676e656420696e2e6000830152602082019050919050565b60006126cb601f83612b04565b91507f4e6f20757365722069732063757272656e746c79207369676e656420696e2e006000830152602082019050919050565b61270781612ba6565b82525050565b6000612719828461222a565b915081905092915050565b6000612730828461225b565b915081905092915050565b600060208201905061275060008301846120b8565b92915050565b6000602082019050818103600083015261277081846120c7565b905092915050565b600060208201905081810360008301526127928184612125565b905092915050565b60006020820190506127af600083018461219a565b92915050565b60006040820190506127ca60008301856121a9565b6127d760208301846121a9565b9392505050565b600060208201905081810360008301526127f881846121f1565b905092915050565b6000606082019050818103600083015261281a81866121f1565b9050818103602083015261282e81856121f1565b905061283d60408301846126fe565b949350505050565b6000602082019050818103600083015261285e816122da565b9050919050565b6000602082019050818103600083015261287e8161231a565b9050919050565b6000602082019050818103600083015261289e81612380565b9050919050565b600060208201905081810360008301526128be816123e6565b9050919050565b600060208201905081810360008301526128de81612426565b9050919050565b600060208201905081810360008301526128fe81612466565b9050919050565b6000602082019050818103600083015261291e816124a6565b9050919050565b6000602082019050818103600083015261293e8161250c565b9050919050565b6000602082019050818103600083015261295e81612572565b9050919050565b6000602082019050818103600083015261297e816125d8565b9050919050565b6000602082019050818103600083015261299e81612618565b9050919050565b600060208201905081810360008301526129be8161267e565b9050919050565b600060208201905081810360008301526129de816126be565b9050919050565b60006020820190506129fa60008301846126fe565b92915050565b6000604051905081810181811067ffffffffffffffff82111715612a2757612a26612cce565b5b8060405250919050565b600067ffffffffffffffff821115612a4c57612a4b612cce565b5b601f19601f8301169050602081019050919050565b6000819050602082019050919050565b6000819050602082019050919050565b60008190508160005260206000209050919050565b600081519050919050565b600081519050919050565b600081519050919050565b6000602082019050919050565b6000602082019050919050565b600082825260208201905092915050565b600082825260208201905092915050565b600082825260208201905092915050565b600082825260208201905092915050565b600081905092915050565b6000612b2b82612b9c565b9150612b3683612b9c565b925082821015612b4957612b48612c70565b5b828203905092915050565b6000612b5f82612b7c565b9050919050565b60008115159050919050565b6000819050919050565b600073ffffffffffffffffffffffffffffffffffffffff82169050919050565b6000819050919050565b600060ff82169050919050565b82818337600083830152505050565b60005b83811015612be0578082015181840152602081019050612bc5565b83811115612bef576000848401525b50505050565b60006002820490506001821680612c0d57607f821691505b60208210811415612c2157612c20612c9f565b5b50919050565b6000612c3282612b9c565b91507fffffffffffffffffffffffffffffffffffffffffffffffffffffffffffffffff821415612c6557612c64612c70565b5b600182019050919050565b7f4e487b7100000000000000000000000000000000000000000000000000000000600052601160045260246000fd5b7f4e487b7100000000000000000000000000000000000000000000000000000000600052602260045260246000fd5b7f4e487b7100000000000000000000000000000000000000000000000000000000600052604160045260246000fd5b6000601f19601f8301169050919050565b612d1781612b54565b8114612d2257600080fd5b50565b612d2e81612b9c565b8114612d3957600080fd5b50565b612d4581612ba6565b8114612d5057600080fd5b5056fea26469706673582212204578fcdf1265c4a3009da84a213c589e007557e4af075a4940ffe6ca36220e5764736f6c63430008000033",
  "immutableReferences": {},
  "source": "// SPDX-License-Identifier: MIT\r\npragma solidity ^0.8.0;\r\n\r\ncontract UserAuth {\r\n    struct User {\r\n        string name;\r\n        string email;\r\n        address refundAddress;\r\n        uint8 age;\r\n        bytes32 hashedPassword;\r\n        bool isRegistered;\r\n        uint256[] subscribedPackages;\r\n    }\r\n\r\n    mapping(string => User) private users;\r\n\r\n    string[] public registeredUserEmails; // External array to store all registered users' email\r\n    address[] public adminAddresses; // Array to store all admin addresses\r\n\r\n    mapping(address => bool) public admins; // Mapping to keep track of admins\r\n    address public owner; // Contract owner\r\n\r\n    string public currentUser; // For other contracts to know who the current user is\r\n    address public currentAdmin; // For other contracts to know who the current admin is\r\n\r\n    event UserRegistered(\r\n        address indexed userAddress,\r\n        string _name,\r\n        string email,\r\n        uint8 _age\r\n    );\r\n    event PasswordReset(\r\n        address indexed userAddress,\r\n        bytes32 oldHashedPassword,\r\n        bytes32 newHashedPassword\r\n    );\r\n    event AdminAssigned(address indexed adminAddress);\r\n    event AdminRemoved(address indexed adminAddress);\r\n    event UserLoggedOut(string indexed email);\r\n    event AdminLoggedOut(address indexed adminAddress);\r\n\r\n    modifier onlyOwner() {\r\n        require(\r\n            msg.sender == owner,\r\n            \"Only contract owner can perform this action\"\r\n        );\r\n        _;\r\n    }\r\n\r\n    modifier onlyAdmin() {\r\n        require(admins[msg.sender], \"Only admins can perform this action\");\r\n        _;\r\n    }\r\n\r\n    modifier sameAdmin() {\r\n        require(\r\n            msg.sender == currentAdmin,\r\n            \"Metamask account and address used to sign in do not match.\"\r\n        );\r\n        _;\r\n    }\r\n\r\n    constructor() {\r\n        owner = msg.sender; // Set contract creator as the first admin\r\n        admins[msg.sender] = true;\r\n        adminAddresses.push(msg.sender); // Add owner to adminAddresses array\r\n    }\r\n\r\n    // Register a new user with additional attributes and hashed password\r\n    function register(\r\n        string memory _name,\r\n        string memory _email,\r\n        address _refundAddress,\r\n        uint8 _age,\r\n        string memory _password\r\n\r\n    ) public {\r\n        bool validEmail = true;\r\n        for (uint i = 0; i < registeredUserEmails.length; i++) {\r\n            if (\r\n                keccak256(abi.encodePacked(_email)) ==\r\n                keccak256(abi.encodePacked(registeredUserEmails[i]))\r\n            ) {\r\n                validEmail = false;\r\n            }\r\n            require(validEmail, \"Email is already registered by another user.\");\r\n        }\r\n\r\n        bytes32 hashedPassword = keccak256(abi.encodePacked(_password)); // Hash the password\r\n        users[_email] = User({\r\n            name: _name,\r\n            email: _email,\r\n            age: _age,\r\n            refundAddress: _refundAddress,\r\n            hashedPassword: hashedPassword,\r\n            isRegistered: true,\r\n            subscribedPackages: new uint256[](100)\r\n        });\r\n\r\n        // Add the user address to the external registeredUsers array\r\n        registeredUserEmails.push(_email);\r\n        currentUser = _email;\r\n\r\n        emit UserRegistered(msg.sender, _name, _email, _age);\r\n    }\r\n\r\n    // Admin sign in using just the address\r\n    function adminSignIn(address _adminAddress) public returns (bool) {\r\n        require(admins[_adminAddress], \"This address is not an admin.\");\r\n\r\n        currentAdmin = _adminAddress;\r\n        return true;\r\n    }\r\n\r\n    // Admin function to assign a new admin\r\n    function assignAdmin(address _adminAddress) public onlyOwner sameAdmin {\r\n        require(!admins[_adminAddress], \"This address is already an admin.\");\r\n        admins[_adminAddress] = true;\r\n\r\n        adminAddresses.push(_adminAddress);\r\n\r\n        emit AdminAssigned(_adminAddress);\r\n    }\r\n\r\n    // Admin function to remove an admin\r\n    function removeAdmin(address _adminAddress) public onlyOwner sameAdmin {\r\n        require(admins[_adminAddress], \"This address is not an admin.\");\r\n        require(_adminAddress != owner, \"Owner cannot be removed as admin.\");\r\n        admins[_adminAddress] = false;\r\n\r\n        for (uint i = 0; i < adminAddresses.length; i++) {\r\n            if (adminAddresses[i] == _adminAddress) {\r\n                adminAddresses[i] = adminAddresses[adminAddresses.length - 1];\r\n                adminAddresses.pop();\r\n                break;\r\n            }\r\n        }\r\n\r\n        emit AdminRemoved(_adminAddress);\r\n    }\r\n\r\n    // Sign in using email and password\r\n    function signIn(\r\n        string memory _identifier,\r\n        string memory _password\r\n    ) public returns (bool) {\r\n        User memory user = users[_identifier];\r\n        require(user.isRegistered, \"User not registered.\");\r\n        require(\r\n            user.hashedPassword == keccak256(abi.encodePacked(_password)),\r\n            \"Password is incorrect.\"\r\n        );\r\n\r\n        currentUser = _identifier;\r\n        return true;\r\n    }\r\n\r\n    // Reset password\r\n    function resetPassword(\r\n        string memory _identifier,\r\n        string memory _newPassword\r\n    ) public {\r\n        require(users[_identifier].isRegistered, \"User not registered.\");\r\n        bool isValid = keccak256(abi.encodePacked(users[_identifier].email)) ==\r\n            keccak256(abi.encodePacked(_identifier));\r\n        require(isValid, \"Invalid email.\");\r\n\r\n        bytes32 newHashedPassword = keccak256(abi.encodePacked(_newPassword));\r\n        bytes32 oldHashedPassword = users[_identifier].hashedPassword;\r\n\r\n        require(\r\n            newHashedPassword != oldHashedPassword,\r\n            \"New password cannot be the same as the old password.\"\r\n        );\r\n\r\n        users[_identifier].hashedPassword = newHashedPassword;\r\n\r\n        emit PasswordReset(msg.sender, oldHashedPassword, newHashedPassword);\r\n    }\r\n\r\n    // Logout for the current user\r\n    function logoutUser() public {\r\n        require(\r\n            bytes(currentUser).length > 0,\r\n            \"No user is currently signed in.\"\r\n        );\r\n        emit UserLoggedOut(currentUser);\r\n        currentUser = \"\"; // Reset current user\r\n    }\r\n\r\n    // Logout for the current admin\r\n    function logoutAdmin() public {\r\n        require(currentAdmin != address(0), \"No admin is currently signed in.\");\r\n        emit AdminLoggedOut(currentAdmin);\r\n        currentAdmin = address(0); // Reset current admin\r\n    }\r\n\r\n    // Function to get all registered user emails\r\n    function getAllRegisteredUsers() public view returns (string[] memory) {\r\n        return registeredUserEmails;\r\n    }\r\n\r\n    // Function to get all registered admin addresses\r\n    function getAllAdmins() public view returns (address[] memory) {\r\n        return adminAddresses;\r\n    }\r\n\r\n    function getUserAge() public view returns (uint8) {\r\n        require(users[currentUser].isRegistered, \"User not registered\");\r\n        return users[currentUser].age;\r\n    }\r\n\r\n    function getCurrentUser() public view returns (string memory) {\r\n        return (currentUser);\r\n    }\r\n\r\n    function getCurrentAdmin() public view returns (address) {\r\n        return (currentAdmin);\r\n    }\r\n\r\n    function getRegisteredUserEmails() public view returns (string[] memory) {\r\n        return (registeredUserEmails);\r\n    }\r\n\r\n    function getUserRefundAddress(\r\n        string memory _user\r\n    ) public view returns (address) {\r\n        return (users[_user].refundAddress);\r\n    }\r\n}",
  "sourcePath": "C:\\Users\\leeda\\OneDrive\\Desktop\\Great_Global\\Danny_Test\\SponsorAnimals\\contracts\\UserAuth.sol",
  "compiler": {
    "name": "solc",
    "version": "0.8.0+commit.c7dfd78e.Emscripten.clang"
  },
  "schemaVersion": "3.4.16",
  "updatedAt": "2024-09-26T11:15:20.516Z",
  "networkType": "ethereum",
  "devdoc": {
    "kind": "dev",
    "methods": {},
    "version": 1
  },
  "userdoc": {
    "kind": "user",
    "methods": {},
    "version": 1
  }
}