{
  "contractName": "UserAuth",
  "abi": [
    {
      "inputs": [],
      "stateMutability": "nonpayable",
      "type": "constructor"
    },
    {
      "anonymous": false,
      "inputs": [
        {
          "indexed": true,
          "internalType": "address",
          "name": "adminAddress",
          "type": "address"
        }
      ],
      "name": "AdminAssigned",
      "type": "event"
    },
    {
      "anonymous": false,
      "inputs": [
        {
          "indexed": true,
          "internalType": "address",
          "name": "adminAddress",
          "type": "address"
        }
      ],
      "name": "AdminRemoved",
      "type": "event"
    },
    {
      "anonymous": false,
      "inputs": [
        {
          "indexed": true,
          "internalType": "address",
          "name": "userAddress",
          "type": "address"
        },
        {
          "indexed": false,
          "internalType": "uint256",
          "name": "insuranceId",
          "type": "uint256"
        }
      ],
      "name": "InsuranceSubscribed",
      "type": "event"
    },
    {
      "anonymous": false,
      "inputs": [
        {
          "indexed": true,
          "internalType": "address",
          "name": "userAddress",
          "type": "address"
        },
        {
          "indexed": false,
          "internalType": "bytes32",
          "name": "oldHashedPassword",
          "type": "bytes32"
        },
        {
          "indexed": false,
          "internalType": "bytes32",
          "name": "newHashedPassword",
          "type": "bytes32"
        }
      ],
      "name": "PasswordReset",
      "type": "event"
    },
    {
      "anonymous": false,
      "inputs": [
        {
          "indexed": true,
          "internalType": "address",
          "name": "userAddress",
          "type": "address"
        },
        {
          "indexed": false,
          "internalType": "string",
          "name": "_name",
          "type": "string"
        },
        {
          "indexed": false,
          "internalType": "string",
          "name": "email",
          "type": "string"
        },
        {
          "indexed": false,
          "internalType": "uint256",
          "name": "_age",
          "type": "uint256"
        }
      ],
      "name": "UserRegistered",
      "type": "event"
    },
    {
      "inputs": [
        {
          "internalType": "uint256",
          "name": "",
          "type": "uint256"
        }
      ],
      "name": "adminAddresses",
      "outputs": [
        {
          "internalType": "address",
          "name": "",
          "type": "address"
        }
      ],
      "stateMutability": "view",
      "type": "function",
      "constant": true
    },
    {
      "inputs": [
        {
          "internalType": "address",
          "name": "",
          "type": "address"
        }
      ],
      "name": "admins",
      "outputs": [
        {
          "internalType": "bool",
          "name": "",
          "type": "bool"
        }
      ],
      "stateMutability": "view",
      "type": "function",
      "constant": true
    },
    {
      "inputs": [],
      "name": "owner",
      "outputs": [
        {
          "internalType": "address",
          "name": "",
          "type": "address"
        }
      ],
      "stateMutability": "view",
      "type": "function",
      "constant": true
    },
    {
      "inputs": [
        {
          "internalType": "uint256",
          "name": "",
          "type": "uint256"
        }
      ],
      "name": "registeredUsers",
      "outputs": [
        {
          "internalType": "address",
          "name": "",
          "type": "address"
        }
      ],
      "stateMutability": "view",
      "type": "function",
      "constant": true
    },
    {
      "inputs": [
        {
          "internalType": "address",
          "name": "",
          "type": "address"
        }
      ],
      "name": "users",
      "outputs": [
        {
          "internalType": "string",
          "name": "name",
          "type": "string"
        },
        {
          "internalType": "string",
          "name": "email",
          "type": "string"
        },
        {
          "internalType": "uint256",
          "name": "age",
          "type": "uint256"
        },
        {
          "internalType": "bytes32",
          "name": "hashedPassword",
          "type": "bytes32"
        },
        {
          "internalType": "bool",
          "name": "isRegistered",
          "type": "bool"
        }
      ],
      "stateMutability": "view",
      "type": "function",
      "constant": true
    },
    {
      "inputs": [
        {
          "internalType": "string",
          "name": "_name",
          "type": "string"
        },
        {
          "internalType": "string",
          "name": "_email",
          "type": "string"
        },
        {
          "internalType": "uint256",
          "name": "_age",
          "type": "uint256"
        },
        {
          "internalType": "string",
          "name": "_password",
          "type": "string"
        }
      ],
      "name": "register",
      "outputs": [],
      "stateMutability": "nonpayable",
      "type": "function"
    },
    {
      "inputs": [
        {
          "internalType": "address",
          "name": "_adminAddress",
          "type": "address"
        }
      ],
      "name": "adminSignIn",
      "outputs": [
        {
          "internalType": "bool",
          "name": "",
          "type": "bool"
        }
      ],
      "stateMutability": "view",
      "type": "function",
      "constant": true
    },
    {
      "inputs": [
        {
          "internalType": "address",
          "name": "_adminAddress",
          "type": "address"
        }
      ],
      "name": "assignAdmin",
      "outputs": [],
      "stateMutability": "nonpayable",
      "type": "function"
    },
    {
      "inputs": [
        {
          "internalType": "address",
          "name": "_adminAddress",
          "type": "address"
        }
      ],
      "name": "removeAdmin",
      "outputs": [],
      "stateMutability": "nonpayable",
      "type": "function"
    },
    {
      "inputs": [
        {
          "internalType": "string",
          "name": "_identifier",
          "type": "string"
        },
        {
          "internalType": "string",
          "name": "_password",
          "type": "string"
        }
      ],
      "name": "signIn",
      "outputs": [
        {
          "internalType": "bool",
          "name": "",
          "type": "bool"
        }
      ],
      "stateMutability": "view",
      "type": "function",
      "constant": true
    },
    {
      "inputs": [
        {
          "internalType": "string",
          "name": "_identifier",
          "type": "string"
        },
        {
          "internalType": "string",
          "name": "_newPassword",
          "type": "string"
        }
      ],
      "name": "resetPassword",
      "outputs": [],
      "stateMutability": "nonpayable",
      "type": "function"
    },
    {
      "inputs": [],
      "name": "getAllRegisteredUsers",
      "outputs": [
        {
          "internalType": "address[]",
          "name": "",
          "type": "address[]"
        }
      ],
      "stateMutability": "view",
      "type": "function",
      "constant": true
    },
    {
      "inputs": [],
      "name": "getAllAdmins",
      "outputs": [
        {
          "internalType": "address[]",
          "name": "",
          "type": "address[]"
        }
      ],
      "stateMutability": "view",
      "type": "function",
      "constant": true
    }
  ],
  "bytecode": "0x608060405234801561001057600080fd5b5033600560006101000a81548173ffffffffffffffffffffffffffffffffffffffff021916908373ffffffffffffffffffffffffffffffffffffffff1602179055506001600460003373ffffffffffffffffffffffffffffffffffffffff1673ffffffffffffffffffffffffffffffffffffffff16815260200190815260200160002060006101000a81548160ff0219169083151502179055506003339080600181540180825580915050600190039060005260206000200160009091909190916101000a81548173ffffffffffffffffffffffffffffffffffffffff021916908373ffffffffffffffffffffffffffffffffffffffff1602179055506124598061011c6000396000f3fe608060405234801561001057600080fd5b50600436106100cf5760003560e01c80637259e0f81161008c578063ba44eecf11610066578063ba44eecf14610228578063c8518ecb14610258578063e9523c9714610288578063fb0bc6a3146102a6576100cf565b80637259e0f8146101a65780638da5cb5b146101d6578063a87430ba146101f4576100cf565b80631785f53c146100d45780632c162dbc146100f0578063397388af146101205780633da7d2ed1461013e578063429b62e51461015a578063679a9c2c1461018a575b600080fd5b6100ee60048036038101906100e99190611832565b6102c2565b005b61010a6004803603810190610105919061185b565b610733565b6040516101179190611f14565b60405180910390f35b610128610a2b565b6040516101359190611ef2565b60405180910390f35b61015860048036038101906101539190611832565b610ab9565b005b610174600480360381019061016f9190611832565b610cd7565b6040516101819190611f14565b60405180910390f35b6101a4600480360381019061019f919061185b565b610cf7565b005b6101c060048036038101906101bb9190611972565b610fa9565b6040516101cd9190611ed7565b60405180910390f35b6101de610fe8565b6040516101eb9190611ed7565b60405180910390f35b61020e60048036038101906102099190611832565b61100e565b60405161021f959493929190611f9d565b60405180910390f35b610242600480360381019061023d9190611972565b611161565b60405161024f9190611ed7565b60405180910390f35b610272600480360381019061026d9190611832565b6111a0565b60405161027f9190611f14565b60405180910390f35b610290611237565b60405161029d9190611ef2565b60405180910390f35b6102c060048036038101906102bb91906118c7565b6112c5565b005b600560009054906101000a900473ffffffffffffffffffffffffffffffffffffffff1673ffffffffffffffffffffffffffffffffffffffff163373ffffffffffffffffffffffffffffffffffffffff1614610352576040517f08c379a000000000000000000000000000000000000000000000000000000000815260040161034990611ffe565b60405180910390fd5b600460008273ffffffffffffffffffffffffffffffffffffffff1673ffffffffffffffffffffffffffffffffffffffff16815260200190815260200160002060009054906101000a900460ff166103de576040517f08c379a00000000000000000000000000000000000000000000000000000000081526004016103d59061203e565b60405180910390fd5b600560009054906101000a900473ffffffffffffffffffffffffffffffffffffffff1673ffffffffffffffffffffffffffffffffffffffff168173ffffffffffffffffffffffffffffffffffffffff16141561046f576040517f08c379a0000000000000000000000000000000000000000000000000000000008152600401610466906120de565b60405180910390fd5b6000600460008373ffffffffffffffffffffffffffffffffffffffff1673ffffffffffffffffffffffffffffffffffffffff16815260200190815260200160002060006101000a81548160ff02191690831515021790555060005b6003805490508110156106ec578173ffffffffffffffffffffffffffffffffffffffff1660038281548110610528577f4e487b7100000000000000000000000000000000000000000000000000000000600052603260045260246000fd5b9060005260206000200160009054906101000a900473ffffffffffffffffffffffffffffffffffffffff1673ffffffffffffffffffffffffffffffffffffffff1614156106d957600360016003805490506105839190612214565b815481106105ba577f4e487b7100000000000000000000000000000000000000000000000000000000600052603260045260246000fd5b9060005260206000200160009054906101000a900473ffffffffffffffffffffffffffffffffffffffff166003828154811061061f577f4e487b7100000000000000000000000000000000000000000000000000000000600052603260045260246000fd5b9060005260206000200160006101000a81548173ffffffffffffffffffffffffffffffffffffffff021916908373ffffffffffffffffffffffffffffffffffffffff160217905550600380548061069f577f4e487b7100000000000000000000000000000000000000000000000000000000600052603160045260246000fd5b6001900381819060005260206000200160006101000a81549073ffffffffffffffffffffffffffffffffffffffff021916905590556106ec565b80806106e49061230e565b9150506104ca565b508073ffffffffffffffffffffffffffffffffffffffff167fa3b62bc36326052d97ea62d63c3d60308ed4c3ea8ac079dd8499f1e9c4f80c0f60405160405180910390a250565b6000806001846040516107469190611ea9565b908152602001604051809103902060009054906101000a900473ffffffffffffffffffffffffffffffffffffffff16905060008060008373ffffffffffffffffffffffffffffffffffffffff1673ffffffffffffffffffffffffffffffffffffffff1681526020019081526020016000206040518060c00160405290816000820180546107d2906122dc565b80601f01602080910402602001604051908101604052809291908181526020018280546107fe906122dc565b801561084b5780601f106108205761010080835404028352916020019161084b565b820191906000526020600020905b81548152906001019060200180831161082e57829003601f168201915b50505050508152602001600182018054610864906122dc565b80601f0160208091040260200160405190810160405280929190818152602001828054610890906122dc565b80156108dd5780601f106108b2576101008083540402835291602001916108dd565b820191906000526020600020905b8154815290600101906020018083116108c057829003601f168201915b5050505050815260200160028201548152602001600382015481526020016004820160009054906101000a900460ff161515151581526020016005820180548060200260200160405190810160405280929190818152602001828054801561096457602002820191906000526020600020905b815481526020019060010190808311610950575b505050505081525050905080608001516109b3576040517f08c379a00000000000000000000000000000000000000000000000000000000081526004016109aa906120fe565b60405180910390fd5b836040516020016109c49190611ea9565b60405160208183030381529060405280519060200120816060015114610a1f576040517f08c379a0000000000000000000000000000000000000000000000000000000008152600401610a169061207e565b60405180910390fd5b60019250505092915050565b60606002805480602002602001604051908101604052809291908181526020018280548015610aaf57602002820191906000526020600020905b8160009054906101000a900473ffffffffffffffffffffffffffffffffffffffff1673ffffffffffffffffffffffffffffffffffffffff1681526020019060010190808311610a65575b5050505050905090565b600560009054906101000a900473ffffffffffffffffffffffffffffffffffffffff1673ffffffffffffffffffffffffffffffffffffffff163373ffffffffffffffffffffffffffffffffffffffff1614610b49576040517f08c379a0000000000000000000000000000000000000000000000000000000008152600401610b4090611ffe565b60405180910390fd5b600460008273ffffffffffffffffffffffffffffffffffffffff1673ffffffffffffffffffffffffffffffffffffffff16815260200190815260200160002060009054906101000a900460ff1615610bd6576040517f08c379a0000000000000000000000000000000000000000000000000000000008152600401610bcd9061211e565b60405180910390fd5b6001600460008373ffffffffffffffffffffffffffffffffffffffff1673ffffffffffffffffffffffffffffffffffffffff16815260200190815260200160002060006101000a81548160ff0219169083151502179055506003819080600181540180825580915050600190039060005260206000200160009091909190916101000a81548173ffffffffffffffffffffffffffffffffffffffff021916908373ffffffffffffffffffffffffffffffffffffffff1602179055508073ffffffffffffffffffffffffffffffffffffffff167fdb33970bd9bc1a413c7dac3b21e061709de094761c9396ef6d49b9ebdb79393360405160405180910390a250565b60046020528060005260406000206000915054906101000a900460ff1681565b6000803373ffffffffffffffffffffffffffffffffffffffff1673ffffffffffffffffffffffffffffffffffffffff16815260200190815260200160002060040160009054906101000a900460ff16610d85576040517f08c379a0000000000000000000000000000000000000000000000000000000008152600401610d7c906120fe565b60405180910390fd5b600082604051602001610d989190611ea9565b604051602081830303815290604052805190602001206000803373ffffffffffffffffffffffffffffffffffffffff1673ffffffffffffffffffffffffffffffffffffffff168152602001908152602001600020600101604051602001610dff9190611ec0565b6040516020818303038152906040528051906020012014905080610e58576040517f08c379a0000000000000000000000000000000000000000000000000000000008152600401610e4f9061201e565b60405180910390fd5b600082604051602001610e6b9190611ea9565b60405160208183030381529060405280519060200120905060008060003373ffffffffffffffffffffffffffffffffffffffff1673ffffffffffffffffffffffffffffffffffffffff16815260200190815260200160002060030154905080821415610f0c576040517f08c379a0000000000000000000000000000000000000000000000000000000008152600401610f03906120be565b60405180910390fd5b816000803373ffffffffffffffffffffffffffffffffffffffff1673ffffffffffffffffffffffffffffffffffffffff168152602001908152602001600020600301819055503373ffffffffffffffffffffffffffffffffffffffff167f1b50a644b0847d53b0509345d2ba19a27e755cb5c52b363d882785c5ff7bee798284604051610f9a929190611f2f565b60405180910390a25050505050565b60028181548110610fb957600080fd5b906000526020600020016000915054906101000a900473ffffffffffffffffffffffffffffffffffffffff1681565b600560009054906101000a900473ffffffffffffffffffffffffffffffffffffffff1681565b6000602052806000526040600020600091509050806000018054611031906122dc565b80601f016020809104026020016040519081016040528092919081815260200182805461105d906122dc565b80156110aa5780601f1061107f576101008083540402835291602001916110aa565b820191906000526020600020905b81548152906001019060200180831161108d57829003601f168201915b5050505050908060010180546110bf906122dc565b80601f01602080910402602001604051908101604052809291908181526020018280546110eb906122dc565b80156111385780601f1061110d57610100808354040283529160200191611138565b820191906000526020600020905b81548152906001019060200180831161111b57829003601f168201915b5050505050908060020154908060030154908060040160009054906101000a900460ff16905085565b6003818154811061117157600080fd5b906000526020600020016000915054906101000a900473ffffffffffffffffffffffffffffffffffffffff1681565b6000600460008373ffffffffffffffffffffffffffffffffffffffff1673ffffffffffffffffffffffffffffffffffffffff16815260200190815260200160002060009054906101000a900460ff1661122e576040517f08c379a00000000000000000000000000000000000000000000000000000000081526004016112259061203e565b60405180910390fd5b60019050919050565b606060038054806020026020016040519081016040528092919081815260200182805480156112bb57602002820191906000526020600020905b8160009054906101000a900473ffffffffffffffffffffffffffffffffffffffff1673ffffffffffffffffffffffffffffffffffffffff1681526020019060010190808311611271575b5050505050905090565b6000803373ffffffffffffffffffffffffffffffffffffffff1673ffffffffffffffffffffffffffffffffffffffff16815260200190815260200160002060040160009054906101000a900460ff1615611354576040517f08c379a000000000000000000000000000000000000000000000000000000000815260040161134b9061205e565b60405180910390fd5b600073ffffffffffffffffffffffffffffffffffffffff1660018460405161137c9190611ea9565b908152602001604051809103902060009054906101000a900473ffffffffffffffffffffffffffffffffffffffff1673ffffffffffffffffffffffffffffffffffffffff1614611401576040517f08c379a00000000000000000000000000000000000000000000000000000000081526004016113f89061209e565b60405180910390fd5b6000816040516020016114149190611ea9565b6040516020818303038152906040528051906020012090506040518060c00160405280868152602001858152602001848152602001828152602001600115158152602001606467ffffffffffffffff811115611499577f4e487b7100000000000000000000000000000000000000000000000000000000600052604160045260246000fd5b6040519080825280602002602001820160405280156114c75781602001602082028036833780820191505090505b508152506000803373ffffffffffffffffffffffffffffffffffffffff1673ffffffffffffffffffffffffffffffffffffffff16815260200190815260200160002060008201518160000190805190602001906115259291906116b0565b5060208201518160010190805190602001906115429291906116b0565b50604082015181600201556060820151816003015560808201518160040160006101000a81548160ff02191690831515021790555060a0820151816005019080519060200190611593929190611736565b50905050336001856040516115a89190611ea9565b908152602001604051809103902060006101000a81548173ffffffffffffffffffffffffffffffffffffffff021916908373ffffffffffffffffffffffffffffffffffffffff1602179055506002339080600181540180825580915050600190039060005260206000200160009091909190916101000a81548173ffffffffffffffffffffffffffffffffffffffff021916908373ffffffffffffffffffffffffffffffffffffffff1602179055503373ffffffffffffffffffffffffffffffffffffffff167fb43e07573ffd613ee4cb14f22ebd42b902fb524682771d8e82932bd48bcda2478686866040516116a193929190611f58565b60405180910390a25050505050565b8280546116bc906122dc565b90600052602060002090601f0160209004810192826116de5760008555611725565b82601f106116f757805160ff1916838001178555611725565b82800160010185558215611725579182015b82811115611724578251825591602001919060010190611709565b5b5090506117329190611783565b5090565b828054828255906000526020600020908101928215611772579160200282015b82811115611771578251825591602001919060010190611756565b5b50905061177f9190611783565b5090565b5b8082111561179c576000816000905550600101611784565b5090565b60006117b36117ae8461216f565b61213e565b9050828152602081018484840111156117cb57600080fd5b6117d684828561229a565b509392505050565b6000813590506117ed816123f5565b92915050565b600082601f83011261180457600080fd5b81356118148482602086016117a0565b91505092915050565b60008135905061182c8161240c565b92915050565b60006020828403121561184457600080fd5b6000611852848285016117de565b91505092915050565b6000806040838503121561186e57600080fd5b600083013567ffffffffffffffff81111561188857600080fd5b611894858286016117f3565b925050602083013567ffffffffffffffff8111156118b157600080fd5b6118bd858286016117f3565b9150509250929050565b600080600080608085870312156118dd57600080fd5b600085013567ffffffffffffffff8111156118f757600080fd5b611903878288016117f3565b945050602085013567ffffffffffffffff81111561192057600080fd5b61192c878288016117f3565b935050604061193d8782880161181d565b925050606085013567ffffffffffffffff81111561195a57600080fd5b611966878288016117f3565b91505092959194509250565b60006020828403121561198457600080fd5b60006119928482850161181d565b91505092915050565b60006119a783836119b3565b60208301905092915050565b6119bc81612248565b82525050565b6119cb81612248565b82525050565b60006119dc826121c4565b6119e681856121e7565b93506119f18361219f565b8060005b83811015611a22578151611a09888261199b565b9750611a14836121da565b9250506001810190506119f5565b5085935050505092915050565b611a388161225a565b82525050565b611a4781612266565b82525050565b6000611a58826121cf565b611a6281856121f8565b9350611a728185602086016122a9565b611a7b816123e4565b840191505092915050565b6000611a91826121cf565b611a9b8185612209565b9350611aab8185602086016122a9565b80840191505092915050565b60008154611ac4816122dc565b611ace8186612209565b94506001821660008114611ae95760018114611afa57611b2d565b60ff19831686528186019350611b2d565b611b03856121af565b60005b83811015611b2557815481890152600182019150602081019050611b06565b838801955050505b50505092915050565b6000611b43602b836121f8565b91507f4f6e6c7920636f6e7472616374206f776e65722063616e20706572666f726d2060008301527f7468697320616374696f6e0000000000000000000000000000000000000000006020830152604082019050919050565b6000611ba9600e836121f8565b91507f496e76616c696420656d61696c2e0000000000000000000000000000000000006000830152602082019050919050565b6000611be9601d836121f8565b91507f546869732061646472657373206973206e6f7420616e2061646d696e2e0000006000830152602082019050919050565b6000611c29602a836121f8565b91507f5573657220616c7265616479207265676973746572656420776974682074686960008301527f7320616464726573732e000000000000000000000000000000000000000000006020830152604082019050919050565b6000611c8f6016836121f8565b91507f50617373776f726420697320696e636f72726563742e000000000000000000006000830152602082019050919050565b6000611ccf602c836121f8565b91507f456d61696c20697320616c72656164792072656769737465726564206279206160008301527f6e6f7468657220757365722e00000000000000000000000000000000000000006020830152604082019050919050565b6000611d356034836121f8565b91507f4e65772070617373776f72642063616e6e6f74206265207468652073616d652060008301527f617320746865206f6c642070617373776f72642e0000000000000000000000006020830152604082019050919050565b6000611d9b6021836121f8565b91507f4f776e65722063616e6e6f742062652072656d6f7665642061732061646d696e60008301527f2e000000000000000000000000000000000000000000000000000000000000006020830152604082019050919050565b6000611e016014836121f8565b91507f55736572206e6f7420726567697374657265642e0000000000000000000000006000830152602082019050919050565b6000611e416021836121f8565b91507f54686973206164647265737320697320616c726561647920616e2061646d696e60008301527f2e000000000000000000000000000000000000000000000000000000000000006020830152604082019050919050565b611ea381612290565b82525050565b6000611eb58284611a86565b915081905092915050565b6000611ecc8284611ab7565b915081905092915050565b6000602082019050611eec60008301846119c2565b92915050565b60006020820190508181036000830152611f0c81846119d1565b905092915050565b6000602082019050611f296000830184611a2f565b92915050565b6000604082019050611f446000830185611a3e565b611f516020830184611a3e565b9392505050565b60006060820190508181036000830152611f728186611a4d565b90508181036020830152611f868185611a4d565b9050611f956040830184611e9a565b949350505050565b600060a0820190508181036000830152611fb78188611a4d565b90508181036020830152611fcb8187611a4d565b9050611fda6040830186611e9a565b611fe76060830185611a3e565b611ff46080830184611a2f565b9695505050505050565b6000602082019050818103600083015261201781611b36565b9050919050565b6000602082019050818103600083015261203781611b9c565b9050919050565b6000602082019050818103600083015261205781611bdc565b9050919050565b6000602082019050818103600083015261207781611c1c565b9050919050565b6000602082019050818103600083015261209781611c82565b9050919050565b600060208201905081810360008301526120b781611cc2565b9050919050565b600060208201905081810360008301526120d781611d28565b9050919050565b600060208201905081810360008301526120f781611d8e565b9050919050565b6000602082019050818103600083015261211781611df4565b9050919050565b6000602082019050818103600083015261213781611e34565b9050919050565b6000604051905081810181811067ffffffffffffffff82111715612165576121646123b5565b5b8060405250919050565b600067ffffffffffffffff82111561218a576121896123b5565b5b601f19601f8301169050602081019050919050565b6000819050602082019050919050565b60008190508160005260206000209050919050565b600081519050919050565b600081519050919050565b6000602082019050919050565b600082825260208201905092915050565b600082825260208201905092915050565b600081905092915050565b600061221f82612290565b915061222a83612290565b92508282101561223d5761223c612357565b5b828203905092915050565b600061225382612270565b9050919050565b60008115159050919050565b6000819050919050565b600073ffffffffffffffffffffffffffffffffffffffff82169050919050565b6000819050919050565b82818337600083830152505050565b60005b838110156122c75780820151818401526020810190506122ac565b838111156122d6576000848401525b50505050565b600060028204905060018216806122f457607f821691505b6020821081141561230857612307612386565b5b50919050565b600061231982612290565b91507fffffffffffffffffffffffffffffffffffffffffffffffffffffffffffffffff82141561234c5761234b612357565b5b600182019050919050565b7f4e487b7100000000000000000000000000000000000000000000000000000000600052601160045260246000fd5b7f4e487b7100000000000000000000000000000000000000000000000000000000600052602260045260246000fd5b7f4e487b7100000000000000000000000000000000000000000000000000000000600052604160045260246000fd5b6000601f19601f8301169050919050565b6123fe81612248565b811461240957600080fd5b50565b61241581612290565b811461242057600080fd5b5056fea2646970667358221220759c892c1ae0320ac04b23eb4fa5f318c099e0553f2bcc4a4cbfea1235731a2864736f6c63430008000033",
  "immutableReferences": {},
  "source": "// SPDX-License-Identifier: MIT\r\npragma solidity ^0.8.0;\r\n\r\ncontract UserAuth {\r\n    struct User {\r\n        string name;\r\n        string email;\r\n        uint age;\r\n        bytes32 hashedPassword;\r\n        bool isRegistered;\r\n        uint256[] subscribedPackages;\r\n    }\r\n\r\n    mapping(address => User) public users;\r\n    mapping(string => address) private emailToAddress;\r\n\r\n    address[] public registeredUsers; // External array to store all registered users' addresses\r\n    address[] public adminAddresses; // Array to store all admin addresses\r\n\r\n    mapping(address => bool) public admins; // Mapping to keep track of admins\r\n    address public owner; // Contract owner\r\n\r\n    event UserRegistered(\r\n        address indexed userAddress,\r\n        string _name,\r\n        string email,\r\n        uint _age\r\n    );\r\n    event PasswordReset(\r\n        address indexed userAddress,\r\n        bytes32 oldHashedPassword,\r\n        bytes32 newHashedPassword\r\n    );\r\n    event InsuranceSubscribed(address indexed userAddress, uint256 insuranceId);\r\n    event AdminAssigned(address indexed adminAddress);\r\n    event AdminRemoved(address indexed adminAddress);\r\n\r\n    modifier onlyOwner() {\r\n        require(\r\n            msg.sender == owner,\r\n            \"Only contract owner can perform this action\"\r\n        );\r\n        _;\r\n    }\r\n\r\n    modifier onlyAdmin() {\r\n        require(admins[msg.sender], \"Only admins can perform this action\");\r\n        _;\r\n    }\r\n\r\n    constructor() {\r\n        owner = msg.sender; // Set contract creator as the first admin\r\n        admins[msg.sender] = true;\r\n        adminAddresses.push(msg.sender); // Add owner to adminAddresses array\r\n    }\r\n\r\n    // Register a new user with additional attributes and hashed password\r\n    function register(\r\n        string memory _name,\r\n        string memory _email,\r\n        uint _age,\r\n        string memory _password\r\n    ) public {\r\n        require(\r\n            !users[msg.sender].isRegistered,\r\n            \"User already registered with this address.\"\r\n        );\r\n        require(\r\n            emailToAddress[_email] == address(0),\r\n            \"Email is already registered by another user.\"\r\n        ); // Check if email is already used\r\n\r\n        bytes32 hashedPassword = keccak256(abi.encodePacked(_password)); // Hash the password\r\n        users[msg.sender] = User({\r\n            name: _name,\r\n            email: _email,\r\n            age: _age,\r\n            hashedPassword: hashedPassword,\r\n            isRegistered: true,\r\n            subscribedPackages: new uint256[](100)\r\n        });\r\n\r\n        // Map email to address for easy lookup\r\n        emailToAddress[_email] = msg.sender;\r\n\r\n        // Add the user address to the external registeredUsers array\r\n        registeredUsers.push(msg.sender);\r\n\r\n        emit UserRegistered(msg.sender, _name, _email, _age);\r\n    }\r\n\r\n    // Admin sign in using just the address\r\n    function adminSignIn(address _adminAddress) public view returns (bool) {\r\n        require(admins[_adminAddress], \"This address is not an admin.\"); // Check if the address is an admin\r\n\r\n        return true; // Admin sign-in successful\r\n    }\r\n\r\n    // Admin function to assign a new admin\r\n    function assignAdmin(address _adminAddress) public onlyOwner {\r\n        require(!admins[_adminAddress], \"This address is already an admin.\");\r\n        admins[_adminAddress] = true;\r\n\r\n        adminAddresses.push(_adminAddress); // Add to adminAddresses array\r\n\r\n        emit AdminAssigned(_adminAddress);\r\n    }\r\n\r\n    // Admin function to remove an admin\r\n    function removeAdmin(address _adminAddress) public onlyOwner {\r\n        require(admins[_adminAddress], \"This address is not an admin.\");\r\n        require(_adminAddress != owner, \"Owner cannot be removed as admin.\");\r\n        admins[_adminAddress] = false;\r\n\r\n        // Remove admin from adminAddresses array\r\n        for (uint i = 0; i < adminAddresses.length; i++) {\r\n            if (adminAddresses[i] == _adminAddress) {\r\n                adminAddresses[i] = adminAddresses[adminAddresses.length - 1];\r\n                adminAddresses.pop();\r\n                break;\r\n            }\r\n        }\r\n\r\n        emit AdminRemoved(_adminAddress);\r\n    }\r\n\r\n    // Sign in using either name or email and password\r\n    function signIn(\r\n        string memory _identifier,\r\n        string memory _password\r\n    ) public view returns (bool) {\r\n        address userAddress = emailToAddress[_identifier];\r\n\r\n        User memory user = users[userAddress];\r\n        require(user.isRegistered, \"User not registered.\");\r\n        require(\r\n            user.hashedPassword == keccak256(abi.encodePacked(_password)),\r\n            \"Password is incorrect.\"\r\n        );\r\n\r\n        return true; // Sign in successful\r\n    }\r\n\r\n    function resetPassword(\r\n        string memory _identifier,\r\n        string memory _newPassword\r\n    ) public {\r\n        require(users[msg.sender].isRegistered, \"User not registered.\");\r\n\r\n        bool isValid = keccak256(abi.encodePacked(users[msg.sender].email)) ==\r\n            keccak256(abi.encodePacked(_identifier));\r\n\r\n        require(isValid, \"Invalid email.\");\r\n\r\n        bytes32 newHashedPassword = keccak256(abi.encodePacked(_newPassword));\r\n        bytes32 oldHashedPassword = users[msg.sender].hashedPassword;\r\n\r\n        require(\r\n            newHashedPassword != oldHashedPassword,\r\n            \"New password cannot be the same as the old password.\"\r\n        );\r\n\r\n        users[msg.sender].hashedPassword = newHashedPassword;\r\n\r\n        emit PasswordReset(msg.sender, oldHashedPassword, newHashedPassword);\r\n    }\r\n\r\n    // Function to get all registered user addresses\r\n    function getAllRegisteredUsers() public view returns (address[] memory) {\r\n        return registeredUsers;\r\n    }\r\n\r\n    // Function to get all registered user addresses\r\n    function getAllAdmins() public view returns (address[] memory) {\r\n        return adminAddresses;\r\n    }\r\n}\r\n",
  "sourcePath": "C:\\Users\\keeke\\Desktop\\New folder\\Great_Global\\Danny_Test\\SponsorAnimals\\contracts\\UserAuth.sol",
  "compiler": {
    "name": "solc",
    "version": "0.8.0+commit.c7dfd78e.Emscripten.clang"
  },
  "schemaVersion": "3.4.16",
  "updatedAt": "2024-09-25T09:50:13.235Z",
  "networkType": "ethereum",
  "devdoc": {
    "kind": "dev",
    "methods": {},
    "version": 1
  },
  "userdoc": {
    "kind": "user",
    "methods": {},
    "version": 1
  }
}