{
  "contractName": "UserAuth",
  "abi": [
    {
      "inputs": [],
      "stateMutability": "nonpayable",
      "type": "constructor"
    },
    {
      "anonymous": false,
      "inputs": [
        {
          "indexed": true,
          "internalType": "address",
          "name": "adminAddress",
          "type": "address"
        }
      ],
      "name": "AdminAssigned",
      "type": "event"
    },
    {
      "anonymous": false,
      "inputs": [
        {
          "indexed": true,
          "internalType": "address",
          "name": "adminAddress",
          "type": "address"
        }
      ],
      "name": "AdminLoggedOut",
      "type": "event"
    },
    {
      "anonymous": false,
      "inputs": [
        {
          "indexed": true,
          "internalType": "address",
          "name": "adminAddress",
          "type": "address"
        }
      ],
      "name": "AdminRemoved",
      "type": "event"
    },
    {
      "anonymous": false,
      "inputs": [
        {
          "indexed": true,
          "internalType": "address",
          "name": "userAddress",
          "type": "address"
        },
        {
          "indexed": false,
          "internalType": "bytes32",
          "name": "oldHashedPassword",
          "type": "bytes32"
        },
        {
          "indexed": false,
          "internalType": "bytes32",
          "name": "newHashedPassword",
          "type": "bytes32"
        }
      ],
      "name": "PasswordReset",
      "type": "event"
    },
    {
      "anonymous": false,
      "inputs": [
        {
          "indexed": true,
          "internalType": "string",
          "name": "email",
          "type": "string"
        }
      ],
      "name": "UserLoggedOut",
      "type": "event"
    },
    {
      "anonymous": false,
      "inputs": [
        {
          "indexed": true,
          "internalType": "address",
          "name": "userAddress",
          "type": "address"
        },
        {
          "indexed": false,
          "internalType": "string",
          "name": "_name",
          "type": "string"
        },
        {
          "indexed": false,
          "internalType": "string",
          "name": "email",
          "type": "string"
        },
        {
          "indexed": false,
          "internalType": "uint256",
          "name": "_age",
          "type": "uint256"
        }
      ],
      "name": "UserRegistered",
      "type": "event"
    },
    {
      "inputs": [
        {
          "internalType": "uint256",
          "name": "",
          "type": "uint256"
        }
      ],
      "name": "adminAddresses",
      "outputs": [
        {
          "internalType": "address",
          "name": "",
          "type": "address"
        }
      ],
      "stateMutability": "view",
      "type": "function",
      "constant": true
    },
    {
      "inputs": [
        {
          "internalType": "address",
          "name": "",
          "type": "address"
        }
      ],
      "name": "admins",
      "outputs": [
        {
          "internalType": "bool",
          "name": "",
          "type": "bool"
        }
      ],
      "stateMutability": "view",
      "type": "function",
      "constant": true
    },
    {
      "inputs": [],
      "name": "currentAdmin",
      "outputs": [
        {
          "internalType": "address",
          "name": "",
          "type": "address"
        }
      ],
      "stateMutability": "view",
      "type": "function",
      "constant": true
    },
    {
      "inputs": [],
      "name": "currentUser",
      "outputs": [
        {
          "internalType": "string",
          "name": "",
          "type": "string"
        }
      ],
      "stateMutability": "view",
      "type": "function",
      "constant": true
    },
    {
      "inputs": [],
      "name": "owner",
      "outputs": [
        {
          "internalType": "address",
          "name": "",
          "type": "address"
        }
      ],
      "stateMutability": "view",
      "type": "function",
      "constant": true
    },
    {
      "inputs": [
        {
          "internalType": "uint256",
          "name": "",
          "type": "uint256"
        }
      ],
      "name": "registeredUserEmails",
      "outputs": [
        {
          "internalType": "string",
          "name": "",
          "type": "string"
        }
      ],
      "stateMutability": "view",
      "type": "function",
      "constant": true
    },
    {
      "inputs": [
        {
          "internalType": "string",
          "name": "_name",
          "type": "string"
        },
        {
          "internalType": "string",
          "name": "_email",
          "type": "string"
        },
        {
          "internalType": "uint256",
          "name": "_age",
          "type": "uint256"
        },
        {
          "internalType": "string",
          "name": "_password",
          "type": "string"
        },
        {
          "internalType": "address",
          "name": "_refundAddress",
          "type": "address"
        }
      ],
      "name": "register",
      "outputs": [],
      "stateMutability": "nonpayable",
      "type": "function"
    },
    {
      "inputs": [
        {
          "internalType": "address",
          "name": "_adminAddress",
          "type": "address"
        }
      ],
      "name": "adminSignIn",
      "outputs": [
        {
          "internalType": "bool",
          "name": "",
          "type": "bool"
        }
      ],
      "stateMutability": "nonpayable",
      "type": "function"
    },
    {
      "inputs": [
        {
          "internalType": "address",
          "name": "_adminAddress",
          "type": "address"
        }
      ],
      "name": "assignAdmin",
      "outputs": [],
      "stateMutability": "nonpayable",
      "type": "function"
    },
    {
      "inputs": [
        {
          "internalType": "address",
          "name": "_adminAddress",
          "type": "address"
        }
      ],
      "name": "removeAdmin",
      "outputs": [],
      "stateMutability": "nonpayable",
      "type": "function"
    },
    {
      "inputs": [
        {
          "internalType": "string",
          "name": "_identifier",
          "type": "string"
        },
        {
          "internalType": "string",
          "name": "_password",
          "type": "string"
        }
      ],
      "name": "signIn",
      "outputs": [
        {
          "internalType": "bool",
          "name": "",
          "type": "bool"
        }
      ],
      "stateMutability": "nonpayable",
      "type": "function"
    },
    {
      "inputs": [
        {
          "internalType": "string",
          "name": "_identifier",
          "type": "string"
        },
        {
          "internalType": "string",
          "name": "_newPassword",
          "type": "string"
        }
      ],
      "name": "resetPassword",
      "outputs": [],
      "stateMutability": "nonpayable",
      "type": "function"
    },
    {
      "inputs": [],
      "name": "logoutUser",
      "outputs": [],
      "stateMutability": "nonpayable",
      "type": "function"
    },
    {
      "inputs": [],
      "name": "logoutAdmin",
      "outputs": [],
      "stateMutability": "nonpayable",
      "type": "function"
    },
    {
      "inputs": [],
      "name": "getAllRegisteredUsers",
      "outputs": [
        {
          "internalType": "string[]",
          "name": "",
          "type": "string[]"
        }
      ],
      "stateMutability": "view",
      "type": "function",
      "constant": true
    },
    {
      "inputs": [],
      "name": "getAllAdmins",
      "outputs": [
        {
          "internalType": "address[]",
          "name": "",
          "type": "address[]"
        }
      ],
      "stateMutability": "view",
      "type": "function",
      "constant": true
    },
    {
      "inputs": [],
      "name": "getUserAge",
      "outputs": [
        {
          "internalType": "uint256",
          "name": "",
          "type": "uint256"
        }
      ],
      "stateMutability": "view",
      "type": "function",
      "constant": true
    },
    {
      "inputs": [],
      "name": "getCurrentUser",
      "outputs": [
        {
          "internalType": "string",
          "name": "",
          "type": "string"
        }
      ],
      "stateMutability": "view",
      "type": "function",
      "constant": true
    },
    {
      "inputs": [],
      "name": "getCurrentAdmin",
      "outputs": [
        {
          "internalType": "address",
          "name": "",
          "type": "address"
        }
      ],
      "stateMutability": "view",
      "type": "function",
      "constant": true
    }
  ],
  "bytecode": "0x608060405234801561001057600080fd5b5033600460006101000a81548173ffffffffffffffffffffffffffffffffffffffff021916908373ffffffffffffffffffffffffffffffffffffffff1602179055506001600360003373ffffffffffffffffffffffffffffffffffffffff1673ffffffffffffffffffffffffffffffffffffffff16815260200190815260200160002060006101000a81548160ff0219169083151502179055506002339080600181540180825580915050600190039060005260206000200160009091909190916101000a81548173ffffffffffffffffffffffffffffffffffffffff021916908373ffffffffffffffffffffffffffffffffffffffff160217905550612b4e8061011c6000396000f3fe608060405234801561001057600080fd5b50600436106101215760003560e01c80636b9624cc116100ad578063ba44eecf11610071578063ba44eecf146102e4578063ba4bcd7214610314578063c8518ecb14610332578063d8f145d214610362578063e9523c971461036c57610121565b80636b9624cc146102645780637c2bb5d31461026e5780637cae3d4d1461028a5780638da5cb5b146102a857806392ee0334146102c657610121565b8063429b62e5116100f4578063429b62e5146101ac57806343ae37c3146101dc5780635a06a718146101fa578063643d430c1461022a578063679a9c2c1461024857610121565b80631785f53c146101265780632c162dbc14610142578063397388af146101725780633da7d2ed14610190575b600080fd5b610140600480360381019061013b9190611ce9565b61038a565b005b61015c60048036038101906101579190611d12565b61088b565b6040516101699190612583565b60405180910390f35b61017a610b8c565b6040516101879190612561565b60405180910390f35b6101aa60048036038101906101a59190611ce9565b610c65565b005b6101c660048036038101906101c19190611ce9565b610f13565b6040516101d39190612583565b60405180910390f35b6101e4610f33565b6040516101f191906125c7565b60405180910390f35b610214600480360381019061020f9190611e3d565b610fc5565b60405161022191906125c7565b60405180910390f35b610232611071565b60405161023f9190612524565b60405180910390f35b610262600480360381019061025d9190611d12565b61109b565b005b61026c6112cc565b005b61028860048036038101906102839190611d7e565b611407565b005b610292611794565b60405161029f91906127ce565b60405180910390f35b6102b061182c565b6040516102bd9190612524565b60405180910390f35b6102ce611852565b6040516102db91906125c7565b60405180910390f35b6102fe60048036038101906102f99190611e3d565b6118e0565b60405161030b9190612524565b60405180910390f35b61031c61191f565b6040516103299190612524565b60405180910390f35b61034c60048036038101906103479190611ce9565b611945565b6040516103599190612583565b60405180910390f35b61036a611a1d565b005b610374611ad9565b604051610381919061253f565b60405180910390f35b600460009054906101000a900473ffffffffffffffffffffffffffffffffffffffff1673ffffffffffffffffffffffffffffffffffffffff163373ffffffffffffffffffffffffffffffffffffffff161461041a576040517f08c379a00000000000000000000000000000000000000000000000000000000081526004016104119061264e565b60405180910390fd5b600660009054906101000a900473ffffffffffffffffffffffffffffffffffffffff1673ffffffffffffffffffffffffffffffffffffffff163373ffffffffffffffffffffffffffffffffffffffff16146104aa576040517f08c379a00000000000000000000000000000000000000000000000000000000081526004016104a19061266e565b60405180910390fd5b600360008273ffffffffffffffffffffffffffffffffffffffff1673ffffffffffffffffffffffffffffffffffffffff16815260200190815260200160002060009054906101000a900460ff16610536576040517f08c379a000000000000000000000000000000000000000000000000000000000815260040161052d906126ae565b60405180910390fd5b600460009054906101000a900473ffffffffffffffffffffffffffffffffffffffff1673ffffffffffffffffffffffffffffffffffffffff168173ffffffffffffffffffffffffffffffffffffffff1614156105c7576040517f08c379a00000000000000000000000000000000000000000000000000000000081526004016105be9061272e565b60405180910390fd5b6000600360008373ffffffffffffffffffffffffffffffffffffffff1673ffffffffffffffffffffffffffffffffffffffff16815260200190815260200160002060006101000a81548160ff02191690831515021790555060005b600280549050811015610844578173ffffffffffffffffffffffffffffffffffffffff1660028281548110610680577f4e487b7100000000000000000000000000000000000000000000000000000000600052603260045260246000fd5b9060005260206000200160009054906101000a900473ffffffffffffffffffffffffffffffffffffffff1673ffffffffffffffffffffffffffffffffffffffff16141561083157600260016002805490506106db9190612909565b81548110610712577f4e487b7100000000000000000000000000000000000000000000000000000000600052603260045260246000fd5b9060005260206000200160009054906101000a900473ffffffffffffffffffffffffffffffffffffffff1660028281548110610777577f4e487b7100000000000000000000000000000000000000000000000000000000600052603260045260246000fd5b9060005260206000200160006101000a81548173ffffffffffffffffffffffffffffffffffffffff021916908373ffffffffffffffffffffffffffffffffffffffff16021790555060028054806107f7577f4e487b7100000000000000000000000000000000000000000000000000000000600052603160045260246000fd5b6001900381819060005260206000200160006101000a81549073ffffffffffffffffffffffffffffffffffffffff02191690559055610844565b808061083c90612a03565b915050610622565b508073ffffffffffffffffffffffffffffffffffffffff167fa3b62bc36326052d97ea62d63c3d60308ed4c3ea8ac079dd8499f1e9c4f80c0f60405160405180910390a250565b60008060008460405161089e91906124f6565b90815260200160405180910390206040518060e00160405290816000820180546108c7906129d1565b80601f01602080910402602001604051908101604052809291908181526020018280546108f3906129d1565b80156109405780601f1061091557610100808354040283529160200191610940565b820191906000526020600020905b81548152906001019060200180831161092357829003601f168201915b50505050508152602001600182018054610959906129d1565b80601f0160208091040260200160405190810160405280929190818152602001828054610985906129d1565b80156109d25780601f106109a7576101008083540402835291602001916109d2565b820191906000526020600020905b8154815290600101906020018083116109b557829003601f168201915b505050505081526020016002820160009054906101000a900473ffffffffffffffffffffffffffffffffffffffff1673ffffffffffffffffffffffffffffffffffffffff1673ffffffffffffffffffffffffffffffffffffffff16815260200160038201548152602001600482015481526020016005820160009054906101000a900460ff1615151515815260200160068201805480602002602001604051908101604052809291908181526020018280548015610aaf57602002820191906000526020600020905b815481526020019060010190808311610a9b575b50505050508152505090508060a00151610afe576040517f08c379a0000000000000000000000000000000000000000000000000000000008152600401610af59061274e565b60405180910390fd5b82604051602001610b0f91906124f6565b60405160208183030381529060405280519060200120816080015114610b6a576040517f08c379a0000000000000000000000000000000000000000000000000000000008152600401610b61906126ce565b60405180910390fd5b8360059080519060200190610b80929190611b67565b50600191505092915050565b60606001805480602002602001604051908101604052809291908181526020016000905b82821015610c5c578382906000526020600020018054610bcf906129d1565b80601f0160208091040260200160405190810160405280929190818152602001828054610bfb906129d1565b8015610c485780601f10610c1d57610100808354040283529160200191610c48565b820191906000526020600020905b815481529060010190602001808311610c2b57829003601f168201915b505050505081526020019060010190610bb0565b50505050905090565b600460009054906101000a900473ffffffffffffffffffffffffffffffffffffffff1673ffffffffffffffffffffffffffffffffffffffff163373ffffffffffffffffffffffffffffffffffffffff1614610cf5576040517f08c379a0000000000000000000000000000000000000000000000000000000008152600401610cec9061264e565b60405180910390fd5b600660009054906101000a900473ffffffffffffffffffffffffffffffffffffffff1673ffffffffffffffffffffffffffffffffffffffff163373ffffffffffffffffffffffffffffffffffffffff1614610d85576040517f08c379a0000000000000000000000000000000000000000000000000000000008152600401610d7c9061266e565b60405180910390fd5b600360008273ffffffffffffffffffffffffffffffffffffffff1673ffffffffffffffffffffffffffffffffffffffff16815260200190815260200160002060009054906101000a900460ff1615610e12576040517f08c379a0000000000000000000000000000000000000000000000000000000008152600401610e099061276e565b60405180910390fd5b6001600360008373ffffffffffffffffffffffffffffffffffffffff1673ffffffffffffffffffffffffffffffffffffffff16815260200190815260200160002060006101000a81548160ff0219169083151502179055506002819080600181540180825580915050600190039060005260206000200160009091909190916101000a81548173ffffffffffffffffffffffffffffffffffffffff021916908373ffffffffffffffffffffffffffffffffffffffff1602179055508073ffffffffffffffffffffffffffffffffffffffff167fdb33970bd9bc1a413c7dac3b21e061709de094761c9396ef6d49b9ebdb79393360405160405180910390a250565b60036020528060005260406000206000915054906101000a900460ff1681565b606060058054610f42906129d1565b80601f0160208091040260200160405190810160405280929190818152602001828054610f6e906129d1565b8015610fbb5780601f10610f9057610100808354040283529160200191610fbb565b820191906000526020600020905b815481529060010190602001808311610f9e57829003601f168201915b5050505050905090565b60018181548110610fd557600080fd5b906000526020600020016000915090508054610ff0906129d1565b80601f016020809104026020016040519081016040528092919081815260200182805461101c906129d1565b80156110695780601f1061103e57610100808354040283529160200191611069565b820191906000526020600020905b81548152906001019060200180831161104c57829003601f168201915b505050505081565b6000600660009054906101000a900473ffffffffffffffffffffffffffffffffffffffff16905090565b6000826040516110ab91906124f6565b908152602001604051809103902060050160009054906101000a900460ff16611109576040517f08c379a00000000000000000000000000000000000000000000000000000000081526004016111009061274e565b60405180910390fd5b60008260405160200161111c91906124f6565b6040516020818303038152906040528051906020012060008460405161114291906124f6565b9081526020016040518091039020600101604051602001611163919061250d565b60405160208183030381529060405280519060200120149050806111bc576040517f08c379a00000000000000000000000000000000000000000000000000000000081526004016111b39061268e565b60405180910390fd5b6000826040516020016111cf91906124f6565b604051602081830303815290604052805190602001209050600080856040516111f891906124f6565b90815260200160405180910390206004015490508082141561124f576040517f08c379a00000000000000000000000000000000000000000000000000000000081526004016112469061270e565b60405180910390fd5b8160008660405161126091906124f6565b9081526020016040518091039020600401819055503373ffffffffffffffffffffffffffffffffffffffff167f1b50a644b0847d53b0509345d2ba19a27e755cb5c52b363d882785c5ff7bee7982846040516112bd92919061259e565b60405180910390a25050505050565b600073ffffffffffffffffffffffffffffffffffffffff16600660009054906101000a900473ffffffffffffffffffffffffffffffffffffffff1673ffffffffffffffffffffffffffffffffffffffff16141561135e576040517f08c379a00000000000000000000000000000000000000000000000000000000081526004016113559061278e565b60405180910390fd5b600660009054906101000a900473ffffffffffffffffffffffffffffffffffffffff1673ffffffffffffffffffffffffffffffffffffffff167f7f7a416fbf0cacca70e58b8eee9540ca8335651c62f987f130ae945a0d210d3960405160405180910390a26000600660006101000a81548173ffffffffffffffffffffffffffffffffffffffff021916908373ffffffffffffffffffffffffffffffffffffffff160217905550565b60006001905060005b60018054905081101561150c5760018181548110611457577f4e487b7100000000000000000000000000000000000000000000000000000000600052603260045260246000fd5b90600052602060002001604051602001611471919061250d565b604051602081830303815290604052805190602001208660405160200161149891906124f6565b6040516020818303038152906040528051906020012014156114b957600091505b816114f9576040517f08c379a00000000000000000000000000000000000000000000000000000000081526004016114f0906126ee565b60405180910390fd5b808061150490612a03565b915050611410565b5060008360405160200161152091906124f6565b6040516020818303038152906040528051906020012090506040518060e001604052808881526020018781526020018473ffffffffffffffffffffffffffffffffffffffff168152602001868152602001828152602001600115158152602001606467ffffffffffffffff8111156115c1577f4e487b7100000000000000000000000000000000000000000000000000000000600052604160045260246000fd5b6040519080825280602002602001820160405280156115ef5781602001602082028036833780820191505090505b5081525060008760405161160391906124f6565b9081526020016040518091039020600082015181600001908051906020019061162d929190611b67565b50602082015181600101908051906020019061164a929190611b67565b5060408201518160020160006101000a81548173ffffffffffffffffffffffffffffffffffffffff021916908373ffffffffffffffffffffffffffffffffffffffff160217905550606082015181600301556080820151816004015560a08201518160050160006101000a81548160ff02191690831515021790555060c08201518160060190805190602001906116e2929190611bed565b50905050600186908060018154018082558091505060019003906000526020600020016000909190919091509080519060200190611721929190611b67565b508560059080519060200190611738929190611b67565b503373ffffffffffffffffffffffffffffffffffffffff167fb43e07573ffd613ee4cb14f22ebd42b902fb524682771d8e82932bd48bcda247888888604051611783939291906125e9565b60405180910390a250505050505050565b60008060056040516117a6919061250d565b908152602001604051809103902060050160009054906101000a900460ff16611804576040517f08c379a00000000000000000000000000000000000000000000000000000000081526004016117fb9061262e565b60405180910390fd5b60006005604051611815919061250d565b908152602001604051809103902060030154905090565b600460009054906101000a900473ffffffffffffffffffffffffffffffffffffffff1681565b6005805461185f906129d1565b80601f016020809104026020016040519081016040528092919081815260200182805461188b906129d1565b80156118d85780601f106118ad576101008083540402835291602001916118d8565b820191906000526020600020905b8154815290600101906020018083116118bb57829003601f168201915b505050505081565b600281815481106118f057600080fd5b906000526020600020016000915054906101000a900473ffffffffffffffffffffffffffffffffffffffff1681565b600660009054906101000a900473ffffffffffffffffffffffffffffffffffffffff1681565b6000600360008373ffffffffffffffffffffffffffffffffffffffff1673ffffffffffffffffffffffffffffffffffffffff16815260200190815260200160002060009054906101000a900460ff166119d3576040517f08c379a00000000000000000000000000000000000000000000000000000000081526004016119ca906126ae565b60405180910390fd5b81600660006101000a81548173ffffffffffffffffffffffffffffffffffffffff021916908373ffffffffffffffffffffffffffffffffffffffff16021790555060019050919050565b600060058054611a2c906129d1565b905011611a6e576040517f08c379a0000000000000000000000000000000000000000000000000000000008152600401611a65906127ae565b60405180910390fd5b6005604051611a7d919061250d565b60405180910390207f34ed8fb20d85b6fb0e3319e6d5a3ffdec9605b798082611f73aaab3e4ad7d43060405160405180910390a26040518060200160405280600081525060059080519060200190611ad6929190611b67565b50565b60606002805480602002602001604051908101604052809291908181526020018280548015611b5d57602002820191906000526020600020905b8160009054906101000a900473ffffffffffffffffffffffffffffffffffffffff1673ffffffffffffffffffffffffffffffffffffffff1681526020019060010190808311611b13575b5050505050905090565b828054611b73906129d1565b90600052602060002090601f016020900481019282611b955760008555611bdc565b82601f10611bae57805160ff1916838001178555611bdc565b82800160010185558215611bdc579182015b82811115611bdb578251825591602001919060010190611bc0565b5b509050611be99190611c3a565b5090565b828054828255906000526020600020908101928215611c29579160200282015b82811115611c28578251825591602001919060010190611c0d565b5b509050611c369190611c3a565b5090565b5b80821115611c53576000816000905550600101611c3b565b5090565b6000611c6a611c658461281a565b6127e9565b905082815260208101848484011115611c8257600080fd5b611c8d84828561298f565b509392505050565b600081359050611ca481612aea565b92915050565b600082601f830112611cbb57600080fd5b8135611ccb848260208601611c57565b91505092915050565b600081359050611ce381612b01565b92915050565b600060208284031215611cfb57600080fd5b6000611d0984828501611c95565b91505092915050565b60008060408385031215611d2557600080fd5b600083013567ffffffffffffffff811115611d3f57600080fd5b611d4b85828601611caa565b925050602083013567ffffffffffffffff811115611d6857600080fd5b611d7485828601611caa565b9150509250929050565b600080600080600060a08688031215611d9657600080fd5b600086013567ffffffffffffffff811115611db057600080fd5b611dbc88828901611caa565b955050602086013567ffffffffffffffff811115611dd957600080fd5b611de588828901611caa565b9450506040611df688828901611cd4565b935050606086013567ffffffffffffffff811115611e1357600080fd5b611e1f88828901611caa565b9250506080611e3088828901611c95565b9150509295509295909350565b600060208284031215611e4f57600080fd5b6000611e5d84828501611cd4565b91505092915050565b6000611e728383611e92565b60208301905092915050565b6000611e8a8383611fa1565b905092915050565b611e9b8161293d565b82525050565b611eaa8161293d565b82525050565b6000611ebb8261287f565b611ec581856128ba565b9350611ed08361284a565b8060005b83811015611f01578151611ee88882611e66565b9750611ef3836128a0565b925050600181019050611ed4565b5085935050505092915050565b6000611f198261288a565b611f2381856128cb565b935083602082028501611f358561285a565b8060005b85811015611f715784840389528151611f528582611e7e565b9450611f5d836128ad565b925060208a01995050600181019050611f39565b50829750879550505050505092915050565b611f8c8161294f565b82525050565b611f9b8161295b565b82525050565b6000611fac82612895565b611fb681856128dc565b9350611fc681856020860161299e565b611fcf81612ad9565b840191505092915050565b6000611fe582612895565b611fef81856128ed565b9350611fff81856020860161299e565b61200881612ad9565b840191505092915050565b600061201e82612895565b61202881856128fe565b935061203881856020860161299e565b80840191505092915050565b60008154612051816129d1565b61205b81866128fe565b945060018216600081146120765760018114612087576120ba565b60ff198316865281860193506120ba565b6120908561286a565b60005b838110156120b257815481890152600182019150602081019050612093565b838801955050505b50505092915050565b60006120d06013836128ed565b91507f55736572206e6f742072656769737465726564000000000000000000000000006000830152602082019050919050565b6000612110602b836128ed565b91507f4f6e6c7920636f6e7472616374206f776e65722063616e20706572666f726d2060008301527f7468697320616374696f6e0000000000000000000000000000000000000000006020830152604082019050919050565b6000612176603a836128ed565b91507f4d6574616d61736b206163636f756e7420616e6420616464726573732075736560008301527f6420746f207369676e20696e20646f206e6f74206d617463682e0000000000006020830152604082019050919050565b60006121dc600e836128ed565b91507f496e76616c696420656d61696c2e0000000000000000000000000000000000006000830152602082019050919050565b600061221c601d836128ed565b91507f546869732061646472657373206973206e6f7420616e2061646d696e2e0000006000830152602082019050919050565b600061225c6016836128ed565b91507f50617373776f726420697320696e636f72726563742e000000000000000000006000830152602082019050919050565b600061229c602c836128ed565b91507f456d61696c20697320616c72656164792072656769737465726564206279206160008301527f6e6f7468657220757365722e00000000000000000000000000000000000000006020830152604082019050919050565b60006123026034836128ed565b91507f4e65772070617373776f72642063616e6e6f74206265207468652073616d652060008301527f617320746865206f6c642070617373776f72642e0000000000000000000000006020830152604082019050919050565b60006123686021836128ed565b91507f4f776e65722063616e6e6f742062652072656d6f7665642061732061646d696e60008301527f2e000000000000000000000000000000000000000000000000000000000000006020830152604082019050919050565b60006123ce6014836128ed565b91507f55736572206e6f7420726567697374657265642e0000000000000000000000006000830152602082019050919050565b600061240e6021836128ed565b91507f54686973206164647265737320697320616c726561647920616e2061646d696e60008301527f2e000000000000000000000000000000000000000000000000000000000000006020830152604082019050919050565b60006124746020836128ed565b91507f4e6f2061646d696e2069732063757272656e746c79207369676e656420696e2e6000830152602082019050919050565b60006124b4601f836128ed565b91507f4e6f20757365722069732063757272656e746c79207369676e656420696e2e006000830152602082019050919050565b6124f081612985565b82525050565b60006125028284612013565b915081905092915050565b60006125198284612044565b915081905092915050565b60006020820190506125396000830184611ea1565b92915050565b600060208201905081810360008301526125598184611eb0565b905092915050565b6000602082019050818103600083015261257b8184611f0e565b905092915050565b60006020820190506125986000830184611f83565b92915050565b60006040820190506125b36000830185611f92565b6125c06020830184611f92565b9392505050565b600060208201905081810360008301526125e18184611fda565b905092915050565b600060608201905081810360008301526126038186611fda565b905081810360208301526126178185611fda565b905061262660408301846124e7565b949350505050565b60006020820190508181036000830152612647816120c3565b9050919050565b6000602082019050818103600083015261266781612103565b9050919050565b6000602082019050818103600083015261268781612169565b9050919050565b600060208201905081810360008301526126a7816121cf565b9050919050565b600060208201905081810360008301526126c78161220f565b9050919050565b600060208201905081810360008301526126e78161224f565b9050919050565b600060208201905081810360008301526127078161228f565b9050919050565b60006020820190508181036000830152612727816122f5565b9050919050565b600060208201905081810360008301526127478161235b565b9050919050565b60006020820190508181036000830152612767816123c1565b9050919050565b6000602082019050818103600083015261278781612401565b9050919050565b600060208201905081810360008301526127a781612467565b9050919050565b600060208201905081810360008301526127c7816124a7565b9050919050565b60006020820190506127e360008301846124e7565b92915050565b6000604051905081810181811067ffffffffffffffff821117156128105761280f612aaa565b5b8060405250919050565b600067ffffffffffffffff82111561283557612834612aaa565b5b601f19601f8301169050602081019050919050565b6000819050602082019050919050565b6000819050602082019050919050565b60008190508160005260206000209050919050565b600081519050919050565b600081519050919050565b600081519050919050565b6000602082019050919050565b6000602082019050919050565b600082825260208201905092915050565b600082825260208201905092915050565b600082825260208201905092915050565b600082825260208201905092915050565b600081905092915050565b600061291482612985565b915061291f83612985565b92508282101561293257612931612a4c565b5b828203905092915050565b600061294882612965565b9050919050565b60008115159050919050565b6000819050919050565b600073ffffffffffffffffffffffffffffffffffffffff82169050919050565b6000819050919050565b82818337600083830152505050565b60005b838110156129bc5780820151818401526020810190506129a1565b838111156129cb576000848401525b50505050565b600060028204905060018216806129e957607f821691505b602082108114156129fd576129fc612a7b565b5b50919050565b6000612a0e82612985565b91507fffffffffffffffffffffffffffffffffffffffffffffffffffffffffffffffff821415612a4157612a40612a4c565b5b600182019050919050565b7f4e487b7100000000000000000000000000000000000000000000000000000000600052601160045260246000fd5b7f4e487b7100000000000000000000000000000000000000000000000000000000600052602260045260246000fd5b7f4e487b7100000000000000000000000000000000000000000000000000000000600052604160045260246000fd5b6000601f19601f8301169050919050565b612af38161293d565b8114612afe57600080fd5b50565b612b0a81612985565b8114612b1557600080fd5b5056fea2646970667358221220a96da3d22a9a2ce9a769ae24e3a9e2dbf5468a7cb49195ffee9ab493d480ef6964736f6c63430008000033",
  "immutableReferences": {},
  "source": "// SPDX-License-Identifier: MIT\r\npragma solidity ^0.8.0;\r\n\r\ncontract UserAuth {\r\n    struct User {\r\n        string name;\r\n        string email;\r\n        address refundAddress;\r\n        uint age;\r\n        bytes32 hashedPassword;\r\n        bool isRegistered;\r\n        uint256[] subscribedPackages;\r\n    }\r\n\r\n    mapping(string => User) private users;\r\n\r\n    string[] public registeredUserEmails; // External array to store all registered users' email\r\n    address[] public adminAddresses; // Array to store all admin addresses\r\n\r\n    mapping(address => bool) public admins; // Mapping to keep track of admins\r\n    address public owner; // Contract owner\r\n\r\n    string public currentUser; // For other contracts to know who the current user is\r\n    address public currentAdmin; // For other contracts to know who the current admin is\r\n\r\n    event UserRegistered(\r\n        address indexed userAddress,\r\n        string _name,\r\n        string email,\r\n        uint _age\r\n    );\r\n    event PasswordReset(\r\n        address indexed userAddress,\r\n        bytes32 oldHashedPassword,\r\n        bytes32 newHashedPassword\r\n    );\r\n    event AdminAssigned(address indexed adminAddress);\r\n    event AdminRemoved(address indexed adminAddress);\r\n    event UserLoggedOut(string indexed email);\r\n    event AdminLoggedOut(address indexed adminAddress);\r\n\r\n    modifier onlyOwner() {\r\n        require(\r\n            msg.sender == owner,\r\n            \"Only contract owner can perform this action\"\r\n        );\r\n        _;\r\n    }\r\n\r\n    modifier onlyAdmin() {\r\n        require(admins[msg.sender], \"Only admins can perform this action\");\r\n        _;\r\n    }\r\n\r\n    modifier sameAdmin() {\r\n        require(\r\n            msg.sender == currentAdmin,\r\n            \"Metamask account and address used to sign in do not match.\"\r\n        );\r\n        _;\r\n    }\r\n\r\n    constructor() {\r\n        owner = msg.sender; // Set contract creator as the first admin\r\n        admins[msg.sender] = true;\r\n        adminAddresses.push(msg.sender); // Add owner to adminAddresses array\r\n    }\r\n\r\n    // Register a new user with additional attributes and hashed password\r\n    function register(\r\n        string memory _name,\r\n        string memory _email,\r\n        uint _age,\r\n        string memory _password,\r\n        address _refundAddress\r\n    ) public {\r\n        bool validEmail = true;\r\n        for (uint i = 0; i < registeredUserEmails.length; i++) {\r\n            if (\r\n                keccak256(abi.encodePacked(_email)) ==\r\n                keccak256(abi.encodePacked(registeredUserEmails[i]))\r\n            ) {\r\n                validEmail = false;\r\n            }\r\n            require(validEmail, \"Email is already registered by another user.\");\r\n        }\r\n\r\n        bytes32 hashedPassword = keccak256(abi.encodePacked(_password)); // Hash the password\r\n        users[_email] = User({\r\n            name: _name,\r\n            email: _email,\r\n            age: _age,\r\n            refundAddress: _refundAddress,\r\n            hashedPassword: hashedPassword,\r\n            isRegistered: true,\r\n            subscribedPackages: new uint256[](100)\r\n        });\r\n\r\n        // Add the user address to the external registeredUsers array\r\n        registeredUserEmails.push(_email);\r\n        currentUser = _email;\r\n\r\n        emit UserRegistered(msg.sender, _name, _email, _age);\r\n    }\r\n\r\n    // Admin sign in using just the address\r\n    function adminSignIn(address _adminAddress) public returns (bool) {\r\n        require(admins[_adminAddress], \"This address is not an admin.\");\r\n\r\n        currentAdmin = _adminAddress;\r\n        return true;\r\n    }\r\n\r\n    // Admin function to assign a new admin\r\n    function assignAdmin(address _adminAddress) public onlyOwner sameAdmin {\r\n        require(!admins[_adminAddress], \"This address is already an admin.\");\r\n        admins[_adminAddress] = true;\r\n\r\n        adminAddresses.push(_adminAddress);\r\n\r\n        emit AdminAssigned(_adminAddress);\r\n    }\r\n\r\n    // Admin function to remove an admin\r\n    function removeAdmin(address _adminAddress) public onlyOwner sameAdmin {\r\n        require(admins[_adminAddress], \"This address is not an admin.\");\r\n        require(_adminAddress != owner, \"Owner cannot be removed as admin.\");\r\n        admins[_adminAddress] = false;\r\n\r\n        for (uint i = 0; i < adminAddresses.length; i++) {\r\n            if (adminAddresses[i] == _adminAddress) {\r\n                adminAddresses[i] = adminAddresses[adminAddresses.length - 1];\r\n                adminAddresses.pop();\r\n                break;\r\n            }\r\n        }\r\n\r\n        emit AdminRemoved(_adminAddress);\r\n    }\r\n\r\n    // Sign in using email and password\r\n    function signIn(string memory _identifier, string memory _password) public returns (bool) {\r\n        User memory user = users[_identifier];\r\n        require(user.isRegistered, \"User not registered.\");\r\n        require(\r\n            user.hashedPassword == keccak256(abi.encodePacked(_password)),\r\n            \"Password is incorrect.\"\r\n        );\r\n\r\n        currentUser = _identifier;\r\n        return true;\r\n    }\r\n\r\n    // Reset password\r\n    function resetPassword(\r\n        string memory _identifier,\r\n        string memory _newPassword\r\n    ) public {\r\n        require(users[_identifier].isRegistered, \"User not registered.\");\r\n        bool isValid = keccak256(abi.encodePacked(users[_identifier].email)) ==\r\n            keccak256(abi.encodePacked(_identifier));\r\n        require(isValid, \"Invalid email.\");\r\n\r\n        bytes32 newHashedPassword = keccak256(abi.encodePacked(_newPassword));\r\n        bytes32 oldHashedPassword = users[_identifier].hashedPassword;\r\n\r\n        require(\r\n            newHashedPassword != oldHashedPassword,\r\n            \"New password cannot be the same as the old password.\"\r\n        );\r\n\r\n        users[_identifier].hashedPassword = newHashedPassword;\r\n\r\n        emit PasswordReset(msg.sender, oldHashedPassword, newHashedPassword);\r\n    }\r\n\r\n    // Logout for the current user\r\n    function logoutUser() public {\r\n        require(bytes(currentUser).length > 0, \"No user is currently signed in.\");\r\n        emit UserLoggedOut(currentUser);\r\n        currentUser = \"\"; // Reset current user\r\n    }\r\n\r\n    // Logout for the current admin\r\n    function logoutAdmin() public {\r\n        require(currentAdmin != address(0), \"No admin is currently signed in.\");\r\n        emit AdminLoggedOut(currentAdmin);\r\n        currentAdmin = address(0); // Reset current admin\r\n    }\r\n\r\n    // Function to get all registered user emails\r\n    function getAllRegisteredUsers() public view returns (string[] memory) {\r\n        return registeredUserEmails;\r\n    }\r\n\r\n    // Function to get all registered admin addresses\r\n    function getAllAdmins() public view returns (address[] memory) {\r\n        return adminAddresses;\r\n    }\r\n\r\n    function getUserAge() public view returns (uint) {\r\n        require(users[currentUser].isRegistered, \"User not registered\");\r\n        return users[currentUser].age;\r\n    }\r\n\r\n    function getCurrentUser() public view returns (string memory) {\r\n        return (currentUser);\r\n    }\r\n\r\n    function getCurrentAdmin() public view returns (address) {\r\n        return (currentAdmin);\r\n    }\r\n}\r\n",
  "sourcePath": "C:\\Users\\keeke\\Desktop\\BlockChain\\Great_Global\\Danny_Test\\SponsorAnimals\\contracts\\UserAuth.sol",
  "compiler": {
    "name": "solc",
    "version": "0.8.0+commit.c7dfd78e.Emscripten.clang"
  },
  "schemaVersion": "3.4.16",
  "updatedAt": "2024-09-25T22:34:08.819Z",
  "networkType": "ethereum",
  "devdoc": {
    "kind": "dev",
    "methods": {},
    "version": 1
  },
  "userdoc": {
    "kind": "user",
    "methods": {},
    "version": 1
  }
}