{
  "contractName": "UserAuth",
  "abi": [
    {
      "inputs": [],
      "stateMutability": "nonpayable",
      "type": "constructor"
    },
    {
      "anonymous": false,
      "inputs": [
        {
          "indexed": true,
          "internalType": "address",
          "name": "adminAddress",
          "type": "address"
        }
      ],
      "name": "AdminAssigned",
      "type": "event"
    },
    {
      "anonymous": false,
      "inputs": [
        {
          "indexed": true,
          "internalType": "address",
          "name": "adminAddress",
          "type": "address"
        }
      ],
      "name": "AdminRemoved",
      "type": "event"
    },
    {
      "anonymous": false,
      "inputs": [
        {
          "indexed": true,
          "internalType": "address",
          "name": "userAddress",
          "type": "address"
        },
        {
          "indexed": false,
          "internalType": "uint256",
          "name": "insuranceId",
          "type": "uint256"
        }
      ],
      "name": "InsuranceSubscribed",
      "type": "event"
    },
    {
      "anonymous": false,
      "inputs": [
        {
          "indexed": true,
          "internalType": "address",
          "name": "userAddress",
          "type": "address"
        },
        {
          "indexed": false,
          "internalType": "bytes32",
          "name": "oldHashedPassword",
          "type": "bytes32"
        },
        {
          "indexed": false,
          "internalType": "bytes32",
          "name": "newHashedPassword",
          "type": "bytes32"
        }
      ],
      "name": "PasswordReset",
      "type": "event"
    },
    {
      "anonymous": false,
      "inputs": [
        {
          "indexed": true,
          "internalType": "address",
          "name": "userAddress",
          "type": "address"
        },
        {
          "indexed": false,
          "internalType": "string",
          "name": "_name",
          "type": "string"
        },
        {
          "indexed": false,
          "internalType": "string",
          "name": "email",
          "type": "string"
        },
        {
          "indexed": false,
          "internalType": "uint256",
          "name": "_age",
          "type": "uint256"
        }
      ],
      "name": "UserRegistered",
      "type": "event"
    },
    {
      "inputs": [
        {
          "internalType": "uint256",
          "name": "",
          "type": "uint256"
        }
      ],
      "name": "adminAddresses",
      "outputs": [
        {
          "internalType": "address",
          "name": "",
          "type": "address"
        }
      ],
      "stateMutability": "view",
      "type": "function",
      "constant": true
    },
    {
      "inputs": [
        {
          "internalType": "address",
          "name": "",
          "type": "address"
        }
      ],
      "name": "admins",
      "outputs": [
        {
          "internalType": "bool",
          "name": "",
          "type": "bool"
        }
      ],
      "stateMutability": "view",
      "type": "function",
      "constant": true
    },
    {
      "inputs": [],
      "name": "owner",
      "outputs": [
        {
          "internalType": "address",
          "name": "",
          "type": "address"
        }
      ],
      "stateMutability": "view",
      "type": "function",
      "constant": true
    },
    {
      "inputs": [
        {
          "internalType": "uint256",
          "name": "",
          "type": "uint256"
        }
      ],
      "name": "registeredUsers",
      "outputs": [
        {
          "internalType": "address",
          "name": "",
          "type": "address"
        }
      ],
      "stateMutability": "view",
      "type": "function",
      "constant": true
    },
    {
      "inputs": [
        {
          "internalType": "address",
          "name": "",
          "type": "address"
        }
      ],
      "name": "users",
      "outputs": [
        {
          "internalType": "string",
          "name": "name",
          "type": "string"
        },
        {
          "internalType": "string",
          "name": "email",
          "type": "string"
        },
        {
          "internalType": "uint256",
          "name": "age",
          "type": "uint256"
        },
        {
          "internalType": "bytes32",
          "name": "hashedPassword",
          "type": "bytes32"
        },
        {
          "internalType": "bool",
          "name": "isRegistered",
          "type": "bool"
        }
      ],
      "stateMutability": "view",
      "type": "function",
      "constant": true
    },
    {
      "inputs": [
        {
          "internalType": "string",
          "name": "_name",
          "type": "string"
        },
        {
          "internalType": "string",
          "name": "_email",
          "type": "string"
        },
        {
          "internalType": "uint256",
          "name": "_age",
          "type": "uint256"
        },
        {
          "internalType": "string",
          "name": "_password",
          "type": "string"
        }
      ],
      "name": "register",
      "outputs": [],
      "stateMutability": "nonpayable",
      "type": "function"
    },
    {
      "inputs": [
        {
          "internalType": "address",
          "name": "_adminAddress",
          "type": "address"
        }
      ],
      "name": "assignAdmin",
      "outputs": [],
      "stateMutability": "nonpayable",
      "type": "function"
    },
    {
      "inputs": [
        {
          "internalType": "address",
          "name": "_adminAddress",
          "type": "address"
        }
      ],
      "name": "removeAdmin",
      "outputs": [],
      "stateMutability": "nonpayable",
      "type": "function"
    },
    {
      "inputs": [
        {
          "internalType": "string",
          "name": "_identifier",
          "type": "string"
        },
        {
          "internalType": "string",
          "name": "_password",
          "type": "string"
        }
      ],
      "name": "signIn",
      "outputs": [
        {
          "internalType": "bool",
          "name": "",
          "type": "bool"
        }
      ],
      "stateMutability": "view",
      "type": "function",
      "constant": true
    },
    {
      "inputs": [
        {
          "internalType": "string",
          "name": "_identifier",
          "type": "string"
        },
        {
          "internalType": "string",
          "name": "_newPassword",
          "type": "string"
        }
      ],
      "name": "resetPassword",
      "outputs": [],
      "stateMutability": "nonpayable",
      "type": "function"
    },
    {
      "inputs": [],
      "name": "getAllRegisteredUsers",
      "outputs": [
        {
          "internalType": "address[]",
          "name": "",
          "type": "address[]"
        }
      ],
      "stateMutability": "view",
      "type": "function",
      "constant": true
    }
  ],
  "bytecode": "0x608060405234801561001057600080fd5b5033600660006101000a81548173ffffffffffffffffffffffffffffffffffffffff021916908373ffffffffffffffffffffffffffffffffffffffff1602179055506001600560003373ffffffffffffffffffffffffffffffffffffffff1673ffffffffffffffffffffffffffffffffffffffff16815260200190815260200160002060006101000a81548160ff0219169083151502179055506004339080600181540180825580915050600190039060005260206000200160009091909190916101000a81548173ffffffffffffffffffffffffffffffffffffffff021916908373ffffffffffffffffffffffffffffffffffffffff16021790555061242a8061011c6000396000f3fe608060405234801561001057600080fd5b50600436106100a95760003560e01c8063679a9c2c11610071578063679a9c2c146101645780637259e0f8146101805780638da5cb5b146101b0578063a87430ba146101ce578063ba44eecf14610202578063fb0bc6a314610232576100a9565b80631785f53c146100ae5780632c162dbc146100ca578063397388af146100fa5780633da7d2ed14610118578063429b62e514610134575b600080fd5b6100c860048036038101906100c39190611803565b61024e565b005b6100e460048036038101906100df919061182c565b6106bf565b6040516100f19190611ee5565b60405180910390f35b610102610a2e565b60405161010f9190611ec3565b60405180910390f35b610132600480360381019061012d9190611803565b610abc565b005b61014e60048036038101906101499190611803565b610cda565b60405161015b9190611ee5565b60405180910390f35b61017e6004803603810190610179919061182c565b610cfa565b005b61019a60048036038101906101959190611943565b611042565b6040516101a79190611ea8565b60405180910390f35b6101b8611081565b6040516101c59190611ea8565b60405180910390f35b6101e860048036038101906101e39190611803565b6110a7565b6040516101f9959493929190611f6e565b60405180910390f35b61021c60048036038101906102179190611943565b6111fa565b6040516102299190611ea8565b60405180910390f35b61024c60048036038101906102479190611898565b611239565b005b600660009054906101000a900473ffffffffffffffffffffffffffffffffffffffff1673ffffffffffffffffffffffffffffffffffffffff163373ffffffffffffffffffffffffffffffffffffffff16146102de576040517f08c379a00000000000000000000000000000000000000000000000000000000081526004016102d590611fcf565b60405180910390fd5b600560008273ffffffffffffffffffffffffffffffffffffffff1673ffffffffffffffffffffffffffffffffffffffff16815260200190815260200160002060009054906101000a900460ff1661036a576040517f08c379a000000000000000000000000000000000000000000000000000000000815260040161036190611fef565b60405180910390fd5b600660009054906101000a900473ffffffffffffffffffffffffffffffffffffffff1673ffffffffffffffffffffffffffffffffffffffff168173ffffffffffffffffffffffffffffffffffffffff1614156103fb576040517f08c379a00000000000000000000000000000000000000000000000000000000081526004016103f2906120af565b60405180910390fd5b6000600560008373ffffffffffffffffffffffffffffffffffffffff1673ffffffffffffffffffffffffffffffffffffffff16815260200190815260200160002060006101000a81548160ff02191690831515021790555060005b600480549050811015610678578173ffffffffffffffffffffffffffffffffffffffff16600482815481106104b4577f4e487b7100000000000000000000000000000000000000000000000000000000600052603260045260246000fd5b9060005260206000200160009054906101000a900473ffffffffffffffffffffffffffffffffffffffff1673ffffffffffffffffffffffffffffffffffffffff161415610665576004600160048054905061050f91906121e5565b81548110610546577f4e487b7100000000000000000000000000000000000000000000000000000000600052603260045260246000fd5b9060005260206000200160009054906101000a900473ffffffffffffffffffffffffffffffffffffffff16600482815481106105ab577f4e487b7100000000000000000000000000000000000000000000000000000000600052603260045260246000fd5b9060005260206000200160006101000a81548173ffffffffffffffffffffffffffffffffffffffff021916908373ffffffffffffffffffffffffffffffffffffffff160217905550600480548061062b577f4e487b7100000000000000000000000000000000000000000000000000000000600052603160045260246000fd5b6001900381819060005260206000200160006101000a81549073ffffffffffffffffffffffffffffffffffffffff02191690559055610678565b8080610670906122df565b915050610456565b508073ffffffffffffffffffffffffffffffffffffffff167fa3b62bc36326052d97ea62d63c3d60308ed4c3ea8ac079dd8499f1e9c4f80c0f60405160405180910390a250565b6000806001846040516106d29190611e7a565b908152602001604051809103902060009054906101000a900473ffffffffffffffffffffffffffffffffffffffff169050600073ffffffffffffffffffffffffffffffffffffffff168173ffffffffffffffffffffffffffffffffffffffff16141561077a576002846040516107489190611e7a565b908152602001604051809103902060009054906101000a900473ffffffffffffffffffffffffffffffffffffffff1690505b60008060008373ffffffffffffffffffffffffffffffffffffffff1673ffffffffffffffffffffffffffffffffffffffff1681526020019081526020016000206040518060c00160405290816000820180546107d5906122ad565b80601f0160208091040260200160405190810160405280929190818152602001828054610801906122ad565b801561084e5780601f106108235761010080835404028352916020019161084e565b820191906000526020600020905b81548152906001019060200180831161083157829003601f168201915b50505050508152602001600182018054610867906122ad565b80601f0160208091040260200160405190810160405280929190818152602001828054610893906122ad565b80156108e05780601f106108b5576101008083540402835291602001916108e0565b820191906000526020600020905b8154815290600101906020018083116108c357829003601f168201915b5050505050815260200160028201548152602001600382015481526020016004820160009054906101000a900460ff161515151581526020016005820180548060200260200160405190810160405280929190818152602001828054801561096757602002820191906000526020600020905b815481526020019060010190808311610953575b505050505081525050905080608001516109b6576040517f08c379a00000000000000000000000000000000000000000000000000000000081526004016109ad906120cf565b60405180910390fd5b836040516020016109c79190611e7a565b60405160208183030381529060405280519060200120816060015114610a22576040517f08c379a0000000000000000000000000000000000000000000000000000000008152600401610a199061202f565b60405180910390fd5b60019250505092915050565b60606003805480602002602001604051908101604052809291908181526020018280548015610ab257602002820191906000526020600020905b8160009054906101000a900473ffffffffffffffffffffffffffffffffffffffff1673ffffffffffffffffffffffffffffffffffffffff1681526020019060010190808311610a68575b5050505050905090565b600660009054906101000a900473ffffffffffffffffffffffffffffffffffffffff1673ffffffffffffffffffffffffffffffffffffffff163373ffffffffffffffffffffffffffffffffffffffff1614610b4c576040517f08c379a0000000000000000000000000000000000000000000000000000000008152600401610b4390611fcf565b60405180910390fd5b600560008273ffffffffffffffffffffffffffffffffffffffff1673ffffffffffffffffffffffffffffffffffffffff16815260200190815260200160002060009054906101000a900460ff1615610bd9576040517f08c379a0000000000000000000000000000000000000000000000000000000008152600401610bd0906120ef565b60405180910390fd5b6001600560008373ffffffffffffffffffffffffffffffffffffffff1673ffffffffffffffffffffffffffffffffffffffff16815260200190815260200160002060006101000a81548160ff0219169083151502179055506004819080600181540180825580915050600190039060005260206000200160009091909190916101000a81548173ffffffffffffffffffffffffffffffffffffffff021916908373ffffffffffffffffffffffffffffffffffffffff1602179055508073ffffffffffffffffffffffffffffffffffffffff167fdb33970bd9bc1a413c7dac3b21e061709de094761c9396ef6d49b9ebdb79393360405160405180910390a250565b60056020528060005260406000206000915054906101000a900460ff1681565b6000803373ffffffffffffffffffffffffffffffffffffffff1673ffffffffffffffffffffffffffffffffffffffff16815260200190815260200160002060040160009054906101000a900460ff16610d88576040517f08c379a0000000000000000000000000000000000000000000000000000000008152600401610d7f906120cf565b60405180910390fd5b600082604051602001610d9b9190611e7a565b604051602081830303815290604052805190602001206000803373ffffffffffffffffffffffffffffffffffffffff1673ffffffffffffffffffffffffffffffffffffffff168152602001908152602001600020600001604051602001610e029190611e91565b604051602081830303815290604052805190602001201480610eaf575082604051602001610e309190611e7a565b604051602081830303815290604052805190602001206000803373ffffffffffffffffffffffffffffffffffffffff1673ffffffffffffffffffffffffffffffffffffffff168152602001908152602001600020600101604051602001610e979190611e91565b60405160208183030381529060405280519060200120145b905080610ef1576040517f08c379a0000000000000000000000000000000000000000000000000000000008152600401610ee89061204f565b60405180910390fd5b600082604051602001610f049190611e7a565b60405160208183030381529060405280519060200120905060008060003373ffffffffffffffffffffffffffffffffffffffff1673ffffffffffffffffffffffffffffffffffffffff16815260200190815260200160002060030154905080821415610fa5576040517f08c379a0000000000000000000000000000000000000000000000000000000008152600401610f9c9061208f565b60405180910390fd5b816000803373ffffffffffffffffffffffffffffffffffffffff1673ffffffffffffffffffffffffffffffffffffffff168152602001908152602001600020600301819055503373ffffffffffffffffffffffffffffffffffffffff167f1b50a644b0847d53b0509345d2ba19a27e755cb5c52b363d882785c5ff7bee798284604051611033929190611f00565b60405180910390a25050505050565b6003818154811061105257600080fd5b906000526020600020016000915054906101000a900473ffffffffffffffffffffffffffffffffffffffff1681565b600660009054906101000a900473ffffffffffffffffffffffffffffffffffffffff1681565b60006020528060005260406000206000915090508060000180546110ca906122ad565b80601f01602080910402602001604051908101604052809291908181526020018280546110f6906122ad565b80156111435780601f1061111857610100808354040283529160200191611143565b820191906000526020600020905b81548152906001019060200180831161112657829003601f168201915b505050505090806001018054611158906122ad565b80601f0160208091040260200160405190810160405280929190818152602001828054611184906122ad565b80156111d15780601f106111a6576101008083540402835291602001916111d1565b820191906000526020600020905b8154815290600101906020018083116111b457829003601f168201915b5050505050908060020154908060030154908060040160009054906101000a900460ff16905085565b6004818154811061120a57600080fd5b906000526020600020016000915054906101000a900473ffffffffffffffffffffffffffffffffffffffff1681565b6000803373ffffffffffffffffffffffffffffffffffffffff1673ffffffffffffffffffffffffffffffffffffffff16815260200190815260200160002060040160009054906101000a900460ff16156112c8576040517f08c379a00000000000000000000000000000000000000000000000000000000081526004016112bf9061200f565b60405180910390fd5b600073ffffffffffffffffffffffffffffffffffffffff166001846040516112f09190611e7a565b908152602001604051809103902060009054906101000a900473ffffffffffffffffffffffffffffffffffffffff1673ffffffffffffffffffffffffffffffffffffffff1614611375576040517f08c379a000000000000000000000000000000000000000000000000000000000815260040161136c9061206f565b60405180910390fd5b6000816040516020016113889190611e7a565b6040516020818303038152906040528051906020012090506040518060c00160405280868152602001858152602001848152602001828152602001600115158152602001606467ffffffffffffffff81111561140d577f4e487b7100000000000000000000000000000000000000000000000000000000600052604160045260246000fd5b60405190808252806020026020018201604052801561143b5781602001602082028036833780820191505090505b508152506000803373ffffffffffffffffffffffffffffffffffffffff1673ffffffffffffffffffffffffffffffffffffffff1681526020019081526020016000206000820151816000019080519060200190611499929190611681565b5060208201518160010190805190602001906114b6929190611681565b50604082015181600201556060820151816003015560808201518160040160006101000a81548160ff02191690831515021790555060a0820151816005019080519060200190611507929190611707565b509050503360018560405161151c9190611e7a565b908152602001604051809103902060006101000a81548173ffffffffffffffffffffffffffffffffffffffff021916908373ffffffffffffffffffffffffffffffffffffffff160217905550336002866040516115799190611e7a565b908152602001604051809103902060006101000a81548173ffffffffffffffffffffffffffffffffffffffff021916908373ffffffffffffffffffffffffffffffffffffffff1602179055506003339080600181540180825580915050600190039060005260206000200160009091909190916101000a81548173ffffffffffffffffffffffffffffffffffffffff021916908373ffffffffffffffffffffffffffffffffffffffff1602179055503373ffffffffffffffffffffffffffffffffffffffff167fb43e07573ffd613ee4cb14f22ebd42b902fb524682771d8e82932bd48bcda24786868660405161167293929190611f29565b60405180910390a25050505050565b82805461168d906122ad565b90600052602060002090601f0160209004810192826116af57600085556116f6565b82601f106116c857805160ff19168380011785556116f6565b828001600101855582156116f6579182015b828111156116f55782518255916020019190600101906116da565b5b5090506117039190611754565b5090565b828054828255906000526020600020908101928215611743579160200282015b82811115611742578251825591602001919060010190611727565b5b5090506117509190611754565b5090565b5b8082111561176d576000816000905550600101611755565b5090565b600061178461177f84612140565b61210f565b90508281526020810184848401111561179c57600080fd5b6117a784828561226b565b509392505050565b6000813590506117be816123c6565b92915050565b600082601f8301126117d557600080fd5b81356117e5848260208601611771565b91505092915050565b6000813590506117fd816123dd565b92915050565b60006020828403121561181557600080fd5b6000611823848285016117af565b91505092915050565b6000806040838503121561183f57600080fd5b600083013567ffffffffffffffff81111561185957600080fd5b611865858286016117c4565b925050602083013567ffffffffffffffff81111561188257600080fd5b61188e858286016117c4565b9150509250929050565b600080600080608085870312156118ae57600080fd5b600085013567ffffffffffffffff8111156118c857600080fd5b6118d4878288016117c4565b945050602085013567ffffffffffffffff8111156118f157600080fd5b6118fd878288016117c4565b935050604061190e878288016117ee565b925050606085013567ffffffffffffffff81111561192b57600080fd5b611937878288016117c4565b91505092959194509250565b60006020828403121561195557600080fd5b6000611963848285016117ee565b91505092915050565b60006119788383611984565b60208301905092915050565b61198d81612219565b82525050565b61199c81612219565b82525050565b60006119ad82612195565b6119b781856121b8565b93506119c283612170565b8060005b838110156119f35781516119da888261196c565b97506119e5836121ab565b9250506001810190506119c6565b5085935050505092915050565b611a098161222b565b82525050565b611a1881612237565b82525050565b6000611a29826121a0565b611a3381856121c9565b9350611a4381856020860161227a565b611a4c816123b5565b840191505092915050565b6000611a62826121a0565b611a6c81856121da565b9350611a7c81856020860161227a565b80840191505092915050565b60008154611a95816122ad565b611a9f81866121da565b94506001821660008114611aba5760018114611acb57611afe565b60ff19831686528186019350611afe565b611ad485612180565b60005b83811015611af657815481890152600182019150602081019050611ad7565b838801955050505b50505092915050565b6000611b14602b836121c9565b91507f4f6e6c7920636f6e7472616374206f776e65722063616e20706572666f726d2060008301527f7468697320616374696f6e0000000000000000000000000000000000000000006020830152604082019050919050565b6000611b7a601d836121c9565b91507f546869732061646472657373206973206e6f7420616e2061646d696e2e0000006000830152602082019050919050565b6000611bba602a836121c9565b91507f5573657220616c7265616479207265676973746572656420776974682074686960008301527f7320616464726573732e000000000000000000000000000000000000000000006020830152604082019050919050565b6000611c206016836121c9565b91507f50617373776f726420697320696e636f72726563742e000000000000000000006000830152602082019050919050565b6000611c606016836121c9565b91507f496e76616c6964206e616d65206f7220656d61696c2e000000000000000000006000830152602082019050919050565b6000611ca0602c836121c9565b91507f456d61696c20697320616c72656164792072656769737465726564206279206160008301527f6e6f7468657220757365722e00000000000000000000000000000000000000006020830152604082019050919050565b6000611d066034836121c9565b91507f4e65772070617373776f72642063616e6e6f74206265207468652073616d652060008301527f617320746865206f6c642070617373776f72642e0000000000000000000000006020830152604082019050919050565b6000611d6c6021836121c9565b91507f4f776e65722063616e6e6f742062652072656d6f7665642061732061646d696e60008301527f2e000000000000000000000000000000000000000000000000000000000000006020830152604082019050919050565b6000611dd26014836121c9565b91507f55736572206e6f7420726567697374657265642e0000000000000000000000006000830152602082019050919050565b6000611e126021836121c9565b91507f54686973206164647265737320697320616c726561647920616e2061646d696e60008301527f2e000000000000000000000000000000000000000000000000000000000000006020830152604082019050919050565b611e7481612261565b82525050565b6000611e868284611a57565b915081905092915050565b6000611e9d8284611a88565b915081905092915050565b6000602082019050611ebd6000830184611993565b92915050565b60006020820190508181036000830152611edd81846119a2565b905092915050565b6000602082019050611efa6000830184611a00565b92915050565b6000604082019050611f156000830185611a0f565b611f226020830184611a0f565b9392505050565b60006060820190508181036000830152611f438186611a1e565b90508181036020830152611f578185611a1e565b9050611f666040830184611e6b565b949350505050565b600060a0820190508181036000830152611f888188611a1e565b90508181036020830152611f9c8187611a1e565b9050611fab6040830186611e6b565b611fb86060830185611a0f565b611fc56080830184611a00565b9695505050505050565b60006020820190508181036000830152611fe881611b07565b9050919050565b6000602082019050818103600083015261200881611b6d565b9050919050565b6000602082019050818103600083015261202881611bad565b9050919050565b6000602082019050818103600083015261204881611c13565b9050919050565b6000602082019050818103600083015261206881611c53565b9050919050565b6000602082019050818103600083015261208881611c93565b9050919050565b600060208201905081810360008301526120a881611cf9565b9050919050565b600060208201905081810360008301526120c881611d5f565b9050919050565b600060208201905081810360008301526120e881611dc5565b9050919050565b6000602082019050818103600083015261210881611e05565b9050919050565b6000604051905081810181811067ffffffffffffffff8211171561213657612135612386565b5b8060405250919050565b600067ffffffffffffffff82111561215b5761215a612386565b5b601f19601f8301169050602081019050919050565b6000819050602082019050919050565b60008190508160005260206000209050919050565b600081519050919050565b600081519050919050565b6000602082019050919050565b600082825260208201905092915050565b600082825260208201905092915050565b600081905092915050565b60006121f082612261565b91506121fb83612261565b92508282101561220e5761220d612328565b5b828203905092915050565b600061222482612241565b9050919050565b60008115159050919050565b6000819050919050565b600073ffffffffffffffffffffffffffffffffffffffff82169050919050565b6000819050919050565b82818337600083830152505050565b60005b8381101561229857808201518184015260208101905061227d565b838111156122a7576000848401525b50505050565b600060028204905060018216806122c557607f821691505b602082108114156122d9576122d8612357565b5b50919050565b60006122ea82612261565b91507fffffffffffffffffffffffffffffffffffffffffffffffffffffffffffffffff82141561231d5761231c612328565b5b600182019050919050565b7f4e487b7100000000000000000000000000000000000000000000000000000000600052601160045260246000fd5b7f4e487b7100000000000000000000000000000000000000000000000000000000600052602260045260246000fd5b7f4e487b7100000000000000000000000000000000000000000000000000000000600052604160045260246000fd5b6000601f19601f8301169050919050565b6123cf81612219565b81146123da57600080fd5b50565b6123e681612261565b81146123f157600080fd5b5056fea2646970667358221220b7f757acf1752b912017ed21875a8d57544f5d61702e65acc51f8211db6c048d64736f6c63430008000033",
  "immutableReferences": {},
  "source": "// SPDX-License-Identifier: MIT\r\npragma solidity ^0.8.0;\r\n\r\ncontract UserAuth {\r\n    struct User {\r\n        string name;\r\n        string email;\r\n        uint age;\r\n        bytes32 hashedPassword;\r\n        bool isRegistered;\r\n        uint256[] subscribedPackages;\r\n    }\r\n\r\n    mapping(address => User) public users;\r\n    mapping(string => address) private emailToAddress;\r\n    mapping(string => address) private nameToAddress;\r\n\r\n    address[] public registeredUsers; // External array to store all registered users' addresses\r\n    address[] public adminAddresses; // Array to store all admin addresses\r\n\r\n    mapping(address => bool) public admins; // Mapping to keep track of admins\r\n    address public owner; // Contract owner\r\n\r\n    event UserRegistered(\r\n        address indexed userAddress,\r\n        string _name,\r\n        string email,\r\n        uint _age\r\n    );\r\n    event PasswordReset(\r\n        address indexed userAddress,\r\n        bytes32 oldHashedPassword,\r\n        bytes32 newHashedPassword\r\n    );\r\n    event InsuranceSubscribed(address indexed userAddress, uint256 insuranceId);\r\n    event AdminAssigned(address indexed adminAddress);\r\n    event AdminRemoved(address indexed adminAddress);\r\n\r\n    modifier onlyOwner() {\r\n        require(\r\n            msg.sender == owner,\r\n            \"Only contract owner can perform this action\"\r\n        );\r\n        _;\r\n    }\r\n\r\n    modifier onlyAdmin() {\r\n        require(admins[msg.sender], \"Only admins can perform this action\");\r\n        _;\r\n    }\r\n\r\n    constructor() {\r\n        owner = msg.sender; // Set contract creator as the first admin\r\n        admins[msg.sender] = true;\r\n        adminAddresses.push(msg.sender); // Add owner to adminAddresses array\r\n    }\r\n\r\n    // Register a new user with additional attributes and hashed password\r\n    function register(\r\n        string memory _name,\r\n        string memory _email,\r\n        uint _age,\r\n        string memory _password\r\n    ) public {\r\n        require(\r\n            !users[msg.sender].isRegistered,\r\n            \"User already registered with this address.\"\r\n        );\r\n        require(\r\n            emailToAddress[_email] == address(0),\r\n            \"Email is already registered by another user.\"\r\n        ); // Check if email is already used\r\n\r\n        bytes32 hashedPassword = keccak256(abi.encodePacked(_password)); // Hash the password\r\n        users[msg.sender] = User({\r\n            name: _name,\r\n            email: _email,\r\n            age: _age,\r\n            hashedPassword: hashedPassword,\r\n            isRegistered: true,\r\n            subscribedPackages: new uint256[](100)\r\n        });\r\n\r\n        // Map email and name to address for easy lookup\r\n        emailToAddress[_email] = msg.sender;\r\n        nameToAddress[_name] = msg.sender;\r\n\r\n        // Add the user address to the external registeredUsers array\r\n        registeredUsers.push(msg.sender);\r\n\r\n        emit UserRegistered(msg.sender, _name, _email, _age);\r\n    }\r\n\r\n    // Admin function to assign a new admin\r\n    function assignAdmin(address _adminAddress) public onlyOwner {\r\n        require(!admins[_adminAddress], \"This address is already an admin.\");\r\n        admins[_adminAddress] = true;\r\n\r\n        adminAddresses.push(_adminAddress); // Add to adminAddresses array\r\n\r\n        emit AdminAssigned(_adminAddress);\r\n    }\r\n\r\n    // Admin function to remove an admin\r\n    function removeAdmin(address _adminAddress) public onlyOwner {\r\n        require(admins[_adminAddress], \"This address is not an admin.\");\r\n        require(_adminAddress != owner, \"Owner cannot be removed as admin.\");\r\n        admins[_adminAddress] = false;\r\n\r\n        // Remove admin from adminAddresses array\r\n        for (uint i = 0; i < adminAddresses.length; i++) {\r\n            if (adminAddresses[i] == _adminAddress) {\r\n                adminAddresses[i] = adminAddresses[adminAddresses.length - 1];\r\n                adminAddresses.pop();\r\n                break;\r\n            }\r\n        }\r\n\r\n        emit AdminRemoved(_adminAddress);\r\n    }\r\n\r\n    // Sign in using either name or email and password\r\n    function signIn(\r\n        string memory _identifier,\r\n        string memory _password\r\n    ) public view returns (bool) {\r\n        address userAddress = emailToAddress[_identifier];\r\n        if (userAddress == address(0)) {\r\n            userAddress = nameToAddress[_identifier];\r\n        }\r\n\r\n        User memory user = users[userAddress];\r\n        require(user.isRegistered, \"User not registered.\");\r\n        require(\r\n            user.hashedPassword == keccak256(abi.encodePacked(_password)),\r\n            \"Password is incorrect.\"\r\n        );\r\n\r\n        return true; // Sign in successful\r\n    }\r\n\r\n    function resetPassword(\r\n        string memory _identifier,\r\n        string memory _newPassword\r\n    ) public {\r\n        require(users[msg.sender].isRegistered, \"User not registered.\");\r\n\r\n        bool isValid = (keccak256(abi.encodePacked(users[msg.sender].name)) ==\r\n            keccak256(abi.encodePacked(_identifier)) ||\r\n            keccak256(abi.encodePacked(users[msg.sender].email)) ==\r\n            keccak256(abi.encodePacked(_identifier)));\r\n\r\n        require(isValid, \"Invalid name or email.\");\r\n\r\n        bytes32 newHashedPassword = keccak256(abi.encodePacked(_newPassword));\r\n        bytes32 oldHashedPassword = users[msg.sender].hashedPassword;\r\n\r\n        require(\r\n            newHashedPassword != oldHashedPassword,\r\n            \"New password cannot be the same as the old password.\"\r\n        );\r\n\r\n        users[msg.sender].hashedPassword = newHashedPassword;\r\n\r\n        emit PasswordReset(msg.sender, oldHashedPassword, newHashedPassword);\r\n    }\r\n\r\n    // Function to get all registered user addresses\r\n    function getAllRegisteredUsers() public view returns (address[] memory) {\r\n        return registeredUsers;\r\n    }\r\n}\r\n",
  "sourcePath": "C:\\Users\\Asus\\Desktop\\blockchain\\Great_Global\\Danny_Test\\SponsorAnimals\\contracts\\UserAuth.sol",
  "compiler": {
    "name": "solc",
    "version": "0.8.0+commit.c7dfd78e.Emscripten.clang"
  },
  "schemaVersion": "3.4.16",
  "updatedAt": "2024-09-25T10:14:00.682Z",
  "networkType": "ethereum",
  "devdoc": {
    "kind": "dev",
    "methods": {},
    "version": 1
  },
  "userdoc": {
    "kind": "user",
    "methods": {},
    "version": 1
  }
}