{
  "contractName": "UserAuth",
  "abi": [
    {
      "inputs": [],
      "stateMutability": "nonpayable",
      "type": "constructor"
    },
    {
      "anonymous": false,
      "inputs": [
        {
          "indexed": true,
          "internalType": "address",
          "name": "adminAddress",
          "type": "address"
        }
      ],
      "name": "AdminAssigned",
      "type": "event"
    },
    {
      "anonymous": false,
      "inputs": [
        {
          "indexed": true,
          "internalType": "address",
          "name": "adminAddress",
          "type": "address"
        }
      ],
      "name": "AdminLoggedOut",
      "type": "event"
    },
    {
      "anonymous": false,
      "inputs": [
        {
          "indexed": true,
          "internalType": "address",
          "name": "adminAddress",
          "type": "address"
        }
      ],
      "name": "AdminRemoved",
      "type": "event"
    },
    {
      "anonymous": false,
      "inputs": [
        {
          "indexed": true,
          "internalType": "address",
          "name": "userAddress",
          "type": "address"
        },
        {
          "indexed": false,
          "internalType": "bytes32",
          "name": "oldHashedPassword",
          "type": "bytes32"
        },
        {
          "indexed": false,
          "internalType": "bytes32",
          "name": "newHashedPassword",
          "type": "bytes32"
        }
      ],
      "name": "PasswordReset",
      "type": "event"
    },
    {
      "anonymous": false,
      "inputs": [
        {
          "indexed": true,
          "internalType": "string",
          "name": "email",
          "type": "string"
        }
      ],
      "name": "UserLoggedOut",
      "type": "event"
    },
    {
      "anonymous": false,
      "inputs": [
        {
          "indexed": true,
          "internalType": "address",
          "name": "userAddress",
          "type": "address"
        },
        {
          "indexed": false,
          "internalType": "string",
          "name": "_name",
          "type": "string"
        },
        {
          "indexed": false,
          "internalType": "string",
          "name": "email",
          "type": "string"
        },
        {
          "indexed": false,
          "internalType": "uint256",
          "name": "_age",
          "type": "uint256"
        }
      ],
      "name": "UserRegistered",
      "type": "event"
    },
    {
      "inputs": [
        {
          "internalType": "uint256",
          "name": "",
          "type": "uint256"
        }
      ],
      "name": "adminAddresses",
      "outputs": [
        {
          "internalType": "address",
          "name": "",
          "type": "address"
        }
      ],
      "stateMutability": "view",
      "type": "function",
      "constant": true
    },
    {
      "inputs": [
        {
          "internalType": "address",
          "name": "",
          "type": "address"
        }
      ],
      "name": "admins",
      "outputs": [
        {
          "internalType": "bool",
          "name": "",
          "type": "bool"
        }
      ],
      "stateMutability": "view",
      "type": "function",
      "constant": true
    },
    {
      "inputs": [],
      "name": "currentAdmin",
      "outputs": [
        {
          "internalType": "address",
          "name": "",
          "type": "address"
        }
      ],
      "stateMutability": "view",
      "type": "function",
      "constant": true
    },
    {
      "inputs": [],
      "name": "currentUser",
      "outputs": [
        {
          "internalType": "string",
          "name": "",
          "type": "string"
        }
      ],
      "stateMutability": "view",
      "type": "function",
      "constant": true
    },
    {
      "inputs": [],
      "name": "owner",
      "outputs": [
        {
          "internalType": "address",
          "name": "",
          "type": "address"
        }
      ],
      "stateMutability": "view",
      "type": "function",
      "constant": true
    },
    {
      "inputs": [
        {
          "internalType": "uint256",
          "name": "",
          "type": "uint256"
        }
      ],
      "name": "registeredUserEmails",
      "outputs": [
        {
          "internalType": "string",
          "name": "",
          "type": "string"
        }
      ],
      "stateMutability": "view",
      "type": "function",
      "constant": true
    },
    {
      "inputs": [
        {
          "internalType": "string",
          "name": "_name",
          "type": "string"
        },
        {
          "internalType": "string",
          "name": "_email",
          "type": "string"
        },
        {
          "internalType": "uint256",
          "name": "_age",
          "type": "uint256"
        },
        {
          "internalType": "string",
          "name": "_password",
          "type": "string"
        },
        {
          "internalType": "address",
          "name": "_refundAddress",
          "type": "address"
        }
      ],
      "name": "register",
      "outputs": [],
      "stateMutability": "nonpayable",
      "type": "function"
    },
    {
      "inputs": [
        {
          "internalType": "address",
          "name": "_adminAddress",
          "type": "address"
        }
      ],
      "name": "adminSignIn",
      "outputs": [
        {
          "internalType": "bool",
          "name": "",
          "type": "bool"
        }
      ],
      "stateMutability": "nonpayable",
      "type": "function"
    },
    {
      "inputs": [
        {
          "internalType": "address",
          "name": "_adminAddress",
          "type": "address"
        }
      ],
      "name": "assignAdmin",
      "outputs": [],
      "stateMutability": "nonpayable",
      "type": "function"
    },
    {
      "inputs": [
        {
          "internalType": "address",
          "name": "_adminAddress",
          "type": "address"
        }
      ],
      "name": "removeAdmin",
      "outputs": [],
      "stateMutability": "nonpayable",
      "type": "function"
    },
    {
      "inputs": [
        {
          "internalType": "string",
          "name": "_identifier",
          "type": "string"
        },
        {
          "internalType": "string",
          "name": "_password",
          "type": "string"
        }
      ],
      "name": "signIn",
      "outputs": [
        {
          "internalType": "bool",
          "name": "",
          "type": "bool"
        }
      ],
      "stateMutability": "nonpayable",
      "type": "function"
    },
    {
      "inputs": [
        {
          "internalType": "string",
          "name": "_identifier",
          "type": "string"
        },
        {
          "internalType": "string",
          "name": "_newPassword",
          "type": "string"
        }
      ],
      "name": "resetPassword",
      "outputs": [],
      "stateMutability": "nonpayable",
      "type": "function"
    },
    {
      "inputs": [],
      "name": "logoutUser",
      "outputs": [],
      "stateMutability": "nonpayable",
      "type": "function"
    },
    {
      "inputs": [],
      "name": "logoutAdmin",
      "outputs": [],
      "stateMutability": "nonpayable",
      "type": "function"
    },
    {
      "inputs": [],
      "name": "getAllRegisteredUsers",
      "outputs": [
        {
          "internalType": "string[]",
          "name": "",
          "type": "string[]"
        }
      ],
      "stateMutability": "view",
      "type": "function",
      "constant": true
    },
    {
      "inputs": [],
      "name": "getAllAdmins",
      "outputs": [
        {
          "internalType": "address[]",
          "name": "",
          "type": "address[]"
        }
      ],
      "stateMutability": "view",
      "type": "function",
      "constant": true
    },
    {
      "inputs": [],
      "name": "getUserAge",
      "outputs": [
        {
          "internalType": "uint256",
          "name": "",
          "type": "uint256"
        }
      ],
      "stateMutability": "view",
      "type": "function",
      "constant": true
    },
    {
      "inputs": [],
      "name": "getCurrentUser",
      "outputs": [
        {
          "internalType": "string",
          "name": "",
          "type": "string"
        }
      ],
      "stateMutability": "view",
      "type": "function",
      "constant": true
    },
    {
      "inputs": [],
      "name": "getCurrentAdmin",
      "outputs": [
        {
          "internalType": "address",
          "name": "",
          "type": "address"
        }
      ],
      "stateMutability": "view",
      "type": "function",
      "constant": true
    },
    {
      "inputs": [],
      "name": "getRegisteredUserEmails",
      "outputs": [
        {
          "internalType": "string[]",
          "name": "",
          "type": "string[]"
        }
      ],
      "stateMutability": "view",
      "type": "function",
      "constant": true
    },
    {
      "inputs": [
        {
          "internalType": "string",
          "name": "_user",
          "type": "string"
        }
      ],
      "name": "getUserRefundAddress",
      "outputs": [
        {
          "internalType": "address",
          "name": "",
          "type": "address"
        }
      ],
      "stateMutability": "view",
      "type": "function",
      "constant": true
    }
  ],
  "bytecode": "0x608060405234801561001057600080fd5b5033600460006101000a81548173ffffffffffffffffffffffffffffffffffffffff021916908373ffffffffffffffffffffffffffffffffffffffff1602179055506001600360003373ffffffffffffffffffffffffffffffffffffffff1673ffffffffffffffffffffffffffffffffffffffff16815260200190815260200160002060006101000a81548160ff0219169083151502179055506002339080600181540180825580915050600190039060005260206000200160009091909190916101000a81548173ffffffffffffffffffffffffffffffffffffffff021916908373ffffffffffffffffffffffffffffffffffffffff160217905550612d168061011c6000396000f3fe608060405234801561001057600080fd5b50600436106101375760003560e01c80636b9624cc116100b8578063b0bcdd911161007c578063b0bcdd9114610318578063ba44eecf14610348578063ba4bcd7214610378578063c8518ecb14610396578063d8f145d2146103c6578063e9523c97146103d057610137565b80636b9624cc146102985780637c2bb5d3146102a25780637cae3d4d146102be5780638da5cb5b146102dc57806392ee0334146102fa57610137565b8063429b62e5116100ff578063429b62e5146101e057806343ae37c3146102105780635a06a7181461022e578063643d430c1461025e578063679a9c2c1461027c57610137565b80631785f53c1461013c5780631bb64722146101585780632c162dbc14610176578063397388af146101a65780633da7d2ed146101c4575b600080fd5b61015660048036038101906101519190611e70565b6103ee565b005b6101606108ef565b60405161016d9190612729565b60405180910390f35b610190600480360381019061018b9190611eda565b6109c8565b60405161019d919061274b565b60405180910390f35b6101ae610cc9565b6040516101bb9190612729565b60405180910390f35b6101de60048036038101906101d99190611e70565b610da2565b005b6101fa60048036038101906101f59190611e70565b611050565b604051610207919061274b565b60405180910390f35b610218611070565b604051610225919061278f565b60405180910390f35b61024860048036038101906102439190612005565b611102565b604051610255919061278f565b60405180910390f35b6102666111ae565b60405161027391906126ec565b60405180910390f35b61029660048036038101906102919190611eda565b6111d8565b005b6102a0611409565b005b6102bc60048036038101906102b79190611f46565b611544565b005b6102c66118d1565b6040516102d39190612996565b60405180910390f35b6102e4611969565b6040516102f191906126ec565b60405180910390f35b61030261198f565b60405161030f919061278f565b60405180910390f35b610332600480360381019061032d9190611e99565b611a1d565b60405161033f91906126ec565b60405180910390f35b610362600480360381019061035d9190612005565b611a67565b60405161036f91906126ec565b60405180910390f35b610380611aa6565b60405161038d91906126ec565b60405180910390f35b6103b060048036038101906103ab9190611e70565b611acc565b6040516103bd919061274b565b60405180910390f35b6103ce611ba4565b005b6103d8611c60565b6040516103e59190612707565b60405180910390f35b600460009054906101000a900473ffffffffffffffffffffffffffffffffffffffff1673ffffffffffffffffffffffffffffffffffffffff163373ffffffffffffffffffffffffffffffffffffffff161461047e576040517f08c379a000000000000000000000000000000000000000000000000000000000815260040161047590612816565b60405180910390fd5b600660009054906101000a900473ffffffffffffffffffffffffffffffffffffffff1673ffffffffffffffffffffffffffffffffffffffff163373ffffffffffffffffffffffffffffffffffffffff161461050e576040517f08c379a000000000000000000000000000000000000000000000000000000000815260040161050590612836565b60405180910390fd5b600360008273ffffffffffffffffffffffffffffffffffffffff1673ffffffffffffffffffffffffffffffffffffffff16815260200190815260200160002060009054906101000a900460ff1661059a576040517f08c379a000000000000000000000000000000000000000000000000000000000815260040161059190612876565b60405180910390fd5b600460009054906101000a900473ffffffffffffffffffffffffffffffffffffffff1673ffffffffffffffffffffffffffffffffffffffff168173ffffffffffffffffffffffffffffffffffffffff16141561062b576040517f08c379a0000000000000000000000000000000000000000000000000000000008152600401610622906128f6565b60405180910390fd5b6000600360008373ffffffffffffffffffffffffffffffffffffffff1673ffffffffffffffffffffffffffffffffffffffff16815260200190815260200160002060006101000a81548160ff02191690831515021790555060005b6002805490508110156108a8578173ffffffffffffffffffffffffffffffffffffffff16600282815481106106e4577f4e487b7100000000000000000000000000000000000000000000000000000000600052603260045260246000fd5b9060005260206000200160009054906101000a900473ffffffffffffffffffffffffffffffffffffffff1673ffffffffffffffffffffffffffffffffffffffff161415610895576002600160028054905061073f9190612ad1565b81548110610776577f4e487b7100000000000000000000000000000000000000000000000000000000600052603260045260246000fd5b9060005260206000200160009054906101000a900473ffffffffffffffffffffffffffffffffffffffff16600282815481106107db577f4e487b7100000000000000000000000000000000000000000000000000000000600052603260045260246000fd5b9060005260206000200160006101000a81548173ffffffffffffffffffffffffffffffffffffffff021916908373ffffffffffffffffffffffffffffffffffffffff160217905550600280548061085b577f4e487b7100000000000000000000000000000000000000000000000000000000600052603160045260246000fd5b6001900381819060005260206000200160006101000a81549073ffffffffffffffffffffffffffffffffffffffff021916905590556108a8565b80806108a090612bcb565b915050610686565b508073ffffffffffffffffffffffffffffffffffffffff167fa3b62bc36326052d97ea62d63c3d60308ed4c3ea8ac079dd8499f1e9c4f80c0f60405160405180910390a250565b60606001805480602002602001604051908101604052809291908181526020016000905b828210156109bf57838290600052602060002001805461093290612b99565b80601f016020809104026020016040519081016040528092919081815260200182805461095e90612b99565b80156109ab5780601f10610980576101008083540402835291602001916109ab565b820191906000526020600020905b81548152906001019060200180831161098e57829003601f168201915b505050505081526020019060010190610913565b50505050905090565b6000806000846040516109db91906126be565b90815260200160405180910390206040518060e0016040529081600082018054610a0490612b99565b80601f0160208091040260200160405190810160405280929190818152602001828054610a3090612b99565b8015610a7d5780601f10610a5257610100808354040283529160200191610a7d565b820191906000526020600020905b815481529060010190602001808311610a6057829003601f168201915b50505050508152602001600182018054610a9690612b99565b80601f0160208091040260200160405190810160405280929190818152602001828054610ac290612b99565b8015610b0f5780601f10610ae457610100808354040283529160200191610b0f565b820191906000526020600020905b815481529060010190602001808311610af257829003601f168201915b505050505081526020016002820160009054906101000a900473ffffffffffffffffffffffffffffffffffffffff1673ffffffffffffffffffffffffffffffffffffffff1673ffffffffffffffffffffffffffffffffffffffff16815260200160038201548152602001600482015481526020016005820160009054906101000a900460ff1615151515815260200160068201805480602002602001604051908101604052809291908181526020018280548015610bec57602002820191906000526020600020905b815481526020019060010190808311610bd8575b50505050508152505090508060a00151610c3b576040517f08c379a0000000000000000000000000000000000000000000000000000000008152600401610c3290612916565b60405180910390fd5b82604051602001610c4c91906126be565b60405160208183030381529060405280519060200120816080015114610ca7576040517f08c379a0000000000000000000000000000000000000000000000000000000008152600401610c9e90612896565b60405180910390fd5b8360059080519060200190610cbd929190611cee565b50600191505092915050565b60606001805480602002602001604051908101604052809291908181526020016000905b82821015610d99578382906000526020600020018054610d0c90612b99565b80601f0160208091040260200160405190810160405280929190818152602001828054610d3890612b99565b8015610d855780601f10610d5a57610100808354040283529160200191610d85565b820191906000526020600020905b815481529060010190602001808311610d6857829003601f168201915b505050505081526020019060010190610ced565b50505050905090565b600460009054906101000a900473ffffffffffffffffffffffffffffffffffffffff1673ffffffffffffffffffffffffffffffffffffffff163373ffffffffffffffffffffffffffffffffffffffff1614610e32576040517f08c379a0000000000000000000000000000000000000000000000000000000008152600401610e2990612816565b60405180910390fd5b600660009054906101000a900473ffffffffffffffffffffffffffffffffffffffff1673ffffffffffffffffffffffffffffffffffffffff163373ffffffffffffffffffffffffffffffffffffffff1614610ec2576040517f08c379a0000000000000000000000000000000000000000000000000000000008152600401610eb990612836565b60405180910390fd5b600360008273ffffffffffffffffffffffffffffffffffffffff1673ffffffffffffffffffffffffffffffffffffffff16815260200190815260200160002060009054906101000a900460ff1615610f4f576040517f08c379a0000000000000000000000000000000000000000000000000000000008152600401610f4690612936565b60405180910390fd5b6001600360008373ffffffffffffffffffffffffffffffffffffffff1673ffffffffffffffffffffffffffffffffffffffff16815260200190815260200160002060006101000a81548160ff0219169083151502179055506002819080600181540180825580915050600190039060005260206000200160009091909190916101000a81548173ffffffffffffffffffffffffffffffffffffffff021916908373ffffffffffffffffffffffffffffffffffffffff1602179055508073ffffffffffffffffffffffffffffffffffffffff167fdb33970bd9bc1a413c7dac3b21e061709de094761c9396ef6d49b9ebdb79393360405160405180910390a250565b60036020528060005260406000206000915054906101000a900460ff1681565b60606005805461107f90612b99565b80601f01602080910402602001604051908101604052809291908181526020018280546110ab90612b99565b80156110f85780601f106110cd576101008083540402835291602001916110f8565b820191906000526020600020905b8154815290600101906020018083116110db57829003601f168201915b5050505050905090565b6001818154811061111257600080fd5b90600052602060002001600091509050805461112d90612b99565b80601f016020809104026020016040519081016040528092919081815260200182805461115990612b99565b80156111a65780601f1061117b576101008083540402835291602001916111a6565b820191906000526020600020905b81548152906001019060200180831161118957829003601f168201915b505050505081565b6000600660009054906101000a900473ffffffffffffffffffffffffffffffffffffffff16905090565b6000826040516111e891906126be565b908152602001604051809103902060050160009054906101000a900460ff16611246576040517f08c379a000000000000000000000000000000000000000000000000000000000815260040161123d90612916565b60405180910390fd5b60008260405160200161125991906126be565b6040516020818303038152906040528051906020012060008460405161127f91906126be565b90815260200160405180910390206001016040516020016112a091906126d5565b60405160208183030381529060405280519060200120149050806112f9576040517f08c379a00000000000000000000000000000000000000000000000000000000081526004016112f090612856565b60405180910390fd5b60008260405160200161130c91906126be565b6040516020818303038152906040528051906020012090506000808560405161133591906126be565b90815260200160405180910390206004015490508082141561138c576040517f08c379a0000000000000000000000000000000000000000000000000000000008152600401611383906128d6565b60405180910390fd5b8160008660405161139d91906126be565b9081526020016040518091039020600401819055503373ffffffffffffffffffffffffffffffffffffffff167f1b50a644b0847d53b0509345d2ba19a27e755cb5c52b363d882785c5ff7bee7982846040516113fa929190612766565b60405180910390a25050505050565b600073ffffffffffffffffffffffffffffffffffffffff16600660009054906101000a900473ffffffffffffffffffffffffffffffffffffffff1673ffffffffffffffffffffffffffffffffffffffff16141561149b576040517f08c379a000000000000000000000000000000000000000000000000000000000815260040161149290612956565b60405180910390fd5b600660009054906101000a900473ffffffffffffffffffffffffffffffffffffffff1673ffffffffffffffffffffffffffffffffffffffff167f7f7a416fbf0cacca70e58b8eee9540ca8335651c62f987f130ae945a0d210d3960405160405180910390a26000600660006101000a81548173ffffffffffffffffffffffffffffffffffffffff021916908373ffffffffffffffffffffffffffffffffffffffff160217905550565b60006001905060005b6001805490508110156116495760018181548110611594577f4e487b7100000000000000000000000000000000000000000000000000000000600052603260045260246000fd5b906000526020600020016040516020016115ae91906126d5565b60405160208183030381529060405280519060200120866040516020016115d591906126be565b6040516020818303038152906040528051906020012014156115f657600091505b81611636576040517f08c379a000000000000000000000000000000000000000000000000000000000815260040161162d906128b6565b60405180910390fd5b808061164190612bcb565b91505061154d565b5060008360405160200161165d91906126be565b6040516020818303038152906040528051906020012090506040518060e001604052808881526020018781526020018473ffffffffffffffffffffffffffffffffffffffff168152602001868152602001828152602001600115158152602001606467ffffffffffffffff8111156116fe577f4e487b7100000000000000000000000000000000000000000000000000000000600052604160045260246000fd5b60405190808252806020026020018201604052801561172c5781602001602082028036833780820191505090505b5081525060008760405161174091906126be565b9081526020016040518091039020600082015181600001908051906020019061176a929190611cee565b506020820151816001019080519060200190611787929190611cee565b5060408201518160020160006101000a81548173ffffffffffffffffffffffffffffffffffffffff021916908373ffffffffffffffffffffffffffffffffffffffff160217905550606082015181600301556080820151816004015560a08201518160050160006101000a81548160ff02191690831515021790555060c082015181600601908051906020019061181f929190611d74565b5090505060018690806001815401808255809150506001900390600052602060002001600090919091909150908051906020019061185e929190611cee565b508560059080519060200190611875929190611cee565b503373ffffffffffffffffffffffffffffffffffffffff167fb43e07573ffd613ee4cb14f22ebd42b902fb524682771d8e82932bd48bcda2478888886040516118c0939291906127b1565b60405180910390a250505050505050565b60008060056040516118e391906126d5565b908152602001604051809103902060050160009054906101000a900460ff16611941576040517f08c379a0000000000000000000000000000000000000000000000000000000008152600401611938906127f6565b60405180910390fd5b6000600560405161195291906126d5565b908152602001604051809103902060030154905090565b600460009054906101000a900473ffffffffffffffffffffffffffffffffffffffff1681565b6005805461199c90612b99565b80601f01602080910402602001604051908101604052809291908181526020018280546119c890612b99565b8015611a155780601f106119ea57610100808354040283529160200191611a15565b820191906000526020600020905b8154815290600101906020018083116119f857829003601f168201915b505050505081565b60008082604051611a2e91906126be565b908152602001604051809103902060020160009054906101000a900473ffffffffffffffffffffffffffffffffffffffff169050919050565b60028181548110611a7757600080fd5b906000526020600020016000915054906101000a900473ffffffffffffffffffffffffffffffffffffffff1681565b600660009054906101000a900473ffffffffffffffffffffffffffffffffffffffff1681565b6000600360008373ffffffffffffffffffffffffffffffffffffffff1673ffffffffffffffffffffffffffffffffffffffff16815260200190815260200160002060009054906101000a900460ff16611b5a576040517f08c379a0000000000000000000000000000000000000000000000000000000008152600401611b5190612876565b60405180910390fd5b81600660006101000a81548173ffffffffffffffffffffffffffffffffffffffff021916908373ffffffffffffffffffffffffffffffffffffffff16021790555060019050919050565b600060058054611bb390612b99565b905011611bf5576040517f08c379a0000000000000000000000000000000000000000000000000000000008152600401611bec90612976565b60405180910390fd5b6005604051611c0491906126d5565b60405180910390207f34ed8fb20d85b6fb0e3319e6d5a3ffdec9605b798082611f73aaab3e4ad7d43060405160405180910390a26040518060200160405280600081525060059080519060200190611c5d929190611cee565b50565b60606002805480602002602001604051908101604052809291908181526020018280548015611ce457602002820191906000526020600020905b8160009054906101000a900473ffffffffffffffffffffffffffffffffffffffff1673ffffffffffffffffffffffffffffffffffffffff1681526020019060010190808311611c9a575b5050505050905090565b828054611cfa90612b99565b90600052602060002090601f016020900481019282611d1c5760008555611d63565b82601f10611d3557805160ff1916838001178555611d63565b82800160010185558215611d63579182015b82811115611d62578251825591602001919060010190611d47565b5b509050611d709190611dc1565b5090565b828054828255906000526020600020908101928215611db0579160200282015b82811115611daf578251825591602001919060010190611d94565b5b509050611dbd9190611dc1565b5090565b5b80821115611dda576000816000905550600101611dc2565b5090565b6000611df1611dec846129e2565b6129b1565b905082815260208101848484011115611e0957600080fd5b611e14848285612b57565b509392505050565b600081359050611e2b81612cb2565b92915050565b600082601f830112611e4257600080fd5b8135611e52848260208601611dde565b91505092915050565b600081359050611e6a81612cc9565b92915050565b600060208284031215611e8257600080fd5b6000611e9084828501611e1c565b91505092915050565b600060208284031215611eab57600080fd5b600082013567ffffffffffffffff811115611ec557600080fd5b611ed184828501611e31565b91505092915050565b60008060408385031215611eed57600080fd5b600083013567ffffffffffffffff811115611f0757600080fd5b611f1385828601611e31565b925050602083013567ffffffffffffffff811115611f3057600080fd5b611f3c85828601611e31565b9150509250929050565b600080600080600060a08688031215611f5e57600080fd5b600086013567ffffffffffffffff811115611f7857600080fd5b611f8488828901611e31565b955050602086013567ffffffffffffffff811115611fa157600080fd5b611fad88828901611e31565b9450506040611fbe88828901611e5b565b935050606086013567ffffffffffffffff811115611fdb57600080fd5b611fe788828901611e31565b9250506080611ff888828901611e1c565b9150509295509295909350565b60006020828403121561201757600080fd5b600061202584828501611e5b565b91505092915050565b600061203a838361205a565b60208301905092915050565b60006120528383612169565b905092915050565b61206381612b05565b82525050565b61207281612b05565b82525050565b600061208382612a47565b61208d8185612a82565b935061209883612a12565b8060005b838110156120c95781516120b0888261202e565b97506120bb83612a68565b92505060018101905061209c565b5085935050505092915050565b60006120e182612a52565b6120eb8185612a93565b9350836020820285016120fd85612a22565b8060005b85811015612139578484038952815161211a8582612046565b945061212583612a75565b925060208a01995050600181019050612101565b50829750879550505050505092915050565b61215481612b17565b82525050565b61216381612b23565b82525050565b600061217482612a5d565b61217e8185612aa4565b935061218e818560208601612b66565b61219781612ca1565b840191505092915050565b60006121ad82612a5d565b6121b78185612ab5565b93506121c7818560208601612b66565b6121d081612ca1565b840191505092915050565b60006121e682612a5d565b6121f08185612ac6565b9350612200818560208601612b66565b80840191505092915050565b6000815461221981612b99565b6122238186612ac6565b9450600182166000811461223e576001811461224f57612282565b60ff19831686528186019350612282565b61225885612a32565b60005b8381101561227a5781548189015260018201915060208101905061225b565b838801955050505b50505092915050565b6000612298601383612ab5565b91507f55736572206e6f742072656769737465726564000000000000000000000000006000830152602082019050919050565b60006122d8602b83612ab5565b91507f4f6e6c7920636f6e7472616374206f776e65722063616e20706572666f726d2060008301527f7468697320616374696f6e0000000000000000000000000000000000000000006020830152604082019050919050565b600061233e603a83612ab5565b91507f4d6574616d61736b206163636f756e7420616e6420616464726573732075736560008301527f6420746f207369676e20696e20646f206e6f74206d617463682e0000000000006020830152604082019050919050565b60006123a4600e83612ab5565b91507f496e76616c696420656d61696c2e0000000000000000000000000000000000006000830152602082019050919050565b60006123e4601d83612ab5565b91507f546869732061646472657373206973206e6f7420616e2061646d696e2e0000006000830152602082019050919050565b6000612424601683612ab5565b91507f50617373776f726420697320696e636f72726563742e000000000000000000006000830152602082019050919050565b6000612464602c83612ab5565b91507f456d61696c20697320616c72656164792072656769737465726564206279206160008301527f6e6f7468657220757365722e00000000000000000000000000000000000000006020830152604082019050919050565b60006124ca603483612ab5565b91507f4e65772070617373776f72642063616e6e6f74206265207468652073616d652060008301527f617320746865206f6c642070617373776f72642e0000000000000000000000006020830152604082019050919050565b6000612530602183612ab5565b91507f4f776e65722063616e6e6f742062652072656d6f7665642061732061646d696e60008301527f2e000000000000000000000000000000000000000000000000000000000000006020830152604082019050919050565b6000612596601483612ab5565b91507f55736572206e6f7420726567697374657265642e0000000000000000000000006000830152602082019050919050565b60006125d6602183612ab5565b91507f54686973206164647265737320697320616c726561647920616e2061646d696e60008301527f2e000000000000000000000000000000000000000000000000000000000000006020830152604082019050919050565b600061263c602083612ab5565b91507f4e6f2061646d696e2069732063757272656e746c79207369676e656420696e2e6000830152602082019050919050565b600061267c601f83612ab5565b91507f4e6f20757365722069732063757272656e746c79207369676e656420696e2e006000830152602082019050919050565b6126b881612b4d565b82525050565b60006126ca82846121db565b915081905092915050565b60006126e1828461220c565b915081905092915050565b60006020820190506127016000830184612069565b92915050565b600060208201905081810360008301526127218184612078565b905092915050565b6000602082019050818103600083015261274381846120d6565b905092915050565b6000602082019050612760600083018461214b565b92915050565b600060408201905061277b600083018561215a565b612788602083018461215a565b9392505050565b600060208201905081810360008301526127a981846121a2565b905092915050565b600060608201905081810360008301526127cb81866121a2565b905081810360208301526127df81856121a2565b90506127ee60408301846126af565b949350505050565b6000602082019050818103600083015261280f8161228b565b9050919050565b6000602082019050818103600083015261282f816122cb565b9050919050565b6000602082019050818103600083015261284f81612331565b9050919050565b6000602082019050818103600083015261286f81612397565b9050919050565b6000602082019050818103600083015261288f816123d7565b9050919050565b600060208201905081810360008301526128af81612417565b9050919050565b600060208201905081810360008301526128cf81612457565b9050919050565b600060208201905081810360008301526128ef816124bd565b9050919050565b6000602082019050818103600083015261290f81612523565b9050919050565b6000602082019050818103600083015261292f81612589565b9050919050565b6000602082019050818103600083015261294f816125c9565b9050919050565b6000602082019050818103600083015261296f8161262f565b9050919050565b6000602082019050818103600083015261298f8161266f565b9050919050565b60006020820190506129ab60008301846126af565b92915050565b6000604051905081810181811067ffffffffffffffff821117156129d8576129d7612c72565b5b8060405250919050565b600067ffffffffffffffff8211156129fd576129fc612c72565b5b601f19601f8301169050602081019050919050565b6000819050602082019050919050565b6000819050602082019050919050565b60008190508160005260206000209050919050565b600081519050919050565b600081519050919050565b600081519050919050565b6000602082019050919050565b6000602082019050919050565b600082825260208201905092915050565b600082825260208201905092915050565b600082825260208201905092915050565b600082825260208201905092915050565b600081905092915050565b6000612adc82612b4d565b9150612ae783612b4d565b925082821015612afa57612af9612c14565b5b828203905092915050565b6000612b1082612b2d565b9050919050565b60008115159050919050565b6000819050919050565b600073ffffffffffffffffffffffffffffffffffffffff82169050919050565b6000819050919050565b82818337600083830152505050565b60005b83811015612b84578082015181840152602081019050612b69565b83811115612b93576000848401525b50505050565b60006002820490506001821680612bb157607f821691505b60208210811415612bc557612bc4612c43565b5b50919050565b6000612bd682612b4d565b91507fffffffffffffffffffffffffffffffffffffffffffffffffffffffffffffffff821415612c0957612c08612c14565b5b600182019050919050565b7f4e487b7100000000000000000000000000000000000000000000000000000000600052601160045260246000fd5b7f4e487b7100000000000000000000000000000000000000000000000000000000600052602260045260246000fd5b7f4e487b7100000000000000000000000000000000000000000000000000000000600052604160045260246000fd5b6000601f19601f8301169050919050565b612cbb81612b05565b8114612cc657600080fd5b50565b612cd281612b4d565b8114612cdd57600080fd5b5056fea2646970667358221220e4c247f8fad792883b320bcf5de05117da0e3daee3fab5da9b334fc64c36501164736f6c63430008000033",
  "immutableReferences": {},
  "source": "// SPDX-License-Identifier: MIT\r\npragma solidity ^0.8.0;\r\n\r\ncontract UserAuth {\r\n    struct User {\r\n        string name;\r\n        string email;\r\n        address refundAddress;\r\n        uint age;\r\n        bytes32 hashedPassword;\r\n        bool isRegistered;\r\n        uint256[] subscribedPackages;\r\n    }\r\n\r\n    mapping(string => User) private users;\r\n\r\n    string[] public registeredUserEmails; // External array to store all registered users' email\r\n    address[] public adminAddresses; // Array to store all admin addresses\r\n\r\n    mapping(address => bool) public admins; // Mapping to keep track of admins\r\n    address public owner; // Contract owner\r\n\r\n    string public currentUser; // For other contracts to know who the current user is\r\n    address public currentAdmin; // For other contracts to know who the current admin is\r\n\r\n    event UserRegistered(\r\n        address indexed userAddress,\r\n        string _name,\r\n        string email,\r\n        uint _age\r\n    );\r\n    event PasswordReset(\r\n        address indexed userAddress,\r\n        bytes32 oldHashedPassword,\r\n        bytes32 newHashedPassword\r\n    );\r\n    event AdminAssigned(address indexed adminAddress);\r\n    event AdminRemoved(address indexed adminAddress);\r\n    event UserLoggedOut(string indexed email);\r\n    event AdminLoggedOut(address indexed adminAddress);\r\n\r\n    modifier onlyOwner() {\r\n        require(\r\n            msg.sender == owner,\r\n            \"Only contract owner can perform this action\"\r\n        );\r\n        _;\r\n    }\r\n\r\n    modifier onlyAdmin() {\r\n        require(admins[msg.sender], \"Only admins can perform this action\");\r\n        _;\r\n    }\r\n\r\n    modifier sameAdmin() {\r\n        require(\r\n            msg.sender == currentAdmin,\r\n            \"Metamask account and address used to sign in do not match.\"\r\n        );\r\n        _;\r\n    }\r\n\r\n    constructor() {\r\n        owner = msg.sender; // Set contract creator as the first admin\r\n        admins[msg.sender] = true;\r\n        adminAddresses.push(msg.sender); // Add owner to adminAddresses array\r\n    }\r\n\r\n    // Register a new user with additional attributes and hashed password\r\n    function register(\r\n        string memory _name,\r\n        string memory _email,\r\n        uint _age,\r\n        string memory _password,\r\n        address _refundAddress\r\n    ) public {\r\n        bool validEmail = true;\r\n        for (uint i = 0; i < registeredUserEmails.length; i++) {\r\n            if (\r\n                keccak256(abi.encodePacked(_email)) ==\r\n                keccak256(abi.encodePacked(registeredUserEmails[i]))\r\n            ) {\r\n                validEmail = false;\r\n            }\r\n            require(validEmail, \"Email is already registered by another user.\");\r\n        }\r\n\r\n        bytes32 hashedPassword = keccak256(abi.encodePacked(_password)); // Hash the password\r\n        users[_email] = User({\r\n            name: _name,\r\n            email: _email,\r\n            age: _age,\r\n            refundAddress: _refundAddress,\r\n            hashedPassword: hashedPassword,\r\n            isRegistered: true,\r\n            subscribedPackages: new uint256[](100)\r\n        });\r\n\r\n        // Add the user address to the external registeredUsers array\r\n        registeredUserEmails.push(_email);\r\n        currentUser = _email;\r\n\r\n        emit UserRegistered(msg.sender, _name, _email, _age);\r\n    }\r\n\r\n    // Admin sign in using just the address\r\n    function adminSignIn(address _adminAddress) public returns (bool) {\r\n        require(admins[_adminAddress], \"This address is not an admin.\");\r\n\r\n        currentAdmin = _adminAddress;\r\n        return true;\r\n    }\r\n\r\n    // Admin function to assign a new admin\r\n    function assignAdmin(address _adminAddress) public onlyOwner sameAdmin {\r\n        require(!admins[_adminAddress], \"This address is already an admin.\");\r\n        admins[_adminAddress] = true;\r\n\r\n        adminAddresses.push(_adminAddress);\r\n\r\n        emit AdminAssigned(_adminAddress);\r\n    }\r\n\r\n    // Admin function to remove an admin\r\n    function removeAdmin(address _adminAddress) public onlyOwner sameAdmin {\r\n        require(admins[_adminAddress], \"This address is not an admin.\");\r\n        require(_adminAddress != owner, \"Owner cannot be removed as admin.\");\r\n        admins[_adminAddress] = false;\r\n\r\n        for (uint i = 0; i < adminAddresses.length; i++) {\r\n            if (adminAddresses[i] == _adminAddress) {\r\n                adminAddresses[i] = adminAddresses[adminAddresses.length - 1];\r\n                adminAddresses.pop();\r\n                break;\r\n            }\r\n        }\r\n\r\n        emit AdminRemoved(_adminAddress);\r\n    }\r\n\r\n    // Sign in using email and password\r\n    function signIn(\r\n        string memory _identifier,\r\n        string memory _password\r\n    ) public returns (bool) {\r\n        User memory user = users[_identifier];\r\n        require(user.isRegistered, \"User not registered.\");\r\n        require(\r\n            user.hashedPassword == keccak256(abi.encodePacked(_password)),\r\n            \"Password is incorrect.\"\r\n        );\r\n\r\n        currentUser = _identifier;\r\n        return true;\r\n    }\r\n\r\n    // Reset password\r\n    function resetPassword(\r\n        string memory _identifier,\r\n        string memory _newPassword\r\n    ) public {\r\n        require(users[_identifier].isRegistered, \"User not registered.\");\r\n        bool isValid = keccak256(abi.encodePacked(users[_identifier].email)) ==\r\n            keccak256(abi.encodePacked(_identifier));\r\n        require(isValid, \"Invalid email.\");\r\n\r\n        bytes32 newHashedPassword = keccak256(abi.encodePacked(_newPassword));\r\n        bytes32 oldHashedPassword = users[_identifier].hashedPassword;\r\n\r\n        require(\r\n            newHashedPassword != oldHashedPassword,\r\n            \"New password cannot be the same as the old password.\"\r\n        );\r\n\r\n        users[_identifier].hashedPassword = newHashedPassword;\r\n\r\n        emit PasswordReset(msg.sender, oldHashedPassword, newHashedPassword);\r\n    }\r\n\r\n    // Logout for the current user\r\n    function logoutUser() public {\r\n        require(\r\n            bytes(currentUser).length > 0,\r\n            \"No user is currently signed in.\"\r\n        );\r\n        emit UserLoggedOut(currentUser);\r\n        currentUser = \"\"; // Reset current user\r\n    }\r\n\r\n    // Logout for the current admin\r\n    function logoutAdmin() public {\r\n        require(currentAdmin != address(0), \"No admin is currently signed in.\");\r\n        emit AdminLoggedOut(currentAdmin);\r\n        currentAdmin = address(0); // Reset current admin\r\n    }\r\n\r\n    // Function to get all registered user emails\r\n    function getAllRegisteredUsers() public view returns (string[] memory) {\r\n        return registeredUserEmails;\r\n    }\r\n\r\n    // Function to get all registered admin addresses\r\n    function getAllAdmins() public view returns (address[] memory) {\r\n        return adminAddresses;\r\n    }\r\n\r\n    function getUserAge() public view returns (uint) {\r\n        require(users[currentUser].isRegistered, \"User not registered\");\r\n        return users[currentUser].age;\r\n    }\r\n\r\n    function getCurrentUser() public view returns (string memory) {\r\n        return (currentUser);\r\n    }\r\n\r\n    function getCurrentAdmin() public view returns (address) {\r\n        return (currentAdmin);\r\n    }\r\n\r\n    function getRegisteredUserEmails() public view returns (string[] memory) {\r\n        return (registeredUserEmails);\r\n    }\r\n\r\n    function getUserRefundAddress(\r\n        string memory _user\r\n    ) public view returns (address) {\r\n        return (users[_user].refundAddress);\r\n    }\r\n}\r\n",
  "sourcePath": "C:\\Users\\leeda\\OneDrive\\Desktop\\Great_Global\\Danny_Test\\SponsorAnimals\\contracts\\UserAuth.sol",
  "compiler": {
    "name": "solc",
    "version": "0.8.0+commit.c7dfd78e.Emscripten.clang"
  },
  "schemaVersion": "3.4.16",
  "updatedAt": "2024-09-26T10:37:23.468Z",
  "networkType": "ethereum",
  "devdoc": {
    "kind": "dev",
    "methods": {},
    "version": 1
  },
  "userdoc": {
    "kind": "user",
    "methods": {},
    "version": 1
  }
}