{
  "contractName": "UserAuth",
  "abi": [
    {
      "anonymous": false,
      "inputs": [
        {
          "indexed": true,
          "internalType": "address",
          "name": "userAddress",
          "type": "address"
        },
        {
          "indexed": false,
          "internalType": "uint256",
          "name": "insuranceId",
          "type": "uint256"
        }
      ],
      "name": "InsuranceSubscribed",
      "type": "event"
    },
    {
      "anonymous": false,
      "inputs": [
        {
          "indexed": true,
          "internalType": "address",
          "name": "userAddress",
          "type": "address"
        },
        {
          "indexed": false,
          "internalType": "bytes32",
          "name": "oldHashedPassword",
          "type": "bytes32"
        },
        {
          "indexed": false,
          "internalType": "bytes32",
          "name": "newHashedPassword",
          "type": "bytes32"
        }
      ],
      "name": "PasswordReset",
      "type": "event"
    },
    {
      "anonymous": false,
      "inputs": [
        {
          "indexed": true,
          "internalType": "address",
          "name": "userAddress",
          "type": "address"
        },
        {
          "indexed": false,
          "internalType": "string",
          "name": "_name",
          "type": "string"
        },
        {
          "indexed": false,
          "internalType": "string",
          "name": "email",
          "type": "string"
        },
        {
          "indexed": false,
          "internalType": "uint256",
          "name": "_age",
          "type": "uint256"
        }
      ],
      "name": "UserRegistered",
      "type": "event"
    },
    {
      "inputs": [
        {
          "internalType": "uint256",
          "name": "",
          "type": "uint256"
        }
      ],
      "name": "registeredUsers",
      "outputs": [
        {
          "internalType": "address",
          "name": "",
          "type": "address"
        }
      ],
      "stateMutability": "view",
      "type": "function"
    },
    {
      "inputs": [
        {
          "internalType": "address",
          "name": "",
          "type": "address"
        }
      ],
      "name": "users",
      "outputs": [
        {
          "internalType": "string",
          "name": "name",
          "type": "string"
        },
        {
          "internalType": "string",
          "name": "email",
          "type": "string"
        },
        {
          "internalType": "uint256",
          "name": "age",
          "type": "uint256"
        },
        {
          "internalType": "bytes32",
          "name": "hashedPassword",
          "type": "bytes32"
        },
        {
          "internalType": "bool",
          "name": "isRegistered",
          "type": "bool"
        }
      ],
      "stateMutability": "view",
      "type": "function"
    },
    {
      "inputs": [
        {
          "internalType": "string",
          "name": "_name",
          "type": "string"
        },
        {
          "internalType": "string",
          "name": "_email",
          "type": "string"
        },
        {
          "internalType": "uint256",
          "name": "_age",
          "type": "uint256"
        },
        {
          "internalType": "string",
          "name": "_password",
          "type": "string"
        }
      ],
      "name": "register",
      "outputs": [],
      "stateMutability": "nonpayable",
      "type": "function"
    },
    {
      "inputs": [
        {
          "internalType": "string",
          "name": "_identifier",
          "type": "string"
        },
        {
          "internalType": "string",
          "name": "_password",
          "type": "string"
        }
      ],
      "name": "signIn",
      "outputs": [
        {
          "internalType": "bool",
          "name": "",
          "type": "bool"
        }
      ],
      "stateMutability": "view",
      "type": "function"
    },
    {
      "inputs": [
        {
          "internalType": "string",
          "name": "_identifier",
          "type": "string"
        },
        {
          "internalType": "string",
          "name": "_newPassword",
          "type": "string"
        }
      ],
      "name": "resetPassword",
      "outputs": [],
      "stateMutability": "nonpayable",
      "type": "function"
    },
    {
      "inputs": [],
      "name": "getAllRegisteredUsers",
      "outputs": [
        {
          "internalType": "address[]",
          "name": "",
          "type": "address[]"
        }
      ],
      "stateMutability": "view",
      "type": "function"
    }
  ],
  "bytecode": "0x608060405234801561001057600080fd5b50611844806100206000396000f3fe608060405234801561001057600080fd5b50600436106100625760003560e01c80632c162dbc14610067578063397388af14610097578063679a9c2c146100b55780637259e0f8146100d1578063a87430ba14610101578063fb0bc6a314610135575b600080fd5b610081600480360381019061007c9190610ee4565b610151565b60405161008e919061142b565b60405180910390f35b61009f610468565b6040516100ac9190611409565b60405180910390f35b6100cf60048036038101906100ca9190610ee4565b6104f6565b005b6100eb60048036038101906100e69190610ffb565b61083e565b6040516100f891906113ee565b60405180910390f35b61011b60048036038101906101169190610ebb565b61087d565b60405161012c9594939291906114b4565b60405180910390f35b61014f600480360381019061014a9190610f50565b6109d0565b005b60008060018460405161016491906113c0565b908152602001604051809103902060009054906101000a900473ffffffffffffffffffffffffffffffffffffffff169050600073ffffffffffffffffffffffffffffffffffffffff168173ffffffffffffffffffffffffffffffffffffffff16141561020c576002846040516101da91906113c0565b908152602001604051809103902060009054906101000a900473ffffffffffffffffffffffffffffffffffffffff1690505b60008060008373ffffffffffffffffffffffffffffffffffffffff1673ffffffffffffffffffffffffffffffffffffffff1681526020019081526020016000206040518060a00160405290816000820180546102679061173f565b80601f01602080910402602001604051908101604052809291908181526020018280546102939061173f565b80156102e05780601f106102b5576101008083540402835291602001916102e0565b820191906000526020600020905b8154815290600101906020018083116102c357829003601f168201915b505050505081526020016001820180546102f99061173f565b80601f01602080910402602001604051908101604052809291908181526020018280546103259061173f565b80156103725780601f1061034757610100808354040283529160200191610372565b820191906000526020600020905b81548152906001019060200180831161035557829003601f168201915b5050505050815260200160028201548152602001600382015481526020016004820160009054906101000a900460ff161515151581525050905080608001516103f0576040517f08c379a00000000000000000000000000000000000000000000000000000000081526004016103e7906115b5565b60405180910390fd5b8360405160200161040191906113c0565b6040516020818303038152906040528051906020012081606001511461045c576040517f08c379a000000000000000000000000000000000000000000000000000000000815260040161045390611535565b60405180910390fd5b60019250505092915050565b606060038054806020026020016040519081016040528092919081815260200182805480156104ec57602002820191906000526020600020905b8160009054906101000a900473ffffffffffffffffffffffffffffffffffffffff1673ffffffffffffffffffffffffffffffffffffffff16815260200190600101908083116104a2575b5050505050905090565b6000803373ffffffffffffffffffffffffffffffffffffffff1673ffffffffffffffffffffffffffffffffffffffff16815260200190815260200160002060040160009054906101000a900460ff16610584576040517f08c379a000000000000000000000000000000000000000000000000000000000815260040161057b906115b5565b60405180910390fd5b60008260405160200161059791906113c0565b604051602081830303815290604052805190602001206000803373ffffffffffffffffffffffffffffffffffffffff1673ffffffffffffffffffffffffffffffffffffffff1681526020019081526020016000206000016040516020016105fe91906113d7565b6040516020818303038152906040528051906020012014806106ab57508260405160200161062c91906113c0565b604051602081830303815290604052805190602001206000803373ffffffffffffffffffffffffffffffffffffffff1673ffffffffffffffffffffffffffffffffffffffff16815260200190815260200160002060010160405160200161069391906113d7565b60405160208183030381529060405280519060200120145b9050806106ed576040517f08c379a00000000000000000000000000000000000000000000000000000000081526004016106e490611555565b60405180910390fd5b60008260405160200161070091906113c0565b60405160208183030381529060405280519060200120905060008060003373ffffffffffffffffffffffffffffffffffffffff1673ffffffffffffffffffffffffffffffffffffffff168152602001908152602001600020600301549050808214156107a1576040517f08c379a000000000000000000000000000000000000000000000000000000000815260040161079890611595565b60405180910390fd5b816000803373ffffffffffffffffffffffffffffffffffffffff1673ffffffffffffffffffffffffffffffffffffffff168152602001908152602001600020600301819055503373ffffffffffffffffffffffffffffffffffffffff167f1b50a644b0847d53b0509345d2ba19a27e755cb5c52b363d882785c5ff7bee79828460405161082f929190611446565b60405180910390a25050505050565b6003818154811061084e57600080fd5b906000526020600020016000915054906101000a900473ffffffffffffffffffffffffffffffffffffffff1681565b60006020528060005260406000206000915090508060000180546108a09061173f565b80601f01602080910402602001604051908101604052809291908181526020018280546108cc9061173f565b80156109195780601f106108ee57610100808354040283529160200191610919565b820191906000526020600020905b8154815290600101906020018083116108fc57829003601f168201915b50505050509080600101805461092e9061173f565b80601f016020809104026020016040519081016040528092919081815260200182805461095a9061173f565b80156109a75780601f1061097c576101008083540402835291602001916109a7565b820191906000526020600020905b81548152906001019060200180831161098a57829003601f168201915b5050505050908060020154908060030154908060040160009054906101000a900460ff16905085565b6000803373ffffffffffffffffffffffffffffffffffffffff1673ffffffffffffffffffffffffffffffffffffffff16815260200190815260200160002060040160009054906101000a900460ff1615610a5f576040517f08c379a0000000000000000000000000000000000000000000000000000000008152600401610a5690611515565b60405180910390fd5b600073ffffffffffffffffffffffffffffffffffffffff16600184604051610a8791906113c0565b908152602001604051809103902060009054906101000a900473ffffffffffffffffffffffffffffffffffffffff1673ffffffffffffffffffffffffffffffffffffffff1614610b0c576040517f08c379a0000000000000000000000000000000000000000000000000000000008152600401610b0390611575565b60405180910390fd5b600081604051602001610b1f91906113c0565b6040516020818303038152906040528051906020012090506040518060a00160405280868152602001858152602001848152602001828152602001600115158152506000803373ffffffffffffffffffffffffffffffffffffffff1673ffffffffffffffffffffffffffffffffffffffff1681526020019081526020016000206000820151816000019080519060200190610bbb929190610d86565b506020820151816001019080519060200190610bd8929190610d86565b50604082015181600201556060820151816003015560808201518160040160006101000a81548160ff02191690831515021790555090505033600185604051610c2191906113c0565b908152602001604051809103902060006101000a81548173ffffffffffffffffffffffffffffffffffffffff021916908373ffffffffffffffffffffffffffffffffffffffff16021790555033600286604051610c7e91906113c0565b908152602001604051809103902060006101000a81548173ffffffffffffffffffffffffffffffffffffffff021916908373ffffffffffffffffffffffffffffffffffffffff1602179055506003339080600181540180825580915050600190039060005260206000200160009091909190916101000a81548173ffffffffffffffffffffffffffffffffffffffff021916908373ffffffffffffffffffffffffffffffffffffffff1602179055503373ffffffffffffffffffffffffffffffffffffffff167fb43e07573ffd613ee4cb14f22ebd42b902fb524682771d8e82932bd48bcda247868686604051610d779392919061146f565b60405180910390a25050505050565b828054610d929061173f565b90600052602060002090601f016020900481019282610db45760008555610dfb565b82601f10610dcd57805160ff1916838001178555610dfb565b82800160010185558215610dfb579182015b82811115610dfa578251825591602001919060010190610ddf565b5b509050610e089190610e0c565b5090565b5b80821115610e25576000816000905550600101610e0d565b5090565b6000610e3c610e3784611606565b6115d5565b905082815260208101848484011115610e5457600080fd5b610e5f8482856116fd565b509392505050565b600081359050610e76816117e0565b92915050565b600082601f830112610e8d57600080fd5b8135610e9d848260208601610e29565b91505092915050565b600081359050610eb5816117f7565b92915050565b600060208284031215610ecd57600080fd5b6000610edb84828501610e67565b91505092915050565b60008060408385031215610ef757600080fd5b600083013567ffffffffffffffff811115610f1157600080fd5b610f1d85828601610e7c565b925050602083013567ffffffffffffffff811115610f3a57600080fd5b610f4685828601610e7c565b9150509250929050565b60008060008060808587031215610f6657600080fd5b600085013567ffffffffffffffff811115610f8057600080fd5b610f8c87828801610e7c565b945050602085013567ffffffffffffffff811115610fa957600080fd5b610fb587828801610e7c565b9350506040610fc687828801610ea6565b925050606085013567ffffffffffffffff811115610fe357600080fd5b610fef87828801610e7c565b91505092959194509250565b60006020828403121561100d57600080fd5b600061101b84828501610ea6565b91505092915050565b6000611030838361103c565b60208301905092915050565b611045816116ab565b82525050565b611054816116ab565b82525050565b60006110658261165b565b61106f818561167e565b935061107a83611636565b8060005b838110156110ab5781516110928882611024565b975061109d83611671565b92505060018101905061107e565b5085935050505092915050565b6110c1816116bd565b82525050565b6110d0816116c9565b82525050565b60006110e182611666565b6110eb818561168f565b93506110fb81856020860161170c565b611104816117cf565b840191505092915050565b600061111a82611666565b61112481856116a0565b935061113481856020860161170c565b80840191505092915050565b6000815461114d8161173f565b61115781866116a0565b945060018216600081146111725760018114611183576111b6565b60ff198316865281860193506111b6565b61118c85611646565b60005b838110156111ae5781548189015260018201915060208101905061118f565b838801955050505b50505092915050565b60006111cc602a8361168f565b91507f5573657220616c7265616479207265676973746572656420776974682074686960008301527f7320616464726573732e000000000000000000000000000000000000000000006020830152604082019050919050565b600061123260168361168f565b91507f50617373776f726420697320696e636f72726563742e000000000000000000006000830152602082019050919050565b600061127260168361168f565b91507f496e76616c6964206e616d65206f7220656d61696c2e000000000000000000006000830152602082019050919050565b60006112b2602c8361168f565b91507f456d61696c20697320616c72656164792072656769737465726564206279206160008301527f6e6f7468657220757365722e00000000000000000000000000000000000000006020830152604082019050919050565b600061131860348361168f565b91507f4e65772070617373776f72642063616e6e6f74206265207468652073616d652060008301527f617320746865206f6c642070617373776f72642e0000000000000000000000006020830152604082019050919050565b600061137e60148361168f565b91507f55736572206e6f7420726567697374657265642e0000000000000000000000006000830152602082019050919050565b6113ba816116f3565b82525050565b60006113cc828461110f565b915081905092915050565b60006113e38284611140565b915081905092915050565b6000602082019050611403600083018461104b565b92915050565b60006020820190508181036000830152611423818461105a565b905092915050565b600060208201905061144060008301846110b8565b92915050565b600060408201905061145b60008301856110c7565b61146860208301846110c7565b9392505050565b6000606082019050818103600083015261148981866110d6565b9050818103602083015261149d81856110d6565b90506114ac60408301846113b1565b949350505050565b600060a08201905081810360008301526114ce81886110d6565b905081810360208301526114e281876110d6565b90506114f160408301866113b1565b6114fe60608301856110c7565b61150b60808301846110b8565b9695505050505050565b6000602082019050818103600083015261152e816111bf565b9050919050565b6000602082019050818103600083015261154e81611225565b9050919050565b6000602082019050818103600083015261156e81611265565b9050919050565b6000602082019050818103600083015261158e816112a5565b9050919050565b600060208201905081810360008301526115ae8161130b565b9050919050565b600060208201905081810360008301526115ce81611371565b9050919050565b6000604051905081810181811067ffffffffffffffff821117156115fc576115fb6117a0565b5b8060405250919050565b600067ffffffffffffffff821115611621576116206117a0565b5b601f19601f8301169050602081019050919050565b6000819050602082019050919050565b60008190508160005260206000209050919050565b600081519050919050565b600081519050919050565b6000602082019050919050565b600082825260208201905092915050565b600082825260208201905092915050565b600081905092915050565b60006116b6826116d3565b9050919050565b60008115159050919050565b6000819050919050565b600073ffffffffffffffffffffffffffffffffffffffff82169050919050565b6000819050919050565b82818337600083830152505050565b60005b8381101561172a57808201518184015260208101905061170f565b83811115611739576000848401525b50505050565b6000600282049050600182168061175757607f821691505b6020821081141561176b5761176a611771565b5b50919050565b7f4e487b7100000000000000000000000000000000000000000000000000000000600052602260045260246000fd5b7f4e487b7100000000000000000000000000000000000000000000000000000000600052604160045260246000fd5b6000601f19601f8301169050919050565b6117e9816116ab565b81146117f457600080fd5b50565b611800816116f3565b811461180b57600080fd5b5056fea2646970667358221220ac116b32eca11e82c1a89c9e23b2d4e6efb7b61a38cb528f00c4013020a0e74564736f6c63430008000033",
  "immutableReferences": {},
  "source": "// SPDX-License-Identifier: MIT\r\npragma solidity ^0.8.0;\r\n\r\ncontract UserAuth {\r\n    struct User {\r\n        string name;\r\n        string email;\r\n        uint age;\r\n        bytes32 hashedPassword;\r\n        bool isRegistered;\r\n    }\r\n\r\n    mapping(address => User) public users;\r\n    mapping(string => address) private emailToAddress;\r\n    mapping(string => address) private nameToAddress;\r\n\r\n    address[] public registeredUsers; // External array to store all registered users' addresses\r\n\r\n    event UserRegistered(\r\n        address indexed userAddress,\r\n        string _name,\r\n        string email,\r\n        uint _age\r\n    );\r\n    event PasswordReset(\r\n        address indexed userAddress,\r\n        bytes32 oldHashedPassword,\r\n        bytes32 newHashedPassword\r\n    );\r\n    event InsuranceSubscribed(address indexed userAddress, uint256 insuranceId);\r\n\r\n    // Register a new user with additional attributes and hashed password\r\n    function register(\r\n        string memory _name,\r\n        string memory _email,\r\n        uint _age,\r\n        string memory _password\r\n    ) public {\r\n        require(\r\n            !users[msg.sender].isRegistered,\r\n            \"User already registered with this address.\"\r\n        );\r\n        require(\r\n            emailToAddress[_email] == address(0),\r\n            \"Email is already registered by another user.\"\r\n        ); // Check if email is already used\r\n\r\n        bytes32 hashedPassword = keccak256(abi.encodePacked(_password)); // Hash the password\r\n        users[msg.sender] = User({\r\n            name: _name,\r\n            email: _email,\r\n            age: _age,\r\n            hashedPassword: hashedPassword,\r\n            isRegistered: true\r\n        });\r\n\r\n        // Map email and name to address for easy lookup\r\n        emailToAddress[_email] = msg.sender;\r\n        nameToAddress[_name] = msg.sender;\r\n\r\n        // Add the user address to the external registeredUsers array\r\n        registeredUsers.push(msg.sender);\r\n\r\n        emit UserRegistered(msg.sender, _name, _email, _age);\r\n    }\r\n\r\n    // Sign in using either name or email and password\r\n    function signIn(\r\n        string memory _identifier,\r\n        string memory _password\r\n    ) public view returns (bool) {\r\n        address userAddress = emailToAddress[_identifier];\r\n        if (userAddress == address(0)) {\r\n            userAddress = nameToAddress[_identifier];\r\n        }\r\n\r\n        User memory user = users[userAddress];\r\n        require(user.isRegistered, \"User not registered.\");\r\n        require(\r\n            user.hashedPassword == keccak256(abi.encodePacked(_password)),\r\n            \"Password is incorrect.\"\r\n        );\r\n\r\n        return true; // Sign in successful\r\n    }\r\n\r\n    function resetPassword(\r\n        string memory _identifier,\r\n        string memory _newPassword\r\n    ) public {\r\n        require(users[msg.sender].isRegistered, \"User not registered.\");\r\n\r\n        bool isValid = (keccak256(abi.encodePacked(users[msg.sender].name)) ==\r\n            keccak256(abi.encodePacked(_identifier)) ||\r\n            keccak256(abi.encodePacked(users[msg.sender].email)) ==\r\n            keccak256(abi.encodePacked(_identifier)));\r\n\r\n        require(isValid, \"Invalid name or email.\");\r\n\r\n        bytes32 newHashedPassword = keccak256(abi.encodePacked(_newPassword));\r\n        bytes32 oldHashedPassword = users[msg.sender].hashedPassword;\r\n\r\n        require(\r\n            newHashedPassword != oldHashedPassword,\r\n            \"New password cannot be the same as the old password.\"\r\n        );\r\n\r\n        users[msg.sender].hashedPassword = newHashedPassword;\r\n\r\n        emit PasswordReset(msg.sender, oldHashedPassword, newHashedPassword);\r\n    }\r\n\r\n    // Function to get all registered user addresses\r\n    function getAllRegisteredUsers() public view returns (address[] memory) {\r\n        return registeredUsers;\r\n    }\r\n}\r\n",
  "sourcePath": "C:\\Users\\leeda\\OneDrive\\Desktop\\Great_Global\\Danny_Test\\SponsorAnimals\\contracts\\UserAuth.sol",
  "compiler": {
    "name": "solc",
    "version": "0.8.0+commit.c7dfd78e.Emscripten.clang"
  },
  "schemaVersion": "3.4.16",
  "updatedAt": "2024-09-24T16:01:07.507Z",
  "devdoc": {
    "kind": "dev",
    "methods": {},
    "version": 1
  },
  "userdoc": {
    "kind": "user",
    "methods": {},
    "version": 1
  }
}