{
  "contractName": "UserAuth",
  "abi": [
    {
      "inputs": [],
      "stateMutability": "nonpayable",
      "type": "constructor"
    },
    {
      "anonymous": false,
      "inputs": [
        {
          "indexed": true,
          "internalType": "address",
          "name": "adminAddress",
          "type": "address"
        }
      ],
      "name": "AdminAssigned",
      "type": "event"
    },
    {
      "anonymous": false,
      "inputs": [
        {
          "indexed": true,
          "internalType": "address",
          "name": "adminAddress",
          "type": "address"
        }
      ],
      "name": "AdminLoggedOut",
      "type": "event"
    },
    {
      "anonymous": false,
      "inputs": [
        {
          "indexed": true,
          "internalType": "address",
          "name": "adminAddress",
          "type": "address"
        }
      ],
      "name": "AdminRemoved",
      "type": "event"
    },
    {
      "anonymous": false,
      "inputs": [
        {
          "indexed": true,
          "internalType": "address",
          "name": "userAddress",
          "type": "address"
        },
        {
          "indexed": false,
          "internalType": "bytes32",
          "name": "oldHashedPassword",
          "type": "bytes32"
        },
        {
          "indexed": false,
          "internalType": "bytes32",
          "name": "newHashedPassword",
          "type": "bytes32"
        }
      ],
      "name": "PasswordReset",
      "type": "event"
    },
    {
      "anonymous": false,
      "inputs": [
        {
          "indexed": true,
          "internalType": "string",
          "name": "email",
          "type": "string"
        }
      ],
      "name": "UserLoggedOut",
      "type": "event"
    },
    {
      "anonymous": false,
      "inputs": [
        {
          "indexed": true,
          "internalType": "address",
          "name": "userAddress",
          "type": "address"
        },
        {
          "indexed": false,
          "internalType": "string",
          "name": "_name",
          "type": "string"
        },
        {
          "indexed": false,
          "internalType": "string",
          "name": "email",
          "type": "string"
        },
        {
          "indexed": false,
          "internalType": "uint8",
          "name": "_age",
          "type": "uint8"
        }
      ],
      "name": "UserRegistered",
      "type": "event"
    },
    {
      "inputs": [
        {
          "internalType": "uint256",
          "name": "",
          "type": "uint256"
        }
      ],
      "name": "adminAddresses",
      "outputs": [
        {
          "internalType": "address",
          "name": "",
          "type": "address"
        }
      ],
      "stateMutability": "view",
      "type": "function"
    },
    {
      "inputs": [
        {
          "internalType": "address",
          "name": "",
          "type": "address"
        }
      ],
      "name": "admins",
      "outputs": [
        {
          "internalType": "bool",
          "name": "",
          "type": "bool"
        }
      ],
      "stateMutability": "view",
      "type": "function"
    },
    {
      "inputs": [],
      "name": "currentAdmin",
      "outputs": [
        {
          "internalType": "address",
          "name": "",
          "type": "address"
        }
      ],
      "stateMutability": "view",
      "type": "function"
    },
    {
      "inputs": [],
      "name": "currentUser",
      "outputs": [
        {
          "internalType": "string",
          "name": "",
          "type": "string"
        }
      ],
      "stateMutability": "view",
      "type": "function"
    },
    {
      "inputs": [],
      "name": "owner",
      "outputs": [
        {
          "internalType": "address",
          "name": "",
          "type": "address"
        }
      ],
      "stateMutability": "view",
      "type": "function"
    },
    {
      "inputs": [
        {
          "internalType": "uint256",
          "name": "",
          "type": "uint256"
        }
      ],
      "name": "registeredUserEmails",
      "outputs": [
        {
          "internalType": "string",
          "name": "",
          "type": "string"
        }
      ],
      "stateMutability": "view",
      "type": "function"
    },
    {
      "inputs": [
        {
          "internalType": "string",
          "name": "_name",
          "type": "string"
        },
        {
          "internalType": "string",
          "name": "_email",
          "type": "string"
        },
        {
          "internalType": "uint8",
          "name": "_age",
          "type": "uint8"
        },
        {
          "internalType": "string",
          "name": "_password",
          "type": "string"
        },
        {
          "internalType": "address",
          "name": "_refundAddress",
          "type": "address"
        }
      ],
      "name": "register",
      "outputs": [],
      "stateMutability": "nonpayable",
      "type": "function"
    },
    {
      "inputs": [
        {
          "internalType": "address",
          "name": "_adminAddress",
          "type": "address"
        }
      ],
      "name": "adminSignIn",
      "outputs": [
        {
          "internalType": "bool",
          "name": "",
          "type": "bool"
        }
      ],
      "stateMutability": "nonpayable",
      "type": "function"
    },
    {
      "inputs": [
        {
          "internalType": "address",
          "name": "_adminAddress",
          "type": "address"
        }
      ],
      "name": "assignAdmin",
      "outputs": [],
      "stateMutability": "nonpayable",
      "type": "function"
    },
    {
      "inputs": [
        {
          "internalType": "address",
          "name": "_adminAddress",
          "type": "address"
        }
      ],
      "name": "removeAdmin",
      "outputs": [],
      "stateMutability": "nonpayable",
      "type": "function"
    },
    {
      "inputs": [
        {
          "internalType": "string",
          "name": "_identifier",
          "type": "string"
        },
        {
          "internalType": "string",
          "name": "_password",
          "type": "string"
        }
      ],
      "name": "signIn",
      "outputs": [
        {
          "internalType": "bool",
          "name": "",
          "type": "bool"
        }
      ],
      "stateMutability": "nonpayable",
      "type": "function"
    },
    {
      "inputs": [
        {
          "internalType": "string",
          "name": "_identifier",
          "type": "string"
        },
        {
          "internalType": "string",
          "name": "_newPassword",
          "type": "string"
        }
      ],
      "name": "resetPassword",
      "outputs": [],
      "stateMutability": "nonpayable",
      "type": "function"
    },
    {
      "inputs": [],
      "name": "logoutUser",
      "outputs": [],
      "stateMutability": "nonpayable",
      "type": "function"
    },
    {
      "inputs": [],
      "name": "logoutAdmin",
      "outputs": [],
      "stateMutability": "nonpayable",
      "type": "function"
    },
    {
      "inputs": [],
      "name": "getAllRegisteredUsers",
      "outputs": [
        {
          "internalType": "string[]",
          "name": "",
          "type": "string[]"
        }
      ],
      "stateMutability": "view",
      "type": "function"
    },
    {
      "inputs": [],
      "name": "getAllAdmins",
      "outputs": [
        {
          "internalType": "address[]",
          "name": "",
          "type": "address[]"
        }
      ],
      "stateMutability": "view",
      "type": "function"
    },
    {
      "inputs": [],
      "name": "getUserAge",
      "outputs": [
        {
          "internalType": "uint8",
          "name": "",
          "type": "uint8"
        }
      ],
      "stateMutability": "view",
      "type": "function"
    },
    {
      "inputs": [],
      "name": "getCurrentUser",
      "outputs": [
        {
          "internalType": "string",
          "name": "",
          "type": "string"
        }
      ],
      "stateMutability": "view",
      "type": "function"
    },
    {
      "inputs": [],
      "name": "getCurrentAdmin",
      "outputs": [
        {
          "internalType": "address",
          "name": "",
          "type": "address"
        }
      ],
      "stateMutability": "view",
      "type": "function"
    },
    {
      "inputs": [],
      "name": "getRegisteredUserEmails",
      "outputs": [
        {
          "internalType": "string[]",
          "name": "",
          "type": "string[]"
        }
      ],
      "stateMutability": "view",
      "type": "function"
    }
  ],
  "bytecode": "0x608060405234801561001057600080fd5b5033600460006101000a81548173ffffffffffffffffffffffffffffffffffffffff021916908373ffffffffffffffffffffffffffffffffffffffff1602179055506001600360003373ffffffffffffffffffffffffffffffffffffffff1673ffffffffffffffffffffffffffffffffffffffff16815260200190815260200160002060006101000a81548160ff0219169083151502179055506002339080600181540180825580915050600190039060005260206000200160009091909190916101000a81548173ffffffffffffffffffffffffffffffffffffffff021916908373ffffffffffffffffffffffffffffffffffffffff160217905550612cc38061011c6000396000f3fe608060405234801561001057600080fd5b506004361061012c5760003560e01c80636b9624cc116100ad578063ba44eecf11610071578063ba44eecf1461030d578063ba4bcd721461033d578063c8518ecb1461035b578063d8f145d21461038b578063e9523c97146103955761012c565b80636b9624cc1461028d5780637cae3d4d146102975780638da5cb5b146102b557806392ee0334146102d3578063b973fd23146102f15761012c565b8063429b62e5116100f4578063429b62e5146101d557806343ae37c3146102055780635a06a71814610223578063643d430c14610253578063679a9c2c146102715761012c565b80631785f53c146101315780631bb647221461014d5780632c162dbc1461016b578063397388af1461019b5780633da7d2ed146101b9575b600080fd5b61014b60048036038101906101469190611e3a565b6103b3565b005b6101556108b4565b60405161016291906126b2565b60405180910390f35b61018560048036038101906101809190611e63565b61098d565b60405161019291906126d4565b60405180910390f35b6101a3610ca1565b6040516101b091906126b2565b60405180910390f35b6101d360048036038101906101ce9190611e3a565b610d7a565b005b6101ef60048036038101906101ea9190611e3a565b611028565b6040516101fc91906126d4565b60405180910390f35b61020d611048565b60405161021a9190612718565b60405180910390f35b61023d60048036038101906102389190611f8e565b6110da565b60405161024a9190612718565b60405180910390f35b61025b611186565b6040516102689190612675565b60405180910390f35b61028b60048036038101906102869190611e63565b6111b0565b005b6102956113e1565b005b61029f61151c565b6040516102ac919061291f565b60405180910390f35b6102bd6115c1565b6040516102ca9190612675565b60405180910390f35b6102db6115e7565b6040516102e89190612718565b60405180910390f35b61030b60048036038101906103069190611ecf565b611675565b005b61032760048036038101906103229190611f8e565b611a1c565b6040516103349190612675565b60405180910390f35b610345611a5b565b6040516103529190612675565b60405180910390f35b61037560048036038101906103709190611e3a565b611a81565b60405161038291906126d4565b60405180910390f35b610393611b59565b005b61039d611c15565b6040516103aa9190612690565b60405180910390f35b600460009054906101000a900473ffffffffffffffffffffffffffffffffffffffff1673ffffffffffffffffffffffffffffffffffffffff163373ffffffffffffffffffffffffffffffffffffffff1614610443576040517f08c379a000000000000000000000000000000000000000000000000000000000815260040161043a9061279f565b60405180910390fd5b600660009054906101000a900473ffffffffffffffffffffffffffffffffffffffff1673ffffffffffffffffffffffffffffffffffffffff163373ffffffffffffffffffffffffffffffffffffffff16146104d3576040517f08c379a00000000000000000000000000000000000000000000000000000000081526004016104ca906127bf565b60405180910390fd5b600360008273ffffffffffffffffffffffffffffffffffffffff1673ffffffffffffffffffffffffffffffffffffffff16815260200190815260200160002060009054906101000a900460ff1661055f576040517f08c379a0000000000000000000000000000000000000000000000000000000008152600401610556906127ff565b60405180910390fd5b600460009054906101000a900473ffffffffffffffffffffffffffffffffffffffff1673ffffffffffffffffffffffffffffffffffffffff168173ffffffffffffffffffffffffffffffffffffffff1614156105f0576040517f08c379a00000000000000000000000000000000000000000000000000000000081526004016105e79061287f565b60405180910390fd5b6000600360008373ffffffffffffffffffffffffffffffffffffffff1673ffffffffffffffffffffffffffffffffffffffff16815260200190815260200160002060006101000a81548160ff02191690831515021790555060005b60028054905081101561086d578173ffffffffffffffffffffffffffffffffffffffff16600282815481106106a9577f4e487b7100000000000000000000000000000000000000000000000000000000600052603260045260246000fd5b9060005260206000200160009054906101000a900473ffffffffffffffffffffffffffffffffffffffff1673ffffffffffffffffffffffffffffffffffffffff16141561085a57600260016002805490506107049190612a5a565b8154811061073b577f4e487b7100000000000000000000000000000000000000000000000000000000600052603260045260246000fd5b9060005260206000200160009054906101000a900473ffffffffffffffffffffffffffffffffffffffff16600282815481106107a0577f4e487b7100000000000000000000000000000000000000000000000000000000600052603260045260246000fd5b9060005260206000200160006101000a81548173ffffffffffffffffffffffffffffffffffffffff021916908373ffffffffffffffffffffffffffffffffffffffff1602179055506002805480610820577f4e487b7100000000000000000000000000000000000000000000000000000000600052603160045260246000fd5b6001900381819060005260206000200160006101000a81549073ffffffffffffffffffffffffffffffffffffffff0219169055905561086d565b808061086590612b61565b91505061064b565b508073ffffffffffffffffffffffffffffffffffffffff167fa3b62bc36326052d97ea62d63c3d60308ed4c3ea8ac079dd8499f1e9c4f80c0f60405160405180910390a250565b60606001805480602002602001604051908101604052809291908181526020016000905b828210156109845783829060005260206000200180546108f790612b2f565b80601f016020809104026020016040519081016040528092919081815260200182805461092390612b2f565b80156109705780601f1061094557610100808354040283529160200191610970565b820191906000526020600020905b81548152906001019060200180831161095357829003601f168201915b5050505050815260200190600101906108d8565b50505050905090565b6000806000846040516109a09190612647565b90815260200160405180910390206040518060e00160405290816000820180546109c990612b2f565b80601f01602080910402602001604051908101604052809291908181526020018280546109f590612b2f565b8015610a425780601f10610a1757610100808354040283529160200191610a42565b820191906000526020600020905b815481529060010190602001808311610a2557829003601f168201915b50505050508152602001600182018054610a5b90612b2f565b80601f0160208091040260200160405190810160405280929190818152602001828054610a8790612b2f565b8015610ad45780601f10610aa957610100808354040283529160200191610ad4565b820191906000526020600020905b815481529060010190602001808311610ab757829003601f168201915b505050505081526020016002820160009054906101000a900473ffffffffffffffffffffffffffffffffffffffff1673ffffffffffffffffffffffffffffffffffffffff1673ffffffffffffffffffffffffffffffffffffffff1681526020016002820160149054906101000a900460ff1660ff1660ff168152602001600382015481526020016004820160009054906101000a900460ff1615151515815260200160058201805480602002602001604051908101604052809291908181526020018280548015610bc457602002820191906000526020600020905b815481526020019060010190808311610bb0575b50505050508152505090508060a00151610c13576040517f08c379a0000000000000000000000000000000000000000000000000000000008152600401610c0a9061289f565b60405180910390fd5b82604051602001610c249190612647565b60405160208183030381529060405280519060200120816080015114610c7f576040517f08c379a0000000000000000000000000000000000000000000000000000000008152600401610c769061281f565b60405180910390fd5b8360059080519060200190610c95929190611ca3565b50600191505092915050565b60606001805480602002602001604051908101604052809291908181526020016000905b82821015610d71578382906000526020600020018054610ce490612b2f565b80601f0160208091040260200160405190810160405280929190818152602001828054610d1090612b2f565b8015610d5d5780601f10610d3257610100808354040283529160200191610d5d565b820191906000526020600020905b815481529060010190602001808311610d4057829003601f168201915b505050505081526020019060010190610cc5565b50505050905090565b600460009054906101000a900473ffffffffffffffffffffffffffffffffffffffff1673ffffffffffffffffffffffffffffffffffffffff163373ffffffffffffffffffffffffffffffffffffffff1614610e0a576040517f08c379a0000000000000000000000000000000000000000000000000000000008152600401610e019061279f565b60405180910390fd5b600660009054906101000a900473ffffffffffffffffffffffffffffffffffffffff1673ffffffffffffffffffffffffffffffffffffffff163373ffffffffffffffffffffffffffffffffffffffff1614610e9a576040517f08c379a0000000000000000000000000000000000000000000000000000000008152600401610e91906127bf565b60405180910390fd5b600360008273ffffffffffffffffffffffffffffffffffffffff1673ffffffffffffffffffffffffffffffffffffffff16815260200190815260200160002060009054906101000a900460ff1615610f27576040517f08c379a0000000000000000000000000000000000000000000000000000000008152600401610f1e906128bf565b60405180910390fd5b6001600360008373ffffffffffffffffffffffffffffffffffffffff1673ffffffffffffffffffffffffffffffffffffffff16815260200190815260200160002060006101000a81548160ff0219169083151502179055506002819080600181540180825580915050600190039060005260206000200160009091909190916101000a81548173ffffffffffffffffffffffffffffffffffffffff021916908373ffffffffffffffffffffffffffffffffffffffff1602179055508073ffffffffffffffffffffffffffffffffffffffff167fdb33970bd9bc1a413c7dac3b21e061709de094761c9396ef6d49b9ebdb79393360405160405180910390a250565b60036020528060005260406000206000915054906101000a900460ff1681565b60606005805461105790612b2f565b80601f016020809104026020016040519081016040528092919081815260200182805461108390612b2f565b80156110d05780601f106110a5576101008083540402835291602001916110d0565b820191906000526020600020905b8154815290600101906020018083116110b357829003601f168201915b5050505050905090565b600181815481106110ea57600080fd5b90600052602060002001600091509050805461110590612b2f565b80601f016020809104026020016040519081016040528092919081815260200182805461113190612b2f565b801561117e5780601f106111535761010080835404028352916020019161117e565b820191906000526020600020905b81548152906001019060200180831161116157829003601f168201915b505050505081565b6000600660009054906101000a900473ffffffffffffffffffffffffffffffffffffffff16905090565b6000826040516111c09190612647565b908152602001604051809103902060040160009054906101000a900460ff1661121e576040517f08c379a00000000000000000000000000000000000000000000000000000000081526004016112159061289f565b60405180910390fd5b6000826040516020016112319190612647565b604051602081830303815290604052805190602001206000846040516112579190612647565b9081526020016040518091039020600101604051602001611278919061265e565b60405160208183030381529060405280519060200120149050806112d1576040517f08c379a00000000000000000000000000000000000000000000000000000000081526004016112c8906127df565b60405180910390fd5b6000826040516020016112e49190612647565b6040516020818303038152906040528051906020012090506000808560405161130d9190612647565b908152602001604051809103902060030154905080821415611364576040517f08c379a000000000000000000000000000000000000000000000000000000000815260040161135b9061285f565b60405180910390fd5b816000866040516113759190612647565b9081526020016040518091039020600301819055503373ffffffffffffffffffffffffffffffffffffffff167f1b50a644b0847d53b0509345d2ba19a27e755cb5c52b363d882785c5ff7bee7982846040516113d29291906126ef565b60405180910390a25050505050565b600073ffffffffffffffffffffffffffffffffffffffff16600660009054906101000a900473ffffffffffffffffffffffffffffffffffffffff1673ffffffffffffffffffffffffffffffffffffffff161415611473576040517f08c379a000000000000000000000000000000000000000000000000000000000815260040161146a906128df565b60405180910390fd5b600660009054906101000a900473ffffffffffffffffffffffffffffffffffffffff1673ffffffffffffffffffffffffffffffffffffffff167f7f7a416fbf0cacca70e58b8eee9540ca8335651c62f987f130ae945a0d210d3960405160405180910390a26000600660006101000a81548173ffffffffffffffffffffffffffffffffffffffff021916908373ffffffffffffffffffffffffffffffffffffffff160217905550565b600080600560405161152e919061265e565b908152602001604051809103902060040160009054906101000a900460ff1661158c576040517f08c379a00000000000000000000000000000000000000000000000000000000081526004016115839061277f565b60405180910390fd5b6000600560405161159d919061265e565b908152602001604051809103902060020160149054906101000a900460ff16905090565b600460009054906101000a900473ffffffffffffffffffffffffffffffffffffffff1681565b600580546115f490612b2f565b80601f016020809104026020016040519081016040528092919081815260200182805461162090612b2f565b801561166d5780601f106116425761010080835404028352916020019161166d565b820191906000526020600020905b81548152906001019060200180831161165057829003601f168201915b505050505081565b60006001905060005b60018054905081101561177a57600181815481106116c5577f4e487b7100000000000000000000000000000000000000000000000000000000600052603260045260246000fd5b906000526020600020016040516020016116df919061265e565b60405160208183030381529060405280519060200120866040516020016117069190612647565b60405160208183030381529060405280519060200120141561172757600091505b81611767576040517f08c379a000000000000000000000000000000000000000000000000000000000815260040161175e9061283f565b60405180910390fd5b808061177290612b61565b91505061167e565b5060008360405160200161178e9190612647565b6040516020818303038152906040528051906020012090506040518060e001604052808881526020018781526020018473ffffffffffffffffffffffffffffffffffffffff1681526020018660ff168152602001828152602001600115158152602001606467ffffffffffffffff811115611832577f4e487b7100000000000000000000000000000000000000000000000000000000600052604160045260246000fd5b6040519080825280602002602001820160405280156118605781602001602082028036833780820191505090505b508152506000876040516118749190612647565b9081526020016040518091039020600082015181600001908051906020019061189e929190611ca3565b5060208201518160010190805190602001906118bb929190611ca3565b5060408201518160020160006101000a81548173ffffffffffffffffffffffffffffffffffffffff021916908373ffffffffffffffffffffffffffffffffffffffff16021790555060608201518160020160146101000a81548160ff021916908360ff1602179055506080820151816003015560a08201518160040160006101000a81548160ff02191690831515021790555060c082015181600501908051906020019061196a929190611d29565b509050506001869080600181540180825580915050600190039060005260206000200160009091909190915090805190602001906119a9929190611ca3565b5085600590805190602001906119c0929190611ca3565b503373ffffffffffffffffffffffffffffffffffffffff167fb55f2195f4d9bf657054eaed9581ba0a67e1eec660941cf665585e5352fcbea0888888604051611a0b9392919061273a565b60405180910390a250505050505050565b60028181548110611a2c57600080fd5b906000526020600020016000915054906101000a900473ffffffffffffffffffffffffffffffffffffffff1681565b600660009054906101000a900473ffffffffffffffffffffffffffffffffffffffff1681565b6000600360008373ffffffffffffffffffffffffffffffffffffffff1673ffffffffffffffffffffffffffffffffffffffff16815260200190815260200160002060009054906101000a900460ff16611b0f576040517f08c379a0000000000000000000000000000000000000000000000000000000008152600401611b06906127ff565b60405180910390fd5b81600660006101000a81548173ffffffffffffffffffffffffffffffffffffffff021916908373ffffffffffffffffffffffffffffffffffffffff16021790555060019050919050565b600060058054611b6890612b2f565b905011611baa576040517f08c379a0000000000000000000000000000000000000000000000000000000008152600401611ba1906128ff565b60405180910390fd5b6005604051611bb9919061265e565b60405180910390207f34ed8fb20d85b6fb0e3319e6d5a3ffdec9605b798082611f73aaab3e4ad7d43060405160405180910390a26040518060200160405280600081525060059080519060200190611c12929190611ca3565b50565b60606002805480602002602001604051908101604052809291908181526020018280548015611c9957602002820191906000526020600020905b8160009054906101000a900473ffffffffffffffffffffffffffffffffffffffff1673ffffffffffffffffffffffffffffffffffffffff1681526020019060010190808311611c4f575b5050505050905090565b828054611caf90612b2f565b90600052602060002090601f016020900481019282611cd15760008555611d18565b82601f10611cea57805160ff1916838001178555611d18565b82800160010185558215611d18579182015b82811115611d17578251825591602001919060010190611cfc565b5b509050611d259190611d76565b5090565b828054828255906000526020600020908101928215611d65579160200282015b82811115611d64578251825591602001919060010190611d49565b5b509050611d729190611d76565b5090565b5b80821115611d8f576000816000905550600101611d77565b5090565b6000611da6611da18461296b565b61293a565b905082815260208101848484011115611dbe57600080fd5b611dc9848285612aed565b509392505050565b600081359050611de081612c48565b92915050565b600082601f830112611df757600080fd5b8135611e07848260208601611d93565b91505092915050565b600081359050611e1f81612c5f565b92915050565b600081359050611e3481612c76565b92915050565b600060208284031215611e4c57600080fd5b6000611e5a84828501611dd1565b91505092915050565b60008060408385031215611e7657600080fd5b600083013567ffffffffffffffff811115611e9057600080fd5b611e9c85828601611de6565b925050602083013567ffffffffffffffff811115611eb957600080fd5b611ec585828601611de6565b9150509250929050565b600080600080600060a08688031215611ee757600080fd5b600086013567ffffffffffffffff811115611f0157600080fd5b611f0d88828901611de6565b955050602086013567ffffffffffffffff811115611f2a57600080fd5b611f3688828901611de6565b9450506040611f4788828901611e25565b935050606086013567ffffffffffffffff811115611f6457600080fd5b611f7088828901611de6565b9250506080611f8188828901611dd1565b9150509295509295909350565b600060208284031215611fa057600080fd5b6000611fae84828501611e10565b91505092915050565b6000611fc38383611fe3565b60208301905092915050565b6000611fdb83836120f2565b905092915050565b611fec81612a8e565b82525050565b611ffb81612a8e565b82525050565b600061200c826129d0565b6120168185612a0b565b93506120218361299b565b8060005b838110156120525781516120398882611fb7565b9750612044836129f1565b925050600181019050612025565b5085935050505092915050565b600061206a826129db565b6120748185612a1c565b935083602082028501612086856129ab565b8060005b858110156120c257848403895281516120a38582611fcf565b94506120ae836129fe565b925060208a0199505060018101905061208a565b50829750879550505050505092915050565b6120dd81612aa0565b82525050565b6120ec81612aac565b82525050565b60006120fd826129e6565b6121078185612a2d565b9350612117818560208601612afc565b61212081612c37565b840191505092915050565b6000612136826129e6565b6121408185612a3e565b9350612150818560208601612afc565b61215981612c37565b840191505092915050565b600061216f826129e6565b6121798185612a4f565b9350612189818560208601612afc565b80840191505092915050565b600081546121a281612b2f565b6121ac8186612a4f565b945060018216600081146121c757600181146121d85761220b565b60ff1983168652818601935061220b565b6121e1856129bb565b60005b83811015612203578154818901526001820191506020810190506121e4565b838801955050505b50505092915050565b6000612221601383612a3e565b91507f55736572206e6f742072656769737465726564000000000000000000000000006000830152602082019050919050565b6000612261602b83612a3e565b91507f4f6e6c7920636f6e7472616374206f776e65722063616e20706572666f726d2060008301527f7468697320616374696f6e0000000000000000000000000000000000000000006020830152604082019050919050565b60006122c7603a83612a3e565b91507f4d6574616d61736b206163636f756e7420616e6420616464726573732075736560008301527f6420746f207369676e20696e20646f206e6f74206d617463682e0000000000006020830152604082019050919050565b600061232d600e83612a3e565b91507f496e76616c696420656d61696c2e0000000000000000000000000000000000006000830152602082019050919050565b600061236d601d83612a3e565b91507f546869732061646472657373206973206e6f7420616e2061646d696e2e0000006000830152602082019050919050565b60006123ad601683612a3e565b91507f50617373776f726420697320696e636f72726563742e000000000000000000006000830152602082019050919050565b60006123ed602c83612a3e565b91507f456d61696c20697320616c72656164792072656769737465726564206279206160008301527f6e6f7468657220757365722e00000000000000000000000000000000000000006020830152604082019050919050565b6000612453603483612a3e565b91507f4e65772070617373776f72642063616e6e6f74206265207468652073616d652060008301527f617320746865206f6c642070617373776f72642e0000000000000000000000006020830152604082019050919050565b60006124b9602183612a3e565b91507f4f776e65722063616e6e6f742062652072656d6f7665642061732061646d696e60008301527f2e000000000000000000000000000000000000000000000000000000000000006020830152604082019050919050565b600061251f601483612a3e565b91507f55736572206e6f7420726567697374657265642e0000000000000000000000006000830152602082019050919050565b600061255f602183612a3e565b91507f54686973206164647265737320697320616c726561647920616e2061646d696e60008301527f2e000000000000000000000000000000000000000000000000000000000000006020830152604082019050919050565b60006125c5602083612a3e565b91507f4e6f2061646d696e2069732063757272656e746c79207369676e656420696e2e6000830152602082019050919050565b6000612605601f83612a3e565b91507f4e6f20757365722069732063757272656e746c79207369676e656420696e2e006000830152602082019050919050565b61264181612ae0565b82525050565b60006126538284612164565b915081905092915050565b600061266a8284612195565b915081905092915050565b600060208201905061268a6000830184611ff2565b92915050565b600060208201905081810360008301526126aa8184612001565b905092915050565b600060208201905081810360008301526126cc818461205f565b905092915050565b60006020820190506126e960008301846120d4565b92915050565b600060408201905061270460008301856120e3565b61271160208301846120e3565b9392505050565b60006020820190508181036000830152612732818461212b565b905092915050565b60006060820190508181036000830152612754818661212b565b90508181036020830152612768818561212b565b90506127776040830184612638565b949350505050565b6000602082019050818103600083015261279881612214565b9050919050565b600060208201905081810360008301526127b881612254565b9050919050565b600060208201905081810360008301526127d8816122ba565b9050919050565b600060208201905081810360008301526127f881612320565b9050919050565b6000602082019050818103600083015261281881612360565b9050919050565b60006020820190508181036000830152612838816123a0565b9050919050565b60006020820190508181036000830152612858816123e0565b9050919050565b6000602082019050818103600083015261287881612446565b9050919050565b60006020820190508181036000830152612898816124ac565b9050919050565b600060208201905081810360008301526128b881612512565b9050919050565b600060208201905081810360008301526128d881612552565b9050919050565b600060208201905081810360008301526128f8816125b8565b9050919050565b60006020820190508181036000830152612918816125f8565b9050919050565b60006020820190506129346000830184612638565b92915050565b6000604051905081810181811067ffffffffffffffff8211171561296157612960612c08565b5b8060405250919050565b600067ffffffffffffffff82111561298657612985612c08565b5b601f19601f8301169050602081019050919050565b6000819050602082019050919050565b6000819050602082019050919050565b60008190508160005260206000209050919050565b600081519050919050565b600081519050919050565b600081519050919050565b6000602082019050919050565b6000602082019050919050565b600082825260208201905092915050565b600082825260208201905092915050565b600082825260208201905092915050565b600082825260208201905092915050565b600081905092915050565b6000612a6582612ad6565b9150612a7083612ad6565b925082821015612a8357612a82612baa565b5b828203905092915050565b6000612a9982612ab6565b9050919050565b60008115159050919050565b6000819050919050565b600073ffffffffffffffffffffffffffffffffffffffff82169050919050565b6000819050919050565b600060ff82169050919050565b82818337600083830152505050565b60005b83811015612b1a578082015181840152602081019050612aff565b83811115612b29576000848401525b50505050565b60006002820490506001821680612b4757607f821691505b60208210811415612b5b57612b5a612bd9565b5b50919050565b6000612b6c82612ad6565b91507fffffffffffffffffffffffffffffffffffffffffffffffffffffffffffffffff821415612b9f57612b9e612baa565b5b600182019050919050565b7f4e487b7100000000000000000000000000000000000000000000000000000000600052601160045260246000fd5b7f4e487b7100000000000000000000000000000000000000000000000000000000600052602260045260246000fd5b7f4e487b7100000000000000000000000000000000000000000000000000000000600052604160045260246000fd5b6000601f19601f8301169050919050565b612c5181612a8e565b8114612c5c57600080fd5b50565b612c6881612ad6565b8114612c7357600080fd5b50565b612c7f81612ae0565b8114612c8a57600080fd5b5056fea26469706673582212205a5cd81e0258ee6805b326a85db833268d3d9ed1e960926e7835babb27291b3364736f6c63430008000033",
  "immutableReferences": {},
  "source": "// SPDX-License-Identifier: MIT\r\npragma solidity ^0.8.0;\r\n\r\ncontract UserAuth {\r\n    struct User {\r\n        string name;\r\n        string email;\r\n        address refundAddress;\r\n        uint8 age;\r\n        bytes32 hashedPassword;\r\n        bool isRegistered;\r\n        uint256[] subscribedPackages;\r\n    }\r\n\r\n    mapping(string => User) private users;\r\n\r\n    string[] public registeredUserEmails; // External array to store all registered users' email\r\n    address[] public adminAddresses; // Array to store all admin addresses\r\n\r\n    mapping(address => bool) public admins; // Mapping to keep track of admins\r\n    address public owner; // Contract owner\r\n\r\n    string public currentUser; // For other contracts to know who the current user is\r\n    address public currentAdmin; // For other contracts to know who the current admin is\r\n\r\n    event UserRegistered(\r\n        address indexed userAddress,\r\n        string _name,\r\n        string email,\r\n        uint8 _age\r\n    );\r\n    event PasswordReset(\r\n        address indexed userAddress,\r\n        bytes32 oldHashedPassword,\r\n        bytes32 newHashedPassword\r\n    );\r\n    event AdminAssigned(address indexed adminAddress);\r\n    event AdminRemoved(address indexed adminAddress);\r\n    event UserLoggedOut(string indexed email);\r\n    event AdminLoggedOut(address indexed adminAddress);\r\n\r\n    modifier onlyOwner() {\r\n        require(\r\n            msg.sender == owner,\r\n            \"Only contract owner can perform this action\"\r\n        );\r\n        _;\r\n    }\r\n\r\n    modifier onlyAdmin() {\r\n        require(admins[msg.sender], \"Only admins can perform this action\");\r\n        _;\r\n    }\r\n\r\n    modifier sameAdmin() {\r\n        require(\r\n            msg.sender == currentAdmin,\r\n            \"Metamask account and address used to sign in do not match.\"\r\n        );\r\n        _;\r\n    }\r\n\r\n    constructor() {\r\n        owner = msg.sender; // Set contract creator as the first admin\r\n        admins[msg.sender] = true;\r\n        adminAddresses.push(msg.sender); // Add owner to adminAddresses array\r\n    }\r\n\r\n    // Register a new user with additional attributes and hashed password\r\n    function register(\r\n        string memory _name,\r\n        string memory _email,\r\n        uint8 _age,\r\n        string memory _password,\r\n        address _refundAddress\r\n    ) public {\r\n        bool validEmail = true;\r\n        for (uint i = 0; i < registeredUserEmails.length; i++) {\r\n            if (\r\n                keccak256(abi.encodePacked(_email)) ==\r\n                keccak256(abi.encodePacked(registeredUserEmails[i]))\r\n            ) {\r\n                validEmail = false;\r\n            }\r\n            require(validEmail, \"Email is already registered by another user.\");\r\n        }\r\n\r\n        bytes32 hashedPassword = keccak256(abi.encodePacked(_password)); // Hash the password\r\n        users[_email] = User({\r\n            name: _name,\r\n            email: _email,\r\n            age: _age,\r\n            refundAddress: _refundAddress,\r\n            hashedPassword: hashedPassword,\r\n            isRegistered: true,\r\n            subscribedPackages: new uint256[](100)\r\n        });\r\n\r\n        // Add the user address to the external registeredUsers array\r\n        registeredUserEmails.push(_email);\r\n        currentUser = _email;\r\n\r\n        emit UserRegistered(msg.sender, _name, _email, _age);\r\n    }\r\n\r\n    // Admin sign in using just the address\r\n    function adminSignIn(address _adminAddress) public returns (bool) {\r\n        require(admins[_adminAddress], \"This address is not an admin.\");\r\n\r\n        currentAdmin = _adminAddress;\r\n        return true;\r\n    }\r\n\r\n    // Admin function to assign a new admin\r\n    function assignAdmin(address _adminAddress) public onlyOwner sameAdmin {\r\n        require(!admins[_adminAddress], \"This address is already an admin.\");\r\n        admins[_adminAddress] = true;\r\n\r\n        adminAddresses.push(_adminAddress);\r\n\r\n        emit AdminAssigned(_adminAddress);\r\n    }\r\n\r\n    // Admin function to remove an admin\r\n    function removeAdmin(address _adminAddress) public onlyOwner sameAdmin {\r\n        require(admins[_adminAddress], \"This address is not an admin.\");\r\n        require(_adminAddress != owner, \"Owner cannot be removed as admin.\");\r\n        admins[_adminAddress] = false;\r\n\r\n        for (uint i = 0; i < adminAddresses.length; i++) {\r\n            if (adminAddresses[i] == _adminAddress) {\r\n                adminAddresses[i] = adminAddresses[adminAddresses.length - 1];\r\n                adminAddresses.pop();\r\n                break;\r\n            }\r\n        }\r\n\r\n        emit AdminRemoved(_adminAddress);\r\n    }\r\n\r\n    // Sign in using email and password\r\n    function signIn(\r\n        string memory _identifier,\r\n        string memory _password\r\n    ) public returns (bool) {\r\n        User memory user = users[_identifier];\r\n        require(user.isRegistered, \"User not registered.\");\r\n        require(\r\n            user.hashedPassword == keccak256(abi.encodePacked(_password)),\r\n            \"Password is incorrect.\"\r\n        );\r\n\r\n        currentUser = _identifier;\r\n        return true;\r\n    }\r\n\r\n    // Reset password\r\n    function resetPassword(\r\n        string memory _identifier,\r\n        string memory _newPassword\r\n    ) public {\r\n        require(users[_identifier].isRegistered, \"User not registered.\");\r\n        bool isValid = keccak256(abi.encodePacked(users[_identifier].email)) ==\r\n            keccak256(abi.encodePacked(_identifier));\r\n        require(isValid, \"Invalid email.\");\r\n\r\n        bytes32 newHashedPassword = keccak256(abi.encodePacked(_newPassword));\r\n        bytes32 oldHashedPassword = users[_identifier].hashedPassword;\r\n\r\n        require(\r\n            newHashedPassword != oldHashedPassword,\r\n            \"New password cannot be the same as the old password.\"\r\n        );\r\n\r\n        users[_identifier].hashedPassword = newHashedPassword;\r\n\r\n        emit PasswordReset(msg.sender, oldHashedPassword, newHashedPassword);\r\n    }\r\n\r\n    // Logout for the current user\r\n    function logoutUser() public {\r\n        require(\r\n            bytes(currentUser).length > 0,\r\n            \"No user is currently signed in.\"\r\n        );\r\n        emit UserLoggedOut(currentUser);\r\n        currentUser = \"\"; // Reset current user\r\n    }\r\n\r\n    // Logout for the current admin\r\n    function logoutAdmin() public {\r\n        require(currentAdmin != address(0), \"No admin is currently signed in.\");\r\n        emit AdminLoggedOut(currentAdmin);\r\n        currentAdmin = address(0); // Reset current admin\r\n    }\r\n\r\n    // Function to get all registered user emails\r\n    function getAllRegisteredUsers() public view returns (string[] memory) {\r\n        return registeredUserEmails;\r\n    }\r\n\r\n    // Function to get all registered admin addresses\r\n    function getAllAdmins() public view returns (address[] memory) {\r\n        return adminAddresses;\r\n    }\r\n\r\n    function getUserAge() public view returns (uint8) {\r\n        require(users[currentUser].isRegistered, \"User not registered\");\r\n        return users[currentUser].age;\r\n    }\r\n\r\n    function getCurrentUser() public view returns (string memory) {\r\n        return (currentUser);\r\n    }\r\n\r\n    function getCurrentAdmin() public view returns (address) {\r\n        return (currentAdmin);\r\n    }\r\n\r\n    function getRegisteredUserEmails() public view returns (string[] memory) {\r\n        return (registeredUserEmails);\r\n    }\r\n}",
  "sourcePath": "C:\\Users\\keeke\\Desktop\\BlockChain\\Great_Global\\Danny_Test\\SponsorAnimals\\contracts\\UserAuth.sol",
  "compiler": {
    "name": "solc",
    "version": "0.8.0+commit.c7dfd78e.Emscripten.clang"
  },
  "schemaVersion": "3.4.16",
  "updatedAt": "2024-09-26T07:45:19.055Z",
  "devdoc": {
    "kind": "dev",
    "methods": {},
    "version": 1
  },
  "userdoc": {
    "kind": "user",
    "methods": {},
    "version": 1
  }
}